:100000000C94D9050C9420060C9420060C94CD2B4E
:100010000C9420060C9420060C9420060C942006C8
:100020000C9420060C9420060C94EF270C94AB271C
:100030000C94F02A0C9420060C9420060C942006B4
:100040000C9420060C9420060C9420060C94200698
:100050000C9420060C94CC2A0C9420060C942006B8
:100060000C9420060C9420060C9420060C94200678
:100070000C9420060C9420060C9420060C94200668
:100080000C9420060C9420060C9420060C94200658
:100090000C9420060C9420060C9420060C94200648
:1000A0000C9420060C9420060C942006E300E0003B
:1000B000E000E3001B081B010608060119081901EE
:1000C000190E1903190A19031D081D011D0A1D0324
:1000D000210B160A220A460008040814150A3E01DC
:1000E00016081601040804017F00A8008000A9007A
:1000F0008100AA00290C4C054800BD004700BE0045
:10010000500450044F044F04080F290330083001F5
:100110003808380152084A0851084D0850084A006A
:100120004F084D000B0851081A083D040908090141
:100130000A080A010A0A0A03090C0B012C0816080E
:100140002F084D002C09370814090F083304211417
:100150002A042A014000AC004200AB004100AE007E
:100160000F0B5008150B4F08100B5208180B00000E
:1001700014083D04E000E3002A080E032A084C009E
:100180002A0C4C0238006402295D27026402295DB2
:100190002E022D0250002E001E02500024023002BA
:1001A000295D30022402295D30001E00295D3800DF
:1001B0001E00295D64022702295D64002702295D73
:1001C0001E022702295D6402295D295D2402640262
:1001D000295D6400295D295D64002402295D6400B5
:1001E0006400295D64026402295D1E022702295D04
:1001F00064022702295D64002702295D2F002C007C
:10020000295D2F022C00295D050F5025380413208D
:10021000380614200D06AF0022041E2237062620C1
:100220001304C0032106A3002704602227064822E6
:100230003206BB00640665223406AB006404642207
:100240003506B0001504AE000B0422212006222042
:100250000604A9000E0F3C25000000000004000069
:100260000100063D5D3E5D01060F070F06465D4736
:100270005D06445D455D011E011E03011F011F0354
:100280000120012003025A5D5B5D040200030006A9
:100290004B5D495D064C5D485D0404000500025459
:1002A0005D535D02565D575D052502260205370048
:1002B000360002855D865D010C0F0D0F010A0F0BE4
:1002C0000F0000001214009E940001983B7500007E
:1002D0000126AD010728000000000000000B2E00E1
:1002E00011422400000F0200000114000000000071
:1002F00000000000000000000000000000000000FE
:10030000FFFFFFD4D4D47373733838382121214DC3
:100310004D4D8F8F8FE8E8E878787838383829297C
:10032000290F0F0F00000012121214141400000005
:1003300000000000000000000000000000000017A6
:1003400000383500851F00B80108D520009427002B
:10035000943500751C003D19013729016525006B96
:100360002D00701900420C001F0B001F0000000040
:100370000000100029000000000000000000FFFF46
:10038000FFB6992FC26700BD42008E4C01BD6E00C2
:10039000FFDD00EEE6BF98957CA8840075500056FE
:1003A00037012D1B01462901614200241100241749
:1003B000002415000E09010F0800000000F60909CD
:1003C000A38D00006B1B18086830069300737574CA
:1003D000C200FAA005F5F9011BA30000576624002E
:1003E000661D0061004152008A4E015641013037BE
:1003F000001442000F33001D33002E2300000000C4
:1004000000000000000000000000000000000000EC
:100410007E0F00D4FFFFFFC700000078000000003F
:10042000000000002A2B280000000000000000004F
:100430000000000000000029000000002C1E3420F5
:10044000212224342627252E362D3738271E1F201B
:100450002122232425263333362E37381F04050660
:100460000708090A0B0C0D0E0F10111213141516A4
:100470001718191A1B1C1D2F3130232D35040506A2
:100480000708090A0B0C0D0E0F1011121314151684
:100490001718191A1B1C1D2F3130354C0001010192
:1004A0000101010101010202020202020202020331
:1004B0000303030303030304040404040404050501
:1004C00005050506060606060707070707080808C4
:1004D00008090909090A0A0A0B0B0B0C0C0C0D0D73
:1004E0000D0E0E0E0F0F0F1010111111121213130B
:1004F0001414151516161717181819191A1A1B1B84
:100500001C1D1D1E1E1F20202122222324242526DF
:1005100026272829292A2B2C2D2D2E2F3031323217
:10052000333435363738393A3B3C3D3E3F40414223
:10053000434445464748494A4C4D4E4F5051535409
:10054000555658595A5B5D5E5F61626465666869BD
:100550006B6C6D6F7072737577787A7B7D7E80823D
:10056000838587888A8C8E8F91939596989A9C9E86
:10057000A0A2A3A5A7A9ABADAFB1B3B5B7BABCBE96
:10058000C0C2C4C6C9CBCDCFD1D4D6D8DBDDDFE263
:10059000E4E7E9EBEEF0F3F5F8FAFDFF7E780043CF
:1005A000007E0F625E02D60F625E03D50F625E04AC
:1005B000CE0F625E00D6580F0006D5580F0007CE4A
:1005C000580F0000D678787809D57878780ACE78F0
:1005D000787800D67800430CD57800430DCE7800AB
:1005E000430E7E19001400D60E014C10D50E014C9E
:1005F00011CE0E014C121A0E014C003802040F2BC2
:1006000002090F0F0F335D140019000800150009CF
:1006100000325D04001600070017000A00345D1D5B
:10062000001B000E0006001A000000000000002B56
:100630005D2C002C5DC25D130012000C0018001C24
:1006400000315D365D0F00050011000B00305D2F9D
:100650005DC35D360010000D000000000000002E9C
:100660005D2D5D355D290001570000805D5D5D06F3
:1006700057B45D00007E5D815D7F5D0757605D6200
:100680005D615D6F5D0A5708570000000000002B98
:100690005D00002C5D00000000AA5DA95DA85DB1B1
:1006A0005D00000000AD5DAC5DAB5DB25D000000C3
:1006B00000B05DAF5DAE5DB35D0000000000002ED8
:1006C0005D2D5D355D0000765DB75DA25DB65DBCFC
:1006D0005DE3005F5D5E5D585D595DBB5DB55D6569
:1006E0005D645D0F570E57555D0000000000002B44
:1006F0005DC65D00002A00220220001F001E00408F
:100700005D30003800230022002100115730022400
:100710000226002500240010570000000000004EB3
:100720005D2700355DA35D2E001F1452002F14308D
:100730001424022E02500051004F003A5D3514007F
:10074000000000775D2014395D0000000000002BE0
:100750005DE1002C5D4C001E021E14055704570B72
:100760005730022D022302260225020C570D574E48
:100770005D2202321434144A5D0000000000002E95
:100780005D2D5D355D2B00000000000000000000C5
:1007900000C65D00000000000000000000C65D0013
:1007A000000000000000000000000000000000C683
:1007B0005D2C00C65D2A00220220001F001E0040A2
:1007C0005D30003800230022002100115730022440
:1007D0000226002500240010570000000000004EF3
:1007E0005D270028000000000000004B0000000012
:1007F000008B5D0000665D4E00675D00000000A597
:100800005D14570357025700000000000000002B42
:100810005DE1002C5D7A5D01576A5D695D745D0084
:100820000000004C005200725D715D735DE1004F8D
:100830000051005000755D00000000000000002E17
:100840005D2D5D355D0000000000006B5D00000067
:10085000008A5D35026D5D6C5D6E5D00000000001C
:100860000000000000000000000000000000002B5D
:100870005DE1002C5D00008F5D35008D5D00009313
:100880005D9C5D0000905D0000795D955D0000005D
:100890000020028E5D0000915D0000000000002E2F
:1008A0005D2D5D355D0000000000000000000000CF
:1008B00000895D0000000000000000000000000052
:1008C0000000000000000000000000000000002BFD
:1008D0005D2C002C5D13570957000000000000003C
:1008E00000B55DA45DBF5DBE5D0000000000007D41
:1008F0005D7C5D7B5D685D00000000000000002EF7
:100900005D2D5D355D0000000000005C5D985D239D
:10091000148C5D000000000000995D0000000000E4
:1009200000000000009B5D000000000000000000CF
:10093000000000000012570000975D0000000094C6
:100940005D00000000000000000000965D00000057
:1009500000000000000000925D00000000000000A8
:10096000000000000027001400190008001500090D
:10097000001E0004001600070017000A001F001DDB
:10098000001B000E0006001A0000000000000020FE
:1009900000210022002A00130012000C0018001C85
:1009A00000300038000F00050011000B00BD5D266F
:1009B000003700360010000D000000000000002588
:1009C0000024002300E200140019000800150009AB
:1009D00000325D04001600070017000A00345D1D98
:1009E000001B000E0006001A00000000000000E1DD
:1009F000002C00E1002A00130012000C0018001C5B
:100A000000300038000F00050011000B000000004E
:100A1000003700360010000D00000000000000E16B
:100A200000E1002800000000000000C15DC05D0082
:100A300000000000000000C55DC45D000000000073
:100A40000000000000000000000000000000001096
:100A5000501050105000000000B45D000000000075
:100A60000000000000000000000000000000000086
:100A70000000000000000000000000000000001066
:100A8000501050105005010980A101850319012A59
:100A9000B700150126B700950175108100C0050C3F
:100AA0000901A101850419012AA002150126A0024D
:100AB000950175108100C005010906A101050719FE
:100AC000E029E71500250195087501810205FF0958
:100AD00003150025019501750881020507190029F4
:100AE000FF150026FF00950675088100050819010D
:100AF0002905950575019102950175039101C009BC
:100B0000023B00020100A0FA0904000001030101F8
:100B10000009211101000122480007058103080096
:100B20000A0904010001030000000921110100016C
:100B30002232000705820320000A12011001000082
:100B40000008AC0550027400010200014803430094
:100B50006F0072006E00650020004B006500790098
:100B600062006F00610072006400200052006500A6
:100B700076002E003100200028004C006500670040
:100B80006100630079002000530070006C00690070
:100B900074002900000016034100700070006C0012
:100BA0006500200049006E0063002E000000040371
:100BB000090411241FBECFEFDAE0DEBFCDBF04B6BB
:100BC00003FE27C08091C7079091C807A091C9076D
:100BD000B091CA078730904BA740B04BD1F4109228
:100BE000C7071092C8071092C9071092CA0714BE0F
:100BF00084B7877F84BF0FB6F894A8958091600072
:100C0000886180936000109260000FBEE0E0F8E31E
:100C1000099527E0AEE2B6E001C01D92A73CB207FD
:100C2000E1F716E0A0E0B1E0E6E6FFE502C00590DE
:100C30000D92AE32B107D9F70E94CA280C94932FB7
:100C40000C940000E8EDF0E080818E7F80831092AC
:100C5000E2001092DA001092E100A0EEB0E08C9178
:100C600081608C9380818F77808319BCA7EDB0E081
:100C70008C918E7F8C9380818F7E80831092A807C9
:100C800008952091E4003091E50095E6A9012091B6
:100C9000EC00822F817020FF06C08091E80080FF69
:100CA00006C080E008952091E80022FD1AC08091DE
:100CB000B507882389F0853089F08091EB0085FDA8
:100CC0000FC02091E4003091E50042175307F9F27C
:100CD0009150E1F684E0089582E0089583E008955C
:100CE00081E00895EF92FF920F931F93CF937C01C1
:100CF0008B010E944106C82F811117C08091E80026
:100D000085FD0BC08091E8008E778093E8000E94FB
:100D10004106882399F3C82F08C0F70181917F010C
:100D20008093F1000150110949F78C2FCF911F9149
:100D30000F91FF90EF9008958091B70787FF13C040
:100D40008091E80082FF06C08091E8008B77809355
:100D5000E80004C08091B5078111F2CF0895809119
:100D6000B5078823D9F38091E80080FFF8CF809100
:100D7000E8008E77ECCF982F9093E900242F762F00
:100D800050E0891731F07091EC002091ED00509106
:100D9000F00021FD07C09F5F973071F78093E90055
:100DA00081E008953091EB003E7F3093EB0030916D
:100DB000ED003D7F3093ED003091EB0031603093DA
:100DC000EB007093EC002093ED005093F000209125
:100DD000EE0027FDE0CF80E00895CF92DF92EF9202
:100DE000FF920F931F93CF93DF93C8EDD0E08881DC
:100DF0008F7E8883E7EDF0E080818160808384E0EE
:100E000082BF81E08093A80788818E7F888302EE6D
:100E100010E0F80110821092DA0081EEC82ED12C79
:100E2000F601108288818F77888388818068888323
:100E300088818F7D888319BC1092B5071092B60700
:100E40001092B4071092B30790EEE92EF12CF7013F
:100E500080818B7F808388818160888342E060E02D
:100E600080E00E94BB06F60180818E7F8083F801BE
:100E7000808181608083808188608083F7018081A8
:100E80008E7F8083888180618883DF91CF911F91DD
:100E90000F91FF90EF90DF90CF900895FC0180912B
:100EA000BD079091BE0786179707A0F061157105E1
:100EB00029F49091E8009E779093E80090E0611506
:100EC000710551F4911108C08091E80082FF34C08F
:100ED00080E00895BC01F2CF8091B5078823C1F16D
:100EE0008530C1F18091E80083FD30C08091E80039
:100EF00082FDEACF8091E80080FFE1CF8091F3008E
:100F00002091F200382F6115710519F02830310554
:100F100058F091E02830310509F090E02091E80088
:100F20002E772093E800CBCF81918093F100615020
:100F300071092F5F3F4FE7CF8091B507882341F0BC
:100F4000853041F08091E80083FFBECF81E00895B5
:100F500082E0089583E0089508958091AA07089596
:100F60002FB7F89480914A0790914B07A0914C07B6
:100F7000B0914D072FBF0895809590914507982314
:100F80009093450708958091450790914407892BD8
:100F900090914307892B80932E06E0919307F0915F
:100FA0009407309731F00280F381E02D8EE296E0D5
:100FB00009940895E92FEE0FE90FEE0F8E0F982F89
:100FC000977086958695869525E0829FF00111247D
:100FD000EB5DF84F50E040E080E0219130E0092ED9
:100FE00002C0369527950A94E2F721703327042E24
:100FF00001C0220F0A94EAF7822B4F5F5F4F453002
:10100000510559F70895E92FEE0FE90FEE0F8E0FF6
:10101000982F977041E001C0440F9A95EAF78695A2
:101020008695869595E0899FF0011124EB5DF84F38
:1010300030E020E070E05191DF011197CB01022EEA
:1010400002C0969587950A94E2F78170819585276D
:10105000842385278C932F5F3F4F2530310559F727
:101060000895882341F080959091440789238093C7
:1010700044070C94C3070895882339F090914407DE
:10108000982B909344070C94C3070895882321F06C
:101090000E94BC070C94C3070895882339F09091EF
:1010A0004507982B909345070C94C307089520910A
:1010B000FF06309100072817390771F09093000759
:1010C0008093FF06E0919307F0919407309721F009
:1010D0000084F185E02D099408952091FD0630915A
:1010E000FE062817390771F09093FE068093FD06DF
:1010F000E0919307F0919407309721F00680F781F3
:10110000E02D0994089510924407109243070E941D
:10111000C30790E080E00E946D0890E080E00C94AE
:101120005708609387077093880780938907909387
:101130008A070C9483080F931F9341E050E060E00E
:1011400070E004C0440F551F661F771F8A95D2F7C1
:10115000CB01BA01609570958095909500918707B5
:10116000109188072091890730918A0760237123A5
:10117000822393231F910F910C9491080F931F9337
:1011800041E050E060E070E004C0440F551F661F6E
:10119000771F8A95D2F78091870790918807A09151
:1011A0008907B0918A078A019B01082B192B2A2BEA
:1011B0003B2BC901B8011F910F910C9491086093CA
:1011C00046077093470780934807909349070C940C
:1011D0008308E0919307F0919407309721F00190F4
:1011E000F081E02D099480E00895CF93DF93EC0126
:1011F00081E0898B809145079F81892B80934507EA
:10120000809144079885892B809344070E94C307E7
:10121000EA81FB81309739F06C897D89CE01069691
:10122000DF91CF910994DF91CF910895EF92FF92D2
:101230000F931F93CF93DF93EC018A85811139C0FF
:10124000EB80FC8087E5F81A26E12E9DC0012F9DDA
:10125000900D1124DC01AF5ABD4F1496ED91FC9115
:101260001597309731F054966D917C91895A9D4F26
:10127000099586E18E9D80018F9D100D11240F5AD6
:101280001D4FF80187810E94BC07F8018085982FC7
:101290009095809144078923809344070E94C30757
:1012A000188219861B861E821D82109221071092B9
:1012B0002007DF91CF911F910F91FF90EF9008953C
:1012C0001092770784E0809378070895FA018111DE
:1012D00001C0FB010994E8E5F6E081836083428365
:1012E000339696E0EA3FF907C1F70895FC01EE0F47
:1012F000FF1FE80FF91FE85AF94F618340832283EB
:1013000008958091BF07837011F010920A048091B4
:10131000BF078C7F8093BF0708958091BF078370BC
:1013200011F410920A048091BF078C7F8160809332
:10133000BF0708950C946B09972F70E026E0929FE9
:10134000600D711D1124FB0140E3849FE00DF11D30
:101350001124EE0FFF1FEB5FF94F25913491C90166
:101360002238310591F1C0F52133310509F490C0DF
:1013700028F52932310509F484C02A32310509F4EF
:101380008EC0211540E5340708F0A4C0211540E4C3
:10139000340708F026C12F3B310508F087C0283AF2
:1013A000310508F013C1253A310508F006C1243093
:1013B000310500F521303105E9F03CC02533310518
:1013C00009F458C029333105E1F620918B072370C9
:1013D00089F080EE90E00895233E310571F158F4D4
:1013E000203E3105E9F0223E310559F620918B0768
:1013F00022FD1EC00895263E310551F1273E3105DC
:1014000071F1243E310509F0BCCF20918C0721FFFA
:10141000F1CF80918B0784FD0DC087EE90E0089599
:1014200020918B0720FD0CC130918C0730FFE2CF5B
:1014300024FF09C190E080E0DDCF20918B0722FDE1
:1014400005C130918C0730FDC4CF24FFD3CFF2CF3C
:1014500020918B0723FFCECF24FDECCFDECF209150
:101460008B0723FDF6C030918C0731FFEECF84EE61
:1014700090E0089520918B0725FFBCCF89E290E092
:10148000089520918B0725FFB5CF85E390E008955F
:1014900020918B0726FFAECF8AE290E0089520913D
:1014A0008B0726FFA7CF81E390E00895283E310502
:1014B00058F4213E310508F09DCF2F3B310509F04E
:1014C000B9CF80E090E708953A9521153F4108F49F
:1014D00091CFB0CF211583E5380738F5211592E576
:1014E000390708F087C0211541E5340708F07DC0B1
:1014F000C90164E0969587956A95E1F7382F3370B6
:10150000822F86958695837040E2849FC0011124C6
:10151000932B237041E050E002C0440F551F2A95E1
:10152000E2F7842B952B9C680895211589E53807EF
:10153000F0F4211598E5390708F06FC0211544E54E
:10154000340708F077CFA9014370552781E090E078
:1015500002C0880F991F4A95E2F72695269540E22A
:10156000249F90011124822B932B9A6808952115B2
:101570008AE5380708F05ECF822F8F7040918B0785
:1015800042FF05C023FF4EC0822F87708460909178
:101590008C0790FF07C0982F9871983009F048C0C9
:1015A000877F816044FD877E94E0369527959A95E4
:1015B000E1F72F70922F90690895255AE22FF0E0FD
:1015C000E950FA4F808190E090640895285AE22F04
:1015D000F0E0EE0FFF1FE650FA4F80819181946496
:1015E0000895C9019F70906A0895922F8827816F8E
:1015F000906A0895A9014370552781E090E002C0E8
:10160000880F991F4A95E2F72695269540E2249F78
:1016100090011124822B932B86CF922F8827806FE5
:10162000906A089522FFB3CF822F8B708860AFCF6E
:10163000982F9171913009F0B5CF8E7F8860B2CF2D
:1016400089E390E0089583EE90E0089582EE90E0C3
:10165000089586EE90E00895BF92CF92DF92EF92C8
:10166000FF920F931F93CF93DF938C01C090870756
:10167000D0908807E0908907F0908A07809146070C
:1016800090914707A0914807B0914907C82AD92AE5
:10169000EA2AFB2ACFE1D0E0BC2ED701C6010C2EEE
:1016A00004C0B695A795979587950A94D2F780FDC3
:1016B0000EC0219788F7B12C8B2DDF91CF911F9110
:1016C0000F91FF90EF90DF90CF90BF900895B801F9
:1016D0008C2F0E949C09019761F3EECFCF93DF938B
:1016E0009C013A9521153F4168F5EC01CC27D1705A
:1016F000DC01AA27B270AC01442754709C01222758
:10170000387094FF11C080E1CD2B09F480E0AB2B41
:1017100009F08062452B09F08064232B09F0806872
:10172000FB01DF91CF91099481E0CD2B09F480E09A
:10173000AB2B09F08260452B09F08460232B81F3E9
:101740008860EECFDF91CF9108954F925F926F92B4
:101750007F928F929F92AF92BF92DF92EF92FF9211
:101760000F931F93CF93DF93C82F4A015B0120E0B3
:1017700030E040EF52E4CB01B4010E940B2F181669
:1017800034F4812C912C90EFA92E92E4B92E20E014
:1017900030E04FE753E4C501B4010E94B82D2B019E
:1017A0003C018FE3C802E0011124CF53DD4F86E0F6
:1017B000E82EF12CFE013296649180904D029090BB
:1017C0004E02A0904F02B090500231971491FE014A
:1017D000049170E090E080E00E945B2EA3019201F2
:1017E0000E94102FA50194010E94102F0E942A2E02
:1017F000D62E612F70E090E080E00E945B2EA30166
:1018000092010E94102FA50194010E94102F0E94A6
:101810002A2E162F602F70E090E080E00E945B2E51
:10182000A30192010E94102FA50194010E94102F84
:101830000E942A2E2D2D412FC7010E947609239642
:10184000FFEFEF1AFF0A8BE1E816F10409F0B2CFBF
:10185000DF91CF911F910F91FF90EF90DF90BF909C
:10186000AF909F908F907F906F905F904F90089572
:10187000E0914906F0914A0680E191E0309711F03D
:10188000815009F40895938B0688F789E02DF6CFEF
:1018900080911B0790911C07892B19F481E080939C
:1018A0001D0781E0089581559D45880F991FE0919E
:1018B0001807E80FF92FF11DEE0FFF1FE455FF4F3A
:1018C000859194910895CF93DF93A5EEB5E049EE0D
:1018D00055E0C1E0D0E08D91E82FE295EF70F0E0A7
:1018E00061A18F709E0101C0220F8A95EAF7922FA5
:1018F0009095962391A382A1822B82A34A175B071E
:1019000051F7DF91CF910895CF9384E090E00E944A
:10191000042DC82F81E290E00E94042D982F8C2F77
:10192000CF910895CF93DF9300D00F92CDB7DEB75C
:101930009091B507943019F589837B836A8382E09F
:101940008093E9008FEF9091E800815095FD06C0EB
:1019500095ED9A95F1F700008111F5CF8091E8009F
:1019600085FF0DC050E040E063E070E0CE010196DD
:101970000E9472068091E8008E778093E8000F90B5
:101980000F900F90DF91CF910895BC0184E00C94EB
:10199000920CBC0183E00C94920CCF93DF93EC018A
:1019A00081E08093E9008FEF9091E800815095FDF0
:1019B00006C095ED9A95F1F700008111F5CF809161
:1019C000E80085FF14C050E040E068E070E0CE0120
:1019D0000E9472068091E8008E778093E80088E08C
:1019E000FE01ABEAB7E001900D928A95E1F7DF9135
:1019F000CF910895539A3BB1377F2BB128604FB7F1
:101A0000F89488E596E0FC015191CF0168E02BB98C
:101A1000000000C057FF3BB9550F000000C000C0D8
:101A200000C03BB900C06A9591F7F6E08A3F9F0776
:101A300051F74FBF8FE594E00197F1F700C0000028
:101A4000089580914406811111C08091D800806171
:101A50008093D8008AE18A95F1F700C09091D9006F
:101A6000892F817090FF82E08093440681E09091FD
:101A70004406913009F080E008958F929F92AF92D2
:101A8000BF92CF92DF92EF92FF920F931F93CF936B
:101A9000DF938091F704C4E0D0E0882311F0D0E018
:101AA000C0E085EEC82E85E0D82EAE014158584FD3
:101AB0007A018A01912CAA24A394B12C25E0822ECC
:101AC000F60181916F01E82FE295EF70F0E021A11E
:101AD0008F70A50102C0440F551F8A95E2F7CA0115
:101AE000922F982B91A392A18095892382A350EAEB
:101AF0005A95F1F7E8E2F6E020E050E040E031915D
:101B0000A32FA295AF70B0E090968C9190E03F70BB
:101B100002C0959587953A95E2F780FD3CC0C501D6
:101B2000042E01C0880F0A94EAF7282B4F5F5F4FFD
:101B30004630510521F7F8018081821729F0208372
:101B400080922601992493940E94630C0F5F1F4F8B
:101B5000F9EECF16F5E0DF0609F0B2CF809126014D
:101B6000882359F08150809326018823B1F08FE9B2
:101B70009FE00197F1F700C00000892DDF91CF9120
:101B80001F910F91FF90EF90DF90CF90BF90AF909B
:101B90009F908F90089580E0C8CFCA56D84F84E0B8
:101BA000F70191917F0199938150D1F7E6CF6CEEC7
:101BB0007EEF90E080E00E94402D60E082E090E0C7
:101BC0000E94222D60E083E090E00E94222D10927E
:101BD000460710924707109248071092490760E0A5
:101BE00084E090E00E94222D60E081E290E00E947B
:101BF000222D60E085E090E00E94222D60E086E0EA
:101C000090E00E94222D6FEF87E090E00E94222D4D
:101C100040E050E0BA0188E090E00E94342D60E09E
:101C20008DE090E00E94222D40E050E0BA0188E172
:101C300090E00E94342D60E087E190E00E94222D28
:101C400040E050E0BA018CE190E00E94342D60E069
:101C500080E290E00E94222D40E050E0BA0188E14D
:101C600090E00E94342D40E050E0BA018FE090E017
:101C70000E94342D40E050E0BA0183E190E00C94E2
:101C8000342D10924507E0E3F6E086E0DF011D9277
:101C90008A95E9F70C9483081F93CF93DF93CDB710
:101CA000DEB7AA970FB6F894DEBF0FBECDBF87EBA5
:101CB00097E02091F100FC012193CF01F7E08F3BE9
:101CC0009F07B9F78091B807833009F46FC0B8F463
:101CD000813009F446C0823009F4B0C08091E80038
:101CE00083FF7BC28091B7079091B8079A3008F0C4
:101CF00074C2E92FF0E0EB56F04D0C94EE2C8A30D4
:101D000009F48BC08B3009F46EC0893039F78091AB
:101D1000B707813219F78091BB079091BC070297F2
:101D2000E8F68091E800877F8093E8008091E800E2
:101D300082FF37C09091F3008091F200029729F45E
:101D40008091F1008B7F813021F48091F1008093AC
:101D5000AA078091E8008B778093E8000E949C0698
:101D6000BDCF8091B707813A09F0B8CF8091E800E4
:101D7000877F8093E8008091BB079091BC07892BF7
:101D800061F468E08BEA97E070E00E944E07809172
:101D9000E8008B778093E800A1CF60E090E080E0DE
:101DA000F3CF8091B5078111C1CF98CF8091B7074C
:101DB000813A09F093CF8091BB079091BC07892BA2
:101DC00009F08CCF8091E800877F8093E8008091B4
:101DD000E80080FFFCCF809105058093F1008091A1
:101DE000E8008E77B9CF8091B707813209F076CFBE
:101DF0008091BB079091BC07892B09F06FCF809130
:101E0000E800877F8093E8000E949C068091B907D4
:101E1000809305050E94410E61CF8091B707813202
:101E200009F05CCF8091E800877F8093E8000E94F2
:101E30009C068091BA078093A90750CF8091B7077D
:101E4000813A09F04BCF8091E800877F8093E800CA
:101E50008091E80080FFFCCF8091A907BECF803839
:101E600099F0823809F0B9C18091BB078F70873033
:101E700008F0B3C18093E9008091EB0085FB8827CF
:101E800080F91092E90006C08091B3079091B407E1
:101E9000911182609091E800977F9093E800809381
:101EA000F1001092F1008091E8008E7792C18823B2
:101EB00009F480C1823009F090C18091B907811185
:101EC00083C18091BB078F702FEF280F263008F059
:101ED00084C18093E9002091EB0020FF75C193300D
:101EE00031F48091EB0080628093EB006DC19091A2
:101EF000EB0090619093EB0021E030E001C0220FF5
:101F00008A95EAF72093EA001092EA008091EB00AC
:101F10008860EACF811161C11091B9071F77809164
:101F2000E3008078812B8093E3008091E800877F35
:101F30008093E8000E949C068091E80080FFFCCF1F
:101F40008091E30080688093E30082E0111183E0D8
:101F50008093B50742C18058823008F03EC180911D
:101F6000B9079091BA078C3D23E09207A1F583E071
:101F70008A838AE289834FB7F894DE01139620E0C2
:101F80003EE051E2E32FF0E050935700E49120FF50
:101F900003C0E295EF703F5FEF708E2F90E0EA3064
:101FA000C0F0C7968D939D932F5F243159F74FBF93
:101FB0008091E800877F8093E8006AE270E0CE01BC
:101FC00001960E944E078091E8008B778093E8008D
:101FD00004C1C096E7CF4091BB075091BC07292FA1
:101FE00033272330310509F444C078F52130310519
:101FF00009F46FC08BE390E0EFEFFAE02230310597
:1020000009F0EBC02091E800277F2093E8002091A1
:10201000BD073091BE078217930708F49C0140E08A
:102020002115310509F064C0411162C08091E800BA
:1020300082FDC9CF8091B507882329F2853019F236
:102040008091E80083FFF2CFBECF21323105A9F1A4
:102050002232310509F0C1C04115510509F443C0D0
:102060004130510509F0B9C082E390E0E5E8FAE0BB
:10207000C9CF992781309105C1F0009759F0029797
:1020800009F0ABC0ECE4FBE0E4918E2F90E0ECE4CF
:10209000FBE007C0EEEAFBE0E4918E2F90E0EEEA71
:1020A000FBE0009709F499C0ADCFE6E9FBE0E491CD
:1020B0008E2F90E0E6E9FBE0F4CF4115510571F079
:1020C0004130510509F089C089E090E0EAE2FBE087
:1020D00099CF82E190E0EAE3FBE094CF89E090E0E1
:1020E000E1E1FBE08FCF88E490E0E7EBFAE08ACF14
:1020F0008091B507882309F466CF853009F463CF52
:102100008091E80083FD5FCF8091E80082FD8ECF53
:102110008091E80080FF84CF9091F3008091F200DD
:102120002115310519F08830910550F041E00897EC
:1021300009F040E08091E8008E778093E80070CF4E
:1021400044914093F1003196215031090196E8CF36
:10215000803809F042C08091E800877F8093E800D2
:102160008091B6078093F1009ECE811136C0109108
:10217000B907123090F58091E800877F8093E800DE
:102180001093B6070E949C06112311F084E005C04D
:102190008091E30087FDFACF81E08093B50742E0AC
:1021A00061EC81E00E94BB0642E261EC82E00E94A9
:1021B000BB0613C08091B907813079F481E0933078
:1021C00009F080E08093B4071092E9008091E80064
:1021D000877F8093E8000E949C068091E80083FF3F
:1021E0000AC08091E800877F8093E8008091EB002F
:1021F00080628093EB00AA960FB6F894DEBF0FBE04
:10220000CDBFDF91CF911F9108950E94410E2FEF16
:1022100084E39CE0215080409040E1F700C0000042
:1022200081E08093E00080E28093D8001092C900A2
:102230008FE19EE40197F1F700C0000087E090EB8A
:10224000DC018093C7079093C807A093C907B09398
:10225000CA0788E19CE00FB6F894A89580936000C7
:102260000FBE90936000FFCF8823B1F19CEF980FD1
:10227000913A78F4E0E3F6E026E336E091918913B1
:1022800003C0DF0111971C922E173F07B9F70C947A
:10229000C30790E2980F983050F4877091E001C026
:1022A000990F8A95EAF7892F0E94BC07F0CF9BE52A
:1022B000980F933020F490E080E00C946D0898E53E
:1022C000980F973120F490E080E00C9457088F3BF2
:1022D00019F410922F06DBCF0895CF93DF93EC0112
:1022E0000E943411CE01805E9109089720F061E3CD
:1022F00078E0209711F466E478E0CE01DF91CF9189
:102300000C946E0B80914B0690914C06009711F047
:102310000E946D1110924C0610924B060895809108
:10232000470690914806009731F00E946D11109277
:1023300048061092470608950C948F110E94530C82
:10234000009711F00C946D11089580911607882361
:1023500069F01092160780911807882321F082EE09
:1023600090E00C946D1183EE90E0FBCF0895809186
:102370001807811103C080EE0C94341180910A0774
:10238000823019F483EE0E94341110920A070895E6
:102390000F931F93CF93C82F882309F46EC08CEF3F
:1023A0008C0F813AA8F500E316E086E396E0F80189
:1023B0002191C217F9F08E179F07D1F7EFEF80E058
:1023C000D8019D918D01C91781F0EF3F19F491114A
:1023D00001C0E82F8F5F863099F7EF3F31F00E2E66
:1023E000000CFF0BE25DF94FC283CF911F910F915B
:1023F0000C94C307E0E3F6E02191C21303C0DF01B0
:1024000011971C928E179F07B9F70E94C307D6CF6A
:1024100080E28C0F883068F4C77021E030E001C0A2
:10242000220FCA95EAF780914507822B80934507D2
:10243000DCCFEBE5EC0FE33050F4F0E0E950FA4F7D
:10244000808190E0CF911F910F910C946D08E8E589
:10245000EC0FE73160F4F0E0EE0FFF1FE650FA4FAB
:1024600080819181CF911F910F910C945708CF3BA0
:1024700021F481E080932F06B8CFCF911F910F9167
:102480000895CF93C82F0E94C811C93349F42FEF84
:1024900087EE93E0215080409040E1F700C00000BB
:1024A0008C2FCF910C9434110F93CF93DF93C42FC3
:1024B000D22FFC018281882399F0409322070E9449
:1024C000B0079093FC068093FB06C77081E001C0C3
:1024D000880FCA95EAF7DF91CF910F910C944D08C0
:1024E00080912207841340C02091FB063091FC06A6
:1024F0009FB7F89440914A0750914B0760914C0761
:1025000070914D079FBF421B530B4A3F510560F529
:10251000C0E2CD0F8D17C1F090E2980F983048F4CB
:10252000877091E001C0990F8A95EAF7892F0E9480
:102530004608C83048F481E09D2F977001C0880F8D
:102540009A95EAF70E944D08802F0E944112C830E8
:1025500090F4D77081E001C0880FDA95EAF7DF9137
:10256000CF910F910C944608C77081E001C0880F8D
:10257000CA95EAF7F4CFDF91CF910F91089580913A
:102580007807813079F0882349F0823039F084303F
:1025900069F08091FA0680934507089582EE0E94C3
:1025A0003411F7CF8CE20E944112F3CF88E2FBCFC7
:1025B000CF92DF92EF92FF920F931F93CF93DF930F
:1025C000EC018AE0C82E8881882309F479C0813023
:1025D000C9F599818A81913029F422960E9441128D
:1025E0002196F1CF923021F422960E94C811F8CFA3
:1025F000933021F422960E943411F2CF943011F0DE
:102600002196EECF229630E020E0AE014F5F5F4F83
:102610008053990B8A30910550F02150310900F315
:102620008FE99FE00197F1F700C00000F6CFC29E4E
:10263000B001C39E700D11249C01260F371F8981A4
:10264000EA01E3CFE82FF0E0E45EFB4FD490082FDF
:1026500006950695069510E0F801E45FFB4FE490BF
:102660008770F12C082E02C0F594E7940A94E2F7E3
:10267000E1E0EE22FF2404501C4FF801049110E029
:1026800002C0159507958A95E2F701701127E114AC
:10269000F10419F081EE0E94C8110115110519F01D
:1026A00086EE0E94C8118D2D0E944112012B19F057
:1026B00086EE0E943411EF2809F492CF81EE9BCF71
:1026C000DF91CF911F910F91FF90EF90DF90CF900E
:1026D0000895CF93DF93EC01805E9109089720F075
:1026E0006CE378E0209711F46DE478E0CE010E946D
:1026F0006E0B8C2FDF91CF910C94C811CF93DF9389
:10270000EC010E946913CE01DF91CF910C946D1101
:102710008FEB0E94C81186E693E00E947E138FEB38
:102720000C943411BF92CF92DF92EF92FF920F93ED
:102730001F93CF93DF936B017C010CE110E0C7E0A6
:10274000D0E0BB24B394D701C601002E04C0B695D7
:10275000A795979587950A94D2F7282F2F70D9F4CB
:10276000B11004C087E290E00E947E1321970450CC
:102770001109CF3FDC0751F4DF91CF911F910F91E9
:10278000FF90EF90DF90CF90BF900895C430D105B7
:10279000D4F6B12CD8CF822F90E02A3028F44D9671
:1027A0000E947E13B12CE2CF0697FACF80914507A5
:1027B0008093FA061092450780917807813089F05E
:1027C000882359F0823091F08430B9F08FE39CE98E
:1027D0000197F1F700C00000089582EE0E94C81131
:1027E000F5CF88E193E00E947E13F0CF82EE0E9445
:1027F000C81187E50E944112E9CF86EE0E9441127E
:1028000088E1F8CF9C0121553D452633310530F450
:102810000E94530C009779F00C947E13FC01E15A4E
:10282000FD45E530F105C0F7EE0FFF1FE550FA4F0B
:1028300085919491F1CF0895CF93DF93209118075C
:10284000FC01E958FD45EE0FFF1FE20FF11DEE0FF1
:10285000FF1FE85FFD4FC591D491211105C0CE0146
:10286000DF91CF910C947E130E94D613BE0190E0AD
:1028700080E00E949213DF91CF910C94BF120F93CE
:102880001F93CF93DF93062F89539D4526E0289F02
:10289000E001299FD00D1124CC57DE4F13E0FE013B
:1028A0008591949189322DE5920759F0002311F01A
:1028B0008AE290E00E947E13113019F011502296A6
:1028C000EECFDF91CF911F910F910895EF92FF927C
:1028D0000F931F93CF93DF9300D000D0CDB7DEB717
:1028E0008C01FB012081318145E0429FC001439F63
:1028F000900D1124FC01E85AFD4F4491FC01E75A68
:10290000FD4F259134913A832983FC01E55AFD4F0F
:10291000859194919C838B83F801808121E030E044
:10292000823011F030E020E0220F331FA1E0B0E050
:10293000AC0FBD1FA20FB31FED90FC90453069F0A6
:10294000463031F10F900F900F900F90DF91CF91A3
:102950001F910F91FF90EF9008958250823020F4E4
:102960008AE290E00E947E13F8018081833019F49E
:10297000C7010E947E13C7010F900F900F900F9018
:10298000DF91CF911F910F91FF90EF900C947E13E8
:102990009EEF980F923080F48250990B880F991F08
:1029A00021E030E02C0F3D1F820F931F61E0FC01FE
:1029B000808191810E943F14F8018081833021F44D
:1029C00060E0C7010E943F1460E0C7010F900F90C4
:1029D0000F900F90DF91CF911F910F91FF90EF908B
:1029E0000C943F14FB014081518165E0649F90018C
:1029F000659F300D1124F901E85AFD4F4491FC0107
:102A00008081813059F4275A3D4FF9018591949185
:102A1000423049F130F4413041F10895255A3D4F9B
:102A2000F4CF433019F0443021F0089560E00C9465
:102A30003F148430910529F138F48230910589F0F2
:102A4000B0F4019761F0089585309105F1F09C0193
:102A500021593D4526303105D8F40C941C140E94B0
:102A6000051180E79DE50E94530C0C947E1382E8CB
:102A70009DE50E94530C90934C0680934B060C945A
:102A800069138BED95E00C94D81281EE95E0FBCFA5
:102A90000895CF93C82F0E94380CCC2399F060E0A2
:102AA00072E080E090E00E94910881EE90E00E9448
:102AB000691380EE90E00E94691382EE90E0CF915E
:102AC0000C94691381EE90E00E946D1180EE90E00D
:102AD0000E946D1182EE90E00E946D1161E070E045
:102AE00080E090E0CF910C9491080E94530C0097E5
:102AF00011F00C946913089580914706909148064F
:102B0000009761F485EE90E00E94691385EE90E0F5
:102B1000909348068093470681E008950E946D11C6
:102B20001092480610924706F7CF80911607811140
:102B30000EC081E08093160780911807882321F04A
:102B400082EE90E00C94691383EE90E0FBCF089541
:102B500080911807811105C080EE0E94C81181E0A4
:102B6000089581E080930A07FACF45E050E06CE1D8
:102B700070E08FEB97E00C94122D9091BF0793704B
:102B800059F08093C0076093C107493708F048E7C0
:102B90004093C2070C94B5150895EFEBF7E043811D
:102BA00028E0421B08F440E08181628190E00C94AF
:102BB000BD15EFEBF7E0438128E0420F08F44FEF3B
:102BC0008181628190E00C94BD15EFEBF7E06281AA
:102BD00028E0621B08F460E08181438190E00C945E
:102BE000BD15EFEBF7E0628128E0620F08F46FEFAC
:102BF0008181438190E00C94BD15EFEBF7E081817A
:102C0000438162818850990B0C94BD15EFEBF7E07E
:102C1000818190E04381628108960C94BD15EFEBB1
:102C2000F7E024813AE0230F08F42FEF24830C947B
:102C3000B515EFEBF7E024813AE0231B08F420E020
:102C400024830C94B5159091BF07937099F081116E
:102C500009C094609093BF0710920A04662351F054
:102C60000C94B515833010F09860F4CF880F880F5E
:102C7000982BF0CF08958091BF0786958695815057
:102C800009F482E061E00C9423168091BF078695D9
:102C900086958F5F833008F081E061E00C94231605
:102CA000EFEBF7E089E080838091060590910705BE
:102CB000A091080581839283A3838FE784830C947A
:102CC000B515CF938091490290914A020196E1F4A3
:102CD00080912304909124040296B1F481E09091B4
:102CE0009207911101C080E0C82FC17080917C07CC
:102CF0008C1741F0882351F00E9481090E94B5157C
:102D0000C0937C07CF91089581E0EECF0E948D099A
:102D1000F5CF8F929F92AF92BF92CF92DF92EF92B8
:102D2000FF920F931F93CF93DF9380910904C0E02C
:102D3000D6E18F3F09F0D4C080914D0690914E06A8
:102D4000A0914F06B09150062FB7F894C0904A0753
:102D5000D0904B07E0904C07F0904D072FBF9701A4
:102D60008601081B190B2A0B3B0BEFB7F894409117
:102D70004A0750914B0760914C0770914D07EFBF88
:102D800040934D0650934E0660934F067093500645
:102D90004091050750910607609107077091080759
:102DA0004F3FEFEF5E076E077E0709F0A5C0C091A9
:102DB0004E07EEE4F7E06C2F70E00197AF4FBF4F86
:102DC0008C199D09AE09BF09C713B2C060934E07A5
:102DD0008091050790910607A0910707B091080719
:102DE00021E08132FEE49F07A105B10508F420E04F
:102DF000D0E081323EE49307A105B10540F4309163
:102E0000BF07D32FD37019F0D32FD695D695309115
:102E10005706321779F02093570620911707211192
:102E200009C081329E44A105B10508F494C081E037
:102E300080937D0780910A04813009F4A5C088231E
:102E400009F48CC0823009F4FAC1833009F401C25C
:102E5000DF91CF911F910F91FF90EF90DF90CF9076
:102E6000BF90AF909F908F900895D29FF001D39F15
:102E7000F00D1124EF5AFD4F428953894115510538
:102E800011F44AEF50E0D29FF001D39FF00D1124CE
:102E9000EF5AFD4F8681882311F1258536856FB75E
:102EA000F89480914A0790914B07A0914C07B091FC
:102EB0004D076FBF821B930B4817590780F4CD9FB6
:102EC000800111248189811105C0C8018F5A9D4F4D
:102ED0000E94F508C801895A9D4F0E941609CF5FCC
:102EE0002C2F30E080910904082E000C990B8217DA
:102EF00093070CF0BACF20CF4801590180949094E9
:102F0000A094B09484169506A606B70660F44FEF19
:102F10005FEFBA01409305075093060760930707D8
:102F20007093080744CF400F511F621F731FF2CFE9
:102F3000418D528D6A01F12CE12C8C159D05AE0559
:102F4000BF0520F461507F5F32963ECF400F511F86
:102F5000528F418FF8CF0E9461166CCF1092F80407
:102F600080914D0690914E06A0914F06B09150066B
:102F70008093530690935406A0935506B09356063B
:102F800081E080930A0464CF80914C02D8133BC047
:102F90009091BF07937020914B0230E081E092172F
:102FA000130609F480E081708093FA04DD2369F14F
:102FB000D13091F51091C007D090C107E091C207C0
:102FC000F0E0E456FB4FD11037C0F4901F2DCF2D09
:102FD00091ECA92E94E0B92ED12CC12CF501819150
:102FE0005F019091F904892331F0212F4F2D6C2F2F
:102FF000C6010E947609FFEFCF1ADF0A26E3C21648
:10300000D10461F709C081E0CECF882329F040E0E8
:1030100060E080E00E949A098091F8048F5F8093BD
:10302000F80482E080930A048091FA04811178C048
:10303000D11179C083E0A5CFED2CF12CC4910C2FD8
:10304000EC2FF0E026E0129FC00111242FEF30E0BA
:10305000B9010E94DA2C812F90E0880F991FA5E515
:10306000A69FA001A79F500D1124841B950B982F9C
:10307000990F890FD901AE19BF09AE9FA001AF9F6B
:10308000500DBE9F500D1124152FD89ED001112434
:10309000AB2FBB276901CA1ADB0ACE9ED001CF9E97
:1030A000B00DDE9EB00D11246901C81AD108CE9C66
:1030B000C001CF9C900DDE9C900D1124892F992783
:1030C000281B390B2E9FC0012F9F900D3E9F900D06
:1030D0001124F92E62307105A1F050F461157105CB
:1030E00009F476CF6130710581F0F52E1B2F70CF7A
:1030F0006430710569F080F06630710509F468CFBD
:10310000F4CFFC2EC52F192F63CFFC2ECB2F60CF11
:10311000F52E1C2FC92F5CCFC52F102FFB2E58CF9B
:10312000DD2309F495CE8091490290914A020196DF
:10313000B1F08091510690915206019790935206FA
:1031400080935106892B59F48FEF9FEF90934A0299
:103150008093490281E080937D070E9461168091EF
:103160007D07882309F474CE40E060E080E00E948F
:103170009A098091490290914A028F3F980709F479
:103180003EC040E050E060EF72E40E94A50BC091A9
:103190009207D0E00DE817E082E9E82E87E0F82EEC
:1031A000209751F1F80121918F012F3F11F1B12C9E
:1031B00045E0240390011124C90184569A4F6C0103
:1031C000FC01849198EC883C20F490E0843608F06F
:1031D00094E620917E07222301F12CE9280F243662
:1031E000F0F4F60134962491B394F4E1BF1223C0B5
:1031F0002197E016F106A1F610927D0729CE809165
:103200002304909124048E3FEFEF9E0709F4BFCF73
:1032100040E050E068EC72E4B8CF843610F3F60179
:10322000339624913197449131976491891B990B7E
:103230000E947609D6CF12160CF4BACFD9CFD0930C
:103240004C028091BF07837080934B020E94FA0C5E
:10325000F1CE4091530650915406609155067091FD
:1032600056062FB7F89480914A0790914B07A0918A
:103270004C07B0914D072FBF841B950BA60BB70BC6
:103280008C329140A105B10508F4E2CD10920A04F8
:10329000DFCD909192076623D9F09530A0F4EDE848
:1032A000F7E030E020E041914F3F41F42357384FA1
:1032B000F90180839F5F9093920705C02F5F3F4F76
:1032C0002530310581F781E080937D070C946116EC
:1032D0009923C9F3EDE8F7E030E020E04191841351
:1032E00007C02357384F8FEFF90180839150E3CF08
:1032F0002F5F3F4F2530310589F7E5CF1F93CF93DF
:10330000DF93C82F162FD42F662391F180934606A2
:103310001092190710921A0780914506C81779F084
:1033200089E30E94C8112FEF8EE595E0215080407F
:103330009040E1F700C0000089E30E943411C0937F
:103340004506112341F060E085E00E9449196C2F89
:1033500081E00E944919DD23F9F060E081E00E94DC
:1033600049196C2F85E0DF91CF911F910C94491979
:10337000442339F0109219071092460680931A07D9
:10338000CBCF80914606811107C080911A07811129
:1033900003C0C0931907C0CFDF91CF911F9108954B
:1033A000CF92DF92FF920F931F93CF93DF93F62E6E
:1033B0006A01EC01CB52DD4588E18C9F80018D9F35
:1033C000100D1124075D1E4FD80111968D919C910F
:1033D000129720910F0730911007662309F47FC0E0
:1033E000820F931F9093100780930F071E96ED9105
:1033F000FC913097D1F0C8010995811116C08091D8
:103400000F0790911007F80121813281821B930BE5
:103410009093100780930F0780E0DF91CF911F9169
:103420000F91FF90DF90CF900895D60113968D9164
:103430009C9128E12C9FF0012D9FF00D1124E75D58
:10344000FE4F958B848B838181110E94BE0888E199
:103450008C9FF0018D9FF00D1124E75DFE4F86815A
:10346000978122853385AC01422B532B452B41F0AC
:103470002115310519F0C9010E94530C0E946913EE
:103480008091140791E0980F90931407811114C054
:1034900010934A060093490680911D07882309F47A
:1034A000BBCF88E18C9FF0018D9FF00D1124E75D6B
:1034B000FE4F81E0838BB0CFE0914906F0914A0640
:1034C00080E1268937892115310511F0815029F4D1
:1034D000178B068B0E94380CDFCFF901F2CF0097D3
:1034E00029F082239323892B09F496CF8091140726
:1034F000882341F0E0914906F0914A06DF0190E10E
:10350000309769F4FF24F39435C00A171B0709F4B8
:10351000F4C056960D90BC91A02D109799F3915040
:10352000A1F7F0CF10924A0610924906EBCFFA01AC
:103530004689578941155105E9F08150D9F04A175C
:103540005B07A9F788E18C9FD0018D9FB00D1124F6
:10355000A75DBE4F56968D919C915797978B868B02
:1035600052961C92529753961C92539757961C92C0
:103570001E92569788E18C9FF0018D9FF00D1124CB
:10358000E75DFE4F81819281281B390B3093100734
:1035900020930F070088F189E02D309711F0C801C2
:1035A000099588E18C9FF0018D9FF00D1124E75D56
:1035B000FE4F8381E0914906F0914A0690E1811126
:1035C0005DC088E18C9FF0018D9FF00D1124E75DB7
:1035D000FE4F8681978122853385AC01422B532B88
:1035E000452B41F02115310519F0C9010E94530CFA
:1035F0000E946D1188E18C9FF0018D9FF00D1124C8
:10360000E75DFE4F8389811168C0248135812115D2
:10361000310561F0D60113968D919C9144895589AD
:10362000841B950B8217930708F057C088E18C9F85
:10363000F0018D9FF00D1124E75DFE4F808591858F
:10364000009741F110911D0711112AC020911B070D
:1036500030911C07232BF1F48D34BDE59B07A9F0B5
:10366000813AEDE59E07C1F00E94021413C0238148
:10367000821709F4A6CF0688F789E02D309711F05C
:103680009150A9F70E949B089CCF60E08DE49DE5D6
:103690000E943F1411E004C081EA9DE50E940214DB
:1036A00088E18C9FF0018D9FF00D1124E75DFE4FA6
:1036B00084859585009731F00E94530C009711F096
:1036C0000E947E1380911A07882339F0112329F074
:1036D00041E060E080E00E947E19FF2009F49CCE6A
:1036E00088E18C9FF0018D9FF00D1124E75DFE4F66
:1036F000128A138A178A168A8FCE815080931407F4
:10370000882309F40FCF80E1E017F10709F010CF0B
:10371000F8018689978990934A0680934906F2CEEC
:1037200080910F07909110078036910561F40E94F7
:10373000380C9091460640E061E081E089270E94C4
:103740007E1980E0089581E0089540E060E080E027
:103750000C947E1940E060E081E00E947E1981E0D7
:10376000089525E030E03093520620935106082E4C
:10377000000C990B90934A028093490281E0809358
:103780007D070C9461168F929F92AF92BF92CF9259
:10379000DF92EF92FF920F931F93CF93DF93CDB7FA
:1037A000DEB72F970FB6F894DEBF0FBECDBF4B87A5
:1037B0005C876D877E878F878E859F85892B31F00B
:1037C000CA0189238F3F11F00C94BD2685E0FE01CC
:1037D0003B96DE01169601900D928A95E1F7898558
:1037E0009A85892B41F01E81FF80812F8F218F3F89
:1037F00011F00C94A9262F960FB6F894DEBF0FBED9
:10380000CDBFDF91CF911F910F91FF90EF90DF908F
:10381000CF90BF90AF909F908F9008950E942C0BF7
:10382000082F682F89819A810E940308E12FF0E018
:1038300026E0F29EE00DF11D112430E3039FE00D20
:10384000F11D1124EE0FFF1FEB5FF94F059114914D
:103850008885811105C0F884F11071C0912C89C050
:10386000809109048F3FB9F3A1E5CA2EA2E0DA2EB8
:10387000B12CA12C480147E5941AFF24F3948091C0
:103880000904082E000C990B8A159B0524F3D60118
:1038900016968C9116978823E1F119968D919C913B
:1038A0008017910739F480912007909121078017A4
:1038B000910779F180910307909104078017910790
:1038C00079F520911E0730911F0780910107909193
:1038D00002072817390721F51092040710920307F1
:1038E0001092020710920107D60150968C918823FE
:1038F00081F0BFEF8B16910409F058F4F601818531
:103900009285909302078093010710930407009318
:103910000307FFEFAF1ABF0A26E1C20ED11CAFCFDB
:10392000F601F786148703878189811103C0C601D8
:103930000E94F508C60106960E941609D5CF10927E
:1039400005071092060710920707109208078F814B
:103950002E8136E0839FC00111248B5D9B4F820F27
:10396000911DDC01EC90BFEF99249394EB1609F4C0
:1039700075CF80904E07C92CD12CC601880D911DA2
:10398000099764F188E090E05C01AC18BD08B601CD
:10399000615B784FA5018FE497E00E948A2FB60102
:1039A000695A784FA50187E597E00E948A2FA50103
:1039B000440F551FB601660F771F6959784F87E688
:1039C00097E00E948A2FB601615A784FA5018FE5D2
:1039D00097E00E948A2F8A9480924E0780914E072A
:1039E00090E02E2D30E0A901440F551F4B5A5B4F3C
:1039F000220F331FB9016A5A7B4F21E0280F991516
:103A0000D0F180934E070E948F11FF2071F08091BA
:103A10001807813051F480910A07813031F483EE28
:103A20000E94C81182E080930A07E0901707E11016
:103A300037C020911B0730911C0780911D078823F8
:103A400009F44DC02115310509F499C0FF2009F48E
:103A500075C080910B0790910C07AC0141555D45F5
:103A60002017310709F05DC04633510508F056C0F4
:103A70000E947515C0CE90E0FC01E25BF84FDA01C0
:103A80003C913183DB013C913187E18A880F991F9A
:103A9000FC01E25BF84F128E118E91E0822FADCFC8
:103AA000FF2009F4A8CE90910907009309079C31E3
:103AB00009F0A1CE023109F09ECE1092170761E005
:103AC00070E080E090E00E949108809117078111DA
:103AD00002C00E94611682E00E94B11B8CCE2115AB
:103AE000310509F0B3CF80911A07882309F4D5C1B5
:103AF0000C34110561F008F0B0C10A32110539F03B
:103B000008F0CCC0C8010497849708F0CFC0FF200C
:103B100009F471CEC8010E947E136DCE0E94691314
:103B20006ACE4633510538F40E949E1110921C074C
:103B300010921B07D8CF0E946D11F8CF20173107C4
:103B400081F480910B0790910C079C0121553D4514
:103B50002633310518F40E949E114DCE0E946D113E
:103B60004ACEC8018B529D450C9708F044CEAE0159
:103B70004A5F5F4F60E0C8010E94D0193CCE0E94AE
:103B8000380C0533BDE51B0709F4ADCFFF2009F460
:103B9000AACF10921D070131110509F46BC090F5F1
:103BA00008301105E1F1A8F404301105C1F118F055
:103BB00006301105F8F480911A07882309F41BCE0A
:103BC000EE2009F418CE41E060E080E00E947E190A
:103BD00012CE0C30110519F150F40A30110559F7C5
:103BE0008AE090E00E947E1384E392E029C00F30C7
:103BF000110508F38DE290E00E947E13C8010E9437
:103C00007E1336C009311105A9F378F40831110586
:103C100030F40531110570F70231110561F684E3C6
:103C200090E00E947E13C8010BC00C32EDE51E0728
:103C300059F148F481E292E00C32110509F0BBCF52
:103C40000E947E13B8CF0D322DE51207B1F0063376
:103C50003DE5130709F0AFCF10931C0700931B0736
:103C60008AE79DE590930C0780930B070E947515DA
:103C7000EF2CA1CF83E390E0E3CF86E392E00E94B4
:103C80007E1388E290E0BBCFE0901A07E11093CF5B
:103C900041E060E081E00E947E198DCF0333110581
:103CA00009F435CF0833110509F431CFFF2009F4A9
:103CB00029C241E060E080E00E947E19043BEDE50E
:103CC0001E0708F04CC1083AFDE51F0708F092C333
:103CD00008332DE5120708F017C10A323DE5130736
:103CE00008F0F4C10C34110508F002C10A341105C2
:103CF00008F004C1C8014E970A9708F4FFC08091EC
:103D00001407882399F08091870790918807A091E4
:103D10008907B0918A070097A105B10529F091FBA9
:103D2000882780F9811102C00E94380CC8018827B9
:103D30009F7E8115924009F430C4980137552F3F7A
:103D4000310509F008F430C48885882379F0809122
:103D500045078272013EFCE51F0709F498C408F08C
:103D600084C4003E3CE5130709F48DC417FF97C4D3
:103D70008885882329F10E94D6136801E894D7F832
:103D80005CE0E52EF12C96010E2C02C036952795AD
:103D90000A94E2F72F7087E290E031F0822F90E0F2
:103DA0002A3008F07AC44D960E947E1354E0E51A3A
:103DB000F1088CEFE8168FEFF80629F70E94BF1282
:103DC0009885992309F420C61092220702305CE5F9
:103DD000150708F4A0C506318CE5180738F09801DE
:103DE0002B5F3C452930310508F095C50E94840CB5
:103DF00090938C0780938B0700319CE5190709F499
:103E000059C508F0E7C40830BCE51B0709F448C5EC
:103E100008F0B6C40430FCE51F0709F435C508F006
:103E2000A1C402303CE5130709F428C580918B0733
:103E3000826003301C4509F424C560918B07109102
:103E40008C0784E090E00E94222D612F81E290E0B7
:103E50000E94222D0E94410ECECC0C324DE514075B
:103E6000E1F090F4083382E0180709F450CE0B32E9
:103E70009DE5190709F01ACFFF2009F4BCCC88E3AF
:103E800092E00E947E13B7CC0233ADE51A0741F1F0
:103E90000633BDE51B0709F009CF043B8DE5180784
:103EA00008F003C2083A9DE5190708F0A3C20833D9
:103EB000ADE51A0708F0DBC10A32BDE51B0708F0C3
:103EC00005C10C34110508F0CBC10A34110528F4E2
:103ED000C8014E970A9708F012CFF1100FC02EC1FB
:103EE000FF2009F488CC88E390E00E947E1383CC05
:103EF000C8018D549109029708F001CF0E94380C37
:103F0000C8010E94691377CC08384DE5140770F496
:103F100000355DE5150708F4B3C1FF2009F421C1A0
:103F20000E94380CC8010E94751565CC003A8DE5D9
:103F3000180708F472C2073A9DE5190708F0DFCEAA
:103F4000FF2009F458CC0E94380CF801EE0FFF1F37
:103F5000E754F54B859194910E947E134CCC0E3B17
:103F6000ADE51A0709F492C270F5073BEDE51E07AF
:103F700009F4CFC2B0F4053B2DE5120709F4BBC22A
:103F800008F4A6C1FF2009F40DC10E94380C8091ED
:103F90001607811102C00E9495158BE20E94C8117C
:103FA0002ACC0C3B4DE5140709F48CC208F0C5C2BD
:103FB0000B3B8DE5180709F0A2CEFF2009F402C1E2
:103FC0000E94380CFFC0023C9DE5190709F42EC27F
:103FD00078F40F3BBDE51B0709F0A2C1FF2009F4EF
:103FE0000BC10E94380C88E79DE50E94751503CC33
:103FF000063CEDE51E0708F043C0043CFDE51F0745
:1040000008F419C1FF2009F4F6CB0E94380C61E0D6
:1040100070E0043C1D4511F06FEF7FEF072E000CA0
:10402000880B990B0E945B2E20E030E040E251E4C7
:104030000E94B82D20914D0230914E0240914F02C6
:10404000509150020E94472D6B017C012DEC3CECFD
:104050004CE45DE30E940B2F18160CF08AC220E09E
:1040600030E040E85FE3C701B6010E94B32D87FD51
:1040700088C2C12CD12C60E8E62E6FE3F62E81C2F7
:10408000063C2DE5120709F03ACEFF2009F4B3CB28
:104090000E94380C8091150791E0892780931507BD
:1040A00020E0811124E061E070E080E090E004C055
:1040B000660F771F881F991F2A95D2F70E949108D3
:1040C000609115078FE00E94491995CBAE014A5FB8
:1040D0005F4F6F2DC8010E94D019F1105FC1809110
:1040E0000D0790910E078930910509F47FC1823444
:1040F000910509F072C180911107882309F45FC10D
:104100008BE068C1043B3DE51307D0F5083A4DE567
:10411000140708F070CB08335DE51507C8F40A32C0
:104120008DE5180798F60C34110560F40A34110572
:1041300028F4C8014E970A9708F0E1CDC8010E9403
:104140006D1159CBC8018D5491090297B8F3D7CDA1
:1041500008389DE5190748F40035ADE51A0708F45D
:104160004ACBC8010E949E1146CB003ABDE51B0711
:1041700008F441CB073AEDE51E0708F43CCBBFCD70
:104180000E3BFDE51F07E1F168F5073B3DE5130731
:1041900009F4CEC158F4053B5DE5150709F4ADC13E
:1041A00008F429CB8BE20E94341125CB0C3B9DE512
:1041B000190709F48AC108F01ECB0B3BBDE51B07AC
:1041C00009F09DCD80911807811174C1FF2009F479
:1041D00068C18FEB90E00E94691384E490E00E9434
:1041E000691309CB023CEDE51E0709F41FC1D8F4A1
:1041F0000F3B1D4509F0FFCA88E79DE50E949E110F
:1042000080911807811148C10E94881381E0809332
:10421000170760E074E080E090E00E94910882E07F
:104220000E94B11BE8CA063C3DE5130798F4043C24
:104230001D4508F0E0CA10911907FF2009F419C1C3
:104240000E94380C112309F40FC18AE99DE50E94F0
:104250001C14D1CA063C5DE5150709F4CCCA4FCD44
:10426000C8018D549109029708F437CE48CD08381B
:10427000EDE51E0778F40035FDE51F0708F04DCE8B
:10428000FF2009F4B8CA0E94380C60E0C8010E94FF
:104290003F14B1CA003A2DE5120708F4BEC0073A30
:1042A0003DE5130708F44CCE2ACD0E3B4DE514072F
:1042B00009F4ECC050F5073B8DE5180709F429C156
:1042C000B8F4053BADE51A0709F415C108F05ACE5C
:1042D000FF2009F490CA0E94380C809118078111C0
:1042E000CFC081E08093180780E00E94B11B83CA91
:1042F0000C3BEDE51E0709F4E5C008F01EC10B3BC1
:104300002DE5120709F459CEFACC023C3DE513071E
:1043100009F48CC098F50F3B5DE5150709F45ECEF6
:10432000FF2009F468CA0E94380C8FEF9FEF003C11
:104330001D4511F481E090E02091120730911307A0
:10434000820F931F97FF0CC184E090E090931307B6
:1043500080931207E0911207F0911307EE0FFF1FF1
:10436000E351FA4F80819181909324048093230438
:1043700081E080937D070E9461163DCA063C8DE571
:10438000180730F4043C9DE5190708F454CF3ACEE1
:10439000063CADE51A0709F478CEB1CC80910F0741
:1043A000909110078930910569F082349105A9F444
:1043B0000E94380C90E080E00E94A51B81E00E94E2
:1043C00049159ECE0E94380C0E948F118BE00E94EE
:1043D000BE0888E06F2D0E94491980910F079091C7
:1043E000100790930E0780930D0705CA8BE00E947B
:1043F0009B08EFCFFF2009F4FEC90E94380C8FEB19
:1044000090E00E946913C8018E569D450E947E135C
:104410008FEB90E00E946D11EEC9FF2009F4EBC90B
:104420000E94380CC8010E941C14E5C9809119072C
:10443000FF2071F0882339F00E94380C84E89DE554
:104440000E947515D8C98AE290E00E946913D3C909
:10445000882329F084E89DE50E949E11CCC98AE258
:1044600090E00E946D11C7C987E390E00E94691334
:10447000C2C91111C0C987E390E00E946D11BBC988
:104480001092180781E00E94B11BB5C9FF2009F402
:10449000B7CE0E94380CAFC986EA90E00E947E1326
:1044A000B5CE84E490E00E946D118FEB90E00E9405
:1044B0006D11A1C9FF2009F49EC987E098E00E9410
:1044C0007E1399C9F1100E94380C80911807811150
:1044D0000AC08CE390E0FF2019F00E9469138BC999
:1044E0000E946D1188C9FF2009F485C98BE298E00C
:1044F0000E947E1380C9F110CCCF809118078111E2
:1045000003C00E94881377C986EA90E00E947E1358
:1045100072C9FF2069F00E94380C80911607811142
:1045200002C00E9495158BE292E00E94691363C954
:104530008BE292E00E946D115EC9FF2009F45BC915
:104540000E94380C8091110791E089278093110710
:104550000E9449156091110780E00E9449194BC9DA
:10456000853091050CF4F2CE1092130710921207C9
:10457000F1CE7DECC72E7CECD72E7CE4E72E7DE3DC
:10458000F72EC0924D02D0924E02E0924F02F0926E
:10459000500281E080937D072EC9FF2009F42BC9CA
:1045A000C8010E947E1327C980910904082E000CBF
:1045B000990B8217930714F420930904888596E1D8
:1045C000929F6001939FD00C1124A6014F5A5D4F1A
:1045D0007A01DA0150968C935097882341F11A960C
:1045E0001C930E93199716968C9116978F5F1696BB
:1045F0008C930E94B007F701968785871782809178
:10460000440790914507892B80870190F081E02D28
:10461000309741F0D70154966D917C91C601895A2B
:104620009D4F099510932107009320078DCBFA0128
:104630008785882321F010931F0700931E0746E10A
:10464000429FC001439F900D1124FC01EF5AFD4F82
:104650002681222309F478CB2189222309F474CB03
:10466000895A9D4F0E9416096FCB073E4CE51407EF
:1046700008F07CCB6EE1600F609378078CE090E0EF
:104680000E94222D73CB811104C081E003C08111EF
:10469000FCCF8FEF0E94600969CB069785CB043F62
:1046A0009CE51907B9F1C0F4093DBCE51B0741F1D0
:1046B0000A3DECE51E0709F44BC0083DFCE51F0769
:1046C00009F07ECB06E221EE41EE68ED7CE5CE01FD
:1046D00006960E9454128FC8063F2CE5120771F10E
:1046E00018F1073F4CE5140709F06ACB07E225EE05
:1046F00046EE67EF7CE5CE0106960E9454127BC819
:1047000007E225EE45EE69ED7CE5CE0106960E94B6
:10471000541271C806E221EE40EE64EF7CE5CE0152
:1047200006960E94541267C807E225EE44EE65EF34
:104730007CE5CE0106960E9454125DC806E221EE89
:1047400042EE66EF7CE5CE0106960E94541253C8F5
:1047500008E221E045EE6AED7CE5CE0106960E9476
:10476000541249C880918B07806106305CE51507BB
:1047700009F487C008F48CC080918B07806281C0E7
:1047800080918B078D7F0C309CE5190709F479C067
:1047900070F480918B078C600A30BCE51B0709F42C
:1047A00070C008F481C080918B078E7F6AC08091B1
:1047B0008B07877F0E30FCE51F0709F462C08091EC
:1047C0008B078B7F0F301C4508F45BC080918B07F3
:1047D0008F7E57C00C3F3CE5130709F45DC030F5F0
:1047E00003315CE5150709F46DC078F401319CE5EF
:1047F000190709F463C002311C4509F01ECB0E9461
:10480000410E80918B078F773CC00531BCE51B07BB
:1048100009F460C008F474C080918C0781600B3F7C
:104820001C4509F00ACB80938C0707CB01152DE5B9
:10483000120709F44BC088F480918C078D7F0E3FDE
:104840004CE5140781F380918C078E7F0F3F1C4548
:1048500050F380918C078360E6CF02308DE5180716
:1048600009F457C008F442C060E003301D4509F068
:10487000E4CA8EE090E00E94222DDFCA80918B076F
:10488000816080938B07D9CA80918B078460F9CFB0
:1048900080918B078860F5CF80918C078260C3CFB1
:1048A00080918B078064EDCF0E94410E80918B0731
:1048B0008068E7CF80918B078F7DE3CF80918B0756
:1048C0008F7BDFCF80918B07837FDBCF80918C073D
:1048D0008C7FA9CF80918B0782FB992790F921E0EB
:1048E000922790FB82F990FB83F9CBCF80918C07C4
:1048F000982F909591708E7F892B90FB81F993CFA3
:104900000E94410E90918B07892F97FB87F9805861
:10491000B8CF61E0AECF809145078272F801E35CC9
:10492000FC45E431F10508F066C0E156F04D0C9409
:10493000EE2C8091BF0791E089278093BF071092EA
:104940000A040E94B5150C94FB1B4BE356E165E489
:1049500076E10E9466090C94FB1B45E456E16BE38B
:1049600076E10E9466090C94FB1B4DEF55E166E071
:1049700076E10E9466090C94FB1B46E056E16DEF60
:1049800075E10E9466090C94FB1B45EE55E161EF51
:1049900075E10E9466090C94FB1B41EF55E165EE41
:1049A00075E10E9466090C94FB1B4DEC55E169ED25
:1049B00075E10E9466090C94FB1B49ED55E16DEC15
:1049C00075E10E9466090C94FB1B49E156E16FE01A
:1049D00076E10E9466090C94FB1B4FE056E169E109
:1049E00076E10E9466090C94FB1B61E081E00E9465
:1049F00023160C94FB1B0115BCE51B0709F44FC0E3
:104A00000F3D1C4509F44DC00E811F81992309F407
:104A10004CC0C8010E942C0BF82E682FC8010E94C0
:104A20000308B8018F2D0E949C09082FE82E888565
:104A3000811110924407192F12951F70143009F438
:104A400082C0C0F5123008F443C0212F2850330B28
:104A50002230310510F40E94E90885E0FE01369607
:104A6000DE01119601900D928A95E1F789819A8174
:104A70000E94DA079A81E981F0E036E0939FE00D29
:104A8000F11D112440E3849FE00DF11D1124EE0F70
:104A9000FF1FEB5FF94F859194910C94FB1B0E94D3
:104AA00005110E94D70D0C94FB1BC8010E94DA0768
:104AB000F82EB7CF183009F466C0193009F437C1A1
:104AC000173009F0C2CF882309F459C08FEB1AC000
:104AD000F92FFF70FF2E907F19F0F29440EFF4222F
:104AE0008823C9F0FF2069F080E2800F883010F041
:104AF000E1100BC080914507F82AF09245070E940B
:104B0000C307802F0E94C811A0CF80914407F82AC4
:104B1000F0924407F4CF802F0E943411FF2009F453
:104B200094CF005E083010F0E11006C08F2D0E9477
:104B3000BC070E94C30789CFF09480914407F822F4
:104B4000F0924407F6CF292F26952695237051F031
:104B5000213009F07ACF882379F0802F93700E945A
:104B6000570873CF882329F0802F93700E946D0817
:104B70006CCF90E080E0FACF90E080E0F0CF8FEB58
:104B80000E94341162CF292F237009F065C0811172
:104B90005CCF802F829586958770880F880F402F75
:104BA0004F7050E070E060E0082E04C0440F551FC5
:104BB000661F771F0A94D2F7C12CD12C760104FF0F
:104BC00010C03FE0C32ED12CE12CF12C04C0CC0C42
:104BD000DD1CEE1CFF1C8A95D2F7C094D094E094A3
:104BE000F094969596959370923019F1D8F4809040
:104BF000460790904707A0904807B090490791302A
:104C000069F04C295D296E297F29CB01BA01682101
:104C100079218A219B210E94DF0817CF4829592931
:104C20006A297B29CB01BA016C297D298E299F290C
:104C3000F2CF4C295D296E297F29C0904607D0907C
:104C40004707E0904807F0904907CB01BA016C256F
:104C50007D258E259F25DFCF2695882311F0292FCE
:104C60002170222309F4F1CE802F829586958770DA
:104C7000880F880F402F4F7050E070E060E0082EE2
:104C800004C0440F551F661F771F0A94D2F7C12C2A
:104C9000D12C760104FF10C02FE0C22ED12CE12CC4
:104CA000F12C04C0CC0CDD1CEE1CFF1C8A95D2F745
:104CB000C094D094E094F094969596959370923029
:104CC00019F1D8F48090870790908807A090890701
:104CD000B0908A07913069F04C295D296E297F29AF
:104CE000CB01BA01682179218A219B210E94910878
:104CF000ACCE482959296A297B29CB01BA016C29F4
:104D00007D298E299F29F2CF4C295D296E297F2983
:104D1000C0908707D0908807E0908907F0908A07B5
:104D2000CB01BA016C257D258E259F25DFCF9F7095
:104D3000F92E882339F0892F0E94BE08802F0E9407
:104D40004D0883CE802F0E9446088F2D0E949B081D
:104D50007CCE85E0FE013696DE01119601900D9223
:104D60008A95E1F7288589819A8121110C940E1C7E
:104D70000E94DA07082F0C94161C8091230790914B
:104D80002407019690932407809323070C94E61B35
:104D9000CF92DF92FF920F931F93CF93DF93809177
:104DA0007E07882309F49AC00E943D0DF82E809159
:104DB000F704C4E0D0E0882311F0D0E0C0E0CA5688
:104DC000D84F44E050E0BE0180E496E00E947D2F81
:104DD0006C0188819981AA81BB8180934006909360
:104DE0004106A0934206B09343068091F704D0E0B9
:104DF000C0E0882311F0C4E0D0E0909128018091B8
:104E0000270110E000E0981759F082E090E00E943E
:104E10005C2C8C01892B21F480912701809328013F
:104E20008091380690913906C82AD92A90E080E00E
:104E3000CD2811F081E090E00E945C2C892B31F5A7
:104E400080913B0680932701109239061092380614
:104E50000115110511F10230110509F428985D982A
:104E600080913A068F5F80933A06863040F18091B8
:104E7000F704F0E0E0E0882311F0E4E0F0E0EA5627
:104E8000F84F108211821282138219C081E090E0E3
:104E90009093390680933806DBCF289ACA56D84FAC
:104EA00080913C0690913D06A0913E06B0913F0650
:104EB00088839983AA83BB835D9A10923A060E94E5
:104EC0008916C1E0F11001C0C0E08C2FDF91CF91B5
:104ED0001F910F91FF90DF90CF9008950E943D0D9C
:104EE0009091F704E4E0F0E0992311F0F0E0E0E0C5
:104EF000EA56F84F40E030E020E0D901A45CB94F19
:104F00005C919191591341E09C932F5F3F4F243066
:104F1000310599F790913B06940F90933B06C1E0C1
:104F2000811101C0C0E08091F704811102C030E01E
:104F300020E02A56384F8091400690914106A0917A
:104F40004206B0914306F90180839183A283B38323
:104F50000E948916BACF1F920F920FB60F9211249A
:104F60002F933F934F935F936F937F938F939F9371
:104F7000AF93BF93CF93DF93EF93FF93D091E9006B
:104F8000DF708091EC00C82FC17080FDC0E81092E6
:104F9000E9008091F000877F8093F00078940E9470
:104FA0004C0E1092E9008091F00088608093F00030
:104FB000CD2BCF70C093E900FF91EF91DF91CF919E
:104FC000BF91AF919F918F917F916F915F914F9121
:104FD0003F912F910F900FBE0F901F9018951F9229
:104FE0000F920FB60F9211242F933F934F935F931D
:104FF0006F937F938F939F93AF93BF93EF93FF93A1
:105000008091E10082FF09C08091E20082FF05C02B
:105010008091E1008B7F8093E1008091DA0080FF36
:1050200024C08091D80080FF20C08091DA008E7F5C
:105030008093DA008091D90080FF9FC080E189BD14
:1050400082E189BD09B400FEFDCF81E08093B50700
:105050008091A807811109C00E9422060E94ED06D6
:105060008091E20084608093E2008091E10080FF03
:1050700017C08091E20080FF13C08091E2008E7F14
:105080008093E2008091E20080618093E200809151
:10509000D80080628093D80019BC85E08093B50762
:1050A0008091E10084FF2DC08091E20084FF29C03F
:1050B00080E189BD82E189BD89B5982F917080FF1B
:1050C000FBCF8091D8008F7D8093D8008091E10044
:1050D0008F7E8093E1008091E2008F7E8093E200DA
:1050E0008091E20081608093E2008091B60788237E
:1050F00009F449C084E08093B5070E94410E0E94E4
:10510000E9088091E10083FF27C08091E20083FFDE
:1051100023C08091E100877F8093E10082E080934B
:10512000B5071092B6078091E1008E7F8093E10071
:105130008091E2008E7F8093E2008091E2008061A6
:105140008093E20042E060E080E00E94BB06809134
:10515000F00088608093F000FF91EF91BF91AF91D4
:105160009F918F917F916F915F914F913F912F917F
:105170000F900FBE0F901F90189519BC1092B50795
:105180001092A80772CF8091E30087FD93E090937F
:10519000B507B3CFCDB7DEB72A970FB6F894DEBF09
:1051A0000FBECDBF84B7877F84BF0FB6F894A89594
:1051B00080916000886180936000109260000FBE53
:1051C00080E890E00FB6F8948093610090936100BE
:1051D0000FBE85B7806885BF85B7806885BF0E9490
:1051E00022060E94ED068091E20084608093E20036
:1051F00078948091B5078823A1F01091E9001F7081
:105200009091EC00892F817090FD80E8182B10920E
:10521000E9008091E80083FD0E944C0E1F701093FE
:10522000E90082E084BD93E095BD9AEF97BD80933D
:105230006E000E94210D8093F7040E94210D63E00F
:1052400070E0882309F43BC18BE094E00E947A2B44
:1052500078940E94630CA8E2B6E061E070E08D9162
:10526000E82FE295EF70F0E041A18F709B0101C043
:10527000220F8A95EAF7922F9095942391A382A109
:10528000822B82A326E0AE32B20749F7209A559AC4
:10529000289A5D9AAFE7B7E0E6E9F7E011921D9230
:1052A00087E0EE39F807D1F70E94210D80937E0741
:1052B00090E080E00E940C2D8C3E9E4F11F00E94E9
:1052C000D70D10924E078FEF9FEF90936807809352
:1052D000670790936A078093690790936C078093A0
:1052E0006B0790936E0780936D0790937007809380
:1052F0006F07909372078093710790937407809360
:105300007307909376078093750790E080E00E9482
:105310000C2D8C3E9E4F21F00E94D70D0E945016FE
:1053200045E050E06CE170E08FEB97E00E94F42CD8
:105330008091BF078C7F11F40E9450168CE090E0A2
:105340000E94042D90E0B0E0A0E080937807909355
:105350007907A0937A07B0937B071092770784E0D0
:10536000809378078091F704811109C082EDE9E00C
:10537000F5E0A5E2B4E001900D928A95E1F760E0D6
:1053800082E00E94231648E76FEF84E690E00E94D7
:10539000BD15209123043091240481E02E3F9FEF1E
:1053A000390709F480E080937D0780937C072E3FC6
:1053B0003F4F09F489C00E948D090E94B51590E005
:1053C00080E00E940C2D8C3E9E4F11F00E94D70D64
:1053D00082E090E00E94042D80939F070E94840C3D
:1053E00090938C0780938B0783E090E00E94042DBC
:1053F000682F70E090E080E00E94DF081092920732
:105400008FEF80938D0780938E0780938F07809313
:1054100090078093910785E08093F9048BEF94E0E7
:105420009093940780939307EE24EA9480E1A82E4A
:1054300092E1B92E28E1C22ED12C30E4932E809136
:10544000B507853009F443C00E94C826A0EAB7E03A
:10545000E6E9F7E010E000E0302F81919D91981788
:1054600009F470C0292F282790E0FF24F3944F2DD2
:10547000422309F462C099833A838F2191E009F4B1
:1054800090E09B830E94B0078160782F9D838C837E
:1054900049815A816B818D810E94C31BF801E056BE
:1054A000F84F8081F826F0820E94E90890919E07CB
:1054B000891729F20E94E90880939E07C0CF8BE0EC
:1054C00094E00E94832BC4CE0E94810976CF809104
:1054D000B507843009F1109295070FB6F894A89596
:1054E000C09260000FBE9092600083B7817F84609D
:1054F00083BF83B7816083BF7894889583B78E7F9D
:1055000083BF0FB6F894A89580916000886180935E
:105510006000109260000FBE8091B407882309F4E8
:105520008ECF0E94C826E6E9F7E08191811120C064
:1055300087E0EE39F807C9F782CF9F5FFF0C9630FE
:1055400009F095CF0F5F1F4F0830110509F084CF88
:10555000EE82EF8218860E94B0078160782F9A87CA
:1055600089874E815F8168858A850E94C31B9CCF95
:10557000A9BCB9BC09B400FEFDCF8091D8008F7DD5
:105580008093D8008091E00082608093E000809159
:10559000E00081FDFCCF53CF78941F921FB61F927D
:1055A00011248F939F93AF93BF9380914A0790915B
:1055B0004B07A0914C07B0914D070196A11DB11D5D
:1055C00080934A0790934B07A0934C07B0934D07E5
:1055D000BF91AF919F918F911F901FBE1F90189503
:1055E0001F921FB61F9211248F939F93AF93BF9367
:1055F00080919507811113C080914A0790914B07C4
:10560000A0914C07B0914D074196A11DB11D80930B
:105610004A0790934B07A0934C07B0934D07BF9157
:10562000AF919F918F911F901FBE1F9018958EE193
:105630004A9B02C08150E1F74A9BFECF08955A98D9
:1056400080E28A95F1F75A9A0895FC013BE03A9579
:10565000F1F720E090E080E031E040E14A95F1F799
:10566000880F4A9B02C08160232742E04A95F1F7E8
:10567000000040E14A95F1F79F5F6913EECF90E19A
:105680009A95F1F799B132E03A95F1F7000040E1CF
:105690004A95F1F792FB992790F992272081920F72
:1056A00090830895EF92FF920F931F93CF93DF9310
:1056B0000F92CDB7DEB719828C017C01E60EF11C8A
:1056C0000E151F0561F481E09981911180E00F9022
:1056D000DF91CF911F910F91FF90EF9008950E945D
:1056E000172B68E0CE0101960E94252BF8018193CB
:1056F0008F01E6CF9093C6078093C5076093C407D8
:10570000529A5A9A08959093C6078093C50760935A
:10571000C40752985A9AEA9AE9E6F0E080818F7CB1
:10572000808308956150770B91E001C0990F6A95CD
:10573000EAF720E031E0911108C0222391F05A9A53
:1057400080E28A95F1F75A980895492F482339F055
:105750005A9A232740E24A95F1F79695ECCF5A984A
:10576000F9CF5A98EDCFFF920F931F93CF93DF930A
:10577000EC018C01060F111DC017D10731F4DF9128
:10578000CF911F910F91FF900895F9900E941F2BC8
:1057900068E08F2D0E94922BEFCF1F920F920FB6D1
:1057A0000F9211240F931F932F933F934F935F9367
:1057B0006F937F938F939F93AF93BF93EF93FF93D9
:1057C000CF93DF930F92CDB7DEB719820E94172BCC
:1057D00067E0CE0101960E94252B082F06950695BD
:1057E0000695982F92959570202F2570920F292F4E
:1057F0002370969596958770920F891344C089817E
:10580000811141C08091C4078017E8F120E12A95F9
:10581000F1F75A9A529A82E08A95F1F700C0A8E00F
:105820000A9FC00111240091C5071091C607080FF7
:10583000191F5A98F8016581662321F086819781A6
:105840000E94B32B0E941F2BF0E1FA95F1F75A98B2
:1058500052985A9A20E12A95F1F7D80112966C9144
:105860001297662331F113968D919C910E94522BD1
:10587000D801ED91FC91882311F088E001C082E00D
:1058800080830E94172B0F90DF91CF91FF91EF91B2
:10589000BF91AF919F918F917F916F915F914F9148
:1058A0003F912F911F910F910F900FBE0F901F905E
:1058B0001895ED91FC91E1CF0F931F93CF93DF9358
:1058C0002091C407281719060CF471C08C0193E0CD
:1058D000000F111F9A95E1F7C091C507D091C60737
:1058E000C00FD11FF894529A5A9825E02A95F1F7E3
:1058F0000000982F969595708570980F892F83706A
:1059000096959695980F092B0E941F2B00C067E073
:10591000802F0E94922B80E18A95F1F752985A9A33
:105920004A9B17C087E090E04A9915C06D816623B5
:1059300021F18E819F810E94522B81111EC0529AAB
:105940005A9AE881F98182E08083789482E090E03D
:105950000DC000C0E5CF019771F4529A5A9AE881C0
:10596000F98181E08083789481E090E0DF91CF91AC
:105970001F910F91089500C0D7CF0E94172B20E2EE
:105980002A95F1F75A98529A80E18A95F1F76A813F
:10599000662321F08B819C810E94B32B0E941F2BD8
:1059A000E881F9811082789490E080E0DFCF84E094
:1059B00090E0DCCFAA1BBB1B51E107C0AA1FBB1F95
:1059C000A617B70710F0A61BB70B881F991F5A958B
:1059D000A9F780959095BC01CD010895EE0FFF1FAA
:1059E0000590F491E02D0994DC01CB01FC01F999BB
:1059F000FECF06C0F2BDE1BDF89A319600B40D921B
:105A000041505040B8F70895F999FECF92BD81BD3D
:105A1000F89A992780B50895A8E1B0E042E050E0F7
:105A20000C94F62CDC01A40FB51F4150504048F0F7
:105A3000CB01840F951F2E910E94232D4150504081
:105A4000D0F70895262FF999FECF92BD81BDF89A1F
:105A5000019700B4021639F01FBA20BD0FB6F894B2
:105A6000FA9AF99A0FBE08950396272F0E94232DC4
:105A70000E94222D252F0E94232D242F0C94232DAC
:105A80000196272F0E94232D0C94222D5058BB27BE
:105A9000AA270E945E2D0C94D12E0E94C32E38F0AE
:105AA0000E94CA2E20F039F49F3F19F426F40C947A
:105AB000C02E0EF4E095E7FB0C94BA2EE92F0E945D
:105AC000E22E58F3BA17620773078407950720F090
:105AD00079F4A6F50C94042F0EF4E0950B2EBA2F52
