:100000000C94AE050C94F5050C94F5050C941E2883
:100010000C94F5050C94F5050C94F5050C94F50578
:100020000C94F5050C94F5050C9440240C94FC23D9
:100030000C9441270C94F5050C94F5050C94F505EA
:100040000C94F5050C94F5050C94F5050C94F50548
:100050000C94F5050C941D270C94F5050C94F505EE
:100060000C94F5050C94F5050C94F5050C94F50528
:100070000C94F5050C94F5050C94F5050C94F50518
:100080000C94F5050C94F5050C94F5050C94F50508
:100090000C94F5050C94F5050C94F5050C94F505F8
:1000A0000C94F5050C94F5050C94F505E300E000BF
:1000B000E000E3001B081B010608060119081901EE
:1000C000190E1903190A19031D081D011D0A1D0324
:1000D000210B160A220A460008040814150A3E01DC
:1000E00016081601040804017F00A8008000A9007A
:1000F0008100AA00290C4C054800BD004700BE0045
:10010000500450044F044F046E002903300830019E
:100110003808380152084A0851084D0850084A006A
:100120004F084D000B0851081A083D040908090141
:100130000A080A010A0A0A03090C0B012C0816080E
:100140002F084D002C09370814090F083304211417
:100150002A042A014000AC004200AB004100AE007E
:1001600066016601660166000F0B5008150B4F080B
:10017000100B5208180B000014083D04E000E300C7
:100180002A080E0338006402295D27026402295DF3
:100190002E022D0250002E001E02500024023002BA
:1001A000295D30022402295D30001E00295D3800DF
:1001B0001E00295D64022702295D64002702295D73
:1001C0001E022702295D6402295D295D2402640262
:1001D000295D6400295D295D64002402295D6400B5
:1001E0006400295D64026402295D1E022702295D04
:1001F00064022702295D64002702295D3804132068
:10020000380614200D06AF0022041E2237062620D1
:100210001304C0032106A3002704602227064822F6
:100220003206BB00640665223406AB006404642217
:100230003506B0001504AE000B0422212006222052
:100240000604A90004040000000408000000040CD7
:100250000000000412000000041800000006000066
:100260000300033A5D3B5D060100020003435D4469
:100270005D03415D425D011E011E03011F011F035D
:100280000120012003013500350202545D555D0651
:100290000400050003485D465D03495D455D068930
:1002A0005D8A5D068B5D8C5D068D5D8E5D0606004C
:1002B000070002625D5D5D024E5D4D5D02505D5165
:1002C0005D01300038000130022402013414321480
:1002D000012F143014012502260203385D395D0513
:1002E000110033000000001214009E940001983B9E
:1002F0007500000126AD0107280000000000000085
:100300000B2E0011422400000F0200000114000017
:1003100000000000000000000000000000000000DD
:10032000000000FFFFFFD4D4D47373733838382132
:1003300021214D4D4D8F8F8FE8E8E8787878383857
:10034000382929290F0F0F0000001212121414145B
:10035000000000000000000000000000000000009D
:1003600000001700383500851F00B80108D52000AF
:10037000942700943500751C003D1901372901654B
:1003800025006B2D00701900420C001F0B001F0090
:100390000000000000100029000000000000000024
:1003A00000FFFFFFB6992FC26700BD42008E4C01CF
:1003B000BD6E00FFDD00EEE6BF98957CA884007559
:1003C00050005637012D1B014629016142002411BE
:1003D000002417002415000E09010F08000000007A
:1003E000F60909A38D00006B1B18086830069300FE
:1003F000737574C200FAA005F5F9011BA30000573C
:10040000662400661D0061004152008A4E0156417B
:10041000013037001442000F33001D33002E23BC7F
:100420000101F2A602E9A001D60000A30000FFC866
:1004300000A884008E01016A0101805E00987001AD
:10044000570000420000613D006545012E1F00334A
:1004500020002900000E0101181101191000FF00F1
:1004600000FF0000FFFFFFABABABB0B0B0BD0000C2
:10047000FF0000BD0000001EFF0011FF9900007585
:1004800000006B00001100FF0208BB020080001199
:10049000940C00B30010610D0165070137000000E6
:1004A000000000000000000000000000000000004C
:1004B000007E0F00D4FFFFFFC7000000780000009F
:1004C00000000000002A2B280000000000000000AF
:1004D000000000000000000029000000002C1E3475
:1004E00020212224342627252E362D3738271E1F7B
:1004F000202122232425263333362E37381F0405A6
:10050000060708090A0B0C0D0E0F10111213141513
:10051000161718191A1B1C1D2F3130232D350405F1
:10052000060708090A0B0C0D0E0F101112131415F3
:10053000161718191A1B1C1D2F3130354C000101DC
:100540000101010101010102020202020202020292
:100550000303030303030303040404040404040562
:100560000505050506060606060707070707080826
:100570000808090909090A0A0A0B0B0B0C0C0C0DD7
:100580000D0D0E0E0E0F0F0F101011111112121370
:10059000131414151516161717181819191A1A1BEB
:1005A0001B1C1D1D1E1E1F2020212222232424254A
:1005B0002626272829292A2B2C2D2D2E2F30313283
:1005C00032333435363738393A3B3C3D3E3F404193
:1005D00042434445464748494A4C4D4E4F5051537B
:1005E00054555658595A5B5D5E5F61626465666832
:1005F000696B6C6D6F7072737577787A7B7D7E80B6
:1006000082838587888A8C8E8F91939596989A9C01
:100610009EA0A2A3A5A7A9ABADAFB1B3B5B7BABC15
:10062000BEC0C2C4C6C9CBCDCFD1D4D6D8DBDDDFE6
:10063000E2E4E7E9EBEEF0F3F5F8FAFDFF7E78008F
:1006400043007E0F625E007E00072F00D65809002F
:1006500004D558090005CE58090000D67800430794
:10066000D578004308CE780043097E190014003184
:100670005D14001900015715000900325D0057167E
:1006800000070017000A00335D1D001B001A00065A
:100690000038000000000000002B5D2C002C5DB035
:1006A0005D13000357025704571C001E57AF5D0F20
:1006B0000005001F570B00305D2F5D0E0036001047
:1006C000000D000000000000002E5D2D5D345D294E
:1006D00000055700007C5D575D0000A05D00007ABA
:1006E0005D7D5D7B5D00005F5D5E5D0000695D00BE
:1006F0000000000000000000002B5D00002C5D9F4A
:100700005D9C5D9B5D9A5D995D9E5D985D975D9634
:100710005D955D945D9D5D000000000C570B570AD0
:100720005700000000000000002E5D2D5D345DE3E9
:10073000001657705DA35DA25DA85D0000595D586D
:100740005D525D535DA75D5C5D5B5D0F571857178C
:10075000574F5D0000000000002B5D00002C5D8500
:100760005D26002500240023003C5D22002100209E
:10077000001F001E00270000000000370036003D6B
:100780005D2C000000000000001A571957345D006E
:10079000002014340252003002240200001F1450C2
:1007A0000051004F00375D00000000351422023672
:1007B0005D30000000000000002B5DE1002C5D1E9C
:1007C000022D021E141C571B5710570000745D2386
:1007D0000226021D57115715572F00000009570810
:1007E00057475D0000000000002E5D2D5D345D0068
:1007F00000000000004B00645D635D00000D576069
:100800005D4E00615D000000000757AB5D00000613
:1008100057835D0000000000002B5DE1002C5D8629
:100820005D0557885D00006E5D715D00004C0052F3
:10083000006C5D6B5D6D5DE1004F00510050006F1D
:100840005D00000000000000002E5D2D5D345D00A5
:100850000000000000655D0000000000000000676F
:100860005D665D685D0000000000000000000000A3
:1008700000825D0000000000002B5DE1002C5D9215
:100880005D875D8F5D231400001357000000008812
:100890005D0000735D1457000000002F020000008F
:1008A0000012570000000000002E5D2D5D345D0039
:1008B0000000000000565D905D0000000000000098
:1008C000000000915D0000000000000000000093A7
:1008D0005D845D0000000000002B5D2C002C5DA9F4
:1008E0005D0E570000000000000000A15D725DACCD
:1008F0005D0000000000000000775D765D755D0022
:100900000000000000000000002E5D2D5D345D271A
:1009100000140019000800150009001E000400164C
:1009200000070017000A001F001D001B001A000628
:1009300000380000000000000020002100220037E5
:1009400000130012000C0018001C0000004C020FE5
:1009500000050011000B00AA5D26000E00360010F5
:10096000000D0000000000000025002400230031DD
:100970005D14001900070015000900E200040016CC
:1009800000080017000A00335D1D001B001A000656
:10099000003800000000000000E1002C00E10037FA
:1009A00000130012000C0018001C0000002A000FA9
:1009B00000050011000B00000000000E00360010C2
:1009C000000D00000000000000E100E10028000030
:1009D0000000000000AE5DAD5D0000000000000002
:1009E0000000000000000000000000000000000007
:1009F00000000000000000000010501050105000D7
:100A0000000000A05D00000000000000000000B138
:100A10005D00000000000000000000000000000079
:100A200000000000000000000010501050105005A1
:100A3000010980A101850319012AB700150126B714
:100A400000950175108100C0050C0901A101850404
:100A500019012AA002150126A00295017510810036
:100A6000C005010906A101050719E029E7150025C0
:100A70000195087501810205FF09031500250195FF
:100A800001750881020507190029FF150026FF00DE
:100A90009506750881000508190129059505750158
:100AA0009102950175039101C009023B000201000A
:100AB000A0FA09040000010301010009211101004D
:100AC000012248000705810308000A09040100010A
:100AD00003000000092111010001223200070582F4
:100AE0000320000A1201100100000008AC055002AA
:100AF000740001020001480343006F0072006E00A1
:100B0000650020004B006500790062006F00610005
:100B10007200640020005200650076002E00310053
:100B2000200028004C006500670061006300790028
:100B30002000530070006C00690074002900000060
:100B400016034100700070006C0065002000490031
:100B50006E0063002E0000000403090411241FBE70
:100B6000CFEFDAE0DEBFCDBF04B603FE27C0809131
:100B7000A8089091A908A091AA08B091AB08873065
:100B8000904BA740B04BD1F41092A8081092A9083E
:100B90001092AA081092AB0814BE84B7877F84BF56
:100BA0000FB6F894A89580916000886180936000EA
:100BB000109260000FBEE0E0F8E3099528E0AAE19A
:100BC000B7E001C01D92A83AB207E1F717E0A0E034
:100BD000B1E0E4E2F7E502C005900D92AA31B10759
:100BE000D9F70E941B250C94722B0C940000E8EDA1
:100BF000F0E080818E7F80831092E2001092DA0014
:100C00001092E100A0EEB0E08C9181608C93808125
:100C10008F77808319BCA7EDB0E08C918E7F8C9389
:100C200080818F7E80831092890808952091E4004E
:100C30003091E50095E6A9012091EC00822F8170AA
:100C400020FF06C08091E80080FF06C080E0089584
:100C50002091E80022FD1AC080919608882389F02F
:100C6000853089F08091EB0085FD0FC02091E40074
:100C70003091E50042175307F9F29150E1F684E014
:100C8000089582E0089583E0089581E00895EF9249
:100C9000FF920F931F93CF937C018B010E94160646
:100CA000C82F811117C08091E80085FD0BC080918D
:100CB000E8008E778093E8000E941606882399F357
:100CC000C82F08C0F70181917F018093F100015086
:100CD000110949F78C2FCF911F910F91FF90EF9041
:100CE00008958091980887FF13C08091E80082FFE3
:100CF00006C08091E8008B778093E80004C0809163
:100D000096088111F2CF0895809196088823D9F32F
:100D10008091E80080FFF8CF8091E8008E77ECCFDB
:100D2000982F9093E900242F762F50E0891731F007
:100D30007091EC002091ED005091F00021FD07C072
:100D40009F5F973071F78093E90081E008953091BB
:100D5000EB003E7F3093EB003091ED003D7F309310
:100D6000ED003091EB0031603093EB007093EC00BC
:100D70002093ED005093F0002091EE0027FDE0CF8E
:100D800080E00895CF92DF92EF92FF920F931F932E
:100D9000CF93DF93C8EDD0E088818F7E8883E7ED25
:100DA000F0E080818160808384E082BF81E0809375
:100DB000890888818E7F888302EE10E0F801108216
:100DC0001092DA0081EEC82ED12CF60110828881B3
:100DD0008F77888388818068888388818F7D8883E6
:100DE00019BC1092960810929708109295081092CC
:100DF000940890EEE92EF12CF70180818B7F80839F
:100E000088818160888342E060E080E00E949006F3
:100E1000F60180818E7F8083F801808181608083EC
:100E2000808188608083F70180818E7F80838881C4
:100E300080618883DF91CF911F910F91FF90EF9098
:100E4000DF90CF900895FC0180919E0890919F08BB
:100E500086179707A0F06115710529F49091E800B5
:100E60009E779093E80090E06115710551F491111F
:100E700008C08091E80082FF34C080E00895BC0182
:100E8000F2CF809196088823C1F18530C1F180911D
:100E9000E80083FD30C08091E80082FDEACF8091B8
:100EA000E80080FFE1CF8091F3002091F200382F1D
:100EB0006115710519F02830310558F091E028309E
:100EC000310509F090E02091E8002E772093E800AA
:100ED000CBCF81918093F100615071092F5F3F4F1B
:100EE000E7CF80919608882341F0853041F08091CA
:100EF000E80083FFBECF81E0089582E0089583E09B
:100F00000895089580918B0808952FB7F8948091E3
:100F10002B0890912C08A0912D08B0912E082FBF7E
:100F20000895809590912608982390932608089517
:100F30008091260890912508892B90912408892B6F
:100F400080931C07E0917408F0917508309731F098
:100F50000280F381E02D8CE197E009940895E92F58
:100F6000EE0FE90FEE0F8E0F982F977086958695EE
:100F7000869525E0829FF0011124EA5FF74F50E04B
:100F800040E080E0219130E0092E02C0369527959F
:100F90000A94E2F721703327042E01C0220F0A942D
:100FA000EAF7822B4F5F5F4F4530510559F708959F
:100FB000E92FEE0FE90FEE0F8E0F982F977041E09B
:100FC00001C0440F9A95EAF786958695869595E037
:100FD000899FF0011124EA5FF74F30E020E070E0D4
:100FE0005191DF011197CB01022E02C09695879592
:100FF0000A94E2F7817081958527842385278C9355
:101000002F5F3F4F2530310559F70895882341F070
:101010008095909125088923809325080C94980742
:101020000895882339F090912508982B90932508EE
:101030000C9498070895882321F00E9491070C943E
:1010400098070895882339F090912608982B90935B
:1010500026080C94980708952091EA073091EB0731
:101060002817390771F09093EB078093EA07E09116
:101070007408F0917508309721F00084F185E02D17
:10108000099408952091E8073091E9072817390756
:1010900071F09093E9078093E807E0917408F0916C
:1010A0007508309721F00680F781E02D09940895A6
:1010B00010922508109224080E94980790E080E082
:1010C0000E94420890E080E00C942C08609368082D
:1010D0007093690880936A0890936B080C94580881
:1010E0000F931F9341E050E060E070E004C0440FB4
:1010F000551F661F771F8A95D2F7CB01BA016095FD
:1011000070958095909500916808109169082091DC
:101110006A0830916B0860237123822393231F9107
:101120000F910C9466080F931F9341E050E060E02C
:1011300070E004C0440F551F661F771F8A95D2F7D1
:101140008091680890916908A0916A08B0916B0835
:101150008A019B01082B192B2A2B3B2BC901B801B3
:101160001F910F910C9466086093270870932808CC
:101170008093290890932A080C945808E0917408E9
:10118000F0917508309721F00190F081E02D0994DD
:1011900080E00895CF93DF93EC0181E0898B80910B
:1011A00026089F81892B80932608809125089885A1
:1011B000892B809325080E949807EA81FB8130974C
:1011C00039F06C897D89CE010696DF91CF91099423
:1011D000DF91CF910895EF92FF920F931F93CF93DA
:1011E000DF93EC018A85811139C0EB80FC8087E5B3
:1011F000F81A26E12E9DC0012F9D900D1124DC01CF
:10120000AB5CBD4F1496ED91FC911597309731F082
:1012100054966D917C91855C9D4F099586E18E9DDC
:1012200080018F9D100D11240B5C1D4FF8018781EB
:101230000E949107F8018085982F9095809125084C
:101240008923809325080E949807188219861B8697
:101250001E821D821092020810920108DF91CF9128
:101260001F910F91FF90EF9008951092580884E01D
:10127000809359080895FA01811101C0FB01099476
:10128000E3E4F7E0818360834283339697E0E53EB1
:10129000F907C1F70895FC01EE0FFF1FE80FF91FD2
:1012A000ED5BF84F61834083228308958091A0080D
:1012B000837011F01092F6048091A0088C7F8093C7
:1012C000A00808958091A008837011F41092F6048C
:1012D0008091A0088C7F81608093A00808950C9471
:1012E0004009972F70E026E0929F600D711D112438
:1012F000FB0140E3849FE00DF11D1124EE0FFF1F61
:10130000E159F94F25913491C9012238310591F104
:10131000C0F52133310509F490C028F52932310593
:1013200009F484C02A32310509F48EC0211540E544
:10133000340708F0A4C0211540E4340708F026C1A2
:101340002F3B310508F087C0283A310508F013C15A
:10135000253A310508F006C12430310500F5213069
:101360003105E9F03CC02533310509F458C0293373
:101370003105E1F620916C08237089F080EE90E051
:101380000895233E310571F158F4203E3105E9F00E
:10139000223E310559F620916C0822FD1EC00895A9
:1013A000263E310551F1273E310571F1243E3105CC
:1013B00009F0BCCF20916D0821FFF1CF80916C081E
:1013C00084FD0DC087EE90E0089520916C0820FD0B
:1013D0000CC130916D0830FFE2CF24FF09C190E0CD
:1013E00080E0DDCF20916C0822FD05C130916D08B1
:1013F00030FDC4CF24FFD3CFF2CF20916C0823FF60
:10140000CECF24FDECCFDECF20916C0823FDF6C0BB
:1014100030916D0831FFEECF84EE90E00895209179
:101420006C0825FFBCCF89E290E0089520916C08FC
:1014300025FFB5CF85E390E0089520916C0826FF45
:10144000AECF8AE290E0089520916C0826FFA7CFE6
:1014500081E390E00895283E310558F4213E31059E
:1014600008F09DCF2F3B310509F0B9CF80E090E720
:1014700008953A9521153F4108F491CFB0CF211539
:1014800083E5380738F5211592E5390708F087C05C
:10149000211541E5340708F07DC0C90164E0969547
:1014A00087956A95E1F7382F3370822F8695869558
:1014B000837040E2849FC0011124932B237041E08C
:1014C00050E002C0440F551F2A95E2F7842B952B5C
:1014D0009C680895211589E53807F0F4211598E5F1
:1014E000390708F06FC0211544E5340708F077CFBD
:1014F000A9014370552781E090E002C0880F991F31
:101500004A95E2F72695269540E2249F9001112402
:10151000822B932B9A68089521158AE5380708F0E5
:101520005ECF822F8F7040916C0842FF05C023FF71
:101530004EC0822F8770846090916D0890FF07C025
:10154000982F9871983009F048C0877F816044FDDA
:10155000877E94E0369527959A95E1F72F70922F24
:1015600090690895255AE22FF0E0ED51F94F8081FE
:1015700090E090640895285AE22FF0E0EE0FFF1FEC
:10158000EA51F94F8081918194640895C9019F7057
:10159000906A0895922F8827816F906A0895A90113
:1015A0004370552781E090E002C0880F991F4A954B
:1015B000E2F72695269540E2249F90011124822B84
:1015C000932B86CF922F8827806F906A089522FFF1
:1015D000B3CF822F8B708860AFCF982F91719130ED
:1015E00009F0B5CF8E7F8860B2CF89E390E008958F
:1015F00083EE90E0089582EE90E0089586EE90E00C
:101600000895BF92CF92DF92EF92FF920F931F93B4
:10161000CF93DF938C01C0906808D0906908E09068
:101620006A08F0906B088091270890912808A09193
:101630002908B0912A08C82AD92AEA2AFB2ACFE128
:10164000D0E0BC2ED701C6010C2E04C0B695A795DC
:10165000979587950A94D2F780FD0EC0219788F759
:10166000B12C8B2DDF91CF911F910F91FF90EF90B7
:10167000DF90CF90BF900895B8018C2F0E94710920
:10168000019761F3EECFCF93DF939C013A9521153B
:101690003F4168F5EC01CC27D170DC01AA27B2707C
:1016A000AC01442754709C012227387094FF11C06C
:1016B00080E1CD2B09F480E0AB2B09F08062452B53
:1016C00009F08064232B09F08068FB01DF91CF9142
:1016D000099481E0CD2B09F480E0AB2B09F0826006
:1016E000452B09F08460232B81F38860EECFDF91D6
:1016F000CF9108959F92AF92BF92CF92DF92EF92D7
:10170000FF920F931F93CF93DF93C82F6A017B0142
:1017100020E030E040EF52E4CB01B6010E94C62A3F
:10172000181634F4C12CD12C80EFE82E82E4F82E68
:1017300020E030E04FE753E4C701B6010E9497294B
:101740006B017C018FE3C802E0011124CC51DD4F15
:1017500006E010E0FE013296849131979490FE01EC
:10176000B490682F70E090E080E00E943A2AA701D0
:1017700096010E94CB2A0E94092AA62E692D70E0AC
:1017800090E080E00E943A2AA70196010E94CB2AAD
:101790000E94092A962E6B2D70E090E080E00E9456
:1017A0003A2AA70196010E94CB2A0E94092A2A2DD3
:1017B000492DC8010E944B0923960F5F1F4F0B3123
:1017C000110509F0C7CFDF91CF911F910F91FF90C5
:1017D000EF90DF90CF90BF90AF909F900895E091F1
:1017E000F207F091F30780E191E0309711F081501A
:1017F00009F40895938B0688F789E02DF6CF8B5472
:101800009D45880F991FE091FF07E80FF92FF11D03
:10181000EE0FFF1FE455FF4F859194910895CF93EC
:10182000DF93A1EDB6E045ED56E0C1E0D0E08D914B
:10183000E82FE295EF70F0E061A18F709E0101C08A
:10184000220F8A95EAF7922F9095962391A382A171
:10185000822B82A34A175B0751F7DF91CF9108953E
:10186000CF9384E090E00E945529C82F81E290E058
:101870000E945529982F8C2FCF910895CF93DF93F5
:1018800000D00F92CDB7DEB790919608943019F53D
:1018900089837B836A8382E08093E9008FEF909154
:1018A000E800815095FD06C095ED9A95F1F700008E
:1018B0008111F5CF8091E80085FF0DC050E040E038
:1018C00063E070E0CE0101960E9447068091E80037
:1018D0008E778093E8000F900F900F90DF91CF915B
:1018E0000895BC0184E00C943E0CBC0183E00C9490
:1018F0003E0CCF93DF93EC0181E08093E9008FEF02
:101900009091E800815095FD06C095ED9A95F1F70C
:1019100000008111F5CF8091E80085FF14C050E0F0
:1019200040E068E070E0CE010E9447068091E80048
:101930008E778093E80088E0FE01ACE8B8E0019083
:101940000D928A95E1F7DF91CF910895539A3BB1BB
:10195000377F2BB128604FB7F89483E497E0FC0100
:101960005191CF0168E02BB9000000C057FF3BB98F
:10197000550F000000C000C000C03BB900C06A9510
:1019800091F7F7E0853E9F0751F74FBF8FE594E051
:101990000197F1F700C0000008958091320781118E
:1019A00011C08091D80080618093D8008AE18A9527
:1019B000F1F700C09091D900892F817090FF82E0EB
:1019C0008093320781E090913207913009F080E0F6
:1019D00008958F929F92AF92BF92CF92DF92EF9233
:1019E000FF920F931F93CF93DF938091E305C4E0A1
:1019F000D0E0882311F0D0E0C0E081EDC82E86E071
:101A0000D82EAE01405A574F7A018A01912CAA2450
:101A1000A394B12C25E0822EF60181916F01E82F6D
:101A2000E295EF70F0E021A18F70A50102C0440F94
:101A3000551F8A95E2F7CA01922F982B91A392A184
:101A40008095892382A350EA5A95F1F7E4E1F7E003
:101A500020E050E040E03191A32FA295AF70B0E0BC
:101A600090968C9190E03F7002C0959587953A953D
:101A7000E2F780FD3CC0C501042E01C0880F0A9426
:101A8000EAF7282B4F5F5F4F4630510521F7F801E9
:101A90008081821729F0208380923E0199249394BB
:101AA0000E940F0C0F5F1F4FF5EDCF16F6E0DF061B
:101AB00009F0B2CF80913E01882359F08150809384
:101AC0003E018823B1F08FE99FE00197F1F700C054
:101AD0000000892DDF91CF911F910F91FF90EF9022
:101AE000DF90CF90BF90AF909F908F90089580E04F
:101AF000C8CFC958D74F84E0F70191917F019993DE
:101B00008150D1F7E6CF6CEE7EEF90E080E00E944E
:101B1000912960E082E090E00E94732960E083E018
:101B200090E00E94732910922708109228081092C2
:101B3000290810922A0860E084E090E00E9473294E
:101B400060E081E290E00E94732960E085E090E02F
:101B50000E94732960E086E090E00E9473296FEF95
:101B600087E090E00E94732940E050E0BA0188E0ED
:101B700090E00E94852960E08DE090E00E9473294A
:101B800040E050E0BA0188E190E00E94852960E0E1
:101B900087E190E00E94732940E050E0BA018CE1B7
:101BA00090E00E94852960E080E290E00E94732925
:101BB00040E050E0BA0188E190E00E94852940E0D1
:101BC00050E0BA018FE090E00E94852940E050E0AB
:101BD000BA0183E190E00C94852910922608EEE189
:101BE000F7E086E0DF011D928A95E9F70C9458082A
:101BF0001F93CF93DF93CDB7DEB7AA970FB6F894B4
:101C0000DEBF0FBECDBF88E998E02091F100FC0156
:101C10002193CF01F8E0803A9F07B9F780919908A6
:101C2000833009F46FC0B8F4813009F446C08230C3
:101C300009F4B0C08091E80083FF7BC280919808CE
:101C4000909199089A3008F074C2E92FF0E0EC58AE
:101C5000F44D0C943F298A3009F48BC08B3009F481
:101C60006EC0893039F780919808813219F78091D8
:101C70009C0890919D080297E8F68091E800877F84
:101C80008093E8008091E80082FF37C09091F300D4
:101C90008091F200029729F48091F1008B7F8130CE
:101CA00021F48091F10080938B088091E8008B777C
:101CB0008093E8000E947106BDCF80919808813A18
:101CC00009F0B8CF8091E800877F8093E800809189
:101CD0009C0890919D08892B61F468E08CE898E05D
:101CE00070E00E9423078091E8008B778093E800E2
:101CF000A1CF60E090E080E0F3CF80919608811161
:101D0000C1CF98CF80919808813A09F093CF809104
:101D10009C0890919D08892B09F08CCF8091E80058
:101D2000877F8093E8008091E80080FFFCCF80915E
:101D3000F1058093F1008091E8008E77B9CF809112
:101D40009808813209F076CF80919C0890919D0887
:101D5000892B09F06FCF8091E800877F8093E8009E
:101D60000E94710680919A088093F1050E94ED0D02
:101D700061CF80919808813209F05CCF8091E800B2
:101D8000877F8093E8000E94710680919B08809372
:101D90008A0850CF80919808813A09F04BCF809102
:101DA000E800877F8093E8008091E80080FFFCCF07
:101DB00080918A08BECF803899F0823809F0B9C185
:101DC00080919C088F70873008F0B3C18093E90040
:101DD0008091EB0085FB882780F91092E90006C00E
:101DE0008091940890919508911182609091E800FB
:101DF000977F9093E8008093F1001092F10080911A
:101E0000E8008E7792C1882309F480C1823009F0FE
:101E100090C180919A08811183C180919C088F7034
:101E20002FEF280F263008F084C18093E90020911D
:101E3000EB0020FF75C1933031F48091EB0080629C
:101E40008093EB006DC19091EB0090619093EB005B
:101E500021E030E001C0220F8A95EAF72093EA00E2
:101E60001092EA008091EB008860EACF811161C195
:101E700010919A081F778091E3008078812B8093DE
:101E8000E3008091E800877F8093E8000E9471065C
:101E90008091E80080FFFCCF8091E3008068809310
:101EA000E30082E0111183E08093960842C18058DC
:101EB000823008F03EC180919A0890919B088C3D39
:101EC00023E09207A1F583E08A838AE289834FB7F2
:101ED000F894DE01139620E03EE051E2E32FF0E0BB
:101EE00050935700E49120FF03C0E295EF703F5FED
:101EF000EF708E2F90E0EA30C0F0C7968D939D93DF
:101F00002F5F243159F74FBF8091E800877F80937E
:101F1000E8006AE270E0CE0101960E9423078091FA
:101F2000E8008B778093E80004C1C096E7CF40912A
:101F30009C0850919D08292F33272330310509F43F
:101F400044C078F52130310509F46FC08BE390E08F
:101F5000E9EAFAE02230310509F0EBC02091E8000F
:101F6000277F2093E80020919E0830919F088217D8
:101F7000930708F49C0140E02115310509F064C085
:101F8000411162C08091E80082FDC9CF809196081E
:101F9000882329F2853019F28091E80083FFF2CF7F
:101FA000BECF21323105A9F12232310509F0C1C07D
:101FB0004115510509F443C04130510509F0B9C03C
:101FC00082E390E0EFE2FAE0C9CF992781309105F2
:101FD000C1F0009759F0029709F0ABC0E6EFFAE0C4
:101FE000E4918E2F90E0E6EFFAE007C0E8E5FBE031
:101FF000E4918E2F90E0E8E5FBE0009709F499C0AA
:10200000ADCFE0E4FBE0E4918E2F90E0E0E4FBE074
:10201000F4CF4115510571F04130510509F089C0E7
:1020200089E090E0E4EDFAE099CF82E190E0E4EE1F
:10203000FAE094CF89E090E0EBEBFAE08FCF88E410
:1020400090E0E1E6FAE08ACF80919608882309F4CF
:1020500066CF853009F463CF8091E80083FD5FCFC0
:102060008091E80082FD8ECF8091E80080FF84CFD0
:102070009091F3008091F2002115310519F088301C
:10208000910550F041E0089709F040E08091E800A8
:102090008E778093E80070CF44914093F1003196A1
:1020A000215031090196E8CF803809F042C0809173
:1020B000E800877F8093E800809197088093F10083
:1020C0009ECE811136C010919A08123090F5809101
:1020D000E800877F8093E800109397080E947106BC
:1020E000112311F084E005C08091E30087FDFACF51
:1020F00081E08093960842E061EC81E00E949006C6
:1021000042E261EC82E00E94900613C080919A083E
:10211000813079F481E0933009F080E08093950874
:102120001092E9008091E800877F8093E8000E9488
:1021300071068091E80083FF0AC08091E800877FE4
:102140008093E8008091EB0080628093EB00AA9678
:102150000FB6F894DEBF0FBECDBFDF91CF911F91B8
:1021600008950E94ED0D2FEF84E39CE02150804004
:102170009040E1F700C0000081E08093E00080E241
:102180008093D8001092C9008FE19EE40197F1F787
:1021900000C0000087E090EBDC018093A8089093DA
:1021A000A908A093AA08B093AB0888E19CE00FB6F9
:1021B000F894A895809360000FBE90936000FFCFC5
:1021C0008823B1F19CEF980F913A78F4EEE1F7E0B3
:1021D00024E237E09191891303C0DF0111971C922B
:1021E0002E173F07B9F70C94980790E2980F983094
:1021F00050F4877091E001C0990F8A95EAF7892F12
:102200000E949107F0CF9BE5980F933020F490E067
:1022100080E00C94420898E5980F973120F490E004
:1022200080E00C942C088F3B19F410921D07DBCF33
:102230000895CF93DF93EC010E94E010CE01805E01
:102240009109089720F066E078E0209711F46BE19F
:1022500078E0CE01DF91CF910C94430B809136074B
:1022600090913707009711F00E94191110923707CB
:1022700010923607089580913407909135070097A2
:1022800031F00E9419111092350710923407089509
:102290000C943B118091FD07882369F01092FD0793
:1022A0008091FF07882321F082EE90E00C941911B1
:1022B00083EE90E0FBCF08958091FF07811103C06A
:1022C00080EE0C94E0108091F107823019F483EED7
:1022D0000E94E0101092F10708950F931F93CF937F
:1022E000C82F882309F46EC08CEF8C0F813AA8F5B3
:1022F0000EE117E084E297E0F8012191C217F9F0AE
:102300008E179F07D1F7EFEF80E0D8019D918D01E7
:10231000C91781F0EF3F19F4911101C0E82F8F5FC9
:10232000863099F7EF3F31F00E2E000CFF0BE45E84
:10233000F84FC283CF911F910F910C949807EEE153
:10234000F7E02191C21303C0DF0111971C928E1791
:102350009F07B9F70E949807D6CF80E28C0F88308C
:1023600068F4C77021E030E001C0220FCA95EAF797
:1023700080912608822B80932608DCCFEBE5EC0FBA
:10238000E33050F4F0E0ED51F94F808190E0CF91CF
:102390001F910F910C944208E8E5EC0FE73160F4CF
:1023A000F0E0EE0FFF1FEA51F94F80819181CF914C
:1023B0001F910F910C942C08CF3B21F481E0809366
:1023C0001D07B8CFCF911F910F910895CF93C82FBC
:1023D0000E946D11C93349F42FEF87EE93E021502D
:1023E00080409040E1F700C000008C2FCF910C940A
:1023F000E0100F93CF93DF93C42FD22FFC01828183
:10240000882399F0409303080E9485079093E7077B
:102410008093E607C77081E001C0880FCA95EAF78C
:10242000DF91CF910F910C942208809103088413BF
:1024300040C02091E6073091E7079FB7F89440919C
:102440002B0850912C0860912D0870912E089FBF89
:10245000421B530B4331514060F5C0E2CD0F8D1745
:10246000C1F090E2980F983048F4877091E001C075
:10247000990F8A95EAF7892F0E941B08C83048F403
:1024800081E09D2F977001C0880F9A95EAF70E940E
:102490002208802F0E94E611C83090F4D77081E0A6
:1024A00001C0880FDA95EAF7DF91CF910F910C9474
:1024B0001B08C77081E001C0880FCA95EAF7F4CF06
:1024C000DF91CF910F91089580915908813079F073
:1024D000882349F0823039F0843069F08091E50733
:1024E00080932608089582EE0E94E010F7CF8CE2D8
:1024F0000E94E611F3CF88E2FBCFCF92DF92EF92FA
:10250000FF920F931F93CF93DF93EC018AE0C82EC5
:102510008881882309F479C08130C9F599818A813D
:10252000913029F422960E94E6112196F1CF923043
:1025300021F422960E946D11F8CF933021F4229657
:102540000E94E010F2CF943011F02196EECF229647
:1025500030E020E0AE014F5F5F4F8053990B8A302F
:10256000910550F02150310900F38FE99FE0019768
:10257000F1F700C00000F6CFC29EB001C39E700DFF
:1025800011249C01260F371F8981EA01E3CFE82F30
:10259000F0E0E354FB4FD490082F0695069506957E
:1025A00010E0F801E355FB4FE4908770F12C082E02
:1025B00002C0F594E7940A94E2F7E1E0EE22FF24EA
:1025C00003561B4FF801049110E002C015950795C2
:1025D0008A95E2F701701127E114F10419F081EEF8
:1025E0000E946D110115110519F086EE0E946D1102
:1025F0008D2D0E94E611012B19F086EE0E94E0104D
:10260000EF2809F492CF81EE9BCFDF91CF911F91FC
:102610000F91FF90EF90DF90CF900895CF93DF93CD
:10262000EC01805E9109089720F061E178E0209745
:1026300011F462E278E0CE010E94430B8C2FDF910F
:10264000CF910C946D11CF93DF93EC010E940E1388
:10265000CE01DF91CF910C941911BF92CF92DF92EE
:10266000EF92FF920F931F93CF93DF936B017C0147
:102670000CE110E0C7E0D0E0BB24B394D701C60161
:10268000002E04C0B695A795979587950A94D2F722
:10269000282F2F70D9F4B11004C087E290E00E9477
:1026A0002313219704501109CF3FDC0751F4DF9128
:1026B000CF911F910F91FF90EF90DF90CF90BF903F
:1026C0000895C430D105D4F6B12CD8CF822F90E034
:1026D0002A3028F44D960E942313B12CE2CF06979E
:1026E000FACF809126088093E50710922608809102
:1026F0005908813089F0882359F0823091F0843074
:10270000B9F08FE39CE90197F1F700C0000008954C
:1027100082EE0E946D11F5CF88E193E00E942313B1
:10272000F0CF82EE0E946D1187E50E94E611E9CF9D
:1027300086EE0E94E61188E1F8CFCF93DF93FC018B
:102740002081FB014081518135E0349FC001359FDC
:10275000900D1124FC01213079F4EB5BFD4FC59104
:10276000D4913091FC07311111C0213041F4CE01D8
:10277000DF91CF910C942313E95BFD4FF0CF223012
:1027800059F48AE290E00E942313F1CFFC01EB5B45
:10279000FD4F85919491ECCFDF91CF910895CF9328
:1027A000DF932091FF07FC01E258FD45EE0FFF1F6C
:1027B000E20FF11DEE0FFF1FE450FE4FC591D491C3
:1027C000211105C0CE01DF91CF910C9423130E94FB
:1027D0007113BE0190E080E00E942D13DF91CF9134
:1027E0000C9464121F93CF93DF9386539D4526E08C
:1027F000289FE001299FD00D1124CC57DE4F13E014
:10280000FE018591949189322DE5920739F00E945D
:102810002313113019F011502296F2CFDF91CF918E
:102820001F910895FB014081518165E0649F9001F3
:10283000659F300D1124F901EC5BFD4F4491FC01C3
:102840008081813059F42B5B3D4FF9018591949142
:102850004230A9F130F44130A1F10895295B3D4F98
:10286000F4CF433019F0463019F008950C94F21368
:102870008530910541F168F482309105C9F018F472
:10288000019799F0089583309105A9F00497A9F074
:1028900008958730910529F100F19C0129583D45A3
:1028A0002630310508F50C94CF138BE690E009C073
:1028B0008CE690E006C00E94B1108AE69DE50E9479
:1028C000FF0B0C9423138EE79DE50E94FF0B909362
:1028D0003707809336070C940E1387EC96E00C9420
:1028E0007D128DEC96E0FBCF0895CF93C82F0E9408
:1028F000EF0BCC2399F060E870E080E090E00E945C
:10290000660881EE90E00E940E1380EE90E00E9437
:102910000E1382EE90E0CF910C940E1381EE90E0B6
:102920000E94191180EE90E00E94191182EE90E051
:102930000E94191161E070E080E090E0CF910C946A
:1029400066088091340790913507009761F485EE11
:1029500090E00E940E1385EE90E0909335078093EF
:10296000340781E008950E941911109235071092E2
:102970003407F7CF8091FD0781110EC081E080936D
:10298000FD078091FF07882321F082EE90E00C94F0
:102990000E1383EE90E0FBCF0895CF93DF93FB01FE
:1029A0002081318145E0429FF001439FF00D1124C9
:1029B000EB5BFD4FC591D4912091FC07211104C020
:1029C000FC018081813029F4CE01DF91CF910C94FC
:1029D00023138230B9F48AE290E00E94231380919D
:1029E0000008882319F085EE0E94E01084E390E04F
:1029F0000E94231380910008882331F385EE0E9402
:102A00006D11E2CFDF91CF9108958091FF07811181
:102A100005C080EE0E946D1181E0089581E08093F1
:102A2000F107FACF45E050E06CE170E080EA98E011
:102A30000C9463299091A008937059F08093A10899
:102A40006093A208493708F048E74093A3080C9424
:102A500012150895E0EAF8E0438128E0421B08F4EB
:102A600040E08181628190E00C941A15E0EAF8E080
:102A7000438128E0420F08F44FEF8181628190E0AA
:102A80000C941A15E0EAF8E0628128E0621B08F471
:102A900060E08181438190E00C941A15E0EAF8E04F
:102AA000628128E0620F08F46FEF8181438190E03A
:102AB0000C941A15E0EAF8E0818143816281885024
:102AC000990B0C941A15E0EAF8E0818190E04381BB
:102AD000628108960C941A15E0EAF8E024813AE045
:102AE000230F08F42FEF24830C941215E0EAF8E08A
:102AF00024813AE0231B08F420E024830C9412156F
:102B00009091A008937099F0811109C094609093FE
:102B1000A0081092F604662351F00C94121583302D
:102B200010F09860F4CF880F880F982BF0CF08959D
:102B30008091A00886958695815009F482E061E035
:102B40000C9480158091A008869586958F5F8330C0
:102B500008F081E061E00C948015E0EAF8E089E09B
:102B600080838091F2059091F305A091F405818313
:102B70009283A3838FE784830C941215CF93809163
:102B80004101909142010196E1F480910F059091ED
:102B900010050296B1F481E090917308911101C083
:102BA00080E0C82FC17080915D088C1741F08823A8
:102BB00051F00E9456090E941215C0935D08CF91F2
:102BC000089581E0EECF0E946209F5CF8F929F9227
:102BD000AF92BF92CF92DF92EF92FF920F931F932B
:102BE000CF93DF938091F504C0E0D6E18F3F09F0E9
:102BF000D0C08091380790913907A0913A07B091E1
:102C00003B072FB7F894C0902B08D0902C08E09089
:102C10002D08F0902E082FBF97018601081B190B75
:102C20002A0B3B0BEFB7F89440912B0850912C08DE
:102C300060912D0870912E08EFBF40933807509394
:102C4000390760933A0770933B074091EC07509126
:102C5000ED076091EE077091EF074F3FEFEF5E07D2
:102C60006E077E0709F0A1C0C0912F08EFE2F8E0DF
:102C70006C2F70E00197AF4FBF4F8C199D09AE09C3
:102C8000BF09C713AEC060932F088091EC079091E5
:102C9000ED07A091EE07B091EF0721E08132FEE44D
:102CA0009F07A105B10508F420E0D0E081323EE4A1
:102CB0009307A105B10540F43091A008D32FD3703C
:102CC00019F0D32FD695D69530914207321759F087
:102CD0002093420781329E44A105B10508F494C0B7
:102CE00081E080935E088091F604813009F4A5C0EC
:102CF000882309F48CC0823009F4FAC1833009F4C6
:102D000001C2DF91CF911F910F91FF90EF90DF9063
:102D1000CF90BF90AF909F908F900895D29FF00179
:102D2000D39FF00D1124EB5CFD4F4289538941156F
:102D3000510511F443E151E0D29FF001D39FF00D12
:102D40001124EB5CFD4F8681882311F125853685A2
:102D50006FB7F89480912B0890912C08A0912D08C2
:102D6000B0912E086FBF821B930B4817590780F450
:102D7000CD9F800111248189811105C0C8018B5C20
:102D80009D4F0E94CA08C801855C9D4F0E94EB08B8
:102D9000CF5F2C2F30E08091F504082E000C990BAA
:102DA000821793070CF0BACF24CF480159018094C1
:102DB0009094A094B09484169506A606B70660F485
:102DC0004FEF5FEFBA014093EC075093ED0760932C
:102DD000EE077093EF0748CF400F511F621F731F1C
:102DE000F2CF418D528D6A01F12CE12C8C159D059D
:102DF000AE05BF0520F461507F5F329642CF400F91
:102E0000511F528F418FF8CF0E94BE156CCF109288
:102E1000E4058091380790913907A0913A07B09165
:102E20003B0780933E0790933F07A0934007B093E2
:102E3000410781E08093F60464CF80914401D81368
:102E40003BC09091A00893702091430130E081E055
:102E50009217130609F480E081708093E605DD2364
:102E600069F1D13091F51091A108D090A208E091BC
:102E7000A308F0E0E35CFA4FD11037C0F4901F2DA7
:102E8000CF2D9DEAA92E95E0B92ED12CC12CF501AC
:102E900081915F019091E505892331F0212F4F2D1C
:102EA0006C2FC6010E944B09FFEFCF1ADF0A26E301
:102EB000C216D10461F709C081E0CECF882329F082
:102EC00040E060E080E00E946F098091E4058F5F40
:102ED0008093E40582E08093F6048091E6058111F9
:102EE00078C0D11179C083E0A5CFED2CF12CC4912D
:102EF0000C2FEC2FF0E026E0129FC00111242FEFE1
:102F000030E0B9010E942B29812F90E0880F991F92
:102F1000A5E5A69FA001A79F500D1124841B950B2A
:102F2000982F990F890FD901AE19BF09AE9FA00143
:102F3000AF9F500DBE9F500D1124152FD89ED0016C
:102F40001124AB2FBB276901CA1ADB0ACE9ED00120
:102F5000CF9EB00DDE9EB00D11246901C81AD108B4
:102F6000CE9CC001CF9C900DDE9C900D1124892F2A
:102F70009927281B390B2E9FC0012F9F900D3E9F34
:102F8000900D1124F92E62307105A1F050F46115F5
:102F9000710509F476CF6130710581F0F52E1B2F94
:102FA00070CF6430710569F080F06630710509F406
:102FB00068CFF4CFFC2EC52F192F63CFFC2ECB2F5B
:102FC00060CFF52E1C2FC92F5CCFC52F102FFB2EE5
:102FD00058CFDD2309F495CE8091410190914201B3
:102FE0000196B1F080913C0790913D070197909335
:102FF0003D0780933C07892B59F48FEF9FEF909307
:1030000042018093410181E080935E080E94BE15D9
:1030100080915E08882309F474CE40E060E080E08F
:103020000E946F0980914101909142018F3F980762
:1030300009F43EC040E050E060EF72E40E947A0B79
:10304000C0917308D0E00EE618E083E7E82E88E030
:10305000F82E209751F1F80121918F012F3F11F1A6
:10306000B12C45E0240390011124C901835C994FE0
:103070006C01FC01849198EC883C20F490E084364B
:1030800008F094E620915F08222301F12CE9280F33
:103090002436F0F4F60134962491B394F4E1BF128F
:1030A00023C02197E016F106A1F610925E0829CE02
:1030B00080910F05909110058E3FEFEF9E0709F468
:1030C000BFCF40E050E068EC72E4B8CF843610F334
:1030D000F601339624913197449131976491891B7D
:1030E000990B0E944B09D6CF12160CF4BACFD9CF48
:1030F000D09344018091A0088370809343010E9483
:10310000A60CF1CE40913E0750913F0760914007D9
:10311000709141072FB7F89480912B0890912C085B
:10312000A0912D08B0912E082FBF841B950BA60BE4
:10313000B70B8C329140A105B10508F4E2CD109295
:10314000F604DFCD909173086623D9F09530A0F492
:10315000EEE6F8E030E020E041914F3F41F42259A3
:10316000374FF90180839F5F9093730805C02F5FED
:103170003F4F2530310581F781E080935E080C9444
:10318000BE159923C9F3EEE6F8E030E020E0419166
:10319000841307C02259374F8FEFF9018083915074
:1031A000E3CF2F5F3F4F2530310589F7E5CF809181
:1031B000F6079091F7078036910511F50E94EF0B05
:1031C00089E30E946D112FEF8EE595E0215080403C
:1031D0009040E1F700C0000089E30E94E010809178
:1031E000330791E089278093330760E082E00E94F3
:1031F000A2186091330781E00E94A21880E0089530
:1032000081E0089580910008882349F085EE0E94AE
:10321000E0101092000860E082E00C94A21808957B
:103220008091000881110EC08091330781110AC07E
:1032300085EE0E946D1181E08093000861E082E0DC
:103240000E94A21881E0089525E030E030933D0708
:1032500020933C07082E000C990B90934201809319
:10326000410181E080935E080C94BE158F929F927D
:10327000AF92BF92CF92DF92EF92FF920F931F9384
:10328000CF93DF93CDB7DEB72F970FB6F894DEBF9D
:103290000FBECDBF4B875C876D877E878F878E85FE
:1032A0009F85892B31F0CA0189238F3F11F00C943F
:1032B0000E2385E0FE013B96DE01169601900D92ED
:1032C0008A95E1F789859A85892B41F01E81FF80D7
:1032D000812F8F218F3F11F00C94FA222F960FB679
:1032E000F894DEBF0FBECDBFDF91CF911F910F913C
:1032F000FF90EF90DF90CF90BF90AF909F908F9016
:1033000008950E94010B082F682F89819A810E94DD
:10331000D807E12FF0E026E0F29EE00DF11D112428
:1033200030E3039FE00DF11D1124EE0FFF1FE15963
:10333000F94F059114918885811105C0F884F11029
:103340003EC0912C56C08091F5048F3FB9F395E3B0
:10335000C92E92E0D92EB12CA12CFF24F394809198
:10336000F504082E000C990B8A159B053CF3D60139
:1033700016968C9116978823D9F019968D919C9169
:103380008017910739F48091010890910208801705
:10339000910771F0F601F7861487038781898111FF
:1033A00003C0C6010E94CA08C60106960E94EB0827
:1033B000FFEFAF1ABF0A26E1C20ED11CD0CF109288
:1033C000EC071092ED071092EE071092EF078F8135
:1033D0002E8136E0839FC00111248F5E9A4F820FA9
:1033E000911DDC01EC90BFEF99249394EB1609F446
:1033F000A8CF80902F08C92CD12CC601880D911D13
:10340000099764F188E090E05C01AC18BD08B60152
:10341000605D774FA50180E398E00E94692BB601BB
:10342000685C774FA50188E398E00E94692BA501AD
:10343000440F551FB601660F771F685B774F88E40E
:1034400098E00E94692BB601605C774FA50180E48B
:1034500098E00E94692B8A9480922F0880912F080F
:1034600090E02E2D30E0A901440F551F4F5B5A4FBD
:10347000220F331FB9016E5B7A4F21E0280F991597
:1034800008F423C180932F080E943B11FF2071F0A4
:103490008091FF07813051F48091F107813031F440
:1034A00083EE0E946D1182E08093F1078091FE0708
:1034B000811125C20938BDE51B0708F0A7C10238F4
:1034C000EDE51E0708F0B8C10A33FDE51F0708F057
:1034D0006BC106332DE5120708F074C10C341105D9
:1034E00008F008C10A34110508F027C4C8014E9736
:1034F0000A9708F422C48091FB078823B1F08091D9
:10350000680890916908A0916A08B0916B080097CB
:10351000A105B10541F067E0B695A7959795879508
:103520006A95D1F780FF0E94EF0BC80197558F3F36
:10353000910511F008F040C02091F504022E000C16
:10354000330B2817390714F48093F504288536E1E6
:10355000389F6001399FD00C1124F601EB5CFD4FC0
:103560007F01208B8681222309F4F9C41287018709
:103570008F5F86830E948507D7011E969C938E934A
:103580001D9717961C9217978091250890912608F1
:10359000892B18968C931897ED91FC911197309781
:1035A00039F054966D917C91C601855C9D4F0995CB
:1035B00010930208009301088885882379F0809190
:1035C00026088272013EFCE51F0709F4E7C408F0F3
:1035D000D3C4003E3CE5130709F4DCC417FFE6C47E
:1035E0008885882329F10E9471136801E894D7F82F
:1035F0005CE0E52EF12C96010E2C02C03695279545
:103600000A94E2F72F7087E290E031F0822F90E089
:103610002A3008F0C9C44D960E94231394E0E91A99
:10362000F108ACEFEA16AFEFFA0629F70E94641230
:103630009885992309F43AC6109203080230BCE534
:103640001B0708F4D8C50631ECE51E0738F09801D1
:103650002B5F3C452930310508F0CDC50E94300C68
:1036600090936D0880936C080031FCE51F0709F406
:1036700091C508F022C508303CE5130709F47CC564
:1036800008F0F1C404309CE5190709F46DC508F091
:10369000D7C40230BCE51B0709F460C580916C08F3
:1036A000826003301C4509F45CC560916C08109180
:1036B0006D0884E090E00E947329612F81E290E020
:1036C0000E9473290E94ED0D09CE90E0FC01E15D9E
:1036D000F74FDA013C913183DB013C913187E18A7C
:1036E000880F991FFC01E15DF74F128E118E91E05A
:1036F000822FC3CE0D34110508F4FDCE0F34110511
:1037000008F41BC3C8018B529D450A9708F0F3CEFD
:1037100068018BE2C81A8DE5D80A88E18C9D80018A
:103720008D9D100D11240B5B1E4FD80111968D91AC
:103730009C9112972091F6073091F707FF2009F42A
:10374000E7C1820F931F9093F7078093F6071E96A9
:10375000ED91FC91309709F492C1C801099581114E
:103760008EC18091F6079091F707F801218132818F
:10377000821B930B9093F7078093F6078091F607CF
:103780009091F7078930910509F4AEC28234910512
:1037900009F0B5C20E94EF0B90E080E00E94021990
:1037A00081E00E94751460C208343DE5130798F467
:1037B00005348DE5180730F4C8018C539D450597F5
:1037C00008F099CEFF2009F489CD0E94EF0BC801C3
:1037D0000E94F21383CD0D349DE5190708F48BCEBA
:1037E0000E37ADE51A0730F0C8018F579D45029797
:1037F00008F081CEFF2009F4E0C00E94EF0BC80161
:103800000E94FF0B009709F469CD9DC2083ABDE5FF
:103810001B0709F4FAC280F5003AFDE51F0709F419
:10382000CBC298F40F383DE5130708F464CE043991
:103830008DE5180708F070C2FF2009F44FCD0E94F3
:10384000EF0BC8010E94CF1349CD023A9DE519073D
:1038500009F407C308F4ECC2033ABDE51B0709F4F9
:1038600010C3073AEDE51E0709F045CEFF2009F425
:10387000D0C00E94EF0BCDC00F3AFDE51F0718F531
:103880000D3A2DE5120708F032C30A3A3DE5130759
:1038900009F41AC308F405C30B3A9DE5190709F4A6
:1038A0009FC20C3AADE51A0709F025CEFF2009F4B6
:1038B00015CD0E94EF0B81E08093FE0760E071E080
:1038C00080E090E02EC0003BBDE51B0709F460C21C
:1038D00008F43CC2013BFDE51F0709F00CCEFF20B8
:1038E00009F4FCCC0E94EF0B8091FC0791E0811160
:1038F00090E09093FC07811130C386E06AC2FF20FC
:10390000A1F09091F0070093F0079C3109F0E6CC0C
:10391000023109F0E3CC1092FE0761E070E080E034
:1039200090E00E94660882E054C209382DE5120733
:1039300008F04CC002383DE5130708F0CFCC0A333D
:103940008DE51807D8F406339DE5190708F0C6CCB5
:103950000C34110550F40A34110528F4C8014E97AF
:103960000A9708F0C8CDC8012EC00D34110508F41F
:10397000C2CD0F34110508F0C5CEF5CF0834ADE542
:103980001A0760F40534BDE51B0708F0A7CCC80191
:103990008C539D45059708F4A1CCADCD0D34EDE5D4
:1039A0001E0708F4A8CD0E37FDE51F0730F0C8014B
:1039B0008F579D45029708F09ECDC8010E94FF0BCE
:1039C000009709F48BCC0E94191188CC083A2DE598
:1039D000120709F41DC258F5003A8DE5180709F4DD
:1039E0007DCC30F40F38ADE51A0708F077CC83CDE5
:1039F000023ABDE51B0709F440C208F41EC2033AAF
:103A0000FDE51F0709F44AC2073A2DE5120709F040
:103A100072CD8091FF078111F2C1FF2009F4EAC144
:103A20008FEB90E00E940E1384E490E08CC10F3A7B
:103A30003DE51307B8F40D3A8DE5180708F04ECCB4
:103A40000A3A9DE5190709F449CC08F447CC0B3A2A
:103A5000BDE51B0709F442CC0C3AEDE51E0709F45D
:103A60003DCC49CD003BFDE51F0709F491C108F4A9
:103A70006DC1013B3DE5130709F430CC3CCD88E135
:103A80008C9DF0018D9DF00D1124EB5BFE4F89851F
:103A90009A85958B848B838181110E94930888E19C
:103AA0008C9DF0018D9DF00D1124EB5BFE4F868106
:103AB000978122853385AC01422B532B452B41F056
:103AC0002115310519F0C9010E94FF0B0E940E1348
:103AD0008091FB0791E0980F9093FB07811105C03F
:103AE0001093F3070093F20749CEE091F207F091AB
:103AF000F30780E1268937892115310511F08150BE
:103B000029F4178B068B0E94EF0B38CEF901F2CF08
:103B1000009729F082239323892B09F494C0809184
:103B2000FB0781508093FB078111A0C01092F3071F
:103B30001092F207EE24E39488E18C9DF0018D9DB4
:103B4000F00D1124EB5BFE4F81819281281B390B14
:103B50003093F7072093F6070088F189E02D30971E
:103B600011F0C801099588E18C9DF0018D9DF00D43
:103B70001124EB5BFE4F8381E091F207F091F30794
:103B800090E18111AAC088E18C9DF0018D9DF00D1E
:103B90001124EB5BFE4F8681978122853385AC0132
:103BA000422B532B452B41F02115310519F0C9014A
:103BB0000E94FF0B0E94191188E18C9DF0018D9DE0
:103BC000F00D1124EB5BFE4F838981112EC02481FF
:103BD00035812115310549F089859A8544895589B2
:103BE000841B950B8217930700F588E18C9DF001EB
:103BF0008D9DF00D1124EB5BFE4F80859185009724
:103C000011F00E94231388E18C9DF0018D9DF00D31
:103C10001124EB5BFE4F84859585009731F00E945F
:103C2000FF0B009711F00E942313EE2061F088E152
:103C30008C9DF0018D9DF00D1124EB5BFE4F128ADF
:103C4000138A178A168A8091F4079091F5078930B4
:103C5000910509F45DC08234910509F050C080914E
:103C6000F807882309F49DCD86E046C0E091F2076D
:103C7000F091F30780E10E171F0751F4D801569613
:103C80008D919C919093F3078093F20753CFFA01A3
:103C90004689578941155105B9F08150A9F004179B
:103CA0001507A9F7D80156968D919C91978B868B15
:103CB00088E18C9DF0018D9DF00D1124EB5BFE4F92
:103CC000128A138A178A168AE12C36CF238182172B
:103CD00009F459CF0688F789E02D309711F09150FB
:103CE000A9F70E9470084FCF0E94EF0B0E943B1172
:103CF00089E00E94930883E06F2D0E94A2188091B2
:103D0000F6079091F7079093F5078093F407E6CABA
:103D100089E00E947008EFCFFF2009F4DFCA0E94FB
:103D2000EF0B8FEB90E00E940E13C8018A559D4562
:103D30000E9423138FEB90E046CEFF2009F413CEB0
:103D40000E94EF0BC8010E940E13C8CA80910008A0
:103D5000FF2069F0882341F00E94EF0B85EE0E945E
:103D6000E01080E89DE54CCD8AE290E0ECCF88231E
:103D700061F080E89DE50E94FF0B009711F00E9422
:103D8000191185EE0E946D11A9CA8AE290E01BCE3E
:103D900010910008FF2049F00E94EF0B80E290E0B4
:103DA0001111D1CF87E390E0CECF80E290E01111E6
:103DB0000ACE87E390E007CEFF2009F48FCA0E9465
:103DC000EF0B8091FF07811107C081E08093FF070F
:103DD00080E00E94241982CA1092FF0781E0F9CF87
:103DE000FF2009F47BCA0E94EF0B8DE690E00E9451
:103DF000231374CA84E490E00E9419119BCFFF2022
:103E000009F46CCA87E098E0F2CFF1100E94EF0B42
:103E10008091FF07811106C08CE390E0FF2009F438
:103E2000D2CD91CF8BE298E0FF2009F457CADFCFC3
:103E3000FF2019F00E94EF0B51CA8091FF078111FA
:103E40000BC08FEB0E946D1186E693E00E94231356
:103E50008FEB0E94E0102FCD86EA90E00E942313A2
:103E60002ACDFF2051F00E94EF0B8091FD078111B8
:103E700002C00E94BA148BE285CF8BE20E94E01050
:103E80002DCAFF2059F00E94EF0B8091FD07811190
:103E900002C00E94BA148BE292E055CF8BE292E00E
:103EA00092CDFF2009F41ACA0E94EF0B8091FF0700
:103EB000811103C086E691E09ACF8BE198E00E94E1
:103EC00023138AE090E093CFFF2009F407CA0E94F1
:103ED000EF0B8091F80791E089278093F8070E9403
:103EE00075146091F80780E00E94A218F7C9FF20BE
:103EF00009F4F4C90E94EF0B8FEF9FEF0D3A1D45B7
:103F000011F481E090E02091F9073091FA07820FD7
:103F1000931F97FF1AC084E090E09093FA07809374
:103F2000F907E091F907F091FA07EE0FFF1FE7524A
:103F3000F94F808191819093100580930F0581E066
:103F400080935E080E94BE15C9C9853091052CF387
:103F50001092FA071092F907E4CF85E03ACF882350
:103F600009F42ACB8189882309F426CBC601855C14
:103F70009D4F0E94EB0820CB073E8CE5180708F008
:103F80002DCB6EE1600F609359088CE090E00E94A9
:103F9000732924CB811104C081E003C08111FCCFBF
:103FA0008FEF0E9435091ACB069736CB043FBCE54C
:103FB0001B0771F1B8F4093DFCE51F0719F10A3D33
:103FC0002CE51207B9F1083D3CE5130709F030CBA9
:103FD00006E221EE41EE68ED7CE5CE0106960E94F8
:103FE000F9117CC9063F8CE51807F1F0B8F0073FDE
:103FF000ACE51A0709F01CCB07E225EE46EE67EFA9
:104000007CE5EBCF07E225EE45EE69ED7CE5E5CFFB
:1040100006E221EE40EE64EF7CE5DFCF07E225EE1D
:1040200044EE65EF7CE5D9CF06E221EE42EE66EF85
:104030007CE5D3CF08E221E045EE6AED7CE5CDCF0B
:1040400080916C0880610630FCE51F0709F489C087
:1040500080916C08886007301C4508F482C080910C
:104060006C0880627EC080916C088D7F0C303CE5CE
:10407000130709F476C070F480916C088C600A30E4
:104080009CE5190709F46DC008F47AC080916C08AA
:104090008E7F67C080916C08877F0E30BCE51B0760
:1040A00009F45FC080916C088B7F0F301C4508F4C9
:1040B00058C080916C088F7E54C00C3FFCE51F07F0
:1040C00009F456C030F503313CE5130709F46AC022
:1040D00078F401319CE5190709F460C002311C45F0
:1040E00009F0E3CA0E94ED0D80916C088F7739C00A
:1040F0000531BCE51B0709F45DC008F471C080916F
:104100006D0881600B3F1C4509F0CFCA80936D0894
:10411000CCCA01152DE5120709F448C070F40E3F12
:104120008CE5180799F180916D088E7F0F3F1C4533
:1041300068F380916D088360E9CF0230ADE51A071E
:1041400009F457C008F442C060E003301D4509F08F
:10415000ACCA8EE090E00E947329A7CA80916C08D7
:10416000816080936C08A1CA80916C088460F9CF4B
:1041700080916D088260CACF80916C088064F1CF15
:104180000E94ED0D80916C088068EBCF80916D08E6
:104190008D7FBCCF80916C088F7DE3CF80916C08C0
:1041A0008F7BDFCF80916C08837FDBCF80916D08A0
:1041B0008C7FACCF80916C0882FB992790F921E02D
:1041C000922790FB82F990FB83F9CBCF80916D0809
:1041D000982F909591708E7F892B90FB81F996CFC7
:1041E0000E94ED0D90916C08892F97FB87F98058FC
:1041F000B8CF61E0AECF809126088272F801E35C0F
:10420000FC45E431F10508F048C0E258F44D0C9447
:104210003F298091A00891E089278093A0081092FF
:10422000F6040E9412155AC848E955E162EA75E1A0
:104230000E943B0953C842EA55E168E975E1F8CFAD
:104240004AE555E163E675E1F3CF43E655E16AE5FA
:1042500075E1EECF42E455E16EE475E1E9CF4EE45D
:1042600055E162E475E1E4CF4AE255E166E375E1C8
:10427000DFCF46E355E16AE275E1DACF46E755E183
:104280006CE675E1D5CF4CE655E166E775E1D0CF38
:1042900061E081E00E94801521C80115FCE51F073F
:1042A00009F44EC00F3D1C4509F44CC00E811F811E
:1042B000992309F44BC0C8010E94010BF82E682F06
:1042C000C8010E94D807B8018F2D0E947109082FDC
:1042D000E82E8885811110922508192F12951F70DC
:1042E000143009F481C0B8F5123008F442C0A12F8F
:1042F000A850BB0B129710F40E94BE0885E0FE0187
:104300003696DE01119601900D928A95E1F789812A
:104310009A810E94AF079A81E981F0E0B6E09B9F05
:10432000E00DF11D112420E3829FE00DF11D112409
:10433000EE0FFF1FE159F94F859194910C946E197E
:104340000E94B1100E94830D0C946E19C8010E9446
:10435000AF07F82EB8CF183009F466C0193009F449
:1043600037C1173009F0C3CF882309F459C08FEB48
:104370001AC0392F3F70F32E907F19F0F29440EF5E
:10438000F4228823C9F0FF2069F080E2800F883092
:1043900010F0E1100BC080912608F82AF092260850
:1043A0000E949807802F0E946D11A1CF809125084F
:1043B000F82AF0922508F4CF802F0E94E010FF2009
:1043C00009F495CF005E083010F0E11006C08F2D83
:1043D0000E9491070E9498078ACFF0948091250847
:1043E000F822F0922508F6CF292F269526952370DE
:1043F00051F0213009F07BCF882379F0802F937022
:104400000E942C0874CF882329F0802F93700E947B
:1044100042086DCF90E080E0FACF90E080E0F0CFEE
:104420008FEB0E94E01063CF292F237009F065C045
:1044300081115DCF802F829586958770880F880FB8
:10444000402F4F7050E070E060E0082E04C0440F31
:10445000551F661F771F0A94D2F7C12CD12C760105
:1044600004FF10C03FE0C32ED12CE12CF12C04C07E
:10447000CC0CDD1CEE1CFF1C8A95D2F7C094D094A6
:10448000E094F094969596959370923019F1D8F443
:104490008090270890902808A0902908B0902A08BA
:1044A000913069F04C295D296E297F29CB01BA0131
:1044B000682179218A219B210E94B40818CF4829BC
:1044C00059296A297B29CB01BA016C297D298E29BA
:1044D0009F29F2CF4C295D296E297F29C09027089A
:1044E000D0902808E0902908F0902A08CB01BA0162
:1044F0006C257D258E259F25DFCF2695882311F0FD
:10450000292F2170222309F4F2CE802F82958695DF
:104510008770880F880F402F4F7050E070E060E088
:10452000082E04C0440F551F661F771F0A94D2F748
:10453000C12CD12C760104FF10C02FE0C22ED12C4B
:10454000E12CF12C04C0CC0CDD1CEE1CFF1C8A9568
:10455000D2F7C094D094E094F09496959695937089
:10456000923019F1D8F48090680890906908A09072
:104570006A08B0906B08913069F04C295D296E296A
:104580007F29CB01BA01682179218A219B210E94D0
:104590006608ADCE482959296A297B29CB01BA0181
:1045A0006C297D298E299F29F2CF4C295D296E29FE
:1045B0007F29C0906808D0906908E0906A08F09060
:1045C0006B08CB01BA016C257D258E259F25DFCF99
:1045D0009F70F92E882339F0892F0E949308802F2D
:1045E0000E94220884CE802F0E941B088F2D0E94DB
:1045F00070087DCE85E0FE013696DE0111960190B1
:104600000D928A95E1F7288589819A8121110C9470
:1046100081190E94AF07082F0C9489198091040812
:1046200090910508019690930508809304080C94D6
:104630005919CF92DF92FF920F931F93CF93DF937D
:1046400080915F08882309F49AC00E94E90CF82E33
:104650008091E305C4E0D0E0882311F0D0E0C0E011
:10466000C958D74F44E050E0BE018EE297E00E9467
:104670005C2B6C0188819981AA81BB8180932E0774
:1046800090932F07A0933007B09331078091E305F3
:10469000D0E0C0E0882311F0C4E0D0E09091400168
:1046A00080913F0110E000E0981759F082E090E01F
:1046B0000E94AD288C01892B21F480913F018093C9
:1046C00040018091260790912707C82AD92A90E0B7
:1046D00080E0CD2811F081E090E00E94AD28892B88
:1046E00031F58091290780933F011092270710929E
:1046F00026070115110511F10230110509F428985A
:104700005D98809128078F5F80932807863040F15D
:104710008091E305F0E0E0E0882311F0E4E0F0E0D0
:10472000E958F74F108211821282138219C081E07A
:1047300090E09093270780932607DBCF289AC958EB
:10474000D74F80912A0790912B07A0912C07B09109
:104750002D0788839983AA83BB835D9A10922807CB
:104760000E94E615C1E0F11001C0C0E08C2FDF917E
:10477000CF911F910F91FF90DF90CF9008950E94ED
:10478000E90C9091E305E4E0F0E0992311F0F0E00A
:10479000E0E0E958F74F40E030E020E0D901A65DC5
:1047A000B84F5C919191591341E09C932F5F3F4F1B
:1047B0002430310599F790912907940F9093290798
:1047C000C1E0811101C0C0E08091E305811102C008
:1047D00030E020E02958374F80912E0790912F0725
:1047E000A0913007B0913107F90180839183A283B2
:1047F000B3830E94E615BACF1F920F920FB60F92A5
:1048000011242F933F934F935F936F937F938F93D5
:104810009F93AF93BF93CF93DF93EF93FF93D09189
:10482000E900DF708091EC00C82FC17080FDC0E806
:104830001092E9008091F000877F8093F0007894D7
:104840000E94F80D1092E9008091F000886080933A
:10485000F000CD2BCF70C093E900FF91EF91DF9175
:10486000CF91BF91AF919F918F917F916F915F9108
:104870004F913F912F910F900FBE0F901F90189561
:104880001F920F920FB60F9211242F933F934F93C5
:104890005F936F937F938F939F93AF93BF93EF93A8
:1048A000FF938091E10082FF09C08091E20082FFC6
:1048B00005C08091E1008B7F8093E1008091DA0058
:1048C00080FF24C08091D80080FF20C08091DA0052
:1048D0008E7F8093DA008091D90080FF9FC080E1B5
:1048E00089BD82E189BD09B400FEFDCF81E08093DE
:1048F000960880918908811109C00E94F7050E94DD
:10490000C2068091E20084608093E2008091E10021
:1049100080FF17C08091E20080FF13C08091E20009
:104920008E7F8093E2008091E20080618093E200BC
:104930008091D80080628093D80019BC85E0809374
:1049400096088091E10084FF2DC08091E20084FFF1
:1049500029C080E189BD82E189BD89B5982F917018
:1049600080FFFBCF8091D8008F7D8093D80080910D
:10497000E1008F7E8093E1008091E2008F7E809342
:10498000E2008091E20081608093E20080919708CC
:10499000882309F449C084E0809396080E94ED0DB5
:1049A0000E94BE088091E10083FF27C08091E20051
:1049B00083FF23C08091E100877F8093E10082E044
:1049C00080939608109297088091E1008E7F8093E3
:1049D000E1008091E2008E7F8093E2008091E2000E
:1049E00080618093E20042E060E080E00E949006F7
:1049F0008091F00088608093F000FF91EF91BF916B
:104A0000AF919F918F917F916F915F914F913F9166
:104A10002F910F900FBE0F901F90189519BC1092F8
:104A200096081092890872CF8091E30087FD93E089
:104A300090939608B3CFCDB7DEB72A970FB6F89408
:104A4000DEBF0FBECDBF84B7877F84BF0FB6F8949B
:104A5000A89580916000886180936000109260004A
:104A60000FBE80E890E00FB6F894809361009093B9
:104A700061000FBE85B7806885BF85B7806885BF38
:104A80000E94F7050E94C2068091E2008460809334
:104A9000E2007894809196088823A1F01091E900B3
:104AA0001F709091EC00892F817090FD80E8182B89
:104AB0001092E9008091E80083FD0E94F80D1F70BC
:104AC0001093E90082E084BD93E095BD9AEF97BD15
:104AD00080936E000E94CD0C8093E3050E94CD0C64
:104AE00063E070E0882309F43BC187EF94E00E9403
:104AF000CB2778940E940F0CA4E1B7E061E070E04E
:104B00008D91E82FE295EF70F0E041A18F709B014D
:104B100001C0220F8A95EAF7922F9095942391A3D2
:104B200082A1822B82A327E0AA31B20749F7209AFB
:104B3000559A289A5D9AA0E6B8E0E7E7F8E0119266
:104B40001D9288E0EF37F807D1F70E94CD0C8093D3
:104B50005F0890E080E00E945D298C3E9E4F11F03E
:104B60000E94830D10922F088FEF9FEF90934908BA
:104B70008093480890934B0880934A0890934D087F
:104B800080934C0890934F0880934E08909351085F
:104B9000809350089093530880935208909355083F
:104BA00080935408909357088093560890E080E0D3
:104BB0000E945D298C3E9E4F21F00E94830D0E9431
:104BC000AD1545E050E06CE170E080EA98E00E94AD
:104BD00045298091A0088C7F11F40E94AD158CE0CE
:104BE00090E00E94552990E0B0E0A0E08093590841
:104BF00090935A08A0935B08B0935C0810925808F1
:104C000084E0809359088091E305811109C082ED09
:104C1000E5EFF5E0A1E1B5E001900D928A95E1F7AD
:104C200060E082E00E94801548E76FEF84E690E044
:104C30000E941A1520910F053091100581E02E3F3A
:104C40009FEF390709F480E080935E0880935D0848
:104C50002E3F3F4F09F489C00E9462090E9412153D
:104C600090E080E00E945D298C3E9E4F11F00E94F2
:104C7000830D82E090E00E945529809380080E9475
:104C8000300C90936D0880936C0883E090E00E9454
:104C90005529682F70E090E080E00E94B4081092DF
:104CA00073088FEF80936E0880936F08809370086D
:104CB000809371088093720885E08093E50587EE04
:104CC00095E09093750880937408EE24EA9480E14F
:104CD000A82E92E1B92E28E1C22ED12C30E4932ED9
:104CE00080919608853009F443C00E941923A1E8F9
:104CF000B8E0E7E7F8E010E000E0302F81919D9107
:104D0000981709F470C0292F282790E0FF24F39406
:104D10004F2D422309F462C099833A838F2191E099
:104D200009F490E09B830E9485078160782F9D8322
:104D30008C8349815A816B818D810E943619F801DB
:104D4000EF57F74F8081F826F0820E94BE089091BD
:104D50007F08891729F20E94BE0880937F08C0CF80
:104D600087EF94E00E94D427C4CE0E94560976CFE4
:104D700080919608843009F1109276080FB6F89465
:104D8000A895C09260000FBE9092600083B7817FAB
:104D9000846083BF83B7816083BF7894889583B72D
:104DA0008E7F83BF0FB6F894A895809160008861CC
:104DB00080936000109260000FBE80919508882358
:104DC00009F48ECF0E941923E7E7F8E08191811161
:104DD00020C088E0EF37F807C9F782CF9F5FFF0C4C
:104DE000963009F095CF0F5F1F4F0830110509F07D
:104DF00084CFEE82EF8218860E9485078160782F2B
:104E00009A8789874E815F8168858A850E943619D5
:104E10009CCFA9BCB9BC09B400FEFDCF8091D800DD
:104E20008F7D8093D8008091E00082608093E000C5
:104E30008091E00081FDFCCF53CF78941F921FB684
:104E40001F9211248F939F93AF93BF9380912B0850
:104E500090912C08A0912D08B0912E080196A11DCB
:104E6000B11D80932B0890932C08A0932D08B0932C
:104E70002E08BF91AF919F918F911F901FBE1F90E1
:104E800018951F921FB61F9211248F939F93AF9373
:104E9000BF9380917608811113C080912B08909167
:104EA0002C08A0912D08B0912E084196A11DB11D8E
:104EB00080932B0890932C08A0932D08B0932E0874
:104EC000BF91AF919F918F911F901FBE1F9018951A
:104ED0008EE14A9B02C08150E1F74A9BFECF0895C4
:104EE0005A9880E28A95F1F75A9A0895FC013BE0BE
:104EF0003A95F1F720E090E080E031E040E14A951A
:104F0000F1F7880F4A9B02C08160232742E04A954F
:104F1000F1F7000040E14A95F1F79F5F6913EECF8A
:104F200090E19A95F1F799B132E03A95F1F70000E6
:104F300040E14A95F1F792FB992790F99227208159
:104F4000920F90830895EF92FF920F931F93CF9348
:104F5000DF930F92CDB7DEB719828C017C01E60E8C
:104F6000F11C0E151F0561F481E09981911180E01B
:104F70000F90DF91CF911F910F91FF90EF900895C7
:104F80000E94682768E0CE0101960E947627F8010A
:104F900081938F01E6CF9093A7088093A608609332
:104FA000A508529A5A9A08959093A7088093A60844
:104FB0006093A50852985A9AEA9AE9E6F0E080814F
:104FC0008F7C808308956150770B91E001C0990F29
:104FD0006A95EAF720E031E0911108C0222391F0B0
:104FE0005A9A80E28A95F1F75A980895492F4823F2
:104FF00039F05A9A232740E24A95F1F79695ECCF7B
:105000005A98F9CF5A98EDCFFF920F931F93CF93F1
:10501000DF93EC018C01060F111DC017D10731F48D
:10502000DF91CF911F910F91FF900895F9900E9409
:10503000702768E08F2D0E94E327EFCF1F920F9219
:105040000FB60F9211240F931F932F933F934F93FB
:105050005F936F937F938F939F93AF93BF93EF93E0
:10506000FF93CF93DF930F92CDB7DEB719820E94E3
:10507000682767E0CE0101960E947627082F0695E3
:1050800006950695982F92959570202F2570920F72
:10509000292F2370969596958770920F891344C097
:1050A0008981811141C08091A5088017E8F120E134
:1050B0002A95F1F75A9A529A82E08A95F1F700C040
:1050C000A8E00A9FC00111240091A6081091A7082A
:1050D000080F191F5A98F8016581662321F086810F
:1050E00097810E9404280E947027F0E1FA95F1F759
:1050F0005A9852985A9A20E12A95F1F7D8011296B7
:105100006C911297662331F113968D919C910E94B8
:10511000A327D801ED91FC91882311F088E001C00C
:1051200082E080830E9468270F90DF91CF91FF91EA
:10513000EF91BF91AF919F918F917F916F915F910F
:105140004F913F912F911F910F910F900FBE0F9094
:105150001F901895ED91FC91E1CF0F931F93CF9382
:10516000DF932091A508281719060CF471C08C0153
:1051700093E0000F111F9A95E1F7C091A608D09116
:10518000A708C00FD11FF894529A5A9825E02A9583
:10519000F1F70000982F969595708570980F892FDC
:1051A000837096959695980F092B0E94702700C0E2
:1051B00067E0802F0E94E32780E18A95F1F75298FB
:1051C0005A9A4A9B17C087E090E04A9915C06D81B2
:1051D000662321F18E819F810E94A32781111EC029
:1051E000529A5A9AE881F98182E08083789482E029
:1051F00090E00DC000C0E5CF019771F4529A5A9A21
:10520000E881F98181E08083789481E090E0DF910A
:10521000CF911F910F91089500C0D7CF0E946827AA
:1052200020E22A95F1F75A98529A80E18A95F1F78F
:105230006A81662321F08B819C810E9404280E9450
:105240007027E881F9811082789490E080E0DFCFC8
:1052500084E090E0DCCFAA1BBB1B51E107C0AA1F72
:10526000BB1FA617B70710F0A61BB70B881F991F07
:105270005A95A9F780959095BC01CD010895EE0F40
:10528000FF1F0590F491E02D0994DC01CB01FC0196
:10529000F999FECF06C0F2BDE1BDF89A319600B48F
:1052A0000D9241505040B8F70895F999FECF92BD44
:1052B00081BDF89A992780B50895A8E1B0E042E051
:1052C00050E00C944729DC01A40FB51F4150504019
:1052D00048F0CB01840F951F2E910E9474294150F4
:1052E0005040D0F70895262FF999FECF92BD81BD89
:1052F000F89A019700B4021639F01FBA20BD0FB614
:10530000F894FA9AF99A0FBE08950396272F0E94EF
:1053100074290E947329252F0E947429242F0C942C
:1053200074290196272F0E9474290C9473290E94D6
:10533000AB290C948C2A0E94852A58F00E947E2A60
:1053400040F029F45F3F29F00C94752A51110C9418
:10535000C02A0C947B2A0E949D2A68F39923B1F3FA
:10536000552391F3951B550BBB27AA27621773078B
:10537000840738F09F5F5F4F220F331F441FAA1F1F
:10538000A9F335D00E2E3AF0E0E832D091505040DB
:10539000E695001CCAF72BD0FE2F29D0660F771F89
:1053A000881FBB1F261737074807AB07B0E809F06F
:1053B000BB0B802DBF01FF2793585F4F3AF09E3FF4
:1053C000510578F00C94752A0C94C02A5F3FE4F3E1
:1053D000983ED4F3869577956795B795F7959F5F37
:1053E000C9F7880F911D9695879597F90895E1E083
:1053F000660F771F881FBB1F621773078407BA07E2
:1054000020F0621B730B840BBA0BEE1F88F7E0953C
:1054100008950E94A52A88F09F5798F0B92F9927E0
:10542000B751B0F0E1F0660F771F881F991F1AF08F
:10543000BA95C9F714C0B13091F00E94BF2AB1E00B
:1054400008950C94BF2A672F782F8827B85F39F00A
:10545000B93FCCF3869577956795B395D9F73EF428
:1054600090958095709561957F4F8F4F9F4F0895D0
:10547000E89409C097FB3EF49095809570956195EE
:105480007F4F8F4F9F4F9923A9F0F92F96E9BB27A4
:105490009395F695879577956795B795F111F8CF20
:1054A000FAF4BB0F11F460FF1BC06F5F7F4F8F4F8B
:1054B0009F4F16C0882311F096E911C0772321F081
:1054C0009EE8872F762F05C0662371F096E8862F19
:1054D00070E060E02AF09A95660F771F881FDAF770
:1054E000880F9695879597F9089597F99F6780E8B3
:1054F00070E060E008959FEF80EC089500240A9426
:105500001616170618060906089500240A9412169E
:105510001306140605060895092E0394000C11F4D1
:10552000882352F0BB0F40F4BF2B11F460FF04C07E
:105530006F5F7F4F8F4F9F4F089557FD9058440FD7
:10554000551F59F05F3F71F04795880F97FB991FE2
:1055500061F09F3F79F0879508951216130614069F
:10556000551FF2CF4695F1DF08C01616170618062C
:10557000991FF1CF86957105610508940895E89407
:10558000BB2766277727CB0197F908950E94382B10
:1055900008F48FEF08950E94DE2A0C948C2A0E9452
:1055A0007E2A38F00E94852A20F0952311F00C9471
:1055B000752A0C947B2A11240C94C02A0E949D2ADF
:1055C00070F3959FC1F3950F50E0551F629FF00156
:1055D000729FBB27F00DB11D639FAA27F00DB11D6F
:1055E000AA1F649F6627B00DA11D661F829F2227F8
:1055F000B00DA11D621F739FB00DA11D621F839F7F
:10560000A00D611D221F749F3327A00D611D231F54
:10561000849F600D211D822F762F6A2F11249F57A2
:1056200050409AF0F1F088234AF0EE0FFF1FBB1FA5
:10563000661F771F881F91505040A9F79E3F510564
:1056400080F00C94752A0C94C02A5F3FE4F3983ED6
:10565000D4F3869577956795B795F795E7959F5F0E
:10566000C1F7FE2B880F911D9695879597F90895A0
:10567000990F0008550FAA0BE0E8FEEF1616170663
:10568000E807F907C0F012161306E407F50798F0CB
:10569000621B730B840B950B39F40A2661F0232BE4
:1056A000242B252B21F408950A2609F4A140A69560
:1056B0008FEF811D811D0895FB01DC0104C08D91D8
:1056C0000190801921F441505040C8F7881B990B74
:1056D0000895FB01DC0102C001900D924150504041
:1056E000D8F70895F894FFCFDB0E030F9910030F3E
:1056F0009910360F570F9910541061100921142179
:105700001B21202125212A212F21342139213E212D
:10571000432148216E196E196E196E196E196E1992
:045720006E196E1977
:105724001F001E001D001C001B001A001900180099
:1057340017001600150014001300120011001000C9
:105744000F000E000D000C000B000A0009000800F9
:10575400070006000500040003000200010005FF25
:10576400FFFFFFFFFF000100012C010000370200D2
:10577400000000A114481100000000000001020014
:10578400022C01000036020000000000004A110053
:105794000000000000020400032C010000270200A6
:1057A40000000000000000000000000000030800EA
:1057B400042C010000210200000000000000000091
:1057C4000000000000041000052C0100001F02006E
:1057D40000000000000000000000000000052000A0
:1057E400062C0100002D0000000000D71800000066
:1057F400000000000007000008FA0000002B004B26
:105804005D0000000000000000000000000800002F
:1058140008FA00E2002B0200000000000000000073
:105824000000000000090000082C01000000000036
:10583400005A5D05155C110000000000000A4000DC
:1058440000FA0000002800000000001019021900EE
:105854000000000000CD1400000000000000000063
:105864000000000000000000001A07CD1400000032
:105874000000000000000000000000000000003CE8
:1058840001CD140000000000000000000000000032
:1058940000000000003A01CD1400000000000000E8
:1058A40000000000000000000000003801CD1400DA
:1058B40000000000000000000000000000000000E4
:1058C400003601000012142E110000000000000038
:1058D400000000000000003401000012142E11002A
:1058E4000000000000000000000000000032010081
:1058F4000012142E1100000000000000000000003F
:105904000000003001000012142E110000000000FD
:105914000000000000000000002E01000012142E00
:105924001100000000000000000000000000002C36
:1059340001000012142E11000000000000000000FD
:1059440000000000002A01000012142E11000000C3
:105954000000000000000000000000280100001208
:10596400142E1100000000000000000000000000E0
:10597400002601000012142E110000000000000097
:10598400000000000000002401000012142E110089
:1059940000000000000000000000000000220100E0
:1059A4000012142E1100000000000000000000008E
:1059B4000000002001000012142E1100000000005D
:1059C4000000000000000000001E01000012142E60
:1059D4001100000000000000000000000000001C96
:1059E40001000012142E110000000000000000004D
:1059F40000000000001A01000012142E1100000023
:105A04000000000000000000000000180100001267
:105A1400142E11000000000000000000000000002F
:105A2400001601000012142E1100000000000000F6
:105A3400000000000000001401000012142E1100E8
:105A4400000000000000000000000000001201003F
:105A54000012142E110000000000000000000000DD
:105A64000000001001000012142E110000000000BC
:105A74000000000000000000000E01000012142EBF
:105A84001100000000000000000000000000000CF5
:105A940001000012142E110000000000000000009C
:105AA40000000000000A01000012142E1100000082
:105AB40000000000000000000000000801000012C7
:105AC400142E11000000000000000000000000007F
:105AD400000601000012142E110000000000000056
