:100000000C94C9050C9410060C9410060C94D62977
:100010000C9410060C9410060C9410060C94100608
:100020000C9410060C9410060C9450250C940C257E
:100030000C94F9280C9410060C9410060C941006DD
:100040000C9410060C9410060C9410060C941006D8
:100050000C9410060C94D5280C9410060C941006E1
:100060000C9410060C9410060C9410060C941006B8
:100070000C9410060C9410060C9410060C941006A8
:100080000C9410060C9410060C9410060C94100698
:100090000C9410060C9410060C9410060C94100688
:1000A0000C9410060C9410060C9410060631FF09EF
:1000B00074A1010975150026FF00952075088102BD
:1000C0000976150026FF00952075089102C00501EC
:1000D0000980A101850319012AB700150126B7007F
:1000E000950175108100C0050C0901A10185041955
:1000F000012AA002150126A002950175108100C0F9
:1001000005010906A101050719E029E715002501E8
:1001100095087501810205FF090315002501950168
:10012000750881020507190029FF150026FF0095B3
:1001300006750881000508190129059505750191C5
:1001400002950175039101C0736C617665206D6144
:1001500074726978203D2025622025622025622066
:1001600025620A00E300E000E000E3001B081B0139
:100170000608060119081901190E1903190A1903AD
:100180001D081D011D0A1D03210B160A220A460027
:1001900008040814150A3E01160816010408040193
:1001A0007F00A8008000A9008100AA00290C4C054E
:1001B0004800BD004700BE00500450044F044F04E7
:1001C0006E002903300830013808380152084A0807
:1001D00051084D0850084A004F084D000B085108BF
:1001E0001A083D04090809010A080A010A0A0A0353
:1001F000090C0B012C0816082F084D002C09370894
:1002000014090F08330421142A042A014000AC0009
:100210004200AB004100AE00660166016601660067
:100220000F0B5008150B4F08100B5208180B00004D
:1002300014083D04E000E3002A080E0338006402BD
:10024000295D27026402295D2E022D0250002E0036
:100250001E02500024023002295D30022402295D72
:1002600030001E00295D38001E00295D640227024F
:10027000295D64002702295D1E022702295D6402B0
:10028000295D295D24026402295D6400295D295DE0
:1002900064002402295D64006400295D6402640234
:1002A000295D1E022702295D64022702295D640080
:1002B0002702295D38041320380614200D06AF00EC
:1002C00022041E22370626201304C0032106A300A1
:1002D00027046022270648223206BB0064066522F6
:1002E0003406AB00640464223506B0001504AE0089
:1002F0000B042221200622200604A9006164696FF4
:100300007300686F6C6100040400000004080000C2
:1003100000040C000000041200000004180000009B
:100320000500000300033A5D3B5D05010002000388
:10033000435D445D03415D425D011E011E03011FDB
:10034000011F030120012003013500350202545D25
:10035000555D050400050003485D465D03495D45A4
:100360005D05895D8A5D058B5D8C5D058D5D8E5DAE
:10037000050600070002625D5D5D024E5D4D5D0297
:10038000505D515D0130003800013002240201341B
:10039000143214012F143014012502260203385D93
:1003A000395D0000001214009E940001983B750016
:1003B000000126AD010728000000000000000B2E00
:1003C0000011422400000F02000001140000000090
:1003D000000000000000000000000000000000001D
:1003E00000FFFFFFD4D4D473737338383821212130
:1003F0004D4D4D8F8F8FE8E8E87878783838382978
:1004000029290F0F0F0000001212121414140000FB
:1004100000000000000000000000000000000000DC
:100420001700383500851F00B80108D52000942733
:1004300000943500751C003D190137290165250020
:100440006B2D00701900420C001F0B001F000000F4
:10045000000000100029000000000000000000FF64
:10046000FFFFB6992FC26700BD42008E4C01BD6EE2
:1004700000FFDD00EEE6BF98957CA8840075500073
:100480005637012D1B014629016142002411002429
:1004900017002415000E09010F0800000000F609DE
:1004A00009A38D00006B1B18086830069300737554
:1004B00074C200FAA005F5F9011BA30000576624D9
:1004C00000661D0061004152008A4E015641013014
:1004D00037001442000F33001D33002E23000000AC
:1004E000000000000000000000000000000000000C
:1004F000007E0F00D4FFFFFFC7000000780000005F
:1005000000000000002A2B2800000000000000006E
:10051000000000000000000029000000002C1E3434
:1005200020212224342627252E362D3738271E1F3A
:10053000202122232425263333362E37381F040565
:10054000060708090A0B0C0D0E0F101112131415D3
:10055000161718191A1B1C1D2F3130232D350405B1
:10056000060708090A0B0C0D0E0F101112131415B3
:10057000161718191A1B1C1D2F3130354C0001019C
:100580000101010101010102020202020202020252
:100590000303030303030303040404040404040522
:1005A00005050505060606060607070707070808E6
:1005B0000808090909090A0A0A0B0B0B0C0C0C0D97
:1005C0000D0D0E0E0E0F0F0F101011111112121330
:1005D000131414151516161717181819191A1A1BAB
:1005E0001B1C1D1D1E1E1F2020212222232424250A
:1005F0002626272829292A2B2C2D2D2E2F30313243
:1006000032333435363738393A3B3C3D3E3F404152
:1006100042434445464748494A4C4D4E4F5051533A
:1006200054555658595A5B5D5E5F616264656668F1
:10063000696B6C6D6F7072737577787A7B7D7E8075
:1006400082838587888A8C8E8F91939596989A9CC1
:100650009EA0A2A3A5A7A9ABADAFB1B3B5B7BABCD5
:10066000BEC0C2C4C6C9CBCDCFD1D4D6D8DBDDDFA6
:10067000E2E4E7E9EBEEF0F3F5F8FAFDFF7E78004F
:1006800043007E0F625E007E00072F00D6580900EF
:1006900004D558090005CE58090000D67800430754
:1006A000D578004308CE780043097E190014003144
:1006B0005D14001900070015000900325D0057168F
:1006C00000015717000A00335D1D001B001A0006C9
:1006D0000038000000000000002B5D2C002C5D376E
:1006E0000033000F00050004571C00B05D13000329
:1006F00057025711000B00305D2F5D0E00360010C1
:10070000000D000000000000002E5D2D5D345D290D
:1007100000055700007C5D575D0000A05D00007A79
:100720005D7D5D7B5D00005F5D5E5D0000695D007D
:100730000000000000000000002B5D00002C5D9F09
:100740005D9C5D9B5D9A5D995D9E5D985D975D96F4
:100750005D955D945D9D5D000000000C570B570A90
:100760005700000000000000002E5D2D5D345DE3A9
:10077000001657705DA35DA25DA85D0000595D582D
:100780005D525D535DA75D5C5D5B5D0F571857174C
:10079000574F5D0000000000002B5D00002C5D85C0
:1007A0005D26002500240023003C5D22002100205E
:1007B000001F001E00270000000000370036003D2B
:1007C0005D2C000000000000001A571957345D002E
:1007D000002014340252003002240200001F145082
:1007E0000051004F00375D00000000351422023632
:1007F0005D30000000000000002B5DE1002C5D1E5C
:10080000022D0223021C571B571057745D1E571EE2
:100810001426021D57115715572F000000095708BD
:1008200057475D0000000000002E5D2D5D345D0027
:1008300000000000004B00645D635D00000D576028
:100840005D4E00615D000000000757AC5D000006D2
:1008500057835D0000000000002B5DE1002C5D86E9
:100860005D0557885D00006E5D715D4C00000052B3
:10087000006C5D6B5D6D5DE1004F00510050006FDD
:100880005D00000000000000002E5D2D5D345D0065
:100890000000000000655D0000000000000000672F
:1008A0005D665D685D000000000000000000000063
:1008B00000825D0000000000002B5DE1002C5D92D5
:1008C0005D735D231400000000135700000E578F66
:1008D0005D000000001457000000002F020000001F
:1008E0000012570000000000002E5D2D5D345D00F9
:1008F00000000000000000905D000000000000000B
:1009000000565D915D0000000000000000000093B3
:100910005D845D0000000000002B5D2C002C5DA9B3
:100920005D725DAD5D000000000000A15D875D208F
:10093000020000000000000000775D765D755D003C
:100940000000000000000000002E5D2D5D345D27DA
:1009500000140019000700150009001E000400160D
:1009600000080017000A001F001D001B001A0006E7
:1009700000380000000000000020002100220037A5
:100980000033000F00050018001C004C0213001279
:10099000000C0011000B00AA5D26000E00360010AE
:1009A000000D00000000000000250024002300319D
:1009B0005D14001900070015000A00E2000400168B
:1009C00000080017000A00335D1D001B001A000616
:1009D000003800000000000000E1002C00E10037BA
:1009E0000033000F00050018001C002A001300123D
:1009F000000C0011000B00000000000E003600107B
:100A0000000D00000000000000E100E100280000EF
:100A10000000000000AF5DAE5D00000000000000BF
:100A200000000000000000000000000000000000C6
:100A30000000000000000000001050105010500096
:100A400000000000000000000000000000000000A6
:100A50000000000000000000000000000000000096
:100A60000000000000000000001050105010500A5C
:100A7000002530313662003A200025303258000A15
:100A8000722F6320303132333435363738394142B2
:100A9000434445460A005B735D004B6579626F61B4
:100AA00072642073746172742E0A005B435D005B94
:100AB000445D005B535D005B575D005B525D000968
:100AC000025B00030100A0FA090400000103010118
:100AD00000092111010001224800070581030800D7
:100AE0000A090401000103000000092111010001AD
:100AF0002232000705820320000A090402000203D3
:100B000000000009211101000122220007058303D2
:100B1000200001070503032000011201100100005D
:100B20000008AC05500274000102000148034300B4
:100B30006F0072006E00650020004B0065007900B8
:100B400062006F00610072006400200052006500C6
:100B500076002E003100200028004C006500670060
:100B60006100630079002000530070006C00690090
:100B700074002900000016034100700070006C0032
:100B80006500200049006E0063002E000000040391
:100B9000090411241FBECFEFDAE0DEBFCDBF04B6DB
:100BA00003FE27C080919A0890919B08A0919C0811
:100BB000B0919D088730904BA740B04BD1F4109274
:100BC0009A0810929B0810929C0810929D0814BEDF
:100BD00084B7877F84BF0FB6F894A8958091600092
:100BE000886180936000109260000FBEE0E0F8E33F
:100BF000099528E0A8E0B7E001C01D92AA39B20724
:100C0000E1F717E0A0E0B1E0ECEAFAE502C00590F8
:100C10000D92A830B107D9F70E9481260C94362D89
:100C20000C940000FF93EF93E0910807F0910907FF
:100C3000309709F00995EF91FF910895FC01859196
:100C4000803011F0EFDFFBCF0895FF27E0E230E2C4
:100C500047FF0CC0419597FF09C0EDE26095709584
:100C600080959095611D711D811D911D27FF02C00A
:100C7000219530E350E2AA27660F771F881F991F3E
:100C8000AA1FA41710F0A41B63955A95A9F7AA30C0
:100C900008F0A95FA05DAF93F3956115710581051B
:100CA000910541F7ED3211F4EF93F395F21718F433
:100CB0003F93F395FBCF8F91B5DFFA95E1F7089558
:100CC000E991F9918591803021F0853219F0AADF00
:100CD000F9CF089520E0E89455915532C1F350338F
:100CE00011F4689455915A3348F4505390F3220FFD
:100CF000022E220F220F200D250FF4CF0EF4219586
:100D000089919991533619F3533729F1533559F194
:100D1000BC0188279927E8945C3621F48991999140
:100D200068945591543639F446EF7EF077FF0DC044
:100D30008FEF9FEF0AC055374AE039F0583540E150
:100D400021F0523642E009F00895FF93EF937DDFE2
:100D5000EF91FF91B7CFFF93EF93FC01819180302A
:100D6000B9F360DFFBCFFF93EF9368DFF1CFDF9341
:100D7000CF93CDB7DEB72596A3DFCF91DF9108954E
:100D8000E8EDF0E080818E7F80831092E200109287
:100D9000DA001092E100A0EEB0E08C9181608C93BB
:100DA00080818F77808319BCA7EDB0E08C918E7F16
:100DB0008C9380818F7E808310927B080895209190
:100DC000E4003091E50095E6A9012091EC00822F26
:100DD000817020FF06C08091E80080FF06C080E09F
:100DE00008952091E80022FD1AC080918808882388
:100DF00089F0853089F08091EB0085FD0FC020914E
:100E0000E4003091E50042175307F9F29150E1F602
:100E100084E0089582E0089583E0089581E00895D4
:100E2000EF92FF920F931F93CF937C018B010E944F
:100E3000DF06C82F811117C08091E80085FD0BC027
:100E40008091E8008E778093E8000E94DF06882377
:100E500099F3C82F08C0F70181917F018093F100B9
:100E60000150110949F78C2FCF911F910F91FF90DD
:100E7000EF90089580918A0887FF13C08091E80061
:100E800082FF06C08091E8008B778093E80004C061
:100E9000809188088111F2CF089580918808882375
:100EA000D9F38091E80080FFF8CF8091E8008E7739
:100EB000ECCF982F9093E900242F762F50E08917DC
:100EC00031F07091EC002091ED005091F00021FD87
:100ED00007C09F5F973071F78093E90081E0089524
:100EE0003091EB003E7F3093EB003091ED003D7F81
:100EF0003093ED003091EB0031603093EB00709354
:100F0000EC002093ED005093F0002091EE0027FDBF
:100F1000E0CF80E00895CF92DF92EF92FF920F939F
:100F20001F93CF93DF93C8EDD0E088818F7E8883B5
:100F3000E7EDF0E080818160808384E082BF81E022
:100F400080937B0888818E7F888302EE10E0F80111
:100F500010821092DA0081EEC82ED12CF601108298
:100F600088818F77888388818068888388818F7D56
:100F7000888319BC109288081092890810928708FB
:100F80001092860890EEE92EF12CF70180818B7F7C
:100F9000808388818160888342E060E080E00E94F5
:100FA0005907F60180818E7F8083F80180818160FE
:100FB0008083808188608083F70180818E7F808339
:100FC000888180618883DF91CF911F910F91FF907D
:100FD000EF90DF90CF900895FC0180919008909160
:100FE000910886179707A0F06115710529F4909173
:100FF000E8009E779093E80090E06115710551F448
:10100000911108C08091E80082FF34C080E008950B
:10101000BC01F2CF809188088823C1F18530C1F1ED
:101020008091E80083FD30C08091E80082FDEACF26
:101030008091E80080FFE1CF8091F3002091F200E1
:10104000382F6115710519F02830310558F091E0FD
:101050002830310509F090E02091E8002E772093A8
:10106000E800CBCF81918093F100615071092F5F2F
:101070003F4FE7CF80918808882341F0853041F0C9
:101080008091E80083FFBECF81E0089582E008955B
:1010900083E00895089580917D0808952FB7F8940E
:1010A00080911A0890911B08A0911C08B0911D080E
:1010B0002FBF0895829590E09C01220F331F220FCD
:1010C000331F2C7C95958795959587958373282B51
:1010D00030E0C901880F991F8A7A359527952575C3
:1010E000822B089580959091150898239093150868
:1010F00008958091150890911408892B90911308F8
:10110000892B80930C07E0916408F0916508309773
:1011100031F00280F381E02D8CE097E0099408958E
:10112000E92FEE0FE90FEE0F8E0F982F977086952F
:101130008695869525E0829FF0011124EB50F84FAB
:1011400050E040E080E0219130E0092E02C0369569
:1011500027950A94E2F721703327042E01C0220F4D
:101160000A94EAF7822B4F5F5F4F4530510559F7DC
:101170000895E92FEE0FE90FEE0F8E0F982F97705D
:1011800041E001C0440F9A95EAF7869586958695C9
:1011900095E0899FF0011124EB50F84F30E020E0FA
:1011A00070E05191DF011197CB01022E02C096959C
:1011B00087950A94E2F78170819585278423852796
:1011C0008C932F5F3F4F2530310559F708958823C1
:1011D00041F08095909114088923809314080C9411
:1011E00079080895882339F090911408982B9093EA
:1011F00014080C9479080895882321F00E9472083D
:101200000C9479080895882339F090911508982B4B
:10121000909315080C94790808952091DA0730917D
:10122000DB072817390771F09093DB078093DA0703
:10123000E0916408F0916508309721F00084F18511
:10124000E02D099408952091D8073091D9072817E7
:10125000390771F09093D9078093D807E09164081B
:10126000F0916508309721F00680F781E02D099410
:10127000089510921408109213080E94790890E0C3
:1012800080E00E94230990E080E00C940D096093B7
:1012900058087093590880935A0890935B080C94EF
:1012A00039090F931F9341E050E060E070E004C003
:1012B000440F551F661F771F8A95D2F7CB01BA01DD
:1012C00060957095809590950091580810915908F7
:1012D00020915A0830915B08602371238223932365
:1012E0001F910F910C9447090F931F9341E050E019
:1012F00060E070E004C0440F551F661F771F8A9599
:10130000D2F78091580890915908A0915A08B0914D
:101310005B088A019B01082B192B2A2B3B2BC90147
:10132000B8011F910F910C944709609316087093B0
:10133000170880931808909319080C943909E091C4
:101340006408F0916508309721F00190F081E02D5C
:10135000099480E00895CF93DF93EC0181E0898BBD
:10136000809115089F81892B80931508809114081E
:101370009885892B809314080E947908EA81FB8163
:10138000309739F06C897D89CE010696DF91CF9137
:101390000994DF91CF910895EF92FF920F931F93DD
:1013A000CF93DF93EC018A85811139C0EB80FC80FB
:1013B00087E5F81A26E12E9DC0012F9D900D11247E
:1013C000DC01AD5CBD4F1496ED91FC911597309703
:1013D00031F054966D917C91875C9D4F099586E123
:1013E0008E9D80018F9D100D11240D5C1D4FF80105
:1013F00087810E947208F8018085982F90958091CE
:1014000014088923809314080E9479081882198689
:101410001B861E821D821092F1071092F007DF9149
:10142000CF911F910F91FF90EF900895109248086F
:1014300084E0809349080895FA01811101C0FB01FD
:101440000994E3E3F7E0818360834283339697E076
:10145000E53DF907C1F70895FC01EE0FFF1FE80F06
:10146000F91FED5CF84F61834083228308958091DA
:101470009208837011F01092DE04809192088C7FA4
:1014800080939208089580919208837011F41092CD
:10149000DE04809192088C7F816080939208089589
:1014A0000C94210A972F70E026E0929F600D711D29
:1014B0001124FB0140E3849FE00DF11D1124EE0F88
:1014C000FF1FE155F94F25913491C90122383105AB
:1014D00091F1C0F52133310509F490C028F5293286
:1014E000310509F484C02A32310509F48EC0211572
:1014F00040E5340708F0A4C0211540E4340708F0A3
:1015000026C12F3B310508F087C0283A310508F085
:1015100013C1253A310508F006C12430310500F524
:1015200021303105E9F03CC02533310509F458C0BC
:1015300029333105E1F620915C08237089F080EEB3
:1015400090E00895233E310571F158F4203E3105B5
:10155000E9F0223E310559F620915C0822FD1EC0BB
:101560000895263E310551F1273E310571F1243EA3
:10157000310509F0BCCF20915D0821FFF1CF8091AA
:101580005C0884FD0DC087EE90E0089520915C0812
:1015900020FD0CC130915D0830FFE2CF24FF09C16E
:1015A00090E080E0DDCF20915C0822FD05C1309104
:1015B0005D0830FDC4CF24FFD3CFF2CF20915C086B
:1015C00023FFCECF24FDECCFDECF20915C0823FD9E
:1015D000F6C030915D0831FFEECF84EE90E00895C3
:1015E00020915C0825FFBCCF89E290E0089520910E
:1015F0005C0825FFB5CF85E390E0089520915C0855
:1016000026FFAECF8AE290E0089520915C0826FF85
:10161000A7CF81E390E00895283E310558F4213E9C
:10162000310508F09DCF2F3B310509F0B9CF80E09F
:1016300090E708953A9521153F4108F491CFB0CF36
:10164000211583E5380738F5211592E5390708F0AB
:1016500087C0211541E5340708F07DC0C90164E069
:10166000969587956A95E1F7382F3370822F869586
:101670008695837040E2849FC0011124932B2370D0
:1016800041E050E002C0440F551F2A95E2F7842B39
:10169000952B9C680895211589E53807F0F42115EC
:1016A00098E5390708F06FC0211544E5340708F0C4
:1016B00077CFA9014370552781E090E002C0880FE1
:1016C000991F4A95E2F72695269540E2249F9001BE
:1016D0001124822B932B9A68089521158AE53807E7
:1016E00008F05ECF822F8F7040915C0842FF05C0EA
:1016F00023FF4EC0822F8770846090915D0890FF19
:1017000007C0982F9871983009F048C0877F816092
:1017100044FD877E94E0369527959A95E1F72F70E2
:10172000922F90690895255AE22FF0E0EF53F94F78
:10173000808190E090640895285AE22FF0E0EE0F47
:10174000FF1FEC53F94F8081918194640895C90182
:101750009F70906A0895922F8827816F906A0895EC
:10176000A9014370552781E090E002C0880F991FBE
:101770004A95E2F72695269540E2249F9001112490
:10178000822B932B86CF922F8827806F906A0895A3
:1017900022FFB3CF822F8B708860AFCF982F9171CB
:1017A000913009F0B5CF8E7F8860B2CF89E390E0A9
:1017B000089583EE90E0089582EE90E0089586EE1D
:1017C00090E00895BF92CF92DF92EF92FF920F9335
:1017D0001F93CF93DF938C01C0905808D090590885
:1017E000E0905A08F0905B088091160890911708D5
:1017F000A0911808B0911908C82AD92AEA2AFB2A08
:10180000CFE1D0E0BC2ED701C6010C2E04C0B695A6
:10181000A795979587950A94D2F780FD0EC02197DA
:1018200088F7B12C8B2DDF91CF911F910F91FF90F5
:10183000EF90DF90CF90BF900895B8018C2F0E9459
:10184000520A019761F3EECFCF93DF939C013A9553
:1018500021153F4168F5EC01CC27D170DC01AA27A6
:10186000B270AC01442754709C012227387094FF59
:1018700011C080E1CD2B09F480E0AB2B09F0806230
:10188000452B09F08064232B09F08068FB01DF9170
:10189000CF91099481E0CD2B09F480E0AB2B09F0C6
:1018A0008260452B09F08460232B81F38860EECFA2
:1018B000DF91CF9108959F92AF92BF92CF92DF9226
:1018C000EF92FF920F931F93CF93DF93C82F6A017C
:1018D0007B0120E030E040EF52E4CB01B6010E94F2
:1018E0008A2C181634F4C12CD12C80EFE82E82E417
:1018F000F82E20E030E04FE753E4C701B6010E9424
:101900005B2B6B017C018FE3C802E0011124CE55F3
:10191000DC4F06E010E0FE013296849131979490FE
:10192000FE01B490682F70E090E080E00E94FE2BF2
:10193000A70196010E948F2C0E94CD2BA62E692D07
:1019400070E090E080E00E94FE2BA70196010E94CB
:101950008F2C0E94CD2B962E6B2D70E090E080E0B6
:101960000E94FE2BA70196010E948F2C0E94CD2B76
:101970002A2D492DC8010E942C0A23960F5F1F4F64
:101980000B31110509F0C7CFDF91CF911F910F9156
:10199000FF90EF90DF90CF90BF90AF909F90089511
:1019A000E091E207F091E30781E0309709F40895B0
:1019B000838B0688F789E02DF8CF8B549D45880FDF
:1019C000991FE091EE07E80FF92FF11DEE0FFF1FB1
:1019D000EC59FE4F859194910895CF93DF93AFEA30
:1019E000B6E043EB56E0C1E0D0E08D91E82FE29500
:1019F000EF70F0E061A18F709E0101C0220F8A9507
:101A0000EAF7922F9095962391A382A1822B82A32D
:101A10004A175B0751F7DF91CF910895CF9384E088
:101A200090E00E94192BC82F81E290E00E94192BB0
:101A3000982F8C2FCF9108959FB7F8941092790822
:101A40009FBF90918808943009F048C02091E90028
:101A50002F703091EC00932F917030FD90E8922B15
:101A600023E02093E9002091EB0020FF34C0209177
:101A7000EE0027FF30C020911E08222321F0209184
:101A8000E80025FF28C010921E0826E03091E800EB
:101A900035FF14C08093F1008091E80085FD27C0D8
:101AA0008091E80080FFFCCF8091E8008E778093E2
:101AB000E8009F709093E90080E0089530918808D5
:101AC000343049F43091EB0035FD05C0215041F42C
:101AD00081E080931E089F709093E9008FEF089536
:101AE000EFE9FFE03197F1F700C00000CFCF8FB7EB
:101AF000F89421E0209379088FBFDBCFCF93DF9359
:101B000000D00F92CDB7DEB790918808943019F5C8
:101B100089837B836A8382E08093E9008FEF9091D1
:101B2000E800815095FD06C095ED9A95F1F700000B
:101B30008111F5CF8091E80085FF0DC050E040E0B5
:101B400063E070E0CE0101960E9410078091E800EA
:101B50008E778093E8000F900F900F90DF91CF91D8
:101B60000895BC0184E00C947E0DBC0183E00C94CC
:101B70007E0DCF93DF93EC0181E08093E9008FEF3E
:101B80009091E800815095FD06C095ED9A95F1F78A
:101B900000008111F5CF8091E80085FF14C050E06E
:101BA00040E068E070E0CE010E9410078091E800FC
:101BB0008E778093E80088E0FE01AEE7B8E0019000
:101BC0000D928A95E1F7DF91CF910895539A3BB139
:101BD000377F2BB128604FB7F89483E397E0FC017F
:101BE0005191CF0168E02BB9000000C057FF3BB90D
:101BF000550F000000C000C000C03BB900C06A958E
:101C000091F7F7E0853D9F0751F74FBF8FE594E0CF
:101C10000197F1F700C0000008958091220781111B
:101C200011C08091D80080618093D8008AE18A95A4
:101C3000F1F700C09091D900892F817090FF82E068
:101C40008093220781E090912207913009F080E093
:101C500008958F929F92AF92BF92CF92DF92EF92B0
:101C6000FF920F931F93CF93DF938091CB05C4E036
:101C7000D0E0882311F0D0E0C0E08FEAC82E86E0E3
:101C8000D82EAE01405B574F7A018A01912CAA24CD
:101C9000A394B12C25E0822EF60181916F01E82FEB
:101CA000E295EF70F0E021A18F70A50102C0440F12
:101CB000551F8A95E2F7CA01922F982B91A392A102
:101CC0008095892382A350EA5A95F1F7E2EFF6E076
:101CD00020E050E040E03191A32FA295AF70B0E03A
:101CE00090968C9190E03F7002C0959587953A95BB
:101CF000E2F780FD3CC0C501042E01C0880F0A94A4
:101D0000EAF7282B4F5F5F4F4630510521F7F80166
:101D10008081821729F0208380923C01992493943A
:101D20000E94ED0C0F5F1F4FF3EBCF16F6E0DF06BE
:101D300009F0B2CF80913C01882359F08150809303
:101D40003C018823B1F08FE99FE00197F1F700C0D3
:101D50000000892DDF91CF911F910F91FF90EF909F
:101D6000DF90CF90BF90AF909F908F90089580E0CC
:101D7000C8CFC959D74F84E0F70191917F0199935A
:101D80008150D1F7E6CF6CEE7EEF90E080E00E94CC
:101D9000552B60E082E090E00E94372B60E083E00A
:101DA00090E00E94372B109216081092170810929C
:101DB00018081092190860E084E090E00E94372B28
:101DC00060E081E290E00E94372B60E085E090E0E7
:101DD0000E94372B60E086E090E00E94372B6FEF87
:101DE00087E090E00E94372B40E050E0BA0188E0A5
:101DF00090E00E94492B60E08DE090E00E94372B3C
:101E000040E050E0BA0188E190E00E94492B60E098
:101E100087E190E00E94372B40E050E0BA018CE16E
:101E200090E00E94492B60E080E290E00E94372B16
:101E300040E050E0BA0188E190E00E94492B40E088
:101E400050E0BA018FE090E00E94492B40E050E062
:101E5000BA0183E190E00C94492B10921508EEE052
:101E6000F7E086E0DF011D928A95E9F70C943909C5
:101E70001F93CF93DF93CDB7DEB7AA970FB6F89431
:101E8000DEBF0FBECDBF8AE898E02091F100DC01F3
:101E90002D93CD01B8E082399B07B9F780918B086B
:101EA000833009F46FC0B8F4813009F446C0823041
:101EB00009F4B0C08091E80083FF38C180918A089E
:101EC00090918B089A3008F031C1E92FF0E0E85C7E
:101ED000F24D0C94032B8A3009F48BC08B3009F43B
:101EE0006EC0893039F780918A08813219F7809164
:101EF0008E0890918F080297E8F68091E800877F1E
:101F00008093E8008091E80082FF37C09091F30051
:101F10008091F200029729F48091F1008B7F81304B
:101F200021F48091F10080937D088091E8008B7707
:101F30008093E8000E943A07BDCF80918A08813AD9
:101F400009F0B8CF8091E800877F8093E800809106
:101F50008E0890918F08892B61F468E08EE798E0F5
:101F600070E00E94EC078091E8008B778093E80096
:101F7000A1CF60E090E080E0F3CF809188088111EC
:101F8000C1CF98CF80918A08813A09F093CF809190
:101F90008E0890918F08892B09F08CCF8091E800F2
:101FA000877F8093E8008091E80080FFFCCF8091DC
:101FB000D9058093F1008091E8008E77B9CF8091A8
:101FC0008A08813209F076CF80918E0890918F082F
:101FD000892B09F06FCF8091E800877F8093E8001C
:101FE0000E943A0780918C088093D9050E942D0F9A
:101FF00061CF80918A08813209F05CCF8091E8003E
:10200000877F8093E8000E943A0780918D08809333
:102010007C0850CF80918A08813A09F04BCF80919B
:10202000E800877F8093E8008091E80080FFFCCF84
:1020300080917C08BECF803899F0823809F076C054
:1020400080918E088F70873008F070C08093E9000F
:102050008091EB0085FB882780F91092E90006C08B
:102060008091860890918708911182609091E80094
:10207000977F9093E8008093F1001092F100809197
:10208000E8008E77B0C1882309F49DC1823009F041
:102090004DC080918C088111A1C180918E088F70F4
:1020A0002FEF280F263008F041C08093E9002091DF
:1020B000EB0020FF93C1933031F48091EB008062FC
:1020C0008093EB008BC19091EB0090619093EB00BB
:1020D00021E030E001C0220F8A95EAF72093EA0060
:1020E0001092EA008091EB008860EACF81111EC057
:1020F00010918C081F778091E3008078812B80936A
:10210000E3008091E800877F8093E8000E943A070F
:102110008091E80080FFFCCF8091E300806880938D
:10212000E30082E0111183E0809388088091E80049
:1021300083FF0AC08091E800877F8093E800809148
:10214000EB0080628093EB00AA960FB6F894DEBF96
:102150000FBECDBFDF91CF911F910895805882307F
:1021600028F720918C0830918D082C3DE3E03E0744
:10217000A1F583E08A838AE289834FB7F894DE0170
:10218000139620E03EE051E2E32FF0E05093570039
:10219000E49120FF03C0E295EF703F5FEF708E2F58
:1021A00090E0EA30C0F0C7968D939D932F5F243165
:1021B00059F74FBF8091E800877F8093E8006AE27B
:1021C00070E0CE0101960E94EC078091E8008B77C9
:1021D0008093E800ABCFC096E7CF80918E089091B6
:1021E0008F08432F55274330510509F44AC078F52D
:1021F0004130510509F47AC08BE590E0EFEBFAE04D
:102200004230510509F092CF2091E800277F2093BA
:10221000E80020919008309191088217930708F404
:102220009C0140E02115310509F065C0411163C0F2
:102230008091E80082FDC9CF80918808882329F227
:10224000853019F28091E80083FFF2CFBECF413292
:10225000510509F43CC04232510509F067CF833083
:10226000910508F063CFFC01EE0FFF1FE550F94F19
:102270000190F081E02D8850994FDC018C9190E025
:102280001AC0332721303105D1F02115310561F015
:102290002230310509F04ACFECE2FBE0E4918E2FC9
:1022A00090E0ECE2FBE007C0EEE8FBE0E4918E2F6B
:1022B00090E0EEE8FBE0009709F438CFA5CFE6E721
:1022C000FBE0E4918E2F90E0E6E7FBE0F4CF833073
:1022D000910508F02BCF880F991FFC01EF5FF84F95
:1022E0000190F081E02D89E090E08ECF82E190E0D6
:1022F000EAE1FBE089CF80918808882309F465CF63
:10230000853009F462CF8091E80083FD5ECF809133
:10231000E80082FD8DCF8091E80080FF83CF90910F
:10232000F3008091F2002115310519F088309105F4
:1023300050F041E0089709F040E08091E8008E7786
:102340008093E8006FCF44914093F1003196215083
:1023500031090196E8CF803809F0E8CE8091E80095
:10236000877F8093E800809189088093F10087CE71
:102370008111DCCE10918C08123008F0D7CE8091FC
:10238000E800877F8093E800109389080E943A074D
:10239000112311F084E005C08091E30087FDFACF9E
:1023A00081E08093880842E061EC81E00E94590757
:1023B00042E261EC82E00E94590742E261EC83E074
:1023C0000E945907B3CE80918C08813009F0AECEBF
:1023D00081E0933009F080E0809387081092E90053
:1023E0008091E800877F8093E8000E943A079ECEA4
:1023F0000E942D0F2FEF84E39CE0215080409040FD
:10240000E1F700C0000081E08093E00080E280936B
:10241000D8001092C9008FE19EE40197F1F700C047
:10242000000087E090EBDC0180939A0890939B0872
:10243000A0939C08B0939D0888E19CE00FB6F894A7
:10244000A895809360000FBE90936000FFCF882313
:10245000B1F19CEF980F913A78F4EEE0F7E024E1C7
:1024600037E09191891303C0DF0111971C922E1759
:102470003F07B9F70C94790890E2980F983050F420
:10248000877091E001C0990F8A95EAF7892F0E9421
:102490007208F0CF9BE5980F933020F490E080E035
:1024A0000C94230998E5980F973120F490E080E090
:1024B0000C940D098F3B19F410920D07DBCF089592
:1024C000CF93DF93EC010E942712CE01805E910929
:1024D000089720F067EE78E0209711F46CEF78E031
:1024E000CE01DF91CF910C94240C8091260790911E
:1024F0002707009711F00E94601210922707109290
:10250000260708958091240790912507009731F0C0
:102510000E946012109225071092240708950C94CF
:1025200082128091EC07882369F01092EC07809169
:10253000EE07882321F082EE90E00C94601283EE87
:1025400090E0FBCF08958091EE07811103C080EEEB
:102550000C9427128091E107823019F483EE0E94D7
:1025600027121092E10708950F931F93CF93C82F5E
:10257000882309F46EC08CEF8C0F813AA8F50EE029
:1025800017E084E197E0F8012191C217F9F08E1766
:102590009F07D1F7EFEF80E0D8019D918D01C9171A
:1025A00081F0EF3F19F4911101C0E82F8F5F863061
:1025B00099F7EF3F31F00E2E000CFF0BE45FF84F60
:1025C000C283CF911F910F910C947908EEE0F7E050
:1025D0002191C21303C0DF0111971C928E179F0730
:1025E000B9F70E947908D6CF80E28C0F883068F462
:1025F000C77021E030E001C0220FCA95EAF7809150
:102600001508822B80931508DCCFEBE5EC0FE33047
:1026100050F4F0E0EF53F94F808190E0CF911F919B
:102620000F910C942309E8E5EC0FE73160F4F0E03A
:10263000EE0FFF1FEC53F94F80819181CF911F91D5
:102640000F910C940D09CF3B21F481E080930D078D
:10265000B8CFCF911F910F910895CF93C82F0E94AB
:10266000B412C93349F42FEF87EE93E02150804034
:102670009040E1F700C000008C2FCF910C942712FE
:102680000F93CF93DF93C42FD22FFC018281882335
:1026900099F04093F2070E944E089093D7078093D9
:1026A000D607C77081E001C0880FCA95EAF7DF91AD
:1026B000CF910F910C9403098091F207841340C0CD
:1026C0002091D6073091D7079FB7F89440911A0808
:1026D00050911B0860911C0870911D089FBF421B00
:1026E000530B463E510560F5C0E2CD0F8D17C1F08A
:1026F00090E2980F983048F4877091E001C0990FEC
:102700008A95EAF7892F0E94FC08C83048F481E0D6
:102710009D2F977001C0880F9A95EAF70E940309D0
:10272000802F0E942D13C83090F4D77081E001C033
:10273000880FDA95EAF7DF91CF910F910C94FC089E
:10274000C77081E001C0880FCA95EAF7F4CFDF9126
:10275000CF910F91089580914908813079F08823B5
:1027600049F0823039F0843069F08091D507809348
:102770001508089582EE0E942712F7CF8CE20E947E
:102780002D13F3CF88E2FBCFCF92DF92EF92FF922F
:102790000F931F93CF93DF93EC018AE0C82EFE01C5
:1027A0008491882309F481C0813009F03EC03196BC
:1027B0008491813039F42296FE0184910E942D1378
:1027C0002196EDCF823031F42296FE0184910E9451
:1027D000B412F6CF833031F42296FE0184910E9428
:1027E0002712EECF843009F05EC02296FE012491BC
:1027F00090E080E0FE0131962053330B2A30310502
:1028000048F00197E8F2EFE9FFE03197F1F700C0F7
:102810000000F7CFC89EA001C99E500D1124C90128
:10282000840F951F2491EF01E5CFE82FF0E0E350EE
:10283000FB4FD490082F06950695069510E0F801F9
:10284000E351FB4FE4908770F12C082E02C0F59401
:10285000E7940A94E2F721E0E222FF2403521B4F9F
:10286000F801049110E002C0159507958A95E2F7EA
:1028700001701127E114F10419F081EE0E94B412E5
:102880000115110519F086EE0E94B4128D2D0E94DB
:102890002D13012B19F086EE0E942712EF2809F460
:1028A0008FCF81EE9CCFEF018BCFDF91CF911F9126
:1028B0000F91FF90EF90DF90CF900895CF93DF932B
:1028C000EC01805E9109089720F062EF78E0209794
:1028D00011F463E079E0CE010E94240C8C2FDF918B
:1028E000CF910C94B412CF93DF93EC010E945E144D
:1028F000CE01DF91CF910C946012BF92CF92DF9204
:10290000EF92FF920F931F93CF93DF936B017C01A4
:102910000CE110E0C7E0D0E0BB24B394D701C601BE
:10292000002E04C0B695A795979587950A94D2F77F
:10293000282F2F70D9F4B11004C087E290E00E94D4
:102940007314219704501109CF3FDC0751F4DF9134
:10295000CF911F910F91FF90EF90DF90CF90BF909C
:102960000895C430D105D4F6B12CD8CF822F90E091
:102970002A3028F44D960E947314B12CE2CF0697AA
:10298000FACF809115088093D50710921508809191
:102990004908813089F0882359F0823091F08430E1
:1029A000B9F08FE39CE90197F1F700C000000895AA
:1029B00082EE0E94B412F5CF88E193E00E94731476
:1029C000F0CF82EE0E94B41287E50E942D13E9CF6A
:1029D00086EE0E942D1388E1F8CFCF93DF932091EC
:1029E000EE07FC01E258FD45EE0FFF1FE20FF11D5F
:1029F000EE0FFF1FEC54FD4FC591D491211105C07E
:102A0000CE01DF91CF910C9473140E94C114BE01CA
:102A100090E080E00E947D14DF91CF910C94AB1385
:102A20001F93CF93DF9386539D4526E0289FE001B7
:102A3000299FD00D1124C45CDD4F13E0FE01859168
:102A4000949189322DE5920739F00E947314113068
:102A500019F011502296F2CFDF91CF911F91089576
:102A6000FB014081518165E0649F9001659F300DBD
:102A70001124F901E95FFC4F4491FC018081813010
:102A800059F4285F3C4FF901859194914230A9F1A6
:102A900030F44130A1F10895265F3C4FF4CF43302C
:102AA00019F0453019F008950C94101585309105F2
:102AB00041F168F482309105C9F018F4019799F05A
:102AC000089583309105A9F00497A9F008958730FF
:102AD000910529F100F19C0129583D452630310529
:102AE00008F50C94ED148BE690E009C08CE690E0BC
:102AF00006C00E94F8118AE69DE50E94DD0C0C9448
:102B000073148EE79DE50E94DD0C90932707809358
:102B100026070C945E1482E093E00C94C4138CEFAF
:102B200092E0FBCF0895CF93C82F0E94D00CCC2306
:102B300099F060E870E080E090E00E94470981EE43
:102B400090E00E945E1480EE90E00E945E1482EE9F
:102B500090E0CF910C945E1481EE90E00E946012A0
:102B600080EE90E00E94601282EE90E00E9460127F
:102B700061E070E080E090E0CF910C944709809193
:102B8000240790912507009761F485EE90E00E945C
:102B90005E1485EE90E0909325078093240781E0F2
:102BA00008950E9460121092250710922407F7CF13
:102BB0008091EC0781110EC081E08093EC07809139
:102BC000EE07882321F082EE90E00C945E1483EEF1
:102BD00090E0FBCF08950F931F93CF93DF93EC0109
:102BE000FB018081918125E0289FF001299FF00D54
:102BF0001124E85FFC4F059114918881813039F4EC
:102C0000C801DF91CF911F910F910C9473148AE248
:102C100090E00E9473148091EF07882319F085EEED
:102C20000E94271284E390E00E9473148091EF07C2
:102C3000882319F085EE0E94B412C8010E94731413
:102C400081E08B87DF91CF911F910F910895809143
:102C5000EE07811105C080EE0E94B41281E0089554
:102C600081E08093E107FACF45E050E06CE170E04D
:102C700082E998E00C94272B90919208937059F078
:102C80008093930860939408493708F048E740938D
:102C900095080C9434160895E2E9F8E0438128E0A1
:102CA000421B08F440E08181628190E00C943C1664
:102CB000E2E9F8E0438128E0420F08F44FEF818118
:102CC000628190E00C943C16E2E9F8E0628128E031
:102CD000621B08F460E08181438190E00C943C1613
:102CE000E2E9F8E0628128E0620F08F46FEF818189
:102CF000438190E00C943C16E2E9F8E08181438145
:102D000062818850990B0C943C16E2E9F8E08181CD
:102D100090E04381628108960C943C16E2E9F8E069
:102D200024813AE0230F08F42FEF24830C94341607
:102D3000E2E9F8E024813AE0231B08F420E0248350
:102D40000C94341690919208937099F0811109C0F7
:102D50009460909392081092DE04662351F00C94D4
:102D60003416833010F09860F4CF880F880F982BBA
:102D7000F0CF08958091920886958695815009F448
:102D800082E061E00C94A216809192088695869567
:102D90008F5F833008F081E061E00C94A216E2E9D5
:102DA000F8E089E080838091DA059091DB05A091BD
:102DB000DC0581839283A3838FE784830C9434168C
:102DC000CF9380913F01909140010196E1F4809171
:102DD000F7049091F8040296B1F481E090916308B1
:102DE000911101C080E0C82FC17080914D088C17EF
:102DF00041F0882351F00E94370A0E943416C09394
:102E00004D08CF91089581E0EECF0E94430AF5CF9F
:102E10008F929F92AF92BF92CF92DF92EF92FF92EA
:102E20000F931F93CF93DF938091DD04C0E0D6E131
:102E30008F3F09F0D0C08091280790912907A09179
:102E40002A07B0912B072FB7F894C0901A08D0909A
:102E50001B08E0901C08F0901D082FBF9701860109
:102E6000081B190B2A0B3B0BEFB7F89440911A087B
:102E700050911B0860911C0870911D08EFBF409392
:102E800028075093290760932A0770932B074091D6
:102E9000DC075091DD076091DE077091DF074F3F3F
:102EA000EFEF5E076E077E0709F0A1C0C0911F0813
:102EB000EFE1F8E06C2F70E00197AF4FBF4F8C1936
:102EC0009D09AE09BF09C713AEC060931F0880916A
:102ED000DC079091DD07A091DE07B091DF0721E0CC
:102EE0008132FEE49F07A105B10508F420E0D0E09F
:102EF00081323EE49307A105B10540F43091920878
:102F0000D32FD37019F0D32FD695D69530913207A1
:102F1000321759F02093320781329E44A105B10542
:102F200008F494C081E080934E088091DE048130E3
:102F300009F4A5C0882309F48CC0823009F4FAC1D1
:102F4000833009F401C2DF91CF911F910F91FF905F
:102F5000EF90DF90CF90BF90AF909F908F900895AB
:102F6000D29FF001D39FF00D1124ED5CFD4F4289FB
:102F700053894115510511F446EE50E0D29FF001FE
:102F8000D39FF00D1124ED5CFD4F8681882311F154
:102F9000258536856FB7F89480911A0890911B08A3
:102FA000A0911C08B0911D086FBF821B930B48179E
:102FB000590780F4CD9F800111248189811105C0BA
:102FC000C8018D5C9D4F0E94AB09C801875C9D4F75
:102FD0000E94CC09CF5F2C2F30E08091DD04082EB9
:102FE000000C990B821793070CF0BACF24CF48013D
:102FF000590180949094A094B09484169506A606E6
:10300000B70660F44FEF5FEFBA014093DC075093CF
:10301000DD076093DE077093DF0748CF400F511F35
:10302000621F731FF2CF418D528D6A01F12CE12C8A
:103030008C159D05AE05BF0520F461507F5F32966B
:1030400042CF400F511F528F418FF8CF0E94E016A0
:103050006CCF1092CC058091280790912907A09100
:103060002A07B0912B0780932E0790932F07A093E8
:103070003007B093310781E08093DE0464CF809104
:103080004201D8133BC09091920893702091410166
:1030900030E081E09217130609F480E0817080939C
:1030A000CE05DD2369F1D13091F510919308D090D0
:1030B0009408E0919508F0E0E358FA4FD11037C03A
:1030C000F4901F2DCF2D95E9A92E95E0B92ED12C86
:1030D000C12CF50181915F019091CD05892331F0DB
:1030E000212F4F2D6C2FC6010E942C0AFFEFCF1A03
:1030F000DF0A26E3C216D10461F709C081E0CECF12
:10310000882329F040E060E080E00E94500A80912E
:10311000CC058F5F8093CC0582E08093DE048091A4
:10312000CE05811178C0D11179C083E0A5CFED2CF7
:10313000F12CC4910C2FEC2FF0E026E0129FC0017F
:1031400011242FEF30E0B9010E94EF2A812F90E087
:10315000880F991FA5E5A69FA001A79F500D1124D8
:10316000841B950B982F990F890FD901AE19BF09B0
:10317000AE9FA001AF9F500DBE9F500D1124152F83
:10318000D89ED0011124AB2FBB276901CA1ADB0AD4
:10319000CE9ED001CF9EB00DDE9EB00D11246901F0
:1031A000C81AD108CE9CC001CF9C900DDE9C900D1A
:1031B0001124892F9927281B390B2E9FC0012F9F7F
:1031C000900D3E9F900D1124F92E62307105A1F0F3
:1031D00050F46115710509F476CF6130710581F005
:1031E000F52E1B2F70CF6430710569F080F06630CA
:1031F000710509F468CFF4CFFC2EC52F192F63CFCA
:10320000FC2ECB2F60CFF52E1C2FC92F5CCFC52FE6
:10321000102FFB2E58CFDD2309F495CE80913F016E
:10322000909140010196B1F080912C0790912D076B
:10323000019790932D0780932C07892B59F48FEFDA
:103240009FEF9093400180933F0181E080934E086F
:103250000E94E01680914E08882309F474CE40E065
:1032600060E080E00E94500A80913F01909140010F
:103270008F3F980709F43EC040E050E060EF72E4F1
:103280000E945B0CC0916308D0E00EE518E083E675
:10329000E82E88E0F82E209751F1F80121918F0156
:1032A0002F3F11F1B12C45E0240390011124C901F5
:1032B0008358994F6C01FC01849198EC883C20F470
:1032C00090E0843608F094E620914F08222301F123
:1032D0002CE9280F2436F0F4F60134962491B394A7
:1032E000F4E1BF1223C02197E016F106A1F6109277
:1032F0004E0829CE8091F7049091F8048E3FEFEFAD
:103300009E0709F4BFCF40E050E068EC72E4B8CF0C
:10331000843610F3F6013396249131974491319716
:103320006491891B990B0E942C0AD6CF12160CF4BB
:10333000BACFD9CFD0934201809192088370809305
:1033400041010E94E60DF1CE40912E0750912F07CA
:1033500060913007709131072FB7F89480911A0867
:1033600090911B08A0911C08B0911D082FBF841BD1
:10337000950BA60BB70B8C329140A105B10508F453
:10338000E2CD1092DE04DFCD909163086623D9F080
:103390009530A0F4EEE5F8E030E020E041914F3FB9
:1033A00041F4225A374FF90180839F5F909363085D
:1033B00005C02F5F3F4F2530310581F781E08093B5
:1033C0004E080C94E0169923C9F3EEE5F8E030E0DE
:1033D00020E04191841307C0225A374F8FEFF90143
:1033E00080839150E3CF2F5F3F4F2530310589F720
:1033F000E5CF8091E6079091E7078036910511F5BA
:103400000E94D00C89E30E94B4122FEF8EE595E064
:10341000215080409040E1F700C0000089E30E9405
:1034200027128091230791E089278093230760E08A
:1034300082E00E94C4196091230781E00E94C419B0
:1034400080E0089581E008958091EF07882349F096
:1034500085EE0E9427121092EF0760E082E00C9444
:10346000C41908958091EF0781110EC08091230740
:1034700081110AC085EE0E94B41281E08093EF07AB
:1034800061E082E00E94C41981E0089525E030E007
:1034900030932D0720932C07082E000C990B909346
:1034A000400180933F0181E080934E080C94E01628
:1034B0008F929F92AF92BF92CF92DF92EF92FF9244
:1034C0000F931F93CF93DF93CDB7DEB72F970FB630
:1034D000F894DEBF0FBECDBF4B875C876D877E87BC
:1034E0008F878E859F85892B31F0CA0189238F3F75
:1034F00011F00C94F72385E0FE013B96DE01169651
:1035000001900D928A95E1F789859A85892B41F082
:103510001E81FF80812F8F218F3F11F00C94E323B8
:103520002F960FB6F894DEBF0FBECDBFDF91CF91BF
:103530001F910F91FF90EF90DF90CF90BF90AF90D1
:103540009F908F9008950E94E20B082F682F898129
:103550009A810E94B908E12FF0E026E0F29EE00D8A
:10356000F11D112430E3039FE00DF11D1124EE0F36
:10357000FF1FE155F94F059114918885811105C010
:10358000F884F1103EC0912C56C08091DD048F3F2D
:10359000B9F393E3C92E92E0D92EB12CA12CFF24CC
:1035A000F3948091DD04082E000C990B8A159B057D
:1035B0003CF3D60116968C9116978823D9F019966C
:1035C0008D919C918017910739F48091F00790912B
:1035D000F1078017910771F0F601F78614870387CA
:1035E0008189811103C0C6010E94AB09C6010696FC
:1035F0000E94CC09FFEFAF1ABF0A26E1C20ED11C10
:10360000D0CF1092DC071092DD071092DE071092E7
:10361000DF078F812E8136E0839FC0011124875000
:103620009B4F820F911DDC01EC90BFEF9924939486
:10363000EB1609F4A8CF80901F08C92CD12CC60125
:10364000880D911D099764F188E090E05C01AC1849
:10365000BD08B601605E774FA50180E298E00E9448
:103660002D2DB601685D774FA50188E298E00E9494
:103670002D2DA501440F551FB601660F771F685CFD
:10368000774F88E398E00E942D2DB601605D774F5B
:10369000A50180E398E00E942D2D8A9480921F0856
:1036A00080911F0890E02E2D30E0A901440F551F96
:1036B000475D5A4F220F331FB901665D7A4F21E0F3
:1036C000280F991508F423C180931F080E948212C5
:1036D000FF2071F08091EE07813051F48091E10775
:1036E000813031F483EE0E94B41282E08093E107CE
:1036F0008091ED0781114AC20938BDE51B0708F02A
:10370000A7C10238EDE51E0708F0B6C10A33FDE592
:103710001F0708F06BC106332DE5120708F074C1CE
:103720000C34110508F008C10A34110508F034C43E
:10373000C8014E970A9708F42FC48091EB0788239D
:10374000B1F08091580890915908A0915A08B09111
:103750005B080097A105B10541F067E0B695A79514
:10376000979587956A95D1F780FF0E94D00CC80184
:1037700097558F3F910511F008F040C02091DD046E
:10378000022E000C330B2817390714F48093DD0444
:10379000288536E1389F6001399FD00C1124F6014D
:1037A000ED5CFD4F7F01208B8681222309F4C0C48C
:1037B000128701878F5F86830E944E08D7011E966D
:1037C0009C938E931D9717961C92179780911408BF
:1037D00090911508892B18968C931897ED91FC9170
:1037E0001197309739F054966D917C91C601875CA2
:1037F0009D4F09951093F1070093F0078885882362
:1038000079F0809115088272013EFCE51F0709F4EA
:10381000AEC408F09AC4003E3CE5130709F4A3C403
:1038200017FFADC48885882329F10E94C11468015F
:10383000E894D7F85CE0E52EF12C96010E2C02C03E
:10384000369527950A94E2F72F7087E290E031F0E1
:10385000822F90E02A3008F090C44D960E94731495
:1038600094E0E91AF108ACEFEA16AFEFFA0629F78F
:103870000E94AB139885992309F401C61092F207B0
:103880000230BCE51B0708F49FC50631ECE51E07B6
:1038900038F098012B5F3C452930310508F094C57C
:1038A0000E940E0D90935D0880935C080031FCE54A
:1038B0001F0709F458C508F0E9C408303CE51307B0
:1038C00009F443C508F0B8C404309CE5190709F4AD
:1038D00034C508F09EC40230BCE51B0709F427C5B7
:1038E00080915C08826003301C4509F423C5609117
:1038F0005C0810915D0884E090E00E94372B612FF6
:1039000081E290E00E94372B0E942D0F09CE90E0BB
:10391000FC01E15EF74FDA013C913183DB013C9120
:103920003187E18A880F991FFC01E15EF74F128E03
:10393000118E91E0822FC3CE0D34110508F4FDCE17
:103940000F34110508F428C3C8018B529D450A970E
:1039500008F0F3CE68012BE2C21A2DE5D20A88E105
:103960008C9D80018D9D100D11240D5B1E4FD80183
:1039700011968D919C9112972091E6073091E7075F
:10398000FF2009F4FBC1820F931F9093E7078093F8
:10399000E6071E96ED91FC91309709F4AAC1C80183
:1039A00009958111A6C18091E6079091E707F8017A
:1039B00021813281821B930B9093E7078093E60766
:1039C0008091E6079091E7078930910509F4BBC221
:1039D0008234910509F0C2C20E94D00C90E080E0D0
:1039E0000E94241A81E00E94931573C208343DE5B9
:1039F000130798F405348DE5180730F4C8018C538B
:103A00009D45059708F099CEFF2009F489CD0E94C5
:103A1000D00CC8010E94101583CD0D349DE5190707
:103A200008F48BCE0E37ADE51A0730F0C8018F577A
:103A30009D45029708F081CEFF2009F405C10E9440
:103A4000D00CC8010E94DD0C009709F469CDAAC210
:103A5000073ABDE51B0709F4E5C2B0F5003AFDE5FC
:103A60001F0798F404392DE5120708F084C20F38B7
:103A70003DE5130708F461CEFF2009F451CD0E9403
:103A8000D00CC8010E94ED144BCD013A8DE518070A
:103A900009F4F6C208F49DC2023AADE51A0709F42A
:103AA0000AC3033ABDE51B0709F047CEFF2009F41E
:103AB000FAC00E94D00C8091EC07811102C00E94D4
:103AC000D8158BE292E06EC20C3AEDE51E0709F4C0
:103AD00094C290F4093A2DE5120709F4FCC208F4E7
:103AE000BCC20A3A8DE5180709F406C30B3A9DE5F6
:103AF000190709F415CD21CE003BADE51A0788F56D
:103B00000E3ABDE51B0708F482C2FF2009F408CD78
:103B10008FEF9FEF0E3A1D4511F481E090E0209168
:103B2000E9073091EA07820F931F97FFF8C284E0FC
:103B300090E09093EA078093E907E091E907F0911C
:103B4000EA07EE0FFF1FE954F94F808191819093AE
:103B5000F8048093F70481E080934E080E94E016F9
:103B6000DFCC003BEDE51E0709F0E7CD8091EF07C4
:103B7000FF2009F41DC2882309F417C20E94D00C4B
:103B800085EE0E94271280E89DE55CCFFF20A1F022
:103B90009091E0070093E007913109F0C1CC0C301F
:103BA00009F0BECC1092ED0761E070E080E090E09B
:103BB0000E94470982E01AC20938FDE51F0708F094
:103BC0004CC002382DE5120708F0AACC0A333DE5B7
:103BD0001307D8F406338DE5180708F0A1CC0C3490
:103BE000110550F40A34110528F4C8014E970A97BC
:103BF00008F0A3CDC8012EC00D34110508F49DCDE9
:103C00000F34110508F0A0CEF5CF08349DE5190753
:103C100060F40534ADE51A0708F082CCC8018C5376
:103C20009D45059708F47CCC88CD0D34BDE51B0778
:103C300008F483CD0E37EDE51E0730F0C8018F572D
:103C40009D45029708F079CDC8010E94DD0C0097D0
:103C500009F466CC0E94601263CC073AFDE51F07A9
:103C600009F4E3C118F5003A3DE5130758F40439A7
:103C70008DE5180708F054CC0F389DE5190708F0BA
:103C80004FCC5BCD013AADE51A0709F4FBC108F44E
:103C900047CC023AEDE51E0709F419C2033AFDE5E7
:103CA0001F0709F04ACD8BE292E0D4CF0C3A2DE504
:103CB000120709F435CC90F4093A8DE5180709F498
:103CC0002FCC08F4CDC10A3AADE51A0709F428CC87
:103CD0000B3ABDE51B0709F423CC2FCD003BEDE5E6
:103CE0001E0708F41DCC003BFDE51F0709F43ECF7D
:103CF00024CD88E18C9DF0018D9DF00D1124ED5BAC
:103D0000FE4F89859A85958B848B838181110E94D2
:103D1000740988E18C9DF0018D9DF00D1124ED5BFF
:103D2000FE4F8681978122853385AC01422B532B30
:103D3000452B41F02115310519F0C9010E94DD0C18
:103D40000E945E148091EB0791E0980F9093EB072F
:103D5000811105C01093E3070093E20731CEE09193
:103D6000E207F091E30786899789009729F4178B7A
:103D7000068B0E94D00C24CEFC01F5CF009729F0D1
:103D800082239323892B09F493C08091EB07815000
:103D90008093EB0781119FC01092E3071092E20716
:103DA000EE24E39488E18C9DF0018D9DF00D1124AB
:103DB000ED5BFE4F81819281281B390B3093E70721
:103DC0002093E6070088F189E02D309711F0C801B3
:103DD000099588E18C9DF0018D9DF00D1124ED5B1E
:103DE000FE4F8381E091E207F091E3078111A6C0C5
:103DF00088E18C9DF0018D9DF00D1124ED5BFE4F4F
:103E00008681978122853385AC01422B532B452B2C
:103E100041F02115310519F0C9010E94DD0C0E9405
:103E2000601288E18C9DF0018D9DF00D1124ED5BF9
:103E3000FE4F838981112EC02481358121153105E2
:103E400049F089859A8544895589841B950B821789
:103E5000930700F588E18C9DF0018D9DF00D1124F4
:103E6000ED5BFE4F80859185009711F00E947314E1
:103E700088E18C9DF0018D9DF00D1124ED5BFE4FCE
:103E800084859585009731F00E94DD0C009711F034
:103E90000E947314EE2061F088E18C9DF0018D9DED
:103EA000F00D1124ED5BFE4F128A138A178A168AD1
:103EB0008091E4079091E5078930910509F457C096
:103EC0008234910509F04AC08091E807882309F4FB
:103ED0008ACD86E040C0E091E207F091E3070E173B
:103EE0001F0751F4D80156968D919C919093E3074A
:103EF0008093E20755CFFC01868997890097A9F046
:103F000008171907C1F7D80156968D919C91978B88
:103F1000868B88E18C9DF0018D9DF00D1124ED5B69
:103F2000FE4F128A138A178A168AE12C3BCF93819F
:103F3000891709F45DCF0688F789E02D3097B9F726
:103F40000E94510955CF0E94D00C0E94821289E034
:103F50000E94740983E06F2D0E94C4198091E607C6
:103F60009091E7079093E5078093E407D9CA89E029
:103F70000E945109EFCFFF2009F4D2CA0E94D00C51
:103F80008FEB90E00E945E14C8018A559D450E9407
:103F900073148FEB90E05ECEFF2009F42BCE0E94CD
:103FA000D00CC8010E945E14BBCA8AE290E0FACF2E
:103FB000882361F080E89DE50E94DD0C009711F0F8
:103FC0000E94601285EE0E94B412AACA8AE290E0B2
:103FD00041CEFF2009F4A4CA0E94D00C8091EE07C4
:103FE000811107C081E08093EE0780E00E94461AAD
:103FF00097CA1092EE0781E0F9CFFF2009F490CA2A
:104000000E94D00C8DE690E00E94731489CAFF20B4
:1040100009F486CA81E08093ED0760E071E080E0FA
:1040200090E0C6CDF1100E94D00C8091EE07811176
:104030000EC0FF2039F08FEB90E00E945E1484E404
:1040400090E0B0CF84E490E00E946012A2CFFF2005
:1040500009F466CA87E098E0D7CFF1100E94D00C2F
:104060008091EE07811106C08CE390E0FF2009F4F7
:10407000F1CD98CF8BE298E0FF2009F451CAC4CF6C
:10408000F1104ECA0E94D00C8091EE0781110EC033
:104090008FEB0E94B41286E693E00E9473148FEBBC
:1040A0000E94271281E08093ED0784CD86EA90E09C
:1040B0000E947314F7CFFF2051F00E94D00C809122
:1040C000EC07811102C00E94D8158BE27CCF8BE2F5
:1040D0000E94271225CAFF2009F422CA8091EE0708
:1040E000811103C086E691E08FCF8BE198E00E94BA
:1040F00073148AE090E088CFFF2009F411CA0E946F
:10410000D00C8091E80791E089278093E8070E940E
:1041100093156091E80780E00E94C41901CA8530B8
:1041200091050CF406CD1092EA071092E90705CD2F
:10413000882309F463CB8189882309F45FCBC60106
:10414000875C9D4F0E94CC0959CB073E8CE5180730
:1041500008F066CB6EE1600F609349088CE090E058
:104160000E94372B5DCB811104C081E003C0811117
:10417000FCCF8FEF0E94160A53CB06976FCB043FFC
:10418000BCE51B0771F1B8F4093DFCE51F0719F107
:104190000A3D2CE51207B9F1083D3CE5130709F08B
:1041A00069CB06E221EE41EE68ED7CE5CE01069694
:1041B0000E944013B5C9063F8CE51807F1F0B8F02E
:1041C000073FACE51A0709F055CB07E225EE46EEAE
:1041D00067EF7CE5EBCF07E225EE45EE69ED7CE588
:1041E000E5CF06E221EE40EE64EF7CE5DFCF07E2AB
:1041F00025EE44EE65EF7CE5D9CF06E221EE42EEF6
:1042000066EF7CE5D3CF08E221E045EE6AED7CE580
:10421000CDCF80915C0880610630FCE51F0709F472
:1042200089C080915C08886007301C4508F482C012
:1042300080915C0880627EC080915C088D7F0C302C
:104240003CE5130709F476C070F480915C088C603B
:104250000A309CE5190709F46DC008F47AC0809112
:104260005C088E7F67C080915C08877F0E30BCE55C
:104270001B0709F45FC080915C088B7F0F301C45E1
:1042800008F458C080915C088F7E54C00C3FFCE558
:104290001F0709F456C030F503313CE5130709F454
:1042A0006AC078F401319CE5190709F460C0023155
:1042B0001C4509F01CCB0E942D0F80915C088F7764
:1042C00039C00531BCE51B0709F45DC008F471C0B5
:1042D00080915D0881600B3F1C4509F008CB8093FD
:1042E0005D0805CB01152DE5120709F448C070F4EF
:1042F0000E3F8CE5180799F180915D088E7F0F3F86
:104300001C4568F380915D088360E9CF0230ADE51C
:104310001A0709F457C008F442C060E003301D4595
:1043200009F0E5CA8EE090E00E94372BE0CA809148
:104330005C08816080935C08DACA80915C088460C4
:10434000F9CF80915D088260CACF80915C0880645B
:10435000F1CF0E942D0F80915C088068EBCF809197
:104360005D088D7FBCCF80915C088F7DE3CF80910D
:104370005C088F7BDFCF80915C08837FDBCF8091EF
:104380005D088C7FACCF80915C0882FB992790F907
:1043900021E0922790FB82F990FB83F9CBCF8091AB
:1043A0005D08982F909591708E7F892B90FB81F9F5
:1043B00096CF0E942D0F90915C08892F97FB87F96B
:1043C0008058B8CF61E0AECF809115088272F801B5
:1043D000E35CFC45E431F10508F048C0EE5BF24DCA
:1043E0000C94032B8091920891E089278093920886
:1043F0001092DE040E94341693C84AEB56E164EC36
:1044000076E10E941C0A8CC844EC56E16AEB76E126
:10441000F8CF4CE756E165E876E1F3CF45E856E1A1
:104420006CE776E1EECF44E656E160E776E1E9CF6E
:1044300040E756E164E676E1E4CF4CE456E168E516
:1044400076E1DFCF48E556E16CE476E1DACF48E982
:1044500056E16EE876E1D5CF4EE856E168E976E1BF
:10446000D0CF61E081E00E94A2165AC80115FCE598
:104470001F0709F44EC00F3D1C4509F44CC00E81C6
:104480001F81992309F44BC0C8010E94E20BF82E4A
:10449000682FC8010E94B908B8018F2D0E94520AE6
:1044A000082FE82E8885811110921408192F129573
:1044B0001F70143009F481C0B8F5123008F442C0FE
:1044C000A12FA850BB0B129710F40E949F0985E002
:1044D000FE013696DE01119601900D928A95E1F764
:1044E00089819A810E9490089A81E981F0E0B6E082
:1044F0009B9FE00DF11D112420E3829FE00DF11D33
:104500001124EE0FFF1FE155F94F859194910C9402
:10451000901A0E94F8110E94C30E0C94901AC801C0
:104520000E949008F82EB8CF183009F466C01930F0
:1045300009F437C1173009F0C3CF882309F459C0F3
:104540008FEB1AC0392F3F70F32E907F19F0F29441
:1045500040EFF4228823C9F0FF2069F080E2800F49
:10456000883010F0E1100BC080911508F82AF09205
:1045700015080E947908802F0E94B412A1CF809163
:104580001408F82AF0921408F4CF802F0E94271202
:10459000FF2009F495CF005E083010F0E11006C04E
:1045A0008F2D0E9472080E9479088ACFF094809122
:1045B0001408F822F0921408F6CF292F2695269594
:1045C000237051F0213009F07BCF882379F0802FC0
:1045D00093700E940D0974CF882329F0802F937067
:1045E0000E9423096DCF90E080E0FACF90E080E058
:1045F000F0CF8FEB0E94271263CF292F237009F091
:1046000065C081115DCF802F829586958770880F58
:10461000880F402F4F7050E070E060E0082E04C01B
:10462000440F551F661F771F0A94D2F7C12CD12C57
:10463000760104FF10C03FE0C32ED12CE12CF12CF9
:1046400004C0CC0CDD1CEE1CFF1C8A95D2F7C09474
:10465000D094E094F094969596959370923019F1D9
:10466000D8F48090160890901708A0901808B09081
:104670001908913069F04C295D296E297F29CB01F9
:10468000BA01682179218A219B210E94950918CFBE
:10469000482959296A297B29CB01BA016C297D292E
:1046A0008E299F29F2CF4C295D296E297F29C09040
:1046B0001608D0901708E0901808F0901908CB0160
:1046C000BA016C257D258E259F25DFCF2695882371
:1046D00011F0292F2170222309F4F2CE802F829528
:1046E00086958770880F880F402F4F7050E070E0DC
:1046F00060E0082E04C0440F551F661F771F0A9400
:10470000D2F7C12CD12C760104FF10C02FE0C22EAD
:10471000D12CE12CF12C04C0CC0CDD1CEE1CFF1CB8
:104720008A95D2F7C094D094E094F094969596959B
:104730009370923019F1D8F48090580890905908ED
:10474000A0905A08B0905B08913069F04C295D291F
:104750006E297F29CB01BA01682179218A219B2109
:104760000E944709ADCE482959296A297B29CB01E6
:10477000BA016C297D298E299F29F2CF4C295D2908
:104780006E297F29C0905808D0905908E0905A08A7
:10479000F0905B08CB01BA016C257D258E259F2505
:1047A000DFCF9F70F92E882339F0892F0E9474097A
:1047B000802F0E94030984CE802F0E94FC088F2D39
:1047C0000E9451097DCE85E0FE013696DE011196EC
:1047D00001900D928A95E1F7288589819A812111AE
:1047E0000C94A31A0E949008082F0C94AB1A809185
:1047F000F3079091F40701969093F4078093F307E1
:104800000C947B1ACF92DF92FF920F931F93CF935A
:10481000DF9380914F08882309F4C1C00E94290EBC
:10482000F82E8091CB05C4E0D0E0882311F0D0E0D1
:10483000C0E0C959D74F44E050E0BE018EE197E097
:104840000E94202D6C0188819981AA81BB8180936F
:104850001E0790931F07A0932007B0932107809114
:10486000CB05D0E0C0E0882311F0C4E0D0E0909107
:104870003E0180913D0198133BC010E000E0809123
:10488000160790911707C82AD92A90E080E0CD2812
:1048900011F081E090E00E94652A892B09F057C051
:1048A0008091190780933D01109217071092160707
:1048B0000115110509F452C00230110509F42898B8
:1048C0005D98809118078F5F80931807863008F4F1
:1048D00057C08091CB05F0E0E0E0882311F0E4E0E0
:1048E000F0E0E959F74F108211821282138248C01A
:1048F00082E090E00E94652A8C01892B09F0BFCFED
:1049000080913D0180933E018091700881FFB5CF79
:1049100030911D0720911C0790911B0780911A0769
:104920001F923F931F922F931F929F931F928F93DB
:1049300088E491E09F938F930E94B7068DB79EB74E
:104940000A960FB6F8949EBF0FBE8DBF98CF81E038
:1049500090E09093170780931607AACF289AC95919
:10496000D74F80911A0790911B07A0911C07B09117
:104970001D0788839983AA83BB835D9A10921807C9
:104980000E940817C1E0F11001C0C0E08C2FDF9138
:10499000CF911F910F91FF90DF90CF9008950E94CB
:1049A000290E9091CB05E4E0F0E0992311F0F0E0BE
:1049B000E0E0E959F74F40E030E020E0D901A65EA1
:1049C000B84F5C919191591341E09C932F5F3F4FF9
:1049D0002430310599F790911907940F9093190796
:1049E000C1E0811101C0C0E08091CB05811102C0FE
:1049F00030E020E02959374F80911E0790911F0722
:104A0000A0912007B0912107F90180839183A283AF
:104A1000B3830E940817BACF1F920F920FB60F925E
:104A200011242F933F934F935F936F937F938F93B3
:104A30009F93AF93BF93CF93DF93EF93FF93D09167
:104A4000E900DF708091EC00C82FC17080FDC0E8E4
:104A50001092E9008091F000877F8093F0007894B5
:104A60000E94380F1092E9008091F00088608093D6
:104A7000F000CD2BCF70C093E900FF91EF91DF9153
:104A8000CF91BF91AF919F918F917F916F915F91E6
:104A90004F913F912F910F900FBE0F901F9018953F
:104AA0001F920F920FB60F9211242F933F934F93A3
:104AB0005F936F937F938F939F93AF93BF93EF9386
:104AC000FF938091E10082FF15C08091E20082FF98
:104AD00011C08091E1008B7F8093E10020917A08E2
:104AE0002F5F822F62E30E94E32A992309F4C2C058
:104AF00020937A088091DA0080FF28C08091D80046
:104B000080FF24C08091DA008E7F8093DA0080914C
:104B1000D90080FFE5C080E189BD82E189BD09B48B
:104B200000FEFDCF81E0809388088BEA9AE00E9426
:104B30001E0680917B08811109C00E94C0060E9458
:104B40008B078091E20084608093E2008091E10015
:104B500080FF1BC08091E20080FF17C08091E200BF
:104B60008E7F8093E2008091E20080618093E2007A
:104B70008091D80080628093D80019BC85E0809332
:104B8000880883EB9AE00E941E068091E10084FF72
:104B900031C08091E20084FF2DC080E189BD82E1B7
:104BA00089BD89B5982F917080FFFBCF8091D80087
:104BB0008F7D8093D8008091E1008F7E8093E1000B
:104BC0008091E2008F7E8093E2008091E20081601C
:104BD0008093E20080918908882309F48BC084E0E7
:104BE0008093880887EB9AE00E941E060E942D0F92
:104BF0000E949F098091E10083FF2BC08091E20019
:104C000083FF27C08091E100877F8093E10082E0ED
:104C100080938808109289088091E1008E7F8093AC
:104C2000E1008091E2008E7F8093E2008091E200BB
:104C300080618093E20042E060E080E00E945907DA
:104C40008091F00088608093F0008BEB9AE00E94E6
:104C50001E06FF91EF91BF91AF919F918F917F9130
:104C60006F915F914F913F912F910F900FBE0F90D9
:104C70001F90189510927A0880917908882309F47A
:104C800039CF809188088430C1F49091E9009F70F9
:104C90002091EC00822F817020FD80E8892B93E029
:104CA0009093E9009091EB0090FF04C09091EE008A
:104CB00097FD08C08F708093E900109279081ACF91
:104CC0001092F1009091E80095FDFACF9091E800E4
:104CD00090FFF0CF9091E8009E779093E800EACFA4
:104CE00019BC109288088FEA9AE00E941E06109262
:104CF0007B082CCF8091E30087FD93E09093880898
:104D000071CFCDB7DEB72C970FB6F894DEBF0FBECC
:104D1000CDBF84B7877F84BF0FB6F894A8958091E4
:104D20006000886180936000109260000FBE80E890
:104D300090E00FB6F89480936100909361000FBEED
:104D400085B7806885BF85B7806885BF0E94C0062B
:104D50000E948B078091E20084608093E2008CE1E6
:104D60009DE09093090780930807789480918808C4
:104D70008823A1F01091E9001F709091EC00892F19
:104D8000817090FD80E8182B1092E9008091E80076
:104D900083FD0E94380F1F701093E90082E084BDEC
:104DA00093E095BD9AEF97BD80936E000E940D0E23
:104DB0008093CB050E940D0E63E070E0882309F418
:104DC0007FC18FED94E00E94832978940E94ED0CBE
:104DD000A2EFB6E061E070E08D91E82FE295EF7010
:104DE000F0E041A18F709B0101C0220F8A95EAF784
:104DF000922F9095942391A382A1822B82A326E0E7
:104E0000A83FB20749F7209A559A289A5D9AA0E5DB
:104E1000B8E0E7E6F8E011921D9288E0EF36F80777
:104E2000D1F70E940D0E80934F0890E080E00E9421
:104E3000212B8C3E9E4F11F00E94C30E10921F0832
:104E40008FEF9FEF909339088093380890933B0839
:104E500080933A0890933D0880933C0890933F08D4
:104E600080933E08909341088093400890934308B4
:104E70008093420890934508809344089093470894
:104E80008093460890E080E00E94212B8C3E9E4F4C
:104E900021F00E94C30E0E94CF1645E050E06CE165
:104EA00070E082E998E00E94092B809192088C7F43
:104EB00011F40E94CF168CE090E00E94192B90E034
:104EC000B0E0A0E08093490890934A08A0934B0873
:104ED000B0934C081092480884E080934908809170
:104EE000CB05811109C082EDEDEDF5E0A9EFB4E04D
:104EF00001900D928A95E1F760E082E00E94A2168F
:104F000048E76FEF84E690E00E943C162091F7049A
:104F10003091F80481E02E3F9FEF390709F480E0DB
:104F200080934E0880934D082E3F3F4F09F4CDC02B
:104F30000E94430A0E94341690E080E00E94212BD8
:104F40008C3E9E4F11F00E94C30E82E090E00E94C2
:104F5000192B809370080E940E0D90935D0880932A
:104F60005C0883E090E00E94192B682F70E090E0CD
:104F700080E00E949509109263088FEF80935E088D
:104F800080935F0880936008809361088093620833
:104F900085E08093CD058FEC95E090936508809334
:104FA00064088AE99AE00E941E0631E7432E3AE03F
:104FB000532E48E1642E712C80918808853009F4C5
:104FC00087C00E94022491E7C92E98E0D92E27E6D7
:104FD000A22E28E0B22E10E000E00B87F501319000
:104FE0005F01F60121906F01231409F4B1C0809193
:104FF000700881FF36C08FE79AE00E941E0687E6A0
:10500000882E88E0982EF12CE12CFF92EF928AE70F
:105010009AE09F938F930E94B70687E79AE00E94D9
:105020001E06F40181914F010E945A088C8780E08E
:105030000E945A08FC85FF938F935F924F920E94C3
:10504000B7068FE69AE00E941E062FEFE21AF20AD8
:105050000FB6F894DEBF0FBECDBF98E0E916F1049D
:10506000A1F6922D932580E0FF24F394292F2F2180
:1050700009F469C08983EB85EA833F2081E009F464
:1050800080E08B830E944E088160782F9D838C8303
:1050900049815A816B818D810E94581AF801EF581D
:1050A000F74F8081F826F0820E949F0990916F0847
:1050B000891709F481CF0E949F0980936F087CCFE4
:1050C0008FED94E00E948C2980CE0E94370A32CF67
:1050D00086E99AE00E941E0680918808843011F1CA
:1050E0001092660820E40FB6F894A89560926000CC
:1050F0000FBE2093600083B7817F846083BF83B736
:10510000816083BF7894889583B78E7F83BF0FB605
:10511000F894A89580916000886180936000109257
:1051200060000FBE80918708882309F445CF0E9454
:105130000224E7E6F8E08191811121C088E0EF3692
:10514000F807C9F739CF8F5FFF0C863009F08ECF93
:105150000F5F1F4F0830110509F03FCFFFEFFE83AF
:10516000FF8318860E944E088160782F9A8789876E
:105170004E815F8168858A850E94581A95CF20E10B
:1051800029BD82E189BD09B400FEFDCF8091D80020
:105190008F7D8093D8008091E00082608093E00052
:1051A0008091E00081FDFCCF07CF78941F921FB65D
:1051B0001F9211248F939F93AF93BF9380911A08EE
:1051C00090911B08A0911C08B0911D080196A11D8B
:1051D000B11D80931A0890931B08A0931C08B093EC
:1051E0001D08BF91AF919F918F911F901FBE1F907F
:1051F00018951F921FB61F9211248F939F93AF9300
:10520000BF9380916608811113C080911A08909114
:105210001B08A0911C08B0911D084196A11DB11D4D
:1052200080931A0890931B08A0931C08B0931D0844
:10523000BF91AF919F918F911F901FBE1F901895A6
:105240008EE14A9B02C08150E1F74A9BFECF089550
:105250005A9880E28A95F1F75A9A0895FC013BE04A
:105260003A95F1F720E090E080E031E040E14A95A6
:10527000F1F7880F4A9B02C08160232742E04A95DC
:10528000F1F7000040E14A95F1F79F5F6913EECF17
:1052900090E19A95F1F799B132E03A95F1F7000073
:1052A00040E14A95F1F792FB992790F992272081E6
:1052B000920F90830895EF92FF920F931F93CF93D5
:1052C000DF930F92CDB7DEB719828C017C01E60E19
:1052D000F11C0E151F0561F481E09981911180E0A8
:1052E0000F90DF91CF911F910F91FF90EF90089554
:1052F0000E94202968E0CE0101960E942E29F80123
:1053000081938F01E6CF90939908809398086093DA
:105310009708529A5A9A08959093990880939808FA
:105320006093970852985A9AEA9AE9E6F0E08081E9
:105330008F7C808308956150770B91E001C0990FB5
:105340006A95EAF720E031E0911108C0222391F03C
:105350005A9A80E28A95F1F75A980895492F48237E
:1053600039F05A9A232740E24A95F1F79695ECCF07
:105370005A98F9CF5A98EDCFFF920F931F93CF937E
:10538000DF93EC018C01060F111DC017D10731F41A
:10539000DF91CF911F910F91FF900895F9900E9496
:1053A000282968E08F2D0E949B29EFCF1F920F9232
:1053B0000FB60F9211240F931F932F933F934F9388
:1053C0005F936F937F938F939F93AF93BF93EF936D
:1053D000FF93CF93DF930F92CDB7DEB719820E9470
:1053E000202967E0CE0101960E942E29082F0695FC
:1053F00006950695982F92959570202F2570920FFF
:10540000292F2370969596958770920F891344C023
:105410008981811141C0809197088017E8F120E1CE
:105420002A95F1F75A9A529A82E08A95F1F700C0CC
:10543000A8E00A9FC00111240091980810919908D2
:10544000080F191F5A98F8016581662321F086819B
:1054500097810E94BC290E942829F0E1FA95F1F772
:105460005A9852985A9A20E12A95F1F7D801129643
:105470006C911297662331F113968D919C910E9445
:105480005B29D801ED91FC91882311F088E001C0DF
:1054900082E080830E9420290F90DF91CF91FF91BD
:1054A000EF91BF91AF919F918F917F916F915F919C
:1054B0004F913F912F911F910F910F900FBE0F9021
:1054C0001F901895ED91FC91E1CF0F931F93CF930F
:1054D000DF9320919708281719060CF471C08C01EE
:1054E00093E0000F111F9A95E1F7C0919808D091B1
:1054F0009908C00FD11FF894529A5A9825E02A951E
:10550000F1F70000982F969595708570980F892F68
:10551000837096959695980F092B0E94282900C0B4
:1055200067E0802F0E949B2980E18A95F1F75298CD
:105530005A9A4A9B17C087E090E04A9915C06D813E
:10554000662321F18E819F810E945B2981111EC0FB
:10555000529A5A9AE881F98182E08083789482E0B5
:1055600090E00DC000C0E5CF019771F4529A5A9AAD
:10557000E881F98181E08083789481E090E0DF9197
:10558000CF911F910F91089500C0D7CF0E9420297D
:1055900020E22A95F1F75A98529A80E18A95F1F71C
:1055A0006A81662321F08B819C810E94BC290E9424
:1055B0002829E881F9811082789490E080E0DFCF9B
:1055C00084E090E0DCCF991B79E004C0991F961726
:1055D00008F0961B881F7A95C9F780950895AA1B35
:1055E000BB1B51E107C0AA1FBB1FA617B70710F0CE
:1055F000A61BB70B881F991F5A95A9F78095909500
:10560000BC01CD010895EE0FFF1F0590F491E02D30
:105610000994DC01CB01FC01F999FECF06C0F2BD73
:10562000E1BDF89A319600B40D9241505040B8F760
:105630000895F999FECF92BD81BDF89A992780B55A
:105640000895A8E1B0E042E050E00C940B2BDC019F
:10565000A40FB51F4150504048F0CB01840F951F57
:105660002E910E94382B41505040D0F70895262F9C
:10567000F999FECF92BD81BDF89A019700B4021648
:1056800039F01FBA20BD0FB6F894FA9AF99A0FBEF6
:1056900008950396272F0E94382B0E94372B252F21
:1056A0000E94382B242F0C94382B0196272F0E9410
:1056B000382B0C94372B0E946F2B0C94502C0E948B
:1056C000492C58F00E94422C40F029F45F3F29F009
:1056D0000C94392C51110C94842C0C943F2C0E9466
:1056E000612C68F39923B1F3552391F3951B550B66
:1056F000BB27AA2762177307840738F09F5F5F4FA5
:10570000220F331F441FAA1FA9F335D00E2E3AF0E3
:10571000E0E832D091505040E695001CCAF72BD0FB
:10572000FE2F29D0660F771F881FBB1F261737074C
:105730004807AB07B0E809F0BB0B802DBF01FF277E
:1057400093585F4F3AF09E3F510578F00C94392CF6
:105750000C94842C5F3FE4F3983ED4F386957795C0
:105760006795B795F7959F5FC9F7880F911D969537
:10577000879597F90895E1E0660F771F881FBB1F93
:10578000621773078407BA0720F0621B730B840B40
:10579000BA0BEE1F88F7E09508950E94692C88F0F7
:1057A0009F5798F0B92F9927B751B0F0E1F0660FE5
:1057B000771F881F991F1AF0BA95C9F714C0B13026
:1057C00091F00E94832CB1E008950C94832C672FF4
:1057D000782F8827B85F39F0B93FCCF38695779555
:1057E0006795B395D9F73EF490958095709561953E
:1057F0007F4F8F4F9F4F0895E89409C097FB3EF469
:1058000090958095709561957F4F8F4F9F4F99230D
:10581000A9F0F92F96E9BB279395F695879577958B
:105820006795B795F111F8CFFAF4BB0F11F460FF4B
:105830001BC06F5F7F4F8F4F9F4F16C0882311F0A3
:1058400096E911C0772321F09EE8872F762F05C0B7
:10585000662371F096E8862F70E060E02AF09A9552
:10586000660F771F881FDAF7880F9695879597F947
:10587000089597F99F6780E870E060E008959FEFD2
:1058800080EC089500240A941616170618060906D7
:10589000089500240A9412161306140605060895A6
:1058A000092E0394000C11F4882352F0BB0F40F42E
:1058B000BF2B11F460FF04C06F5F7F4F8F4F9F4F6E
:1058C000089557FD9058440F551F59F05F3F71F0F0
:1058D0004795880F97FB991F61F09F3F79F0879557
:1058E0000895121613061406551FF2CF4695F1DFE0
:1058F00008C0161617061806991FF1CF8695710570
:10590000610508940895E894BB2766277727CB01A3
:1059100097F908950E94FC2C08F48FEF08950E94D7
:10592000A22C0C94502C0E94422C38F00E94492C3E
:1059300020F0952311F00C94392C0C943F2C112459
:105940000C94842C0E94612C70F3959FC1F3950FE9
:1059500050E0551F629FF001729FBB27F00DB11DF3
:10596000639FAA27F00DB11DAA1F649F6627B00D83
:10597000A11D661F829F2227B00DA11D621F739F6C
:10598000B00DA11D621F839FA00D611D221F749F7A
:105990003327A00D611D231F849F600D211D822FC1
:1059A000762F6A2F11249F5750409AF0F1F08823E8
:1059B0004AF0EE0FFF1FBB1F661F771F881F915015
:1059C0005040A9F79E3F510580F00C94392C0C945F
:1059D000842C5F3FE4F3983ED4F3869577956795E2
:1059E000B795F795E7959F5FC1F7FE2B880F911D3F
:1059F0009695879597F90895990F0008550FAA0B6A
:105A0000E0E8FEEF16161706E807F907C0F01216D1
:105A10001306E407F50798F0621B730B840B950BD4
:105A200039F40A2661F0232B242B252B21F4089529
:105A30000A2609F4A140A6958FEF811D811D0895C6
:105A4000FB01DC0104C08D910190801921F44150CB
:105A50005040C8F7881B990B0895FB01DC0102C078
:105A600001900D9241505040D8F70895F894FFCF1F
:105A70001B1043109610431096107610AE1096101F
:105A8000AB11B811F221FD21042209220E221322AA
:105A900018221D22222227222C223122901A901A0B
:0C5AA000901A901A901A901A901A901AFE
:105AAC001E001D001C001B001A0019001800170016
:105ABC0016001500140013001200110010000F0046
:105ACC000E000D000C000B000A0009000800070076
