:100000000C94EA030C9431040C9431040C942D24C8
:100010000C9431040C9431040C9431040C9431048C
:100020000C9431040C9431040C9463200C941F2024
:100030000C9450230C9431040C9431040C9431042E
:100040000C9431040C9431040C9431040C9431045C
:100050000C9431040C942C230C9431040C94310432
:100060000C9431040C9431040C9431040C9431043C
:100070000C9431040C9431040C9431040C9431042C
:100080000C9431040C9431040C9431040C9431041C
:100090000C9431040C9431040C9431040C9431040C
:1000A0000C9431040C9431040C94310400000012BF
:1000B00014009E940001983B7500000126AD0107D5
:1000C00028000000000000000B2E00114224000058
:1000D0000F020000011400000000000000000000FA
:1000E0000000000000000000000000FFFFFFD4D46B
:1000F000D47373733838382121214D4D4D8F8F8F34
:10010000E8E8E87878783838382929290F0F0F007F
:10011000000012121214141400000000000000006D
:1001200000000000000000000000170038350085C6
:100130001F00B80108D52000942700943500751CD5
:10014000003D19013729016525006B2D007019004C
:10015000420C001F0B001F000000000000100029CF
:10016000000000000000000000FFFFFFB6992FC252
:100170006700BD42008E4C01BD6E00FFDD00EEE663
:10018000BF98957CA884007550005637012D1B013F
:100190004629016142002411002417002415000E95
:1001A00009010F0800000000F60909A38D00006B8B
:1001B0001B18086830069300737574C200FAA00516
:1001C000F5F9011BA3000057662400661D006100BD
:1001D0004152008A4E015641013037001442000F4F
:1001E00033001D33002E2300010101010101010133
:1001F00001020202020202020202030303030303DA
:1002000003030404040404040405050505050606A7
:100210000606060707070707080808080909090965
:100220000A0A0A0B0B0B0C0C0C0D0D0D0E0E0E0F0B
:100230000F0F10101111111212131314141515169B
:10024000161717181819191A1A1B1B1C1D1D1E1E0C
:100250001F2020212222232424252626272829295D
:100260002A2B2C2D2D2E2F30313232333435363788
:1002700038393A3B3C3D3E3F404142434445464786
:1002800048494A4C4D4E4F50515354555658595A5F
:100290005B5D5E5F616264656668696B6C6D6F7003
:1002A00072737577787A7B7D7E8082838587888A72
:1002B0008C8E8F91939596989A9C9EA0A2A3A5A7A9
:1002C000A9ABADAFB1B3B5B7BABCBEC0C2C4C6C9A5
:1002D000CBCDCFD1D4D6D8DBDDDFE2E4E7E9EBEE5E
:1002E000F0F3F5F8FAFDFF315D1400190008001570
:1002F000001700325D0400160007000600090033F5
:100300005D1D001B001A0005000A0000000000002F
:10031000002B5D2C002C5D3300130012000C001824
:10032000001C0034002A000F000D0011000B0030EB
:100330005D2F5D37000E0010003600000000000049
:10034000002E5D2D5D345D290003576F5DA25DA118
:100350005D575D9F5D595D585D525D535D505DE336
:1003600000525D4D5D4F5D4E5D515D00000000002F
:10037000002B5D00002C5D9E5D9B5D9A5D995D98F4
:100380005D9D5D975D965D955D945D935D9C5D0063
:10039000000000200200000000000000000000003B
:1003A000002E5D2D5D345D625D5D5D00007B5DA7AF
:1003B0005D06575F5D5E5D795D7C5D7A5D07575CCC
:1003C0005D5B5D0B57695DA65D085700000000008E
:1003D000002B5D00002C5D845D2600250024002399
:1003E000003C5D2200210020001F001E0027002489
:1003F00002300237002C003D5D3600000000000096
:100400000038003000345D00002D021F145200300F
:1004100000380020141E02500051004F0000570009
:1004200000380235142202300224020000000000CD
:10043000002B5DE1002C5D725D0A571E14321434EE
:100440001405573402735D23022602250204570067
:10045000002F00855D30142F14475D000000000060
:10046000002E5D2D5D345D0000385D09574B006442
:100470005D635D0000395D605D4E00615D00000000
:1004800000815D00000000015702570000000000DD
:10049000002B5DE1002C5D29000357705D6C5D6DE4
:1004A0005D0C579F5D4C00520000006B5D0D57E1E5
:1004B000004F00510050006E5D0000000000000081
:1004C000002E5D2D5D345D000000000000655D00C4
:1004D00000000000000000675D665D685D000000D0
:1004E00000825D000000000000AB5D000000000025
:1004F000002B5DE1002C5D2F02865D8E5D0000000B
:10050000000F5723147F5D875D0000000010570027
:10051000000000915D000000000E57000000000088
:10052000002E5D2D5D345D000000000000565D8FE3
:100530005D905D0000000000000000925D00000082
:1005400000835D00000000000000000000000000CB
:10055000002B5D2C002C5DA85D715D00000000008B
:10056000000000A05D00000000000000000000008E
:1005700000765D755D745D00000000000000000005
:10058000002E5D2D5D345D27001400190008001554
:100590000017001E00040016000700060009001FD7
:1005A000001D001B001A0005000A000000000000EA
:1005B000002000210022003300130012000C00185C
:1005C000001C0034004C020F000D0011000B00A9AC
:1005D0005D260037000E001000360000000000000D
:1005E00000250024002300315D14001900080015C7
:1005F000001700E20004001600070006000900339F
:100600005D1D001B001A0005000A0000000000002C
:1006100000E1002C00E1003300130012000C001870
:10062000001C0034002A000F000D0011000B000018
:1006300000000037000E001000360000000000002F
:1006400000E100E1002800000000000000AE5DAD08
:100650005D0000000000000000000000000000003D
:10066000000000000000000000000000000000008A
:10067000001050105010500000000000000000005A
:1006800000000000000000AC5D0000000000000061
:10069000000000000000000000000000000000005A
:1006A0000010501050105005010980A10185031958
:1006B000012AB700150126B700950175108100C009
:1006C000050C0901A101850419012AA002150126C2
:1006D000A002950175108100C005010906A1010560
:1006E0000719E029E7150025019508750181020524
:1006F000FF090315002501950175088102050719F9
:100700000029FF150026FF009506750881000508E1
:10071000190129059505750191029501750391014E
:10072000C009023B00020100A0FA09040000010315
:100730000101000921110100012248000705810380
:1007400008000A0904010001030000000921110149
:1007500000012232000705820320000A1201100165
:1007600000000008AC0550027400010200014803BB
:1007700043006F0072006E00650020004B006500B2
:10078000790062006F006100720064002000520076
:10079000650076002E003100200028004C00650026
:1007A00067006100630079002000530070006C0056
:1007B00069007400290000001603410070007000F9
:1007C0006C006500200049006E0063002E000000F0
:1007D0000403090411241FBECFEFDAE0DEBFCDBF52
:1007E00004B603FE27C080916D0990916E09A09117
:1007F0006F09B09170098730904BA740B04BD1F48E
:1008000010926D0910926E0910926F091092700982
:1008100014BE84B7877F84BF0FB6F894A8958091E3
:100820006000886180936000109260000FBEE0E07D
:10083000F8E3099529E0A6EEB7E001C01D92AD36B8
:10084000B207E1F717E0A0E0B1E0EAE6FFE402C09A
:1008500005900D92A63EB107D9F70E943E210C9457
:1008600095270C940000E8EDF0E080818E7F808376
:100870001092E2001092DA001092E100A0EEB0E0D7
:100880008C9181608C9380818F77808319BCA7EDD8
:10089000B0E08C918E7F8C9380818F7E80831092CC
:1008A0004E0908952091E4003091E50095E6A901F4
:1008B0002091EC00822F817020FF06C08091E8001B
:1008C00080FF06C080E008952091E80022FD1AC054
:1008D00080915B09882389F0853089F08091EB0055
:1008E00085FD0FC02091E4003091E50042175307C9
:1008F000F9F29150E1F684E0089582E0089583E0F2
:10090000089581E00895EF92FF920F931F93CF9384
:100910007C018B010E945204C82F811117C0809165
:10092000E80085FD0BC08091E8008E778093E80099
:100930000E945204882399F3C82F08C0F7018191BF
:100940007F018093F1000150110949F78C2FCF915D
:100950001F910F91FF90EF90089580915D0987FF9F
:1009600013C08091E80082FF06C08091E8008B7779
:100970008093E80004C080915B098111F2CF089553
:1009800080915B098823D9F38091E80080FFF8CF3C
:100990008091E8008E77ECCF982F9093E900242F78
:1009A000762F50E0891731F07091EC002091ED0026
:1009B0005091F00021FD07C09F5F973071F7809341
:1009C000E90081E008953091EB003E7F3093EB0029
:1009D0003091ED003D7F3093ED003091EB003160C0
:1009E0003093EB007093EC002093ED005093F000F7
:1009F0002091EE0027FDE0CF80E00895CF92DF92B6
:100A0000EF92FF920F931F93CF93DF93C8EDD0E047
:100A100088818F7E8883E7EDF0E08081816080832C
:100A200084E082BF81E080934E0988818E7F888335
:100A300002EE10E0F80110821092DA0081EEC82E6A
:100A4000D12CF601108288818F7788838881806815
:100A5000888388818F7D888319BC10925B091092EE
:100A60005C0910925A091092590990EEE92EF12C66
:100A7000F70180818B7F808388818160888342E059
:100A800060E080E00E94CC04F60180818E7F80834C
:100A9000F801808181608083808188608083F70194
:100AA00080818E7F8083888180618883DF91CF9170
:100AB0001F910F91FF90EF90DF90CF900895FC0170
:100AC000809163099091640986179707A0F06115DA
:100AD000710529F49091E8009E779093E80090E0EA
:100AE0006115710551F4911108C08091E80082FFF1
:100AF00034C080E00895BC01F2CF80915B09882367
:100B0000C1F18530C1F18091E80083FD30C0809152
:100B1000E80082FDEACF8091E80080FFE1CF80917C
:100B2000F3002091F200382F6115710519F028307B
:100B3000310558F091E02830310509F090E020911E
:100B4000E8002E772093E800CBCF81918093F100CD
:100B5000615071092F5F3F4FE7CF80915B09882378
:100B600041F0853041F08091E80083FFBECF81E005
:100B7000089582E0089583E00895089580915009D2
:100B800008952FB7F8948091F5089091F608A091F8
:100B9000F708B091F8082FBF089580959091F0085C
:100BA00098239093F00808958091F0089091EF08B1
:100BB000892B9091EE08892B8093E807E091390901
:100BC000F0913A09309731F00280F381E02D88EE00
:100BD00097E009940895E92FEE0FE90FEE0F8E0FBD
:100BE000982F977086958695869525E0829FF001CF
:100BF0001124E053F74F50E040E080E0219130E0D5
:100C0000092E02C0369527950A94E2F72170332702
:100C1000042E01C0220F0A94EAF7822B4F5F5F4F28
:100C20004530510559F70895E92FEE0FE90FEE0F02
:100C30008E0F982F977041E001C0440F9A95EAF704
:100C400086958695869595E0899FF0011124E0535D
:100C5000F74F30E020E070E05191DF011197CB01B8
:100C6000022E02C0969587950A94E2F781708195CD
:100C70008527842385278C932F5F3F4F25303105AF
:100C800059F70895882341F080959091EF088923C2
:100C90008093EF080C94D4050895882339F090913F
:100CA000EF08982B9093EF080C94D40508958823AF
:100CB00021F00E94CD050C94D4050895882339F0C5
:100CC0009091F008982B9093F0080C94D405089517
:100CD0002091B6083091B7082817390771F0909322
:100CE000B7088093B608E0913909F0913A09309736
:100CF00021F00084F185E02D099408952091B40835
:100D00003091B5082817390771F09093B508809392
:100D1000B408E0913909F0913A09309721F0068042
:100D2000F781E02D099408951092EF081092EE08D3
:100D30000E94D40590E080E00E947E0690E080E072
:100D40000C94680660932D0970932E0980932F09E7
:100D5000909330090C9494060F931F9341E050E058
:100D600060E070E004C0440F551F661F771F8A952E
:100D7000D2F7CB01BA01609570958095909500915E
:100D80002D0910912E0920912F09309130096023EF
:100D90007123822393231F910F910C94A2060F932A
:100DA0001F9341E050E060E070E004C0440F551F25
:100DB000661F771F8A95D2F780912D0990912E0991
:100DC000A0912F09B09130098A019B01082B192BA2
:100DD0002A2B3B2BC901B8011F910F910C94A2063D
:100DE0006093F1087093F2088093F3089093F408ED
:100DF0000C949406E0913909F0913A09309721F06A
:100E00000190F081E02D099480E00895CF93DF9365
:100E1000EC0181E0898B8091F0089F81892B809380
:100E2000F0088091EF089885892B8093EF080E9445
:100E3000D405EA81FB81309739F06C897D89CE0138
:100E40000696DF91CF910994DF91CF910895EF92AB
:100E5000FF920F931F93CF93DF93EC018A8581114B
:100E600039C0EB80FC8087E5F81A26E12E9DC00191
:100E70002F9D900D1124DC01AB5ABB4F1496ED91C0
:100E8000FC911597309731F054966D917C91855A6D
:100E90009B4F099586E18E9D80018F9D100D112439
:100EA0000B5A1B4FF80187810E94CD05F801808500
:100EB000982F90958091EF0889238093EF080E94E6
:100EC000D405188219861B861E821D821092CC08BA
:100ED0001092CB08DF91CF911F910F91FF90EF906F
:100EE0000895FA01811101C0FB010994E0E1F8E0E5
:100EF000818360834283339698E0E23BF907C1F730
:100F00000895FC01EE0FFF1FE80FF91FE05FF74F98
:100F1000618340832283089580916509837011F075
:100F20001092CC05809165098C7F809365090895A6
:100F300080916509837011F41092CC058091650948
:100F40008C7F81608093650908950C947607972FB4
:100F500070E026E0929F600D711D1124FB0140E3BB
:100F6000849FE00DF11D1124EE0FFF1FE951FD4F8D
:100F700025913491C9012238310591F1C0F5213311
:100F8000310509F490C028F52932310509F484C0EF
:100F90002A32310509F48EC0211540E5340708F0E6
:100FA000A4C0211540E4340708F026C12F3B3105C9
:100FB00008F087C0283A310508F013C1253A3105F9
:100FC00008F006C12430310500F521303105E9F083
:100FD0003CC02533310509F458C029333105E1F609
:100FE00020913109237089F080EE90E00895233E2E
:100FF000310571F158F4203E3105E9F0223E31050A
:1010000059F62091310922FD1EC00895263E310572
:1010100051F1273E310571F1243E310509F0BCCF75
:101020002091320921FFF1CF8091310984FD0DC05B
:1010300087EE90E008952091310920FD0CC1309198
:10104000320930FFE2CF24FF09C190E080E0DDCF1C
:101050002091310922FD05C13091320930FDC4CF04
:1010600024FFD3CFF2CF2091310923FFCECF24FD2F
:10107000ECCFDECF2091310923FDF6C0309132094B
:1010800031FFEECF84EE90E008952091310925FFE5
:10109000BCCF89E290E008952091310925FFB5CFBA
:1010A00085E390E008952091310926FFAECF8AE2D2
:1010B00090E008952091310926FFA7CF81E390E0C9
:1010C0000895283E310558F4213E310508F09DCFA2
:1010D0002F3B310509F0B9CF80E090E708953A95AC
:1010E00021153F4108F491CFB0CF211583E5380792
:1010F00038F5211592E5390708F087C0211541E53B
:10110000340708F07DC0C90164E0969587956A951B
:10111000E1F7382F3370822F86958695837040E2F1
:10112000849FC0011124932B237041E050E002C042
:10113000440F551F2A95E2F7842B952B9C68089540
:10114000211589E53807F0F4211598E5390708F0ED
:101150006FC0211544E5340708F077CFA90143702B
:10116000552781E090E002C0880F991F4A95E2F769
:101170002695269540E2249F90011124822B932BE3
:101180009A68089521158AE5380708F05ECF822F06
:101190008F704091310942FF05C023FF4EC0822F5E
:1011A000877084609091320990FF07C0982F9871E2
:1011B000983009F048C0877F816044FD877E94E0C5
:1011C000369527959A95E1F72F70922F906908959B
:1011D000255AE22FF0E0E155F84F808190E09064CD
:1011E0000895285AE22FF0E0EE0FFF1FEE54F84F5B
:1011F0008081918194640895C9019F70906A0895D7
:10120000922F8827816F906A0895A901437055270E
:1012100081E090E002C0880F991F4A95E2F7269579
:10122000269540E2249F90011124822B932B86CF98
:10123000922F8827806F906A089522FFB3CF822F64
:101240008B708860AFCF982F9171913009F0B5CF36
:101250008E7F8860B2CF89E390E0089583EE90E0BE
:10126000089582EE90E0089586EE90E00895BF9292
:10127000CF92DF92EF92FF920F931F93CF93DF9362
:101280008C01C0902D09D0902E09E0902F09F0908C
:1012900030098091F1089091F208A091F308B09183
:1012A000F408C82AD92AEA2AFB2ACFE1D0E0BC2ECA
:1012B000D701C6010C2E04C0B695A79597958795C2
:1012C0000A94D2F780FD0EC0219788F7B12C8B2DA0
:1012D000DF91CF911F910F91FF90EF90DF90CF9012
:1012E000BF900895B8018C2F0E94A707019761F362
:1012F000EECFCF93DF939C013A9521153F4168F5DE
:10130000EC01CC27D170DC01AA27B270AC014427D4
:1013100054709C012227387094FF11C080E1CD2BBE
:1013200009F480E0AB2B09F08062452B09F0806462
:10133000232B09F08068FB01DF91CF91099481E0B4
:10134000CD2B09F480E0AB2B09F08260452B09F02E
:101350008460232B81F38860EECFDF91CF910895D5
:101360009F92AF92BF92CF92DF92EF92FF920F9334
:101370001F93CF93DF93C82F6A017B0120E030E0F9
:1013800040EF52E4CB01B6010E94E926181634F46E
:10139000C12CD12C80EFE82E82E4F82E20E030E042
:1013A0004FE753E4C701B6010E94BA256B017C01E7
:1013B0008FE3C802E0011124C455DF4F06E010E0BE
:1013C000FE013296849131979490FE01B490682F7B
:1013D00070E090E080E00E945D26A70196010E94E7
:1013E000EE260E942C26A62E692D70E090E080E06B
:1013F0000E945D26A70196010E94EE260E942C26DF
:10140000962E6B2D70E090E080E00E945D26A70193
:1014100096010E94EE260E942C262A2D492DC801F5
:101420000E94810723960F5F1F4F0B31110509F0B2
:10143000C7CFDF91CF911F910F91FF90EF90DF9079
:10144000CF90BF90AF909F900895E091BE08F0912B
:10145000BF0881E0309709F40895838B0688F789E7
:10146000E02DF8CF2091CA0830E0FC01EB54FD4597
:10147000220F331FEE0FFF1FEE0FFF1FE20FF31FB0
:10148000ED5DFE4F808191810895CF93DF93ADE9AB
:10149000B7E041EA57E0C1E0D0E08D91E82FE29556
:1014A000EF70F0E061A18F709E0101C0220F8A955C
:1014B000EAF7922F9095962391A382A1822B82A383
:1014C0004A175B0751F7DF91CF910895CF9384E0DE
:1014D00090E00E947825C82F81E290E00E94782554
:1014E000982F8C2FCF910895CF93DF9300D00F9238
:1014F000CDB7DEB790915B09943019F589837B8372
:101500006A8382E08093E9008FEF9091E800815038
:1015100095FD06C095ED9A95F1F700008111F5CF84
:101520008091E80085FF0DC050E040E063E070E08E
:10153000CE0101960E9483048091E8008E7780930B
:10154000E8000F900F900F90DF91CF910895BC01AC
:1015500084E00C94740ABC0183E00C94740ACF9369
:10156000DF93EC0181E08093E9008FEF9091E80038
:10157000815095FD06C095ED9A95F1F70000811117
:10158000F5CF8091E80085FF14C050E040E068E0AE
:1015900070E0CE010E9483048091E8008E778093F2
:1015A000E80088E0FE01A1E5B9E001900D928A957E
:1015B000E1F7DF91CF910895539A3BB1377F2BB17B
:1015C00028604FB7F89480E198E0FC015191CF0179
:1015D00068E02BB9000000C057FF3BB9550F000071
:1015E00000C000C000C03BB900C06A9591F7F8E0A8
:1015F000823B9F0751F74FBF8FE594E00197F1F7CA
:1016000000C0000008958091FE07811111C08091F3
:10161000D80080618093D8008AE18A95F1F700C0F4
:101620009091D900892F817090FF82E08093FE070E
:1016300081E09091FE07913009F080E008958F924B
:101640009F92AF92BF92CF92DF92EF92FF920F9351
:101650001F93CF93DF938091B906C4E0D0E0882335
:1016600011F0D0E0C0E08DE9C82E87E0D82EAE01A1
:101670004B5D564F7A018A01912CAA24A394B12C78
:1016800025E0822EF60181916F01E82FE295EF703F
:10169000F0E021A18F70A50102C0440F551F8A956B
:1016A000E2F7CA01922F982B91A392A180958923EA
:1016B00082A350EA5A95F1F7E0EEF7E020E050E01F
:1016C00040E03191A32FA295AF70B0E090968C913D
:1016D00090E03F7002C0959587953A95E2F780FDBE
:1016E0003CC0C501042E01C0880F0A94EAF7282BDC
:1016F0004F5F5F4F4630510521F7F8018081821717
:1017000029F0208380922001992493940E94450A15
:101710000F5F1F4FF1EACF16F7E0DF0609F0B2CFF7
:1017200080912001882359F08150809320018823E3
:10173000B1F08FE99FE00197F1F700C00000892D1B
:10174000DF91CF911F910F91FF90EF90DF90CF909D
:10175000BF90AF909F908F90089580E0C8CFC45CF9
:10176000D64F84E0F70191917F0199938150D1F791
:10177000E6CF6CEE7EEF90E080E00E94B42560E062
:1017800082E090E00E94962560E083E090E00E9475
:1017900096251092F1081092F2081092F308109218
:1017A000F40860E084E090E00E94962560E081E229
:1017B00090E00E94962560E085E090E00E949625EA
:1017C00060E086E090E00E9496256FEF87E090E071
:1017D0000E94962540E050E0BA0188E090E00E9427
:1017E000A82560E08DE090E00E94962540E050E062
:1017F000BA0188E190E00E94A82560E087E190E0CE
:101800000E94962540E050E0BA018CE190E00E94F1
:10181000A82560E080E290E00E94962540E050E03C
:10182000BA0188E190E00E94A82540E050E0BA01AA
:101830008FE090E00E94A82540E050E0BA0183E1EB
:1018400090E00C94A8251092F008EAEEF7E086E00C
:10185000DF011D928A95E9F70C9494061F93CF93AC
:10186000DF93CDB7DEB7AA970FB6F894DEBF0FBEF1
:10187000CDBF8DE599E02091F100FC012193CF01CE
:10188000F9E085369F07B9F780915E09833009F446
:101890006FC0B8F4813009F446C0823009F4B0C09A
:1018A0008091E80083FF7BC280915D0990915E0981
:1018B0009A3008F074C2E92FF0E0E956F84D0C9424
:1018C00062258A3009F48BC08B3009F46EC08930F0
:1018D00039F780915D09813219F780916109909102
:1018E00062090297E8F68091E800877F8093E8001C
:1018F0008091E80082FF37C09091F3008091F20060
:10190000029729F48091F1008B7F813021F480913E
:10191000F100809350098091E8008B778093E80074
:101920000E94AD04BDCF80915D09813A09F0B8CF26
:101930008091E800877F8093E80080916109909111
:101940006209892B61F468E081E599E070E00E940A
:101950005F058091E8008B778093E800A1CF60E07D
:1019600090E080E0F3CF80915B098111C1CF98CFE7
:1019700080915D09813A09F093CF8091610990913E
:101980006209892B09F08CCF8091E800877F8093D2
:10199000E8008091E80080FFFCCF8091C70680932B
:1019A000F1008091E8008E77B9CF80915D09813296
:1019B00009F076CF8091610990916209892B09F035
:1019C0006FCF8091E800877F8093E8000E94AD048C
:1019D00080915F098093C7060E94230C61CF80919C
:1019E0005D09813209F05CCF8091E800877F8093A8
:1019F000E8000E94AD048091600980934F0950CFA8
:101A000080915D09813A09F04BCF8091E800877F92
:101A10008093E8008091E80080FFFCCF80914F091F
:101A2000BECF803899F0823809F0B9C18091610940
:101A30008F70873008F0B3C18093E9008091EB008C
:101A400085FB882780F91092E90006C0809159092A
:101A500090915A09911182609091E800977F90933C
:101A6000E8008093F1001092F1008091E8008E77F9
:101A700092C1882309F480C1823009F090C180911D
:101A80005F09811183C1809161098F702FEF280F49
:101A9000263008F084C18093E9002091EB0020FFFC
:101AA00075C1933031F48091EB0080628093EB003C
:101AB0006DC19091EB0090619093EB0021E030E0DC
:101AC00001C0220F8A95EAF72093EA001092EA00FB
:101AD0008091EB008860EACF811161C110915F09AC
:101AE0001F778091E3008078812B8093E3008091C1
:101AF000E800877F8093E8000E94AD048091E800B1
:101B000080FFFCCF8091E30080688093E30082E057
:101B1000111183E080935B0942C18058823008F044
:101B20003EC180915F09909160098C3D23E092074E
:101B3000A1F583E08A838AE289834FB7F894DE01B6
:101B4000139620E03EE051E2E32FF0E0509357007F
:101B5000E49120FF03C0E295EF703F5FEF708E2F9E
:101B600090E0EA30C0F0C7968D939D932F5F2431AB
:101B700059F74FBF8091E800877F8093E8006AE2C1
:101B800070E0CE0101960E945F058091E8008B779E
:101B90008093E80004C1C096E7CF4091610950915D
:101BA0006209292F33272330310509F444C078F521
:101BB0002130310509F46FC08BE390E0E1E2F7E0FA
:101BC0002230310509F0EBC02091E800277F2093F7
:101BD000E80020916309309164098217930708F4A3
:101BE0009C0140E02115310509F064C0411162C03B
:101BF0008091E80082FDC9CF80915B09882329F29A
:101C0000853019F28091E80083FFF2CFBECF2132F8
:101C10003105A9F12232310509F0C1C04115510544
:101C200009F443C04130510509F0B9C082E390E0A6
:101C3000E7EAF6E0C9CF992781309105C1F0009716
:101C400059F0029709F0ABC0EEE6F7E0E4918E2F71
:101C500090E0EEE6F7E007C0E0EDF7E0E4918E2FCC
:101C600090E0E0EDF7E0009709F499C0ADCFE8EB24
:101C7000F7E0E4918E2F90E0E8EBF7E0F4CF411528
:101C8000510571F04130510509F089C089E090E0BB
:101C9000ECE4F7E099CF82E190E0ECE5F7E094CF57
:101CA00089E090E0E3E3F7E08FCF88E490E0E9EDAE
:101CB000F6E08ACF80915B09882309F466CF8530EE
:101CC00009F463CF8091E80083FD5FCF8091E80045
:101CD00082FD8ECF8091E80080FF84CF9091F30049
:101CE0008091F2002115310519F08830910550F0EE
:101CF00041E0089709F040E08091E8008E778093FA
:101D0000E80070CF44914093F100319621503109A1
:101D10000196E8CF803809F042C08091E800877FC3
:101D20008093E80080915C098093F1009ECE811140
:101D300036C010915F09123090F58091E800877FDE
:101D40008093E80010935C090E94AD04112311F008
:101D500084E005C08091E30087FDFACF81E08093A5
:101D60005B0942E061EC81E00E94CC0442E261EC5C
:101D700082E00E94CC0413C080915F09813079F425
:101D800081E0933009F080E080935A091092E900D5
:101D90008091E800877F8093E8000E94AD048091E5
:101DA000E80083FF0AC08091E800877F8093E80005
:101DB0008091EB0080628093EB00AA960FB6F894B6
:101DC000DEBF0FBECDBFDF91CF911F9108950E945E
:101DD000230C2FEF84E39CE0215080409040E1F7FA
:101DE00000C0000081E08093E00080E28093D80092
:101DF0001092C9008FE19EE40197F1F700C0000046
:101E000087E090EBDC0180936D0990936E09A093BD
:101E10006F09B093700988E19CE00FB6F894A8951B
:101E2000809360000FBE90936000FFCF8823B1F1D4
:101E30009CEF980F913A78F4EAEEF7E020EF37E064
:101E40009191891303C0DF0111971C922E173F0750
:101E5000B9F70C94D40590E2980F983050F487703D
:101E600091E001C0990F8A95EAF7892F0E94CD056C
:101E7000F0CF9BE5980F933020F490E080E00C9435
:101E80007E0698E5980F973120F490E080E00C945E
:101E900068068F3B19F41092E907DBCF0895CF93C2
:101EA000DF93EC010E94160FCE01805E9109089726
:101EB00020F062E476E0209711F467E576E0CE0149
:101EC000DF91CF910C9479098091030890910408D7
:101ED000009711F00E944F0F10920408109203080F
:101EE00008958091010890910208009731F00E94B6
:101EF0004F0F109202081092010808958091C808AF
:101F0000882369F01092C8088091CA08882321F0BC
:101F100082EE90E00C944F0F83EE90E0FBCF08959B
:101F20000E94710F0C947E0F8091CA08811103C02A
:101F300080EE0C94160F8091BD08823019F483EE68
:101F40000E94160F1092BD0808950F931F93CF9310
:101F5000C82F882309F46EC08CEF8C0F813AA8F546
:101F60000AEE17E080EF97E0F8012191C217F9F02F
:101F70008E179F07D1F7EFEF80E0D8019D918D017B
:101F8000C91781F0EF3F19F4911101C0E82F8F5F5D
:101F9000863099F7EF3F31F00E2E000CFF0BE85121
:101FA000F84FC283CF911F910F910C94D405EAEEA4
:101FB000F7E02191C21303C0DF0111971C928E1725
:101FC0009F07B9F70E94D405D6CF80E28C0F8830E6
:101FD00068F4C77021E030E001C0220FCA95EAF72B
:101FE0008091F008822B8093F008DCCFEBE5EC0FBA
:101FF000E33050F4F0E0E155F84F808190E0CF916C
:102000001F910F910C947E06E8E5EC0FE73160F428
:10201000F0E0EE0FFF1FEE54F84F80819181CF91D9
:102020001F910F910C946806CF3B21F481E08093BF
:10203000E907B8CFCF911F910F9108950F93CF93D8
:10204000DF93C42FD22FFC018281882399F0409323
:10205000CD080E94C1059093B3088093B208C77061
:1020600081E001C0880FCA95EAF7DF91CF910F9107
:102070000C945E068091CD08841343C02091B20871
:102080003091B3089FB7F8944091F5085091F60845
:102090006091F7087091F8089FBF421B530B483CB2
:1020A000510578F5C0E2CD0F8D17C1F090E2980F81
:1020B000983048F4877091E001C0990F8A95EAF74B
:1020C000892F0E945706C83048F481E09D2F9770F1
:1020D00001C0880F9A95EAF70E945E06802F0E9441
:1020E000A50F802F0E94160FC83090F4D77081E0A2
:1020F00001C0880FDA95EAF7DF91CF910F910C9428
:102100005706C77081E001C0880FCA95EAF7F4CF7F
:10211000DF91CF910F910895CF93DF93EC01805E13
:102120009109089720F06DE476E0209711F46EE5B0
:1021300076E0CE010E9479098C2FDF91CF910C942B
:10214000A50FCF93DF93EC010E948C10CE01DF919D
:10215000CF910C944F0FCF93DF9386539D4526E08C
:10216000289FE001299FD00D1124C950DE4F88819E
:10217000998189322DE59207A1F00E94A1108A81F0
:102180009B8189322DE5920761F00E94A1108C811C
:102190009D8189322DE5920721F0DF91CF910C943A
:1021A000A110DF91CF910895CF93C82F0E94250AE7
:1021B000CC2399F060E870E080E090E00E94A206F5
:1021C00081EE90E00E948C1080EE90E00E948C10D6
:1021D00082EE90E0CF910C948C1081EE90E00E9402
:1021E0004F0F80EE90E00E944F0F82EE90E00E9431
:1021F0004F0F61E070E080E090E0CF910C94A20678
:102200008091010890910208009761F485EE90E0BA
:102210000E948C1085EE90E0909302088093010854
:1022200081E008950E944F0F109202081092010859
:10223000F7CF8091C80881110EC081E08093C80853
:102240008091CA08882321F082EE90E00C948C10D3
:1022500083EE90E0FBCF08958091CA08811105C0FC
:1022600080EE0E94A50F81E0089581E08093BD0873
:10227000FACF45E050E06CE170E085E699E00C941F
:10228000862590916509937059F080936609609353
:102290006709493708F048E7409368090C943911F9
:1022A0000895E5E6F9E0438128E0421B08F440E0A8
:1022B0008181628190E00C944111E5E6F9E043816F
:1022C00028E0420F08F44FEF8181628190E00C9486
:1022D0004111E5E6F9E0628128E0621B08F460E064
:1022E0008181438190E00C944111E5E6F9E062813F
:1022F00028E0620F08F46FEF8181438190E00C9435
:102300004111E5E6F9E08181438162818850990BB2
:102310000C944111E5E6F9E0818190E0438162810E
:1023200008960C944111E5E6F9E024813AE0230F88
:1023300008F42FEF24830C943911E5E6F9E02481A9
:102340003AE0231B08F420E024830C943911909187
:102350006509937099F0811109C0946090936509A3
:102360001092CC05662351F00C943911833010F093
:102370009860F4CF880F880F982BF0CF0895809144
:10238000650986958695815009F482E061E00C9498
:10239000A71180916509869586958F5F833008F037
:1023A00081E061E00C94A711E5E6F9E089E0808323
:1023B0008091C8069091C906A091CA068183928334
:1023C000A3838FE784830C943911CF9380916103A9
:1023D000909162030196E1F48091E5059091E60504
:1023E0000296B1F481E090913809911101C080E02A
:1023F000C82FC170809122098C1741F0882351F0B9
:102400000E948C070E943911C0932209CF91089530
:1024100081E0EECF0E949807F5CF8F929F92AF9206
:10242000BF92CF92DF92EF92FF920F931F93CF93C1
:10243000DF938091CB05C0E0D6E18F3F09F0D0C09B
:102440008091050890910608A0910708B0910808AE
:102450002FB7F894C090F508D090F608E090F708F0
:10246000F090F8082FBF97018601081B190B2A0B63
:102470003B0BEFB7F8944091F5085091F608609146
:10248000F7087091F808EFBF4093050850930608CD
:1024900060930708709308084091B8085091B908F4
:1024A0006091BA087091BB084F3FEFEF5E076E076F
:1024B0007E0709F0A1C0C091F908E9EFF8E06C2FA0
:1024C00070E00197AF4FBF4F8C199D09AE09BF094E
:1024D000C713AEC06093F9088091B8089091B9080D
:1024E000A091BA08B091BB0821E08132FEE49F07B9
:1024F000A105B10508F420E0D0E081323EE4930765
:10250000A105B10540F430916509D32FD37019F0BE
:10251000D32FD695D69530910F08321759F02093C6
:102520000F0881329E44A105B10508F494C081E0F2
:10253000809323098091CC05813009F4A5C08823BC
:1025400009F48CC0823009F4F3C1833009F4FAC174
:10255000DF91CF911F910F91FF90EF90DF90CF907F
:10256000BF90AF909F908F900895D29FF001D39F1E
:10257000F00D1124EB5AFB4F428953894115510547
:1025800011F448EC50E0D29FF001D39FF00D1124DC
:10259000EB5AFB4F8681882311F1258536856FB76D
:1025A000F8948091F5089091F608A091F708B09101
:1025B000F8086FBF821B930B4817590780F4CD9F13
:1025C000800111248189811105C0C8018B5A9B4F5C
:1025D0000E940607C801855A9B4F0E942707CF5FBC
:1025E0002C2F30E08091CB05082E000C990B821720
:1025F00093070CF0BACF24CF4801590180949094EE
:10260000A094B09484169506A606B70660F44FEF22
:102610005FEFBA014093B8085093B9086093BA08C5
:102620007093BB0848CF400F511F621F731FF2CF3A
:10263000418D528D6A01F12CE12C8C159D05AE0562
:10264000BF0520F461507F5F329642CF400F511F8B
:10265000528F418FF8CF0E94E5116CCF1092BA06CD
:102660008091050890910608A0910708B09108088C
:1026700080930B0890930C08A0930D08B0930E085C
:1026800081E08093CC0564CF80916403D8133BC074
:102690009091650993702091630330E081E0921777
:1026A000130609F480E081708093BC06DD2369F194
:1026B000D13091F510916609D0906709E0916809D1
:1026C000F0E0E951FE4FD11037C0F4901F2DCF2D0F
:1026D00033E8A32E36E0B32ED12CC12CF501819125
:1026E0005F019091BB06892331F0212F4F2D6C2F74
:1026F000C6010E948107FFEFCF1ADF0A26E3C21648
:10270000D10461F709C081E0CECF882329F040E0F1
:1027100060E080E00E94A5078091BA068F5F8093F9
:10272000BA0682E08093CC058091BC06811178C006
:10273000D11179C083E0A5CFED2CF12CC4910C2FE1
:10274000EC2FF0E026E0129FC00111242FEF30E0C3
:10275000B9010E943A25812F90E0880F991FA5E5C5
:10276000A69FA001A79F500D1124841B950B982FA5
:10277000990F890FD901AE19BF09AE9FA001AF9F74
:10278000500DBE9F500D1124152FD89ED00111243D
:10279000AB2FBB276901CA1ADB0ACE9ED001CF9EA0
:1027A000B00DDE9EB00D11246901C81AD108CE9C6F
:1027B000C001CF9C900DDE9C900D1124892F99278C
:1027C000281B390B2E9FC0012F9F900D3E9F900D0F
:1027D0001124F92E62307105A1F050F461157105D4
:1027E00009F476CF6130710581F0F52E1B2F70CF83
:1027F0006430710569F080F06630710509F468CFC6
:10280000F4CFFC2EC52F192F63CFFC2ECB2F60CF1A
:10281000F52E1C2FC92F5CCFC52F102FFB2E58CFA4
:10282000DD2309F495CE80916103909162030196B6
:10283000B1F08091090890910A08019790930A08D5
:1028400080930908892B59F48FEF9FEF90936203CF
:102850008093610381E0809323090E94E5118091B8
:102860002309882309F474CE40E060E080E00E94F0
:10287000A507809161039091620340E050E060EF12
:1028800072E48F3F980761F48091E5059091E60529
:102890008E3FFFEF9F0731F040E050E068EC72E4BC
:1028A0000E94B0090091380910E083E3C82E89E046
:1028B000D82E98E3E92E99E0F92E25E0B22E0115E5
:1028C000110531F1F60121916F012F3FF1F0D0E0B8
:1028D0003B2D2303F0011124E45FFC4F8081C48170
:1028E00098EC883C20F490E0843608F094E620913F
:1028F0002409222381F02CE9280F243670F42C2F90
:10290000DF5FD43191F401501109EC14FD04B9F6E4
:10291000109223091DCE843690F323814281618178
:10292000891B990B0E948107EACF1C168CF2EBCF12
:10293000D0936403809165098370809363030E9440
:10294000DC0AF8CE40910B0850910C0860910D08FC
:1029500070910E082FB7F8948091F5089091F608C1
:10296000A091F708B091F8082FBF841B950BA60B18
:10297000B70B8C329140A105B10508F4E9CD109256
:10298000CC05E6CD909138096623D9F09530A0F4B6
:10299000E3E3F9E030E020E041914F3F41F42D5C6A
:1029A000364FF90180839F5F9093380905C02F5FF0
:1029B0003F4F2530310581F781E0809323090C9446
:1029C000E5119923C9F3E3E3F9E030E020E0419118
:1029D000841307C02D5C364F8FEFF901808391502F
:1029E000E3CF2F5F3F4F2530310589F7E5CF809149
:1029F000C2089091C3088036910511F50E94250AFE
:102A000089E30E94A50F2FEF8EE595E021508040CD
:102A10009040E1F700C0000089E30E94160F80910A
:102A2000000891E089278093000860E089E00E9417
:102A3000C2146091000881E00E94C21480E00895F1
:102A400081E008958091FF07882349F085EE0E9478
:102A5000160F1092FF0760E089E00C94C2140895ED
:102A60008091FF0781110EC08091000881110AC07A
:102A700085EE0E94A50F81E08093FF0761E089E069
:102A80000E94C21481E0089525E030E030930A08E6
:102A900020930908082E000C990B909362038093F1
:102AA000610381E0809323090C94E5118F929F923A
:102AB000AF92BF92CF92DF92EF92FF920F931F934C
:102AC000CF93DF93CDB7DEB7CDB6DEB62091CA087F
:102AD000FC01E158FD45822F90E0EE0FFF1FEE0F45
:102AE000FF1F880F991FE80FF91FE159FD4F8081E3
:102AF0009181211114C00E94A1100FB6F894DEBE7E
:102B00000FBECDBEDF91CF911F910F91FF90EF903F
:102B1000DF90CF90BF90AF909F908F90089521301D
:102B200061F74C01ADB6BEB60E94250A82EE90E078
:102B30000E948C1004E010E088EE881683E098066E
:102B400034F482E690E00E94A11003E010E0EDB7BB
:102B5000FEB7E01BF10B0FB6F894FEBF0FBEEDBF42
:102B60008DB79EB701967C01FC012AE030E081140C
:102B70009104C1F40E0D1F1DF80182918F01811186
:102B800018C082E690E00E94A1100E151F05A1F763
:102B900082EE90E00E944F0F0FB6F894BEBE0FBEBB
:102BA000ADBEABCFC401B9010E944E2581934B014C
:102BB000DECF90E0885A9F4FE6CF8F929F92AF92E0
:102BC000BF92CF92DF92EF92FF920F931F93CF931A
:102BD000DF93CDB7DEB72F970FB6F894DEBF0FBEE9
:102BE000CDBF4B875C876D877E878F878E859F855E
:102BF000892B31F0CA0189238F3F11F00C94DF1E1D
:102C000085E0FE013B96DE01169601900D928A95B5
:102C1000E1F789859A85892B41F01E81FF80812FFC
:102C20008F218F3F11F00C94CB1E2F960FB6F89486
:102C3000DEBF0FBECDBFDF91CF911F910F91FF90EF
:102C4000EF90DF90CF90BF90AF909F908F900895BE
:102C50000E943709082F682F89819A810E941406E3
:102C6000E12FF0E026E0F29EE00DF11D112430E3AB
:102C7000039FE00DF11D1124EE0FFF1FE951FD4FE1
:102C8000059114918885811105C0F884F1103EC02A
:102C9000912C56C08091CB058F3FB9F395E5C92E95
:102CA00094E0D92EB12CA12CFF24F3948091CB0574
:102CB000082E000C990B8A159B053CF3D60116963D
:102CC0008C9116978823D9F019968D919C91801735
:102CD000910739F48091CB089091CC088017910727
:102CE00071F0F601F786148703878189811103C08B
:102CF000C6010E940607C60106960E942707FFEF3D
:102D0000AF1ABF0A26E1C20ED11CD0CF1092B8086C
:102D10001092B9081092BA081092BB088F812E81C8
:102D200036E0839FC001112489519A4F820F911D73
:102D3000DC01EC90BFEF99249394EB1609F4A8CF33
:102D40008090F908C92CD12CC601880D911D0997D6
:102D500064F188E090E05C01AC18BD08B6016650F3
:102D6000774FA5018AEF98E00E948C27B6016E5F2D
:102D7000764FA50182E099E00E948C27A501440FBF
:102D8000551FB601660F771F6E5E764F82E199E0A0
:102D90000E948C27B601665F764FA5018AE099E014
:102DA0000E948C278A948092F9088091F90890E01B
:102DB0002E2D30E0A901440F551F495E594F220FB7
:102DC000331FB901685E794F21E0280F991508F487
:102DD000E7C08093F9080E94710FFF2071F0809185
:102DE000CA08813051F48091BD08813031F483EEFE
:102DF0000E94A50F82E08093BD088091C9088111CF
:102E000005C20838BDE51B0708F06CC10138EDE5C7
:102E10001E0708F07BC10A33FDE51F0708F02EC12D
:102E200006332DE5120708F037C10C34110508F000
:102E3000CCC00A34110508F0EBC3C8014E970A97BD
:102E400008F4E6C38091C7088823B1F080912D096A
:102E500090912E09A0912F09B09130090097A105FA
:102E6000B10541F057E0B695A795979587955A9586
:102E7000D1F780FF0E94250AC80197558F3F910521
:102E800011F008F069C42091CB05022E000C330B21
:102E90002817390714F48093CB05288536E1389F2D
:102EA0006001399FD00C1124F601EB5AFB4F7F01D2
:102EB000208B8681222309F442C4128701878F5F09
:102EC00086830E94C105D7011E969C938E931D9701
:102ED00017961C9217978091EF089091F008892B14
:102EE00018968C931897ED91FC911197309739F0C3
:102EF00054966D917C91C601855A9B4F099510930C
:102F0000CC080093CB089885992309F4A3C51092A7
:102F1000CD080230FCE51F0708F441C506312CE559
:102F2000120738F098012B5F3C452930310508F035
:102F300036C50E94660A90933209809331090031A8
:102F40003CE5130709F4FAC408F088C408309CE58E
:102F5000190709F4E9C408F057C40430BCE51B079D
:102F600009F4D6C408F042C40230FCE51F0709F496
:102F7000C9C480913109826003301C4509F4C5C47D
:102F8000609131091091320984E090E00E94962509
:102F9000612F81E290E00E9496250E94230C45CE8D
:102FA00090E0FC01E750F74FDA013C913183DB01FF
:102FB0003C913187E18A880F991FFC01E750F74F58
:102FC000128E118E91E0822FFFCE0D34110508F480
:102FD00039CF0F34110508F41BC3C8018B529D452E
:102FE0000A9708F02FCF6801BBE2CB1ABDE5DB0AD8
:102FF00088E18C9D80018D9D100D11240B591C4F73
:10300000F801818192812091C2083091C308FF208C
:1030100009F4EFC1820F931F9093C3088093C208F5
:103020000684F785E02D309709F49EC1C801099503
:1030300081119AC18091C2089091C308D80111965C
:103040002D913C91821B930B9093C3088093C208EF
:103050008091C2089091C3088930910509F4ADC2EE
:103060008234910509F0B6C20E94250A90E080E002
:103070000E94221581E00E94D41066C208343DE50A
:10308000130798F405348DE5180730F4C8018C5304
:103090009D45059708F0D6CEFF2009F4C6CD0E94C5
:1030A000250AC8010E94AB10C0CD0D349DE519075B
:1030B00008F4C8CE0D37ADE51A0730F0C8018E57B9
:1030C0009D45029708F0BECEFF2009F4F7C00E948C
:1030D000250AC8010E94320A009709F4A6CD0E9471
:1030E0008C10A3CD063ABDE51B0709F4BDC2B0F5AF
:1030F0000F39FDE51F0798F403392DE5120708F095
:1031000076C20E383DE5130708F49CCEFF2009F483
:103110008CCD0E94250AC8010E94561586CD003A22
:103120008DE5180709F4C7C208F479C2013AADE584
:103130001A0709F4D8C2023ABDE51B0709F082CE8E
:10314000FF2009F4EAC00E94250A8091C808811175
:1031500002C00E9419118BE292E0C1CF0A3AEDE55C
:103160001E0709F462CDD0F4083A2DE5120709F4E0
:10317000CCC208F494C2FF2009F457CD0E94250A5E
:103180008091C40891E089278093C4080E94D410DC
:103190006091C40880E00E94C21447CD0C3A8DE5CE
:1031A000180709F45AC208F44EC20F3AADE51A07DF
:1031B00008F048CEFF2009F438CD8FEF9FEF0D3A8D
:1031C0001D4511F481E090E02091C5083091C608BA
:1031D000820F931F97FFAAC284E090E09093C608E5
:1031E0008093C508E091C508F091C608EE0FFF1F57
:1031F000EB55F84F808191819093E6058093E5052A
:1032000081E0809323090E94E5110FCDFF2071F02A
:103210009091BC080093BC089C3109F006CD0231A6
:1032200009F003CD1092C90882E006C20838BDE556
:103230001B0708F04CC00138EDE51E0708F0F5CC7F
:103240000A33FDE51F07D8F406332DE5120708F011
:10325000ECCC0C34110550F40A34110528F4C801E3
:103260004E970A9708F0EECDC8012EC00D34110517
:1032700008F4E8CD0F34110508F0AFCEF5CF0834CF
:103280003DE5130760F405348DE5180708F0CDCC53
:10329000C8018C539D45059708F4C7CCD3CD0D3498
:1032A0009DE5190708F4CECD0D37ADE51A0730F0CE
:1032B000C8018E579D45029708F0C4CDC8010E94F1
:1032C000320A009709F4B1CC0E944F0FAECC063AF7
:1032D000BDE51B0709F4CBC118F50F39FDE51F0744
:1032E00058F403392DE5120708F09FCC0E383DE560
:1032F000130708F09ACCA6CD003A8DE5180709F41B
:10330000DCC108F492CC013AADE51A0709F4F9C121
:10331000023ABDE51B0709F095CD8BE292E0D4CFD0
:103320000A3AEDE51E0709F480CC88F4083A2DE549
:10333000120709F47ACC08F078CC8091CA08811180
:10334000B4C18CE390E0FF2009F4BECFC8CE0C3AA4
:103350008DE5180709F469CC08F467CC0F3AADE5A0
:103360001A0708F462CC6ECD88E18C9DF0018D9D2A
:10337000F00D1124EB59FC4F89859A85958B848B30
:10338000838181110E94CF0688E18C9DF0018D9D83
:10339000F00D1124EB59FC4F8681978122853385EE
:1033A000AC01422B532B452B41F02115310519F06F
:1033B000C9010E94320A0E948C108091C70891E0D6
:1033C000980F9093C708811105C01093BF08009310
:1033D000BE083ECEE091BE08F091BF08868997896D
:1033E000009729F4178B068B0E94250A31CEFC0129
:1033F000F5CF009729F082239323892B09F493C0FA
:103400008091C70881508093C70881119FC0109296
:10341000BF081092BE08EE24E39488E18C9DF00171
:103420008D9DF00D1124EB59FC4F81819281281B59
:10343000390B3093C3082093C2080088F189E02D2E
:10344000309711F0C801099588E18C9DF0018D9DA0
:10345000F00D1124EB59FC4F8381E091BE08F091EF
:10346000BF088111A5C088E18C9DF0018D9DF00DF4
:103470001124EB59FC4F8681978122853385A90160
:10348000482B592B452B41F02115310519F0C90165
:103490000E94320A0E944F0F88E18C9DF0018D9DA1
:1034A000F00D1124EB59FC4F838981112EC024812A
:1034B00035812115310549F089859A8544895589D9
:1034C000841B950B8217930700F588E18C9DF00112
:1034D0008D9DF00D1124EB59FC4F8085918500974F
:1034E00011F00E94A11088E18C9DF0018D9DF00DDE
:1034F0001124EB59FC4F84859585009731F00E948B
:10350000320A009711F00E94A110EE2061F088E1CC
:103510008C9DF0018D9DF00D1124EB59FC4F128A0A
:10352000138A178A168A8091C0089091C108893041
:10353000910509F458C08234910509F04BC080917F
:10354000C408882309F497CD8DE041C0E091BE08FE
:10355000F091BF080E171F0749F4F8018689978973
:103560009093BF088093BE0856CFFC018689978947
:103570000097A9F008171907C1F7D80156968D9141
:103580009C91978B868B88E18C9DF0018D9DF00D31
:103590001124EB59FC4F128A138A178A168AE12CE0
:1035A0003CCF9381891709F45ECF0688F789E02D17
:1035B0003097B9F70E94AC0656CF0E94250A0E94A8
:1035C000710F0E947E0F89E00E94CF068AE06F2D66
:1035D0000E94C2148091C2089091C3089093C108C0
:1035E0008093C00822CB89E00E94AC06EFCFFF2079
:1035F00009F41BCB0E94250A8FEB90E00E948C10EF
:10360000C80189559D450E94A1108FEB90E05CCECA
:10361000FF2009F429CE0E94250AC80160CDFF20B1
:1036200009F403CB0E94250A8091CA08811107C0C2
:1036300081E08093CA0880E00E944415F6CA109287
:10364000CA0881E0F9CFFF2009F4EFCA0E94250AD9
:103650008DE690E00E94A110E8CAFF2009F4E5CAB7
:1036600081E08093C908E0CDF1100E94250A809185
:10367000CA0881110EC0FF2039F08FEB90E00E9444
:103680008C1084E490E02BCD84E490E00E944F0FF6
:10369000BCCFFF2009F4C9CA87E098E0DBCFFF2048
:1036A00009F44BCE0E94250A48CE8BE298E0FF2019
:1036B00009F4BBCACFCFF110B8CA0E94250A809185
:1036C000CA0881110BC08FEB0E94A50F86E693E01C
:1036D0000E94A1108FEB0E94160FC2CF86EA90E0E5
:1036E0000E94A110BDCFFF2061F00E94250A8091A9
:1036F000C808811102C00E9419118BE20E94A50F17
:1037000094CA8BE20E94160F90CAFF2009F48DCA5A
:103710008091CA08811103C086E691E09BCF8BE1BE
:1037200098E00E94A1108AE090E094CF8530910546
:103730000CF454CD1092C6081092C50853CD8823BE
:1037400009F4E1CB8189882309F4DDCBC601855AD0
:103750009B4F0E942707D7CB043FFCE51F0771F161
:10376000B8F4093D3CE5130719F10A3D8CE518074B
:10377000B9F1083D9CE5190709F0C5CB06E221EE39
:1037800041EE68ED7CE5CE0106960E941E104DCA02
:10379000063FACE51A07F1F0B8F0073FECE51E076D
:1037A00009F0B1CB07E225EE46EE67EF7CE5EBCF03
:1037B00007E225EE45EE69ED7CE5E5CF06E221EE78
:1037C00040EE64EF7CE5DFCF07E225EE44EE65EFE7
:1037D0007CE5D9CF06E221EE42EE66EF7CE5D3CF61
:1037E00008E221E045EE6AED7CE5CDCF809131091C
:1037F000806106303CE5130709F487C008F48CC0EB
:1038000080913109806281C0809131098D7F0C30B7
:103810009CE5190709F479C070F4809131098C6036
:103820000A30BCE51B0709F470C008F481C0809120
:1038300031098E7F6AC080913109877F0E30FCE5A7
:103840001F0709F462C0809131098B7F0F301C453E
:1038500008F45BC0809131098F7E57C00C3F3CE576
:10386000130709F45DC030F503319CE5190709F42D
:103870006DC078F40131BCE51B0709F463C0023167
:103880001C4509F07DCB0E94230C809131098F7774
:103890003CC00531FCE51F0709F460C008F474C0A2
:1038A0008091320981600B3F1C4509F069CB809300
:1038B000320966CB01158DE5180709F44BC088F471
:1038C000809132098D7F0E3FACE51A0781F380911C
:1038D00032098E7F0F3F1C4550F38091320983607F
:1038E000E6CF0230EDE51E0709F457C008F442C0E8
:1038F00060E003301D4509F043CB8EE090E00E946C
:1039000096253ECB8091310981608093310938CB77
:10391000809131098460F9CF809131098860F5CFB9
:10392000809132098260C3CF809131098064EDCFEC
:103930000E94230C809131098068E7CF8091310982
:103940008F7DE3CF809131098F7BDFCF809131096B
:10395000837FDBCF809132098C7FA9CF80913109A1
:1039600082FB992790F921E0922790FB82F990FB46
:1039700083F9CBCF80913209982F909591708E7FEB
:10398000892B90FB81F993CF0E94230C90913109F0
:10399000892F97FB87F98058B8CF61E0AECF80912F
:1039A000F0088272F801E35CFC45E431F10508F0AF
:1039B00048C0EF55F84D0C9462258091650991E05F
:1039C0008927809365091092CC050E9439112DC971
:1039D0004FEB51E169EC71E10E94710726C949EC96
:1039E00051E16FEB71E1F8CF41E851E16AE871E133
:1039F000F3CF4AE851E161E871E1EECF49E651E1E8
:103A000065E771E1E9CF45E751E169E671E1E4CFAE
:103A100041E551E16DE571E1DFCF4DE551E161E552
:103A200071E1DACF4DE951E163E971E1D5CF43E9C5
:103A300051E16DE971E1D0CF61E081E00E94A71111
:103A4000F4C801153CE5130709F44DC00F3D1C45B2
:103A500009F44BC00E811F81992309F449C0C801A4
:103A60000E943709F82E682FC8010E941406B80179
:103A70008F2D0E94A707082FE82E888581111092AC
:103A8000EF08192F12951F70143009F47EC0A8F5A5
:103A9000123008F43FC0E12FE850FF0B329710F4CA
:103AA0000E94FA0685E0FE013696DE01119601902D
:103AB0000D928A95E1F789819A810E94EB059A819E
:103AC000E981F0E026E0929FE00DF11D112430E342
:103AD000839FE00DF11D1124EE0FFF1FE951FD4FF3
:103AE00085919491A2C80E94E70E0E94B90B9DC8CF
:103AF000C8010E94EB05F82EBACF183009F465C052
:103B0000193009F436C1173031F6882309F459C049
:103B10008FEB1AC0A92FAF70FA2E907F19F0F29494
:103B200040EFF4228823C9F0FF2069F080E2800F83
:103B3000883010F0E1100BC08091F008F82AF09264
:103B4000F0080E94D405802F0E94A50FA4CF809179
:103B5000EF08F82AF092EF08F4CF802F0E94160F9A
:103B6000FF2009F498CF005E083010F0E11006C085
:103B70008F2D0E94CD050E94D4058DCFF0948091A9
:103B8000EF08F822F092EF08F6CF292F2695269518
:103B9000237051F0213009F07ECF882379F0802FF7
:103BA00093700E94680677CF882329F0802F937046
:103BB0000E947E0670CF90E080E0FACF90E080E037
:103BC000F0CF8FEB0E94160F66CF292F237009F0DC
:103BD00065C0811160CF802F829586958770880F90
:103BE000880F402F4F7050E070E060E0082E04C056
:103BF000440F551F661F771F0A94D2F7C12CD12C92
:103C0000760104FF10C03FE0C32ED12CE12CF12C33
:103C100004C0CC0CDD1CEE1CFF1C8A95D2F7C094AE
:103C2000D094E094F094969596959370923019F113
:103C3000D8F48090F1089090F208A090F308B0902A
:103C4000F408913069F04C295D296E297F29CB0158
:103C5000BA01682179218A219B210E94F0061BCF9D
:103C6000482959296A297B29CB01BA016C297D2968
:103C70008E299F29F2CF4C295D296E297F29C0907A
:103C8000F108D090F208E090F308F090F408CB012E
:103C9000BA016C257D258E259F25DFCF26958823AB
:103CA00011F0292F2170222309F4F5CE802F82955F
:103CB00086958770880F880F402F4F7050E070E016
:103CC00060E0082E04C0440F551F661F771F0A943A
:103CD000D2F7C12CD12C760104FF10C02FE0C22EE8
:103CE000D12CE12CF12C04C0CC0CDD1CEE1CFF1CF3
:103CF0008A95D2F7C094D094E094F09496959695D6
:103D00009370923019F1D8F480902D0990902E097B
:103D1000A0902F09B0903009913069F04C295D29AD
:103D20006E297F29CB01BA01682179218A219B2143
:103D30000E94A206B0CE482959296A297B29CB01C5
:103D4000BA016C297D298E299F29F2CF4C295D2942
:103D50006E297F29C0902D09D0902E09E0902F095F
:103D6000F0903009CB01BA016C257D258E259F2569
:103D7000DFCF9F70F92E882339F0892F0E94CF065C
:103D8000802F0E945E0687CE802F0E9457068F2DBF
:103D90000E94AC0680CE85E0FE013696DE011196CB
:103DA00001900D928A95E1F7288589819A812111E8
:103DB0000C9428160E94EB05082F0C943016809165
:103DC000CE089091CF0801969093CF088093CE08AB
:103DD0000C940016DC01FB018081918125E0289F75
:103DE000F001299FF00D1124E954FD4F20818181BC
:103DF0009281438134815C91513011F0842F932F53
:103E0000223059F118F4213051F10895233019F07E
:103E1000243019F008950C94AB1084309105D9F03A
:103E200038F48230910591F0A0F4019761F0089583
:103E300085309105B1F09C0128583D45263031056B
:103E4000D0F40C9456158BE690E009C08CE690E017
:103E500006C00E94E70E8AE69DE50E94320A0C9495
:103E6000A1108DE79DE50E94320A9093040880938B
:103E700003080C948C100895CF92DF92FF920F9359
:103E80001F93CF93DF9380912409882309F49AC06C
:103E90000E941F0BF82E8091B906C4E0D0E0882361
:103EA00011F0D0E0C0E0C45CD64F44E050E0BE0169
:103EB0008AEF97E00E947F276C0188819981AA810F
:103EC000BB818093FA079093FB07A093FC07B09304
:103ED000FD078091B906D0E0C0E0882311F0C4E06E
:103EE000D0E0909122018091210110E000E098172C
:103EF00059F082E090E00E94BC248C01892B21F4CF
:103F000080912101809322018091F2079091F30723
:103F1000C82AD92A90E080E0CD2811F081E090E015
:103F20000E94BC24892B31F58091F50780932101F3
:103F30001092F3071092F2070115110511F10230EA
:103F4000110509F428985D988091F4078F5F80939C
:103F5000F407863040F18091B906F0E0E0E0882374
:103F600011F0E4E0F0E0E45CF64F1082118212827E
:103F7000138219C081E090E09093F3078093F207D9
:103F8000DBCF289AC45CD64F8091F6079091F70753
:103F9000A091F807B091F90788839983AA83BB831E
:103FA0005D9A1092F4070E940D12C1E0F11001C059
:103FB000C0E08C2FDF91CF911F910F91FF90DF9088
:103FC000CF9008950E941F0B9091B906E4E0F0E0B5
:103FD000992311F0F0E0E0E0E45CF64F40E030E0DF
:103FE00020E0D901AA50B84F5C919191591341E05A
:103FF0009C932F5F3F4F2430310599F79091F5073F
:10400000940F9093F507C1E0811101C0C0E0809149
:10401000B906811102C030E020E0245C364F809167
:10402000FA079091FB07A091FC07B091FD07F901F9
:1040300080839183A283B3830E940D12BACF1F9213
:104040000F920FB60F9211242F933F934F935F93CC
:104050006F937F938F939F93AF93BF93CF93DF9390
:10406000EF93FF93D091E900DF708091EC00C82FAF
:10407000C17080FDC0E81092E9008091F000877F58
:104080008093F00078940E942E0C1092E9008091A9
:10409000F00088608093F000CD2BCF70C093E900D2
:1040A000FF91EF91DF91CF91BF91AF919F918F9150
:1040B0007F916F915F914F913F912F910F900FBE24
:1040C0000F901F9018951F920F920FB60F92112408
:1040D0002F933F934F935F936F937F938F939F9310
:1040E000AF93BF93EF93FF938091E10082FF09C0EC
:1040F0008091E20082FF05C08091E1008B7F809378
:10410000E1008091DA0080FF24C08091D80080FF18
:1041100020C08091DA008E7F8093DA008091D900F0
:1041200080FF9FC080E189BD82E189BD09B400FEA6
:10413000FDCF81E080935B0980914E09811109C018
:104140000E9433040E94FE048091E2008460809308
:10415000E2008091E10080FF17C08091E20080FFC3
:1041600013C08091E2008E7F8093E2008091E20094
:1041700080618093E2008091D80080628093D800B3
:1041800019BC85E080935B098091E10084FF2DC01C
:104190008091E20084FF29C080E189BD82E189BD70
:1041A00089B5982F917080FFFBCF8091D8008F7DCB
:1041B0008093D8008091E1008F7E8093E100809110
:1041C000E2008F7E8093E2008091E2008160809324
:1041D000E20080915C09882309F449C084E080935F
:1041E0005B090E94230C0E94FA068091E10083FF84
:1041F00027C08091E20083FF23C08091E100877F88
:104200008093E10082E080935B0910925C098091C9
:10421000E1008E7F8093E1008091E2008E7F8093A9
:10422000E2008091E20080618093E20042E060E081
:1042300080E00E94CC048091F00088608093F000C0
:10424000FF91EF91BF91AF919F918F917F916F916E
:104250005F914F913F912F910F900FBE0F901F9044
:10426000189519BC10925B0910924E0972CF80917B
:10427000E30087FD93E090935B09B3CFCDB7DEB742
:104280002A970FB6F894DEBF0FBECDBF84B7877FE5
:1042900084BF0FB6F894A8958091600088618093E0
:1042A0006000109260000FBE80E890E00FB6F894B6
:1042B00080936100909361000FBE85B7806885BFD1
:1042C00085B7806885BF0E9433040E94FE048091F8
:1042D000E20084608093E200789480915B098823F7
:1042E000A1F01091E9001F709091EC00892F81706E
:1042F00090FD80E8182B1092E9008091E80083FD82
:104300000E942E0C1F701093E90082E084BD93E0A0
:1043100095BD9AEF97BD80936E000E94030B80932A
:10432000B9060E94030B63E070E0882309F427C1FB
:104330008DEC95E00E94DA2378940E94450AA0EE65
:10434000B7E061E070E08D91E82FE295EF70F0E06A
:1043500041A18F709B0101C0220F8A95EAF7922F2D
:104360009095942391A382A1822B82A327E0A63E5D
:10437000B20749F7209A559A289A5D9AA5E2B9E0C2
:10438000ECE3F9E011921D9289E0E434F807D1F7EB
:104390000E94030B8093240990E080E00E94802516
:1043A0008C3E9E4F11F00E94B90B1092F9088FEFCE
:1043B0009FEF9093130980931209909315098093AE
:1043C0001409909317098093160990931909809303
:1043D000180990931B0980931A0990931D098093E3
:1043E0001C0990931F0980931E09909321098093C3
:1043F000200990E080E00E9480258C3E9E4F21F0B5
:104400000E94B90B0E94D41145E050E06CE170E0CD
:1044100085E699E00E946825809165098C7F11F4FA
:104420000E94D4118091B906811109C082EDEBEC94
:10443000F6E0A7EEB5E001900D928A95E1F760E015
:1044400082E00E94A71148E76FEF84E690E00E94A7
:1044500041112091E5053091E60581E02E3F9FEF67
:10446000390709F480E080932309809322092E3FC5
:104470003F4F09F489C00E9498070E94391190E0CB
:1044800080E00E9480258C3E9E4F11F00E94B90B67
:1044900082E090E00E947825809345090E94660A98
:1044A000909332098093310983E090E00E9478254F
:1044B000682F70E090E080E00E94F00610923809CA
:1044C0008FEF80933309809334098093350980936B
:1044D00036098093370985E08093BB068DEB96E023
:1044E00090933A0980933909EE24EA9480E1A82E4A
:1044F00092E1B92E28E1C22ED12C30E4932E809186
:104500005B09853009F443C00E943C1FA6E4B9E072
:10451000ECE3F9E010E000E0302F81919D919817D5
:1045200009F470C0292F282790E0FF24F3944F2D21
:10453000422309F462C099833A838F2191E009F400
:1045400090E09B830E94C1058160782F9D838C83BE
:1045500049815A816B818D810E94DD15F801EA5BEA
:10456000F64F8081F826F0820E94FA069091440965
:10457000891729F20E94FA0680934409C0CF8DEC76
:1045800095E00E94E323D8CE0E948C0776CF8091DD
:104590005B09843009F110923B090FB6F894A89595
:1045A000C09260000FBE9092600083B7817F8460EC
:1045B00083BF83B7816083BF7894889583B78E7FEC
:1045C00083BF0FB6F894A8958091600088618093AE
:1045D0006000109260000FBE80915A09882309F490
:1045E0008ECF0E943C1FECE3F9E08191811120C045
:1045F00089E0E434F807C9F782CF9F5FFF0C96305B
:1046000009F095CF0F5F1F4F0830110509F084CFD7
:10461000EE82EF8218860E94C1058160782F9A870A
:1046200089874E815F8168858A850E94DD159CCFD0
:10463000A9BCB9BC09B400FEFDCF8091D8008F7D24
:104640008093D8008091E00082608093E0008091A8
:10465000E00081FDFCCF53CF78941F921FB61F92CC
:1046600011248F939F93AF93BF938091F5089091FE
:10467000F608A091F708B091F8080196A11DB11DA8
:104680008093F5089093F608A093F708B093F80884
:10469000BF91AF919F918F911F901FBE1F90189552
:1046A0001F921FB61F9211248F939F93AF93BF93B6
:1046B00080913B09811113C08091F5089091F60813
:1046C000A091F708B091F8084196A11DB11D809303
:1046D000F5089093F608A093F708B093F808BF91F7
:1046E000AF919F918F911F901FBE1F9018958EE1E3
:1046F0004A9B02C08150E1F74A9BFECF08955A9829
:1047000080E28A95F1F75A9A0895FC013BE03A95C8
:10471000F1F720E090E080E031E040E14A95F1F7E8
:10472000880F4A9B02C08160232742E04A95F1F737
:10473000000040E14A95F1F79F5F6913EECF90E1E9
:104740009A95F1F799B132E03A95F1F7000040E11E
:104750004A95F1F792FB992790F992272081920FC1
:1047600090830895EF92FF920F931F93CF93DF935F
:104770000F92CDB7DEB719828C017C01E60EF11CD9
:104780000E151F0561F481E09981911180E00F9071
:10479000DF91CF911F910F91FF90EF9008950E94AC
:1047A000772368E0CE0101960E948523F80181936A
:1047B0008F01E6CF90936C0980936B0960936A092F
:1047C000529A5A9A089590936C0980936B0960935A
:1047D0006A0952985A9AEA9AE9E6F0E080818F7C59
:1047E000808308956150770B91E001C0990F6A951D
:1047F000EAF720E031E0911108C0222391F05A9AA3
:1048000080E28A95F1F75A980895492F482339F0A4
:104810005A9A232740E24A95F1F79695ECCF5A9899
:10482000F9CF5A98EDCFFF920F931F93CF93DF9359
:10483000EC018C01060F111DC017D10731F4DF9177
:10484000CF911F910F91FF900895F9900E947F23BF
:1048500068E08F2D0E94F223EFCF1F920F920FB6C8
:104860000F9211240F931F932F933F934F935F93B6
:104870006F937F938F939F93AF93BF93EF93FF9328
:10488000CF93DF930F92CDB7DEB719820E947723C3
:1048900067E0CE0101960E948523082F06950695B4
:1048A0000695982F92959570202F2570920F292F9D
:1048B0002370969596958770920F891344C08981CD
:1048C000811141C080916A098017E8F120E12A95A1
:1048D000F1F75A9A529A82E08A95F1F700C0A8E05F
:1048E0000A9FC001112400916B0910916C09080FF7
:1048F000191F5A98F8016581662321F086819781F6
:104900000E9413240E947F23F0E1FA95F1F75A9850
:1049100052985A9A20E12A95F1F7D80112966C9193
:104920001297662331F113968D919C910E94B223C8
:10493000D801ED91FC91882311F088E001C082E05C
:1049400080830E9477230F90DF91CF91FF91EF91A9
:10495000BF91AF919F918F917F916F915F914F9197
:104960003F912F911F910F910F900FBE0F901F90AD
:104970001895ED91FC91E1CF0F931F93CF93DF93A7
:1049800020916A09281719060CF471C08C0193E074
:10499000000F111F9A95E1F7C0916B09D0916C0936
:1049A000C00FD11FF894529A5A9825E02A95F1F732
:1049B0000000982F969595708570980F892F8370B9
:1049C00096959695980F092B0E947F2300C067E06B
:1049D000802F0E94F22380E18A95F1F752985A9A2B
:1049E0004A9B17C087E090E04A9915C06D81662305
:1049F00021F18E819F810E94B22381111EC0529AA3
:104A00005A9AE881F98182E08083789482E090E08C
:104A10000DC000C0E5CF019771F4529A5A9AE8810F
:104A2000F98181E08083789481E090E0DF91CF91FB
:104A30001F910F91089500C0D7CF0E94772320E2E5
:104A40002A95F1F75A98529A80E18A95F1F76A818E
:104A5000662321F08B819C810E9413240E947F2376
:104A6000E881F9811082789490E080E0DFCF84E0E3
:104A700090E0DCCFAA1BBB1B51E107C0AA1FBB1FE4
:104A8000A617B70710F0A61BB70B881F991F5A95DA
:104A9000A9F780959095BC01CD01089597FB072E4D
:104AA00016F4009407D077FD09D00E943A2507FC40
:104AB00005D03EF4909581959F4F0895709561952E
:104AC0007F4F0895EE0FFF1F0590F491E02D09949C
:104AD000DC01CB01FC01F999FECF06C0F2BDE1BDBE
:104AE000F89A319600B40D9241505040B8F70895AD
:104AF000F999FECF92BD81BDF89A992780B50895A6
:104B0000A8E1B0E042E050E00C946A25DC01A40F7B
:104B1000B51F4150504048F0CB01840F951F2E9196
:104B20000E94972541505040D0F70895262FF999BB
:104B3000FECF92BD81BDF89A019700B4021639F0FC
:104B40001FBA20BD0FB6F894FA9AF99A0FBE0895CD
:104B50000396272F0E9497250E949625252F0E94B5
:104B60009725242F0C9497250196272F0E9497258F
:104B70000C9496250E94CE250C94AF260E94A82660
:104B800058F00E94A12640F029F45F3F29F00C94D0
:104B9000982651110C94E3260C949E260E94C02660
:104BA00068F39923B1F3552391F3951B550BBB275C
:104BB000AA2762177307840738F09F5F5F4F220FA1
:104BC000331F441FAA1FA9F335D00E2E3AF0E0E898
:104BD00032D091505040E695001CCAF72BD0FE2FE2
:104BE00029D0660F771F881FBB1F26173707480776
:104BF000AB07B0E809F0BB0B802DBF01FF2793582E
:104C00005F4F3AF09E3F510578F00C9498260C9433
:104C1000E3265F3FE4F3983ED4F386957795679556
:104C2000B795F7959F5FC9F7880F911D9695879562
:104C300097F90895E1E0660F771F881FBB1F621781
:104C400073078407BA0720F0621B730B840BBA0B3F
:104C5000EE1F88F7E09508950E94C82688F09F57B8
:104C600098F0B92F9927B751B0F0E1F0660F771F90
:104C7000881F991F1AF0BA95C9F714C0B13091F086
:104C80000E94E226B1E008950C94E226672F782F67
:104C90008827B85F39F0B93FCCF38695779567954B
:104CA000B395D9F73EF490958095709561957F4FB7
:104CB0008F4F9F4F0895E89409C097FB3EF490955D
:104CC0008095709561957F4F8F4F9F4F9923A9F0E5
:104CD000F92F96E9BB279395F69587957795679574
:104CE000B795F111F8CFFAF4BB0F11F460FF1BC0B8
:104CF0006F5F7F4F8F4F9F4F16C0882311F096E94B
:104D000011C0772321F09EE8872F762F05C06623F8
:104D100071F096E8862F70E060E02AF09A95660FB1
:104D2000771F881FDAF7880F9695879597F908956A
:104D300097F99F6780E870E060E008959FEF80EC4E
:104D4000089500240A9416161706180609060895F1
:104D500000240A9412161306140605060895092E57
:104D60000394000C11F4882352F0BB0F40F4BF2BC6
:104D700011F460FF04C06F5F7F4F8F4F9F4F089506
:104D800057FD9058440F551F59F05F3F71F04795FC
:104D9000880F97FB991F61F09F3F79F087950895E1
:104DA000121613061406551FF2CF4695F1DF08C000
:104DB000161617061806991FF1CF8695710561051D
:104DC00008940895E894BB2766277727CB0197F9C5
:104DD00008950E945B2708F48FEF08950E94012731
:104DE0000C94AF260E94A12638F00E94A82620F03D
:104DF000952311F00C9498260C949E2611240C9463
:104E0000E3260E94C02670F3959FC1F3950F50E0F2
:104E1000551F629FF001729FBB27F00DB11D639F6C
:104E2000AA27F00DB11DAA1F649F6627B00DA11D12
:104E3000661F829F2227B00DA11D621F739FB00DB8
:104E4000A11D621F839FA00D611D221F749F332728
:104E5000A00D611D231F849F600D211D822F762FC1
:104E60006A2F11249F5750409AF0F1F088234AF09E
:104E7000EE0FFF1FBB1F661F771F881F915050400A
:104E8000A9F79E3F510580F00C9498260C94E326D8
:104E90005F3FE4F3983ED4F3869577956795B79591
:104EA000F795E7959F5FC1F7FE2B880F911D9695AB
:104EB000879597F90895990F0008550FAA0BE0E818
:104EC000FEEF16161706E807F907C0F012161306CC
:104ED000E407F50798F0621B730B840B950B39F40C
:104EE0000A2661F0232B242B252B21F408950A2672
:104EF00009F4A140A6958FEF811D811D0895FB0146
:104F0000DC0104C08D910190801921F44150504082
:104F1000C8F7881B990B0895FB01DC0102C00190C2
:104F20000D9241505040D8F70895F894FFCF110DDD
:104F3000390DCF0E390DCF0E6C0D8D0DCF0E8A0EA3
:104F4000970EDD1CE81CEF1CF41CF91CFE1C031D55
:104F5000081D0D1D121D171D1C1D151615161516E5
:0A4F60001516151615161516151670
:104F6A0010000F000E000D000C000B000A000900D3
:104F7A000800070006000500040003000200010003
:104F8A0005FFFFE300E000E000E3001B081B010649
:104F9A0008060119081901190E1903190A19031D1E
:104FAA00081D011D0A1D03210B160A220A460008C4
:104FBA00040814150A3E0116081601040804017FA4
:104FCA0000A8008000A9008100AA00290C4C05480D
:104FDA0000BD004700BE00500450044F044F046E49
:104FEA00002903300830013808380152084A0851AC
:104FFA00084D0850084A004F084D000B0851081A7E
:10500A00083D04090809010A080A010A0A0A032CC8
:10501A000816082F084D002C09370814090F083301
:10502A000421142A042A014000AC004200AB0041CA
:10503A0000AE0066016601660166000F0B50081596
:10504A000B4F08100B5208180B000014083D04E01F
:10505A0000E3002A080E0338006402295D2702646F
:10506A0002295D2E022D0250002E001E025000243D
:10507A00023002295D30022402295D30001E002917
:10508A005D38001E00295D64022702295D6400273D
:10509A0002295D1E022702295D6402295D295D2419
:1050AA00026402295D6400295D295D6400240229E5
:1050BA005D64006400295D64026402295D1E0227A2
:1050CA0002295D64022702295D64002702295D38EE
:1050DA00049600380697000D06AF002204EC00374C
:1050EA000685001304E3002106A300270460222793
:1050FA0006F7003206AF006406F2003406AE00641A
:10510A0004F3003506F8001504AE000B04990020DC
:10511A000695000604A90003365D375D033A5D3B38
:10512A005D0401000200040000030003435D445DC6
:10513A0003415D425D011E011E03011F011F0301A0
:10514A0020012003013500350202545D555D040437
:10515A0000050003485D465D03495D455D04885DC1
:10516A00895D048A5D8B5D048C5D8D5D7E7800436C
:10517A00007E0F625E0006160078026A160078004A
:10518A000E1E00590506560242066A0000580771AB
:10519A002800000872001800007E00072F00D65869
:1051AA0009000BD55809000CCE58090000D6780022
:1051BA00430ED57800430FCE780043107E190014B1
:1051CA0000FFFFFFFF000100012C01000037020071
:1051DA000000000011900F00000000000001020012
:1051EA00022C01000036020000000000000000004E
:1051FA000000000000020400032C01000027020046
:10520A000000000000000000000000000003080089
:10521A00042C010000210200000000000000000030
:10522A000000000000041000052C0100001F02000D
:10523A00000000000000000000000000000520003F
:10524A00062C0100002D0000000000F714000000E9
:10525A00000000000007000008FA0000002B004BC5
:10526A005D000000000000000000000000080000CF
:10527A0008FA00E2002B0200000000000000000013
:10528A000000000000090000082C010000000000D6
:10529A00005A5D2C11940F0000000000000A400023
:1052AA0000FA000000280000000000301522150056
:1052BA0000000000000000EA1E640F000000000069
:1052CA00000000000000000000E6070000EA1E647B
:1052DA000F00000000000000000000000000001E97
:1052EA00010000EA1E640F00000000000000000038
:1052FA0000000000001C010000EA1E640F0000000C
:10530A0000000000000000000000001A010000EA8E
:10531A001E640F00000000000000000000000000F2
:10532A000018010000EA1E640F00000000000000DF
:10533A000000000000000016010000EA1E640F00D1
:10534A00000000000000000000000000001401003E
:10535A0000EA1E640F0000000000000000000000C8
:10536A0000000012010000EA1E640F0000000000A5
:10537A0000000000000000000010010000EA1E64A6
:10538A000F00000000000000000000000000000EF6
:10539A00010000EA1E640F00000000000000000087
:1053AA0000000000000C010000EA1E640F0000006B
:1053BA0000000000000000000000000A010000EAEE
:1053CA001E640F0000000000000000000000000042
:1053DA000008010000EA1E640F000000000000003F
:1053EA000000000000000006010000EA1E640F0031
:1053FA00000000000000000000000000000401009E
:10540A0000EA1E640F000000000000000000000017
:10541A0000000002010000EA1E640F000000000004
:10542A000000000000000000000001FF03F1070077
:10543A00000001F507F10704FA0701F507F0070074
:10544A00000004F607FEFF181712110A09191613AD
:10545A00100B081A15140F0C07FFFFFF0E0D063369
:10546A00322D2C252434312E2B262335302F2A2772
:10547A0022FFFFFF2928215510320D101410263261
:10548A003055345F3F55275515550444024413449B
:10549A0025503A3C373223320D32002103211421A0
:1054AA0025102A101810070007001800298B10AEC3
:1054BA000DD014D026AE308B34813F8B278B158BC1
:1054CA00049C029C139C25903AA437AE23AE0DAEE1
:1054DA0000BF03BF14BF25D02AD018D007E007E0C9
:1054EA0018E029020202020202010404040404046C
:1054FA000101040404040404040404010101020275
:10550A000202020201040404040404010104040462
:10551A000404040404040101010100FF00BE05AFF4
:10552A000ABD05AB0AA70A0164FF7833322D2C2580
:10553A002434312E2B262335302F2A2722FFFFFF32
:10554A00292821181712110A09191613100B081AFB
:10555A0015140F0C07FFFFFF0E0D068B10AE0DD0B2
:10556A0014D026AE308B34813F8B278B158B049C4D
:10557A00029C139C25903AA437AE23AE0DAE00BF11
:10558A0003BF14BF25D02AD018D007E007E018E0DF
:10559A00295510320D10141026323055345F3F55FC
:1055AA002755155504440244134425503A3C3732D2
:1055BA0023320D3200210321142125102A1018103C
:1055CA00070007001800290202020202020104046D
:1055DA00040404040101040404040404040404018A
:1055EA000101020202020202010404040404040189
:1055FA0001040404040404040404010101946697E8
:10560A00C600000000FEFF01000200030004008142
:10561A008283E200E900EA00B500B600B700CD00D7
:10562A008301CC008A0192019401210223022402FF
:10563A002502260227022A02B300B4006F00700076
:06564A00F4F5F6F7313320
:00000001FF
