:100000000C9440040C9487040C9487040C943B25B6
:100010000C9487040C9487040C9487040C94870434
:100020000C9487040C9487040C9471210C942D215A
:100030000C945E240C9487040C9487040C9487041D
:100040000C9487040C9487040C9487040C94870404
:100050000C9487040C943A240C9487040C94870421
:100060000C9487040C9487040C9487040C948704E4
:100070000C9487040C9487040C9487040C948704D4
:100080000C9487040C9487040C9487040C948704C4
:100090000C9487040C9487040C9487040C948704B4
:1000A0000C9487040C9487040C9487046164696F32
:1000B0007300686F6C61000000001214009E9400D1
:1000C00001983B7500000126AD01072800000000E3
:1000D0000000000B2E0011422400000F020000015E
:1000E00014000000000000000000000000000000FC
:1000F000000000000000FFFFFFD4D4D473737338F6
:1001000038382121214D4D4D8F8F8FE8E8E87878E0
:10011000783838382929290F0F0F000000121212E1
:100120001414140000000000000000000000000093
:1001300000000000001700383500851F00B80108D6
:10014000D52000942700943500751C003D19013717
:1001500029016525006B2D00701900420C001F0B52
:10016000001F000000000000100029000000000037
:1001700000000000FFFFFFB6992FC26700BD4200DC
:100180008E4C01BD6E00FFDD00EEE6BF98957CA8A9
:1001900084007550005637012D1B0146290161422C
:1001A000002411002417002415000E09010F080077
:1001B000000000F60909A38D00006B1B18086830C9
:1001C000069300737574C200FAA005F5F9011BA32C
:1001D000000057662400661D0061004152008A4EEF
:1001E000015641013037001442000F33001D330027
:1001F0002E230000000000000000000000000000AE
:100200000000000000007E0F00D4FFFFFFC70000C9
:10021000007800000000000000002A2B28000000E9
:1002200000000000000000000000000000290000A5
:1002300000002C1E3420212224342627252E362D82
:100240003738271E1F202122232425263333362E1C
:1002500037381F0405060708090A0B0C0D0E0F108E
:100260001112131415161718191A1B1C1D2F3130D3
:10027000232D350405060708090A0B0C0D0E0F1077
:100280001112131415161718191A1B1C1D2F3130B3
:10029000354C0001010101010101010102020202CC
:1002A0000202020202030303030303030304040420
:1002B00004040404050505050506060606060707E9
:1002C00007070708080808090909090A0A0A0B0BA1
:1002D0000B0C0C0C0D0D0D0E0E0E0F0F0F10101140
:1002E00011111212131314141515161617171818C6
:1002F00019191A1A1B1B1C1D1D1E1E1F202021222E
:1003000022232424252626272829292A2B2C2D2D73
:100310002E2F30313232333435363738393A3B3C90
:100320003D3E3F404142434445464748494A4C4D83
:100330004E4F50515354555658595A5B5D5E5F614C
:100340006264656668696B6C6D6F707273757778DF
:100350007A7B7D7E8082838587888A8C8E8F91933D
:100360009596989A9C9EA0A2A3A5A7A9ABADAFB164
:10037000B3B5B7BABCBEC0C2C4C6C9CBCDCFD1D449
:10038000D6D8DBDDDFE2E4E7E9EBEEF0F3F5F8FAEF
:10039000FDFF315D14001900080015001700325DE3
:1003A00004001600070006000900335D1D001B0055
:1003B0001A0005000A000000000000002B5D2C0060
:1003C0002C5D0E00130012000C0018001C003300FE
:1003D0002A000F00340011000B00305D2F5D370044
:1003E0000D00100036000000000000002E5D2D5DA5
:1003F000345D290003576F5DA25DA15D575D9F5D70
:10040000595D585D525D535D505DE300525D4D5D39
:100410004E5D4F5D515D0000000000002B5D00004F
:100420002C5D9E5D9B5D9A5D995D985D9D5D975D80
:10043000965D955D945D935D9C5D000000002002DB
:100440000000000000000000000000002E5D2D5D97
:10045000345D625D5D5D00007B5DA75D06575F5D9D
:100460005E5D795D7C5D7A5D07575C5D5B5D0B571A
:10047000695DA65D08570000000000002B5D0000CC
:100480002C5D845D26002500240023003C5D2200B5
:10049000210020001F001E00270024023002370028
:1004A0002C003D5D360000000000000038003000E8
:1004B000345D00002D021F1452003000380020145B
:1004C0001E02500051004F00005700003802351442
:1004D0002202300224020000000000002B5DE10037
:1004E0002C5D11570A571E14321434140557725DCF
:1004F000735D230226022502045700002F00855D4C
:1005000030142F14475D0000000000002E5D2D5DAB
:10051000345D0000385D09574B00645D635D000089
:10052000395D605D4E00615D00000000815D00008E
:100530000000015702570000000000002B5DE100A1
:100540002C5D29000357705D6C5D6D5D0C579F5DE0
:100550004C00520000006B5D0D57E1004F00510050
:1005600050006E5D00000000000000002E5D2D5D5B
:10057000345D000000000000655D00000000000028
:100580000000675D665D685D00000000825D000040
:1005900000000000AB5D0000000000002B5DE100EA
:1005A0002C5D2F02865D8E5D000000000F57231426
:1005B0007F5D875D00000000105700000000915D26
:1005C000000000000E570000000000002E5D2D5DB1
:1005D000345D000000000000565D8F5D905D0000FE
:1005E000000000000000925D00000000835D00003C
:1005F0000000000000000000000000002B5D2C0047
:100600002C5DA85D715D0000000000000000A05D91
:10061000000000000000000000000000765D755D35
:10062000745D000000000000000000002E5D2D5DE4
:10063000345D2700140019000800150017001E0083
:10064000040016000700060009001F001D001B0023
:100650001A0005000A000000000000002000210030
:1006600022000E00130012000C0018001C003300C2
:100670004C020F00340011000B00A95D260037006A
:100680000D001000360000000000000025002400CE
:100690002300315D14001900080015001700E20066
:1006A00004001600070006000900335D1D001B0052
:1006B0001A0005000A00000000000000E1002C0004
:1006C000E1000E00130012000C0018001C003300A3
:1006D0002A000F00340011000B000000000037005A
:1006E0000D0010003600000000000000E100E100F5
:1006F0002800000000000000AE5DAD5D00000000BD
:1007000000000000000000000000000000000000E9
:100710000000000000000000000000001050105019
:100720001050000000000000000000000000000069
:100730000000AC5D000000000000000000000000B0
:1007400000000000000000000000000010501050E9
:10075000105005010980A101850319012AB7001570
:100760000126B700950175108100C0050C0901A193
:1007700001850419012AA002150126A00295017520
:10078000108100C005010906A101050719E029E74C
:100790001500250195087501810205FF0903150063
:1007A00025019501750881020507190029FF15002B
:1007B00026FF009506750881000508190129059591
:1007C0000575019102950175039101C009023B0075
:1007D000020100A0FA09040000010301010009213F
:1007E000110100012248000705810308000A0904DD
:1007F0000100010300000009211101000122320063
:100800000705820320000A1201100100000008AC55
:10081000055002740001020001480343006F00729A
:10082000006E00650020004B006500790062006FDB
:100830000061007200640020005200650076002E06
:10084000003100200028004C006500670061006353
:100850000079002000530070006C006900740029CA
:1008600000000016034100700070006C006500205D
:100870000049006E0063002E00000004030904001C
:1008800011241FBECFEFDAE0DEBFCDBF04B603FEFA
:1008900027C080918B0990918C09A0918D09B0910E
:1008A0008E098730904BA740B04BD1F410928B0942
:1008B00010928C0910928D0910928E0914BE84B783
:1008C000877F84BF0FB6F894A895809160008861F7
:1008D00080936000109260000FBEE0E0F8E309959D
:1008E00029E0A4E0B8E001C01D92AB38B207E1F7FF
:1008F00018E0A0E0B1E0E6E8F1E502C005900D9255
:10090000A430B107D9F70E944C220C94A3280C9470
:100910000000E8EDF0E080818E7F80831092E2009D
:100920001092DA001092E100A0EEB0E08C918160AC
:100930008C9380818F77808319BCA7EDB0E08C9178
:100940008E7F8C9380818F7E808310926C090895B6
:100950002091E4003091E50095E6A9012091EC009A
:10096000822F817020FF06C08091E80080FF06C0C2
:1009700080E008952091E80022FD1AC08091790955
:10098000882389F0853089F08091EB0085FD0FC0C8
:100990002091E4003091E50042175307F9F291509D
:1009A000E1F684E0089582E0089583E0089581E00F
:1009B0000895EF92FF920F931F93CF937C018B01C9
:1009C0000E94A804C82F811117C08091E80085FDFE
:1009D0000BC08091E8008E778093E8000E94A80405
:1009E000882399F3C82F08C0F70181917F01809374
:1009F000F1000150110949F78C2FCF911F910F91F0
:100A0000FF90EF90089580917B0987FF13C080913C
:100A1000E80082FF06C08091E8008B778093E800B1
:100A200004C0809179098111F2CF089580917909EC
:100A30008823D9F38091E80080FFF8CF8091E80007
:100A40008E77ECCF982F9093E900242F762F50E0EB
:100A5000891731F07091EC002091ED005091F00079
:100A600021FD07C09F5F973071F78093E90081E017
:100A700008953091EB003E7F3093EB003091ED0014
:100A80003D7F3093ED003091EB0031603093EB000F
:100A90007093EC002093ED005093F0002091EE0055
:100AA00027FDE0CF80E00895CF92DF92EF92FF9292
:100AB0000F931F93CF93DF93C8EDD0E088818F7E93
:100AC0008883E7EDF0E080818160808384E082BFED
:100AD00081E080936C0988818E7F888302EE10E02C
:100AE000F80110821092DA0081EEC82ED12CF601A6
:100AF000108288818F778883888180688883888145
:100B00008F7D888319BC1092790910927A0910920E
:100B100078091092770990EEE92EF12CF701808187
:100B20008B7F808388818160888342E060E080E001
:100B30000E942205F60180818E7F8083F8018081EA
:100B400081608083808188608083F70180818E7FCF
:100B50008083888180618883DF91CF911F910F917D
:100B6000FF90EF90DF90CF900895FC018091810974
:100B70009091820986179707A0F06115710529F4F5
:100B80009091E8009E779093E80090E061157105E0
:100B900051F4911108C08091E80082FF34C080E0D8
:100BA0000895BC01F2CF809179098823C1F1853085
:100BB000C1F18091E80083FD30C08091E80082FDA2
:100BC000EACF8091E80080FFE1CF8091F30020918F
:100BD000F200382F6115710519F02830310558F0F1
:100BE00091E02830310509F090E02091E8002E775F
:100BF0002093E800CBCF81918093F100615071097F
:100C00002F5F3F4FE7CF80917909882341F08530EE
:100C100041F08091E80083FFBECF81E0089582E03B
:100C2000089583E00895089580916E0908952FB77F
:100C3000F8948091130990911409A0911509B0912D
:100C400016092FBF0895809590910E0998239093CF
:100C50000E09089580910E0990910D09892B9091AC
:100C60000C09892B80930608E0915709F0915809E7
:100C7000309731F00280F381E02D86E098E009940E
:100C80000895E92FEE0FE90FEE0F8E0F982F977052
:100C900086958695869525E0829FF0011124E25184
:100CA000F74F50E040E080E0219130E0092E02C093
:100CB000369527950A94E2F721703327042E01C058
:100CC000220F0A94EAF7822B4F5F5F4F45305105A0
:100CD00059F70895E92FEE0FE90FEE0F8E0F982FB9
:100CE000977041E001C0440F9A95EAF78695869582
:100CF000869595E0899FF0011124E251F74F30E08D
:100D000020E070E05191DF011197CB01022E02C06B
:100D1000969587950A94E2F78170819585278423BB
:100D200085278C932F5F3F4F2530310559F7089564
:100D3000882341F0809590910D09892380930D09B6
:100D40000C942A060895882339F090910D09982B68
:100D500090930D090C942A060895882321F00E948F
:100D600023060C942A060895882339F090910E09E1
:100D7000982B90930E090C942A0608952091D4087C
:100D80003091D5082817390771F09093D5088093D2
:100D9000D408E0915709F0915809309721F0008468
:100DA000F185E02D099408952091D2083091D3085F
:100DB0002817390771F09093D3088093D208E091F7
:100DC0005709F0915809309721F00680F781E02DFE
:100DD0000994089510920D0910920C090E942A0698
:100DE00090E080E00E94D40690E080E00C94BE0683
:100DF00060934B0970934C0980934D0990934E0971
:100E00000C94EA060F931F9341E050E060E070E01D
:100E100004C0440F551F661F771F8A95D2F7CB0178
:100E2000BA01609570958095909500914B0910914D
:100E30004C0920914D0930914E0960237123822382
:100E400093231F910F910C94F8060F931F9341E089
:100E500050E060E070E004C0440F551F661F771F2C
:100E60008A95D2F780914B0990914C09A0914D0938
:100E7000B0914E098A019B01082B192B2A2B3B2B81
:100E8000C901B8011F910F910C94F80660930F09E6
:100E90007093100980931109909312090C94EA063B
:100EA000E0915709F0915809309721F00190F081B5
:100EB000E02D099480E00895CF93DF93EC0181E069
:100EC000898B80910E099F81892B80930E098091D7
:100ED0000D099885892B80930D090E942A06EA81C5
:100EE000FB81309739F06C897D89CE010696DF91C0
:100EF000CF910994DF91CF910895EF92FF920F93D4
:100F00001F93CF93DF93EC018A85811139C0EB8069
:100F1000FC8087E5F81A26E12E9DC0012F9D900DDB
:100F20001124DC01A45ABB4F1496ED91FC91159746
:100F3000309731F054966D917C918E599B4F099565
:100F400086E18E9D80018F9D100D1124045A1B4F48
:100F5000F80187810E942306F8018085982F9095DB
:100F600080910D09892380930D090E942A06188219
:100F700019861B861E821D821092EA081092E908CB
:100F8000DF91CF911F910F91FF90EF900895FA019B
:100F9000811101C0FB010994EEE2F8E081836083D6
:100FA0004283339698E0E03DF907C1F70895FC01CC
:100FB000EE0FFF1FE80FF91FE25DF74F61834083DB
:100FC0002283089580918309837011F01092E905BE
:100FD000809183098C7F8093830908958091830990
:100FE000837011F41092E905809183098C7F8160F0
:100FF0008093830908950C94CC07972F70E026E026
:10100000929F600D711D1124FB0140E3849FE00D50
:10101000F11D1124EE0FFF1FEE56FC4F2591349168
:10102000C9012238310591F1C0F52133310509F4A8
:1010300090C028F52932310509F484C02A323105DF
:1010400009F48EC0211540E5340708F0A4C021152D
:1010500040E4340708F026C12F3B310508F087C073
:10106000283A310508F013C1253A310508F006C1C8
:101070002430310500F521303105E9F03CC025333D
:10108000310509F458C029333105E1F620914F09A3
:10109000237089F080EE90E00895233E310571F1D0
:1010A00058F4203E3105E9F0223E310559F62091F1
:1010B0004F0922FD1EC00895263E310551F1273EFD
:1010C000310571F1243E310509F0BCCF2091500962
:1010D00021FFF1CF80914F0984FD0DC087EE90E094
:1010E000089520914F0920FD0CC13091500930FF27
:1010F000E2CF24FF09C190E080E0DDCF20914F09CD
:1011000022FD05C13091500930FDC4CF24FFD3CF5B
:10111000F2CF20914F0923FFCECF24FDECCFDECFBD
:1011200020914F0923FDF6C03091500931FFEECFD9
:1011300084EE90E0089520914F0925FFBCCF89E20D
:1011400090E0089520914F0925FFB5CF85E390E009
:10115000089520914F0926FFAECF8AE290E00895CE
:1011600020914F0926FFA7CF81E390E00895283E04
:10117000310558F4213E310508F09DCF2F3B310554
:1011800009F0B9CF80E090E708953A9521153F41E5
:1011900008F491CFB0CF211583E5380738F5211534
:1011A00092E5390708F087C0211541E5340708F0BA
:1011B0007DC0C90164E0969587956A95E1F7382F5F
:1011C0003370822F86958695837040E2849FC0019C
:1011D0001124932B237041E050E002C0440F551FAF
:1011E0002A95E2F7842B952B9C680895211589E5B3
:1011F0003807F0F4211598E5390708F06FC021157C
:1012000044E5340708F077CFA9014370552781E002
:1012100090E002C0880F991F4A95E2F7269526951F
:1012200040E2249F90011124822B932B9A68089509
:1012300021158AE5380708F05ECF822F8F70409124
:101240004F0942FF05C023FF4EC0822F8770846084
:101250009091500990FF07C0982F9871983009F02D
:1012600048C0877F816044FD877E94E0369527954E
:101270009A95E1F72F70922F90690895255AE22FE1
:10128000F0E0E453F84F808190E090640895285A8C
:10129000E22FF0E0EE0FFF1FE153F84F80819181C4
:1012A00094640895C9019F70906A0895922F8827C9
:1012B000816F906A0895A9014370552781E090E0FD
:1012C00002C0880F991F4A95E2F72695269540E2BD
:1012D000249F90011124822B932B86CF922F882755
:1012E000806F906A089522FFB3CF822F8B70886041
:1012F000AFCF982F9171913009F0B5CF8E7F886074
:10130000B2CF89E390E0089583EE90E0089582EEF5
:1013100090E0089586EE90E00895BF92CF92DF921C
:10132000EF92FF920F931F93CF93DF938C01C090A6
:101330004B09D0904C09E0904D09F0904E098091F6
:101340000F0990911009A0911109B0911209C82AB2
:10135000D92AEA2AFB2ACFE1D0E0BC2ED701C60168
:101360000C2E04C0B695A795979587950A94D2F749
:1013700080FD0EC0219788F7B12C8B2DDF91CF9186
:101380001F910F91FF90EF90DF90CF90BF90089545
:10139000B8018C2F0E94FD07019761F3EECFCF9328
:1013A000DF939C013A9521153F4168F5EC01CC276C
:1013B000D170DC01AA27B270AC01442754709C01A3
:1013C0002227387094FF11C080E1CD2B09F480E012
:1013D000AB2B09F08062452B09F08064232B09F0C8
:1013E0008068FB01DF91CF91099481E0CD2B09F456
:1013F00080E0AB2B09F08260452B09F08460232B41
:1014000081F38860EECFDF91CF9108959F92AF92E4
:10141000BF92CF92DF92EF92FF920F931F93CF93E1
:10142000DF93C82F6A017B0120E030E040EF52E4F7
:10143000CB01B6010E94F727181634F4C12CD12C29
:1014400080EFE82E82E4F82E20E030E04FE753E40E
:10145000C701B6010E94C8266B017C018FE3C80258
:10146000E0011124C954DF4F06E010E0FE0132967E
:10147000849131979490FE01B490682F70E090E0D1
:1014800080E00E946B27A70196010E94FC270E9422
:101490003A27A62E692D70E090E080E00E946B272D
:1014A000A70196010E94FC270E943A27962E6B2DD9
:1014B00070E090E080E00E946B27A70196010E94F7
:1014C000FC270E943A272A2D492DC8010E94D707E0
:1014D00023960F5F1F4F0B31110509F0C7CFDF9126
:1014E000CF911F910F91FF90EF90DF90CF90BF9021
:1014F000AF909F900895E091DC08F091DD0881E0C5
:10150000309709F40895838B0688F789E02DF8CF8A
:101510002091E80830E0FC01EB54FD45220F331F19
:10152000EE0FFF1FEE0FFF1FE20FF31FEB5DFE4FED
:10153000808191810895CF93DF93AAEBB7E04EEBC2
:1015400057E0C1E0D0E08D91E82FE295EF70F0E038
:1015500061A18F709E0101C0220F8A95EAF7922F38
:101560009095962391A382A1822B82A34A175B07B1
:1015700051F7DF91CF910895CF9384E090E00E94DE
:101580008626C82F81E290E00E948626982F8C2F15
:10159000CF910895CF93DF9300D00F92CDB7DEB7F0
:1015A00090917909943019F589837B836A8382E06D
:1015B0008093E9008FEF9091E800815095FD06C07F
:1015C00095ED9A95F1F700008111F5CF8091E80033
:1015D00085FF0DC050E040E063E070E0CE01019671
:1015E0000E94D9048091E8008E778093E8000F90E4
:1015F0000F900F90DF91CF910895BC0184E00C947F
:10160000CA0ABC0183E00C94CA0ACF93DF93EC01B1
:1016100081E08093E9008FEF9091E800815095FD83
:1016200006C095ED9A95F1F700008111F5CF8091F4
:10163000E80085FF14C050E040E068E070E0CE01B3
:101640000E94D9048091E8008E778093E80088E0BA
:10165000FE01AFE6B9E001900D928A95E1F7DF91C6
:10166000CF910895539A3BB1377F2BB128604FB784
:10167000F8948EE298E0FC015191CF0168E02BB91B
:10168000000000C057FF3BB9550F000000C000C06C
:1016900000C03BB900C06A9591F7F8E0803D9F0714
:1016A00051F74FBF8FE594E00197F1F700C00000BC
:1016B000089580911C08811111C08091D80080612B
:1016C0008093D8008AE18A95F1F700C09091D90003
:1016D000892F817090FF82E080931C0881E09091B7
:1016E0001C08913009F080E008958F929F92AF928C
:1016F000BF92CF92DF92EF92FF920F931F93CF93FF
:10170000DF938091D606C4E0D0E0882311F0D0E0CA
:10171000C0E08AEBC82E87E0D82EAE014D5B564F55
:101720007A018A01912CAA24A394B12C25E0822E5F
:10173000F60181916F01E82FE295EF70F0E021A1B1
:101740008F70A50102C0440F551F8A95E2F7CA01A8
:10175000922F982B91A392A18095892382A350EA7E
:101760005A95F1F7EDEFF7E020E050E040E03191DD
:10177000A32FA295AF70B0E090968C9190E03F704F
:1017800002C0959587953A95E2F780FD3CC0C5016A
:10179000042E01C0880F0A94EAF7282B4F5F5F4F91
:1017A0004630510521F7F8018081821729F0208306
:1017B00080922201992493940E949B0A0F5F1F4FED
:1017C000FEEBCF16F7E0DF0609F0B2CF80912201E1
:1017D000882359F08150809322018823B1F08FE94A
:1017E0009FE00197F1F700C00000892DDF91CF91B4
:1017F0001F910F91FF90EF90DF90CF90BF90AF902F
:101800009F908F90089580E0C8CFC65AD64F84E04D
:10181000F70191917F0199938150D1F7E6CF6CEE5A
:101820007EEF90E080E00E94C22660E082E090E0DF
:101830000E94A42660E083E090E00E94A42610921B
:101840000F0910921009109211091092120960E00C
:1018500084E090E00E94A42660E081E290E00E9493
:10186000A42660E085E090E00E94A42660E086E087
:1018700090E00E94A4266FEF87E090E00E94A426EB
:1018800040E050E0BA0188E090E00E94B62660E0B7
:101890008DE090E00E94A42640E050E0BA0188E18B
:1018A00090E00E94B62660E087E190E00E94A426C6
:1018B00040E050E0BA018CE190E00E94B62660E082
:1018C00080E290E00E94A42640E050E0BA0188E166
:1018D00090E00E94B62640E050E0BA018FE090E030
:1018E0000E94B62640E050E0BA0183E190E00C94FB
:1018F000B62610920E09E8E0F8E086E0DF011D92BE
:101900008A95E9F70C94EA061F93CF93DF93CDB73E
:10191000DEB7AA970FB6F894DEBF0FBECDBF8BE738
:1019200099E02091F100FC012193CF01F9E0833887
:101930009F07B9F780917C09833009F46FC0B8F430
:10194000813009F446C0823009F4B0C08091E800CB
:1019500083FF7BC280917B0990917C099A3008F0CB
:1019600074C2E92FF0E0EB55F74D0C9470268A30E5
:1019700009F48BC08B3009F46EC0893039F780913F
:101980007B09813219F780917F0990918009029734
:10199000E8F68091E800877F8093E8008091E80076
:1019A00082FF37C09091F3008091F200029729F4F2
:1019B0008091F1008B7F813021F48091F100809340
:1019C0006E098091E8008B778093E8000E94030500
:1019D000BDCF80917B09813A09F0B8CF8091E800B2
:1019E000877F8093E80080917F0990918009892BFF
:1019F00061F468E08FE699E070E00E94B50580919F
:101A0000E8008B778093E800A1CF60E090E080E071
:101A1000F3CF809179098111C1CF98CF80917B0953
:101A2000813A09F093CF80917F0990918009892BA9
:101A300009F08CCF8091E800877F8093E800809147
:101A4000E80080FFFCCF8091E4068093F100809154
:101A5000E8008E77B9CF80917B09813209F076CF8B
:101A600080917F0990918009892B09F06FCF809137
:101A7000E800877F8093E8000E94030580917D093C
:101A80008093E4060E94790C61CF80917B098132BA
:101A900009F05CCF8091E800877F8093E8000E9486
:101AA000030580917E0980936D0950CF80917B0959
:101AB000813A09F04BCF8091E800877F8093E8005E
:101AC0008091E80080FFFCCF80916D09BECF803807
:101AD00099F0823809F0B9C180917F098F70873001
:101AE00008F0B3C18093E9008091EB0085FB882763
:101AF00080F91092E90006C08091770990917809E9
:101B0000911182609091E800977F9093E800809314
:101B1000F1001092F1008091E8008E7792C1882345
:101B200009F480C1823009F090C180917D09811152
:101B300083C180917F098F702FEF280F263008F026
:101B400084C18093E9002091EB0020FF75C19330A0
:101B500031F48091EB0080628093EB006DC1909135
:101B6000EB0090619093EB0021E030E001C0220F88
:101B70008A95EAF72093EA001092EA008091EB0040
:101B80008860EACF811161C110917D091F77809132
:101B9000E3008078812B8093E3008091E800877FC9
:101BA0008093E8000E9403058091E80080FFFCCF4D
:101BB0008091E30080688093E30082E0111183E06C
:101BC0008093790942C18058823008F03EC18091EB
:101BD0007D0990917E098C3D23E09207A1F583E079
:101BE0008A838AE289834FB7F894DE01139620E056
:101BF0003EE051E2E32FF0E050935700E49120FFE4
:101C000003C0E295EF703F5FEF708E2F90E0EA30F7
:101C1000C0F0C7968D939D932F5F243159F74FBF26
:101C20008091E800877F8093E8006AE270E0CE014F
:101C300001960E94B5058091E8008B778093E800BB
:101C400004C1C096E7CF40917F0950918009292FA8
:101C500033272330310509F444C078F521303105AC
:101C600009F46FC08BE390E0ECECF7E02230310533
:101C700009F0EBC02091E800277F2093E800209135
:101C80008109309182098217930708F49C0140E092
:101C90002115310509F064C0411162C08091E8004E
:101CA00082FDC9CF80917909882329F2853019F204
:101CB0008091E80083FFF2CFBECF21323105A9F138
:101CC0002232310509F0C1C04115510509F443C064
:101CD0004130510509F0B9C082E390E0E2E5F7E058
:101CE000C9CF992781309105C1F0009759F002972B
:101CF00009F0ABC0E9E1F8E0E4918E2F90E0E9E172
:101D0000F8E007C0EBE7F8E0E4918E2F90E0EBE716
:101D1000F8E0009709F499C0ADCFE3E6F8E0E4916C
:101D20008E2F90E0E3E6F8E0F4CF4115510571F015
:101D30004130510509F089C089E090E0E7EFF7E014
:101D400099CF82E190E0E7E0F8E094CF89E090E07D
:101D5000EEEDF7E08FCF88E490E0E4E8F7E08ACF9B
:101D600080917909882309F466CF853009F463CF1F
:101D70008091E80083FD5FCF8091E80082FD8ECFE7
:101D80008091E80080FF84CF9091F3008091F20071
:101D90002115310519F08830910550F041E0089780
:101DA00009F040E08091E8008E778093E80070CFE2
:101DB00044914093F1003196215031090196E8CFCA
:101DC000803809F042C08091E800877F8093E80066
:101DD00080917A098093F1009ECE811136C01091D6
:101DE0007D09123090F58091E800877F8093E800AC
:101DF00010937A090E940305112311F084E005C0B5
:101E00008091E30087FDFACF81E08093790942E079
:101E100061EC81E00E94220542E261EC82E00E94D6
:101E2000220513C080917D09813079F481E09330DF
:101E300009F080E0809378091092E9008091E80031
:101E4000877F8093E8000E9403058091E80083FF6C
:101E50000AC08091E800877F8093E8008091EB00C2
:101E600080628093EB00AA960FB6F894DEBF0FBE97
:101E7000CDBFDF91CF911F9108950E94790C2FEF74
:101E800084E39CE0215080409040E1F700C00000D6
:101E900081E08093E00080E28093D8001092C90036
:101EA0008FE19EE40197F1F700C0000087E090EB1E
:101EB000DC0180938B0990938C09A0938D09B093DA
:101EC0008E0988E19CE00FB6F894A8958093600095
:101ED0000FBE90936000FFCF8823B1F19CEF980F65
:101EE000913A78F4E8E0F8E02EE038E09191891337
:101EF00003C0DF0111971C922E173F07B9F70C940E
:101F00002A0690E2980F983050F4877091E001C053
:101F1000990F8A95EAF7892F0E942306F0CF9BE557
:101F2000980F933020F490E080E00C94D40698E56C
:101F3000980F973120F490E080E00C94BE068F3B20
:101F400019F410920708DBCF0895CF93DF93EC01CB
:101F50000E946C0FCE01805E9109089720F068E91D
:101F600076E0209711F46DEA76E0CE01DF91CF9113
:101F70000C94CF098091210890912208009711F0CC
:101F80000E94A50F109222081092210808958091B6
:101F90001F0890912008009731F00E94A50F109221
:101FA000200810921F0808958091E608882369F0A0
:101FB0001092E6088091E808882321F082EE90E0F4
:101FC0000C94A50F83EE90E0FBCF08950E94C70FFD
:101FD0000C94D40F8091E808811103C080EE0C941A
:101FE0006C0F8091DB08823019F483EE0E946C0F35
:101FF0001092DB0808950F931F93CF93C82F882367
:1020000009F46EC08CEF8C0F813AA8F508E018E057
:102010008EE098E0F8012191C217F9F08E179F0722
:10202000D1F7EFEF80E0D8019D918D01C91781F0C4
:10203000EF3F19F4911101C0E82F8F5F863099F7B7
:10204000EF3F31F00E2E000CFF0BEA5FF74FC2831B
:10205000CF911F910F910C942A06E8E0F8E02191AE
:10206000C21303C0DF0111971C928E179F07B9F7A7
:102070000E942A06D6CF80E28C0F883068F4C770A1
:1020800021E030E001C0220FCA95EAF780910E09E5
:10209000822B80930E09DCCFEBE5EC0FE33050F49C
:1020A000F0E0E453F84F808190E0CF911F910F91C1
:1020B0000C94D406E8E5EC0FE73160F4F0E0EE0FA5
:1020C000FF1FE153F84F80819181CF911F910F91B4
:1020D0000C94BE06CF3B21F481E080930708B8CF73
:1020E000CF911F910F910895CF93C82F0E94FB0F9E
:1020F000C93349F42FEF87EE93E0215080409040A0
:10210000E1F700C000008C2FCF910C946C0F0F935F
:10211000CF93DF93C42FD22FFC018281882399F0C3
:102120004093EB080E9417069093D1088093D00843
:10213000C77081E001C0880FCA95EAF7DF91CF919F
:102140000F910C94B4068091EB08841340C0209149
:10215000D0083091D1089FB7F8944091130950915D
:10216000140960911509709116099FBF421B530B0A
:10217000483C510560F5C0E2CD0F8D17C1F090E2EB
:10218000980F983048F4877091E001C0990F8A95B4
:10219000EAF7892F0E94AD06C83048F481E09D2FF0
:1021A000977001C0880F9A95EAF70E94B406802FB5
:1021B0000E947410C83090F4D77081E001C0880F7D
:1021C000DA95EAF7DF91CF910F910C94AD06C770C5
:1021D00081E001C0880FCA95EAF7F4CFDF91CF9173
:1021E0000F910895CF92DF92EF92FF920F931F937A
:1021F000CF93DF93EC018AE0C82EFE0184918823FF
:1022000009F481C0813009F03EC03196849181305B
:1022100039F42296FE0184910E9474102196EDCF2C
:10222000823031F42296FE0184910E94FB0FF6CF9A
:10223000833031F42296FE0184910E946C0FEECF20
:10224000843009F05EC02296FE01249190E080E087
:10225000FE0131962053330B2A30310548F00197A7
:10226000E8F2EFE9FFE03197F1F700C00000F7CFA7
:10227000C89EA001C99E500D1124C901840F951F4D
:102280002491EF01E5CFE82FF0E0EE5EFD4FD49012
:10229000082F06950695069510E0F801EE5FFD4FB4
:1022A000E4908770F12C082E02C0F594E7940A940C
:1022B000E2F721E0E222FF240E501E4FF8010491C4
:1022C00010E002C0159507958A95E2F70170112775
:1022D000E114F10419F081EE0E94FB0F01151105C4
:1022E00019F086EE0E94FB0F8D2D0E947410012BB9
:1022F00019F086EE0E946C0FEF2809F48FCF81EE63
:102300009CCFEF018BCFDF91CF911F910F91FF9069
:10231000EF90DF90CF900895CF93DF93EC01805E34
:102320009109089720F063EA76E0209711F464EBB6
:1023300076E0CE010E94CF098C2FDF91CF910C94D3
:10234000FB0FCF93DF93EC010E948C11CE01DF9144
:10235000CF910C94A50FCF93DF9386539D4526E034
:10236000289FE001299FD00D1124C750DE4F88819E
:10237000998189322DE59207A1F00E94A1118A81ED
:102380009B8189322DE5920761F00E94A1118C8119
:102390009D8189322DE5920721F0DF91CF910C9438
:1023A000A111DF91CF910895CF93C82F0E947B0A8E
:1023B000CC2399F060E870E080E090E00E94F8069D
:1023C00081EE90E00E948C1180EE90E00E948C11D2
:1023D00082EE90E0CF910C948C1181EE90E00E94FF
:1023E000A50F80EE90E00E94A50F82EE90E00E9483
:1023F000A50F61E070E080E090E0CF910C94F806CA
:1024000080911F0890912008009761F485EE90E07C
:102410000E948C1185EE90E09093200880931F0815
:1024200081E008950E94A50F1092200810921F08C5
:10243000F7CF8091E60881110EC081E08093E60815
:102440008091E808882321F082EE90E00C948C11B2
:1024500083EE90E0FBCF08958091E808811105C0DC
:1024600080EE0E94FB0F81E0089581E08093DB08FD
:10247000FACF45E050E06CE170E083E899E00C941D
:10248000942690918309937059F080938409609306
:102490008509493708F048E7409386090C943912BA
:1024A0000895E3E8F9E0438128E0421B08F440E0A6
:1024B0008181628190E00C944112E3E8F9E043816C
:1024C00028E0420F08F44FEF8181628190E00C9484
:1024D0004112E3E8F9E0628128E0621B08F460E061
:1024E0008181438190E00C944112E3E8F9E062813C
:1024F00028E0620F08F46FEF8181438190E00C9433
:102500004112E3E8F9E08181438162818850990BAF
:102510000C944112E3E8F9E0818190E0438162810B
:1025200008960C944112E3E8F9E024813AE0230F85
:1025300008F42FEF24830C943912E3E8F9E02481A6
:102540003AE0231B08F420E024830C943912909184
:102550008309937099F0811109C094609093830965
:102560001092E905662351F00C943912833010F073
:102570009860F4CF880F880F982BF0CF0895809142
:10258000830986958695815009F482E061E00C9478
:10259000A71280918309869586958F5F833008F016
:1025A00081E061E00C94A712E3E8F9E089E0808320
:1025B0008091E5069091E606A091E70681839283DB
:1025C000A3838FE784830C943912CF93809168039F
:1025D000909169030196E1F48091020690910306BF
:1025E0000296B1F481E090915609911101C080E00A
:1025F000C82FC170809140098C1741F0882351F099
:102600000E94E2070E943912C0934009CF910895B9
:1026100081E0EECF0E94EE07F5CF8F929F92AF92AE
:10262000BF92CF92DF92EF92FF920F931F93CF93BF
:10263000DF938091E805C0E0D6E18F3F09F0D0C07C
:102640008091230890912408A0912508B091260834
:102650002FB7F894C0901309D0901409E090150991
:10266000F09016092FBF97018601081B190B2A0B42
:102670003B0BEFB7F8944091130950911409609106
:10268000150970911609EFBF409323085093240851
:1026900060932508709326084091D6085091D7087A
:1026A0006091D8087091D9084F3FEFEF5E076E0731
:1026B0007E0709F0A1C0C0911709E7E1F9E06C2F8E
:1026C00070E00197AF4FBF4F8C199D09AE09BF094C
:1026D000C713AEC0609317098091D6089091D708B0
:1026E000A091D808B091D90821E08132FEE49F077B
:1026F000A105B10508F420E0D0E081323EE4930763
:10270000A105B10540F430918309D32FD37019F09E
:10271000D32FD695D69530912D08321759F02093A6
:102720002D0881329E44A105B10508F494C081E0D2
:10273000809341098091E905813009F4A5C088237F
:1027400009F48CC0823009F4F3C1833009F4FAC172
:10275000DF91CF911F910F91FF90EF90DF90CF907D
:10276000BF90AF909F908F900895D29FF001D39F1C
:10277000F00D1124E45AFB4F42895389411551054C
:1027800011F448EC50E0D29FF001D39FF00D1124DA
:10279000E45AFB4F8681882311F1258536856FB772
:1027A000F8948091130990911409A0911509B091A2
:1027B00016096FBF821B930B4817590780F4CD9FF2
:1027C000800111248189811105C0C801845A9B4F61
:1027D0000E945C07C8018E599B4F0E947D07CF5F06
:1027E0002C2F30E08091E805082E000C990B821701
:1027F00093070CF0BACF24CF4801590180949094EC
:10280000A094B09484169506A606B70660F44FEF20
:102810005FEFBA014093D6085093D7086093D80869
:102820007093D90848CF400F511F621F731FF2CF1A
:10283000418D528D6A01F12CE12C8C159D05AE0560
:10284000BF0520F461507F5F329642CF400F511F89
:10285000528F418FF8CF0E94E5126CCF1092D706AD
:102860008091230890912408A0912508B091260812
:102870008093290890932A08A0932B08B0932C08E2
:1028800081E08093E90564CF80916B03D8133BC04E
:1028900090918309937020916A0330E081E0921750
:1028A000130609F480E081708093D906DD2369F175
:1028B000D13091F510918409D0908509E091860975
:1028C000F0E0EE56FD4FD11037C0F4901F2DCF2D04
:1028D00030EAA32E36E0B32ED12CC12CF501819124
:1028E0005F019091D806892331F0212F4F2D6C2F55
:1028F000C6010E94D707FFEFCF1ADF0A26E3C216F0
:10290000D10461F709C081E0CECF882329F040E0EF
:1029100060E080E00E94FB078091D7068F5F809384
:10292000D70682E08093E9058091D906811178C0AD
:10293000D11179C083E0A5CFED2CF12CC4910C2FDF
:10294000EC2FF0E026E0129FC00111242FEF30E0C1
:10295000B9010E944826812F90E0880F991FA5E5B4
:10296000A69FA001A79F500D1124841B950B982FA3
:10297000990F890FD901AE19BF09AE9FA001AF9F72
:10298000500DBE9F500D1124152FD89ED00111243B
:10299000AB2FBB276901CA1ADB0ACE9ED001CF9E9E
:1029A000B00DDE9EB00D11246901C81AD108CE9C6D
:1029B000C001CF9C900DDE9C900D1124892F99278A
:1029C000281B390B2E9FC0012F9F900D3E9F900D0D
:1029D0001124F92E62307105A1F050F461157105D2
:1029E00009F476CF6130710581F0F52E1B2F70CF81
:1029F0006430710569F080F06630710509F468CFC4
:102A0000F4CFFC2EC52F192F63CFFC2ECB2F60CF18
:102A1000F52E1C2FC92F5CCFC52F102FFB2E58CFA2
:102A2000DD2309F495CE80916803909169030196A6
:102A3000B1F0809127089091280801979093280879
:102A400080932708892B59F48FEF9FEF90936903A8
:102A50008093680381E0809341090E94E512809190
:102A60004109882309F474CE40E060E080E00E94D0
:102A7000FB07809168039091690340E050E060EFAC
:102A800072E48F3F980761F48091020690910306EB
:102A90008E3FFFEF9F0731F040E050E068EC72E4BA
:102AA0000E94060A0091560910E081E5C82E89E0CF
:102AB000D82E96E5E92E99E0F92E25E0B22E0115E3
:102AC000110531F1F60121916F012F3FF1F0D0E0B6
:102AD0003B2D2303F0011124ED5EFC4F8081C48166
:102AE00098EC883C20F490E0843608F094E620913D
:102AF0004209222381F02CE9280F243670F42C2F70
:102B0000DF5FD43191F401501109EC14FD04B9F6E2
:102B1000109241091DCE843690F323814281618158
:102B2000891B990B0E94D707EACF1C168CF2EBCFBA
:102B3000D0936B0380918309837080936A030E9412
:102B4000320BF8CE4091290850912A0860912B0849
:102B500070912C082FB7F894809113099091140963
:102B6000A0911509B09116092FBF841B950BA60BD8
:102B7000B70B8C329140A105B10508F4E9CD109254
:102B8000E905E6CD909156096623D9F09530A0F479
:102B9000E1E5F9E030E020E041914F3F41F42F5A68
:102BA000364FF90180839F5F9093560905C02F5FD0
:102BB0003F4F2530310581F781E0809341090C9426
:102BC000E5129923C9F3E1E5F9E030E020E0419115
:102BD000841307C02F5A364F8FEFF901808391502D
:102BE000E3CF2F5F3F4F2530310589F7E5CF809147
:102BF000E0089091E1088036910511F50E947B0A6A
:102C000089E30E94FB0F2FEF8EE595E02150804075
:102C10009040E1F700C0000089E30E946C0F8091B2
:102C20001E0891E0892780931E0860E089E00E94D9
:102C3000C21560911E0881E00E94C21580E00895CF
:102C400081E0089580911D08882349F085EE0E9457
:102C50006C0F10921D0860E089E00C94C215089575
:102C600080911D0881110EC080911E0881110AC03B
:102C700085EE0E94FB0F81E080931D0861E089E0F2
:102C80000E94C21581E0089525E030E030932808C5
:102C900020932708082E000C990B909369038093CA
:102CA000680381E0809341090C94E5128F929F9212
:102CB000AF92BF92CF92DF92EF92FF920F931F934A
:102CC000CF93DF93CDB7DEB7CDB6DEB62091E8085F
:102CD000FC01E158FD45822F90E0EE0FFF1FEE0F43
:102CE000FF1F880F991FE80FF91FEF58FD4F8081D4
:102CF0009181211114C00E94A1110FB6F894DEBE7B
:102D00000FBECDBEDF91CF911F910F91FF90EF903D
:102D1000DF90CF90BF90AF909F908F90089521301B
:102D200061F74C01ADB6BEB60E947B0A82EE90E020
:102D30000E948C1104E010E088EE881683E098066B
:102D400034F482E690E00E94A11103E010E0EDB7B8
:102D5000FEB7E01BF10B0FB6F894FEBF0FBEEDBF40
:102D60008DB79EB701967C01FC012AE030E081140A
:102D70009104C1F40E0D1F1DF80182918F01811184
:102D800018C082E690E00E94A1110E151F05A1F760
:102D900082EE90E00E94A50F0FB6F894BEBE0FBE63
:102DA000ADBEABCFC401B9010E945C2681934B013B
:102DB000DECF90E0885A9F4FE6CF8F929F92AF92DE
:102DC000BF92CF92DF92EF92FF920F931F93CF9318
:102DD000DF93CDB7DEB72F970FB6F894DEBF0FBEE7
:102DE000CDBF4B875C876D877E878F878E859F855C
:102DF000892B31F0CA0189238F3F11F00C94DF1F1A
:102E000085E0FE013B96DE01169601900D928A95B3
:102E1000E1F789859A85892B41F01E81FF80812FFA
:102E20008F218F3F11F00C94CB1F2F960FB6F89483
:102E3000DEBF0FBECDBFDF91CF911F910F91FF90ED
:102E4000EF90DF90CF90BF90AF909F908F900895BC
:102E50000E948D09082F682F89819A810E946A0635
:102E6000E12FF0E026E0F29EE00DF11D112430E3A9
:102E7000039FE00DF11D1124EE0FFF1FEE56FC4FD6
:102E8000059114918885811105C0F884F1103EC028
:102E9000912C56C08091E8058F3FB9F39CE5C92E6F
:102EA00094E0D92EB12CA12CFF24F3948091E80555
:102EB000082E000C990B8A159B053CF3D60116963B
:102EC0008C9116978823D9F019968D919C91801733
:102ED000910739F48091E9089091EA0880179107E9
:102EE00071F0F601F786148703878189811103C089
:102EF000C6010E945C07C60106960E947D07FFEF8F
:102F0000AF1ABF0A26E1C20ED11CD0CF1092D6084C
:102F10001092D7081092D8081092D9088F812E816C
:102F200036E0839FC00111248C5F994F820F911D61
:102F3000DC01EC90BFEF99249394EB1609F4A8CF31
:102F400080901709C92CD12CC601880D911D0997B5
:102F500064F188E090E05C01AC18BD08B601685EE1
:102F6000764FA50188E199E00E949A28B601605E3B
:102F7000764FA50180E299E00E949A28A501440FAE
:102F8000551FB601660F771F605D764F80E399E0AD
:102F90000E949A28B601685D764FA50188E299E003
:102FA0000E949A288A94809217098091170990E0CC
:102FB0002E2D30E0A901440F551F4C5C594F220FB4
:102FC000331FB9016B5C794F21E0280F991508F484
:102FD000E7C0809317090E94C70FFF2071F080910E
:102FE000E808813051F48091DB08813031F483EEC0
:102FF0000E94FB0F82E08093DB088091E70881113B
:1030000005C20838BDE51B0708F06CC10138EDE5C5
:103010001E0708F07BC10A33FDE51F0708F02EC12B
:1030200006332DE5120708F037C10C34110508F0FE
:10303000CCC00A34110508F0EBC3C8014E970A97BB
:1030400008F4E6C38091E5088823B1F080914B092C
:1030500090914C09A0914D09B0914E090097A1059E
:10306000B10541F057E0B695A795979587955A9584
:10307000D1F780FF0E947B0AC80197558F3F9105C9
:1030800011F008F069C42091E805022E000C330B02
:103090002817390714F48093E805288536E1389F0E
:1030A0006001399FD00C1124F601E45AFB4F7F01D7
:1030B000208B8681222309F442C4128701878F5F07
:1030C00086830E941706D7011E969C938E931D97A8
:1030D00017961C92179780910D0990910E09892BD4
:1030E00018968C931897ED91FC911197309739F0C1
:1030F00054966D917C91C6018E599B4F0995109302
:10310000EA080093E9089885992309F4A3C5109269
:10311000EB080230FCE51F0708F441C506312CE539
:10312000120738F098012B5F3C452930310508F033
:1031300036C50E94BC0A9093500980934F09003114
:103140003CE5130709F4FAC408F088C408309CE58C
:10315000190709F4E9C408F057C40430BCE51B079B
:1031600009F4D6C408F042C40230FCE51F0709F494
:10317000C9C480914F09826003301C4509F4C5C45D
:1031800060914F091091500984E090E00E94A426BC
:10319000612F81E290E00E94A4260E94790C45CE26
:1031A00090E0FC01E95EF64FDA013C913183DB01EE
:1031B0003C913187E18A880F991FFC01E95EF64F47
:1031C000128E118E91E0822FFFCE0D34110508F47E
:1031D00039CF0F34110508F41BC3C8018B529D452C
:1031E0000A9708F02FCF6801BBE2CB1ABDE5DB0AD6
:1031F00088E18C9D80018D9D100D112404591C4F78
:10320000F801818192812091E0083091E108FF204E
:1032100009F4EFC1820F931F9093E1088093E008B7
:103220000684F785E02D309709F49EC1C801099501
:1032300081119AC18091E0089091E108D80111961E
:103240002D913C91821B930B9093E1088093E008B1
:103250008091E0089091E1088930910509F4ADC2B0
:103260008234910509F0B6C20E947B0A90E080E0AA
:103270000E94221681E00E94D41166C208343DE506
:10328000130798F405348DE5180730F4C8018C5302
:103290009D45059708F0D6CEFF2009F4C6CD0E94C3
:1032A0007B0AC8010E94AB11C0CD0D349DE5190702
:1032B00008F4C8CE0D37ADE51A0730F0C8018E57B7
:1032C0009D45029708F0BECEFF2009F4F7C00E948A
:1032D0007B0AC8010E94880A009709F4A6CD0E94C3
:1032E0008C11A3CD063ABDE51B0709F4BDC2B0F5AC
:1032F0000F39FDE51F0798F403392DE5120708F093
:1033000076C20E383DE5130708F49CCEFF2009F481
:103310008CCD0E947B0AC8010E94561686CD003AC9
:103320008DE5180709F4C7C208F479C2013AADE582
:103330001A0709F4D8C2023ABDE51B0709F082CE8C
:10334000FF2009F4EAC00E947B0A8091E6088111FF
:1033500002C00E9419128BE292E0C1CF0A3AEDE559
:103360001E0709F462CDD0F4083A2DE5120709F4DE
:10337000CCC208F494C2FF2009F457CD0E947B0A06
:103380008091E20891E089278093E2080E94D4119D
:103390006091E20880E00E94C21547CD0C3A8DE5AD
:1033A000180709F45AC208F44EC20F3AADE51A07DD
:1033B00008F048CEFF2009F438CD8FEF9FEF0D3A8B
:1033C0001D4511F481E090E02091E3083091E4087C
:1033D000820F931F97FFAAC284E090E09093E408C5
:1033E0008093E308E091E308F091E408EE0FFF1FFB
:1033F000EE53F84F808191819093030680930206EB
:1034000081E0809341090E94E5120FCDFF2071F009
:103410009091DA080093DA089C3109F006CD023168
:1034200009F003CD1092E70882E006C20838BDE536
:103430001B0708F04CC00138EDE51E0708F0F5CC7D
:103440000A33FDE51F07D8F406332DE5120708F00F
:10345000ECCC0C34110550F40A34110528F4C801E1
:103460004E970A9708F0EECDC8012EC00D34110515
:1034700008F4E8CD0F34110508F0AFCEF5CF0834CD
:103480003DE5130760F405348DE5180708F0CDCC51
:10349000C8018C539D45059708F4C7CCD3CD0D3496
:1034A0009DE5190708F4CECD0D37ADE51A0730F0CC
:1034B000C8018E579D45029708F0C4CDC8010E94EF
:1034C000880A009709F4B1CC0E94A50FAECC063A49
:1034D000BDE51B0709F4CBC118F50F39FDE51F0742
:1034E00058F403392DE5120708F09FCC0E383DE55E
:1034F000130708F09ACCA6CD003A8DE5180709F419
:10350000DCC108F492CC013AADE51A0709F4F9C11F
:10351000023ABDE51B0709F095CD8BE292E0D4CFCE
:103520000A3AEDE51E0709F480CC88F4083A2DE547
:10353000120709F47ACC08F078CC8091E808811160
:10354000B4C18CE390E0FF2009F4BECFC8CE0C3AA2
:103550008DE5180709F469CC08F467CC0F3AADE59E
:103560001A0708F462CC6ECD88E18C9DF0018D9D28
:10357000F00D1124E459FC4F89859A85958B848B35
:10358000838181110E94250788E18C9DF0018D9D2A
:10359000F00D1124E459FC4F8681978122853385F3
:1035A000AC01422B532B452B41F02115310519F06D
:1035B000C9010E94880A0E948C118091E50891E05F
:1035C000980F9093E508811105C01093DD080093D2
:1035D000DC083ECEE091DC08F091DD088689978911
:1035E000009729F4178B068B0E947B0A31CEFC01D1
:1035F000F5CF009729F082239323892B09F493C0F8
:103600008091E50881508093E50881119FC0109258
:10361000DD081092DC08EE24E39488E18C9DF00133
:103620008D9DF00D1124E459FC4F81819281281B5E
:10363000390B3093E1082093E0080088F189E02DF0
:10364000309711F0C801099588E18C9DF0018D9D9E
:10365000F00D1124E459FC4F8381E091DC08F091D6
:10366000DD088111A5C088E18C9DF0018D9DF00DD4
:103670001124E459FC4F8681978122853385A90165
:10368000482B592B452B41F02115310519F0C90163
:103690000E94880A0E94A50F88E18C9DF0018D9DF3
:1036A000F00D1124E459FC4F838981112EC024812F
:1036B00035812115310549F089859A8544895589D7
:1036C000841B950B8217930700F588E18C9DF00110
:1036D0008D9DF00D1124E459FC4F80859185009754
:1036E00011F00E94A11188E18C9DF0018D9DF00DDB
:1036F0001124E459FC4F84859585009731F00E9490
:10370000880A009711F00E94A111EE2061F088E173
:103710008C9DF0018D9DF00D1124E459FC4F128A0F
:10372000138A178A168A8091DE089091DF08893003
:10373000910509F458C08234910509F04BC080917D
:10374000E208882309F497CD8DE041C0E091DC08C0
:10375000F091DD080E171F0749F4F8018689978953
:103760009093DD088093DC0856CFFC018689978909
:103770000097A9F008171907C1F7D80156968D913F
:103780009C91978B868B88E18C9DF0018D9DF00D2F
:103790001124E459FC4F128A138A178A168AE12CE5
:1037A0003CCF9381891709F45ECF0688F789E02D15
:1037B0003097B9F70E94020756CF0E947B0A0E94F9
:1037C000C70F0E94D40F89E00E9425078AE06F2D61
:1037D0000E94C2158091E0089091E1089093DF0863
:1037E0008093DE0822CB89E00E940207EFCFFF2002
:1037F00009F41BCB0E947B0A8FEB90E00E948C1196
:10380000C80189559D450E94A1118FEB90E05CCEC7
:10381000FF2009F429CE0E947B0AC80160CDFF2059
:1038200009F403CB0E947B0A8091E808811107C04C
:1038300081E08093E80880E00E944416F6CA109266
:10384000E80881E0F9CFFF2009F4EFCA0E947B0A63
:103850008DE690E00E94A111E8CAFF2009F4E5CAB4
:1038600081E08093E708E0CDF1100E947B0A80910F
:10387000E80881110EC0FF2039F08FEB90E00E9424
:103880008C1184E490E02BCD84E490E00E94A50F9D
:10389000BCCFFF2009F4C9CA87E098E0DBCFFF2046
:1038A00009F44BCE0E947B0A48CE8BE298E0FF20C1
:1038B00009F4BBCACFCFF110B8CA0E947B0A80912D
:1038C000E80881110BC08FEB0E94FB0F86E693E0A6
:1038D0000E94A1118FEB0E946C0FC2CF86EA90E08C
:1038E0000E94A111BDCFFF2061F00E947B0A809150
:1038F000E608811102C00E9419128BE20E94FB0FA0
:1039000094CA8BE20E946C0F90CAFF2009F48DCA02
:103910008091E808811103C086E691E09BCF8BE19E
:1039200098E00E94A1118AE090E094CF8530910543
:103930000CF454CD1092E4081092E30853CD882380
:1039400009F4E1CB8189882309F4DDCBC6018E59C6
:103950009B4F0E947D07D7CB043FFCE51F0771F109
:10396000B8F4093D3CE5130719F10A3D8CE5180749
:10397000B9F1083D9CE5190709F0C5CB06E221EE37
:1039800041EE68ED7CE5CE0106960E9487104DCA97
:10399000063FACE51A07F1F0B8F0073FECE51E076B
:1039A00009F0B1CB07E225EE46EE67EF7CE5EBCF01
:1039B00007E225EE45EE69ED7CE5E5CF06E221EE76
:1039C00040EE64EF7CE5DFCF07E225EE44EE65EFE5
:1039D0007CE5D9CF06E221EE42EE66EF7CE5D3CF5F
:1039E00008E221E045EE6AED7CE5CDCF80914F09FC
:1039F000806106303CE5130709F487C008F48CC0E9
:103A000080914F09806281C080914F098D7F0C3079
:103A10009CE5190709F479C070F480914F098C6016
:103A20000A30BCE51B0709F470C008F481C080911E
:103A30004F098E7F6AC080914F09877F0E30FCE569
:103A40001F0709F462C080914F098B7F0F301C451E
:103A500008F45BC080914F098F7E57C00C3F3CE556
:103A6000130709F45DC030F503319CE5190709F42B
:103A70006DC078F40131BCE51B0709F463C0023165
:103A80001C4509F07DCB0E94790C80914F098F77FE
:103A90003CC00531FCE51F0709F460C008F474C0A0
:103AA0008091500981600B3F1C4509F069CB8093E0
:103AB000500966CB01158DE5180709F44BC088F451
:103AC000809150098D7F0E3FACE51A0781F38091FC
:103AD00050098E7F0F3F1C4550F380915009836041
:103AE000E6CF0230EDE51E0709F457C008F442C0E6
:103AF00060E003301D4509F043CB8EE090E00E946A
:103B0000A4263ECB80914F09816080934F0938CB2A
:103B100080914F098460F9CF80914F098860F5CF7B
:103B2000809150098260C3CF80914F098064EDCFAE
:103B30000E94790C80914F098068E7CF80914F09EE
:103B40008F7DE3CF80914F098F7BDFCF80914F092D
:103B5000837FDBCF809150098C7FA9CF80914F0963
:103B600082FB992790F921E0922790FB82F990FB44
:103B700083F9CBCF80915009982F909591708E7FCB
:103B8000892B90FB81F993CF0E94790C90914F097A
:103B9000892F97FB87F98058B8CF61E0AECF80912D
:103BA0000E098272F801E35CFC45E431F10508F08E
:103BB00048C0E155F74D0C9470268091830991E03F
:103BC0008927809383091092E9050E9439122DC933
:103BD0004FEB52E169EC72E10E94C70726C949EC3C
:103BE00052E16FEB72E1F8CF41E852E16AE872E12D
:103BF000F3CF4AE852E161E872E1EECF49E652E1E3
:103C000065E772E1E9CF45E752E169E672E1E4CFA9
:103C100041E552E16DE572E1DFCF4DE552E161E54D
:103C200072E1DACF4DE952E163E972E1D5CF43E9C0
:103C300052E16DE972E1D0CF61E081E00E94A7120C
:103C4000F4C801153CE5130709F44DC00F3D1C45B0
:103C500009F44BC00E811F81992309F449C0C801A2
:103C60000E948D09F82E682FC8010E946A06B801CB
:103C70008F2D0E94FD07082FE82E88858111109254
:103C80000D09192F12951F70143009F47EC0A8F584
:103C9000123008F43FC0E12FE850FF0B329710F4C8
:103CA0000E94500785E0FE013696DE0111960190D4
:103CB0000D928A95E1F789819A810E9441069A8145
:103CC000E981F0E026E0929FE00DF11D112430E340
:103CD000839FE00DF11D1124EE0FFF1FEE56FC4FE8
:103CE00085919491A2C80E943D0F0E940F0C9DC81F
:103CF000C8010E944106F82EBACF183009F465C0F9
:103D0000193009F436C1173031F6882309F459C047
:103D10008FEB1AC0A92FAF70FA2E907F19F0F29492
:103D200040EFF4228823C9F0FF2069F080E2800F81
:103D3000883010F0E1100BC080910E09F82AF09243
:103D40000E090E942A06802F0E94FB0FA4CF8091AB
:103D50000D09F82AF0920D09F4CF802F0E946C0F04
:103D6000FF2009F498CF005E083010F0E11006C083
:103D70008F2D0E9423060E942A068DCFF0948091F9
:103D80000D09F822F0920D09F6CF292F26952695D8
:103D9000237051F0213009F07ECF882379F0802FF5
:103DA00093700E94BE0677CF882329F0802F9370EE
:103DB0000E94D40670CF90E080E0FACF90E080E0DF
:103DC000F0CF8FEB0E946C0F66CF292F237009F084
:103DD00065C0811160CF802F829586958770880F8E
:103DE000880F402F4F7050E070E060E0082E04C054
:103DF000440F551F661F771F0A94D2F7C12CD12C90
:103E0000760104FF10C03FE0C32ED12CE12CF12C31
:103E100004C0CC0CDD1CEE1CFF1C8A95D2F7C094AC
:103E2000D094E094F094969596959370923019F111
:103E3000D8F480900F0990901009A0901109B090CB
:103E40001209913069F04C295D296E297F29CB0137
:103E5000BA01682179218A219B210E9446071BCF44
:103E6000482959296A297B29CB01BA016C297D2966
:103E70008E299F29F2CF4C295D296E297F29C09078
:103E80000F09D0901009E0901109F0901209CB01B0
:103E9000BA016C257D258E259F25DFCF26958823A9
:103EA00011F0292F2170222309F4F5CE802F82955D
:103EB00086958770880F880F402F4F7050E070E014
:103EC00060E0082E04C0440F551F661F771F0A9438
:103ED000D2F7C12CD12C760104FF10C02FE0C22EE6
:103EE000D12CE12CF12C04C0CC0CDD1CEE1CFF1CF1
:103EF0008A95D2F7C094D094E094F09496959695D4
:103F00009370923019F1D8F480904B0990904C093D
:103F1000A0904D09B0904E09913069F04C295D296F
:103F20006E297F29CB01BA01682179218A219B2141
:103F30000E94F806B0CE482959296A297B29CB016D
:103F4000BA016C297D298E299F29F2CF4C295D2940
:103F50006E297F29C0904B09D0904C09E0904D0903
:103F6000F0904E09CB01BA016C257D258E259F2549
:103F7000DFCF9F70F92E882339F0892F0E94250703
:103F8000802F0E94B40687CE802F0E94AD068F2D11
:103F90000E94020780CE85E0FE013696DE01119672
:103FA00001900D928A95E1F7288589819A812111E6
:103FB0000C9428170E944106082F0C94301780910A
:103FC000EC089091ED0801969093ED088093EC0831
:103FD0000C940017DC01FB018081918125E0289F72
:103FE000F001299FF00D1124E754FD4F20818181BC
:103FF0009281438134815C91513011F0842F932F51
:10400000223091F118F4213089F10895233019F00C
:10401000243019F008950C94AB118530910541F1CD
:1040200068F482309105C9F018F4019799F0089569
:1040300083309105A9F00497A9F008958730910580
:1040400029F100F19C0128583D452630310508F53D
:104050000C9456168BE690E009C08CE690E006C002
:104060000E943D0F8AE69DE50E94880A0C94A111EA
:104070008DE79DE50E94880A90932208809321088D
:104080000C948C1182EB90E00C94F2108CEA90E08E
:10409000FBCF0895CF92DF92FF920F931F93CF93A0
:1040A000DF9380914209882309F49AC00E94750B1E
:1040B000F82E8091D606C4E0D0E0882311F0D0E03D
:1040C000C0E0C65AD64F44E050E0BE0188E198E017
:1040D0000E948D286C0188819981AA81BB8180937F
:1040E000180890931908A0931A08B0931B088091A0
:1040F000D606D0E0C0E0882311F0C4E0D0E0909173
:1041000024018091230110E000E0981759F082E02B
:1041100090E00E94CA258C01892B21F48091230113
:10412000809324018091100890911108C82AD92AFF
:1041300090E080E0CD2811F081E090E00E94CA2557
:10414000892B31F580911308809323011092110877
:10415000109210080115110511F10230110509F432
:1041600028985D98809112088F5F8093120886309E
:1041700040F18091D606F0E0E0E0882311F0E4E021
:10418000F0E0E65AF64F108211821282138219C0B3
:1041900081E090E09093110880931008DBCF289A7B
:1041A000C65AD64F8091140890911508A091160810
:1041B000B091170888839983AA83BB835D9A109274
:1041C00012080E940D13C1E0F11001C0C0E08C2F55
:1041D000DF91CF911F910F91FF90DF90CF900895C5
:1041E0000E94750B9091D606E4E0F0E0992311F05F
:1041F000F0E0E0E0E65AF64F40E030E020E0D901A0
:10420000AC5EB74F5C919191591341E09C932F5F45
:104210003F4F2430310599F790911308940F9093F4
:104220001308C1E0811101C0C0E08091D606811160
:1042300002C030E020E0265A364F80911808909155
:104240001908A0911A08B0911B08F9018083918385
:10425000A283B3830E940D13BACF1F920F920FB6A1
:104260000F9211242F933F934F935F936F937F93FC
:104270008F939F93AF93BF93CF93DF93EF93FF936E
:10428000D091E900DF708091EC00C82FC17080FDF3
:10429000C0E81092E9008091F000877F8093F000E1
:1042A00078940E94840C1092E9008091F00088605C
:1042B0008093F000CD2BCF70C093E900FF91EF9178
:1042C000DF91CF91BF91AF919F918F917F916F912E
:1042D0005F914F913F912F910F900FBE0F901F90C4
:1042E00018951F920F920FB60F9211242F933F93A0
:1042F0004F935F936F937F938F939F93AF93BF93EE
:10430000EF93FF938091E10082FF09C08091E2006A
:1043100082FF05C08091E1008B7F8093E100809156
:10432000DA0080FF24C08091D80080FF20C08091F7
:10433000DA008E7F8093DA008091D90080FF9FC0E1
:1043400080E189BD82E189BD09B400FEFDCF81E035
:104350008093790980916C09811109C00E948904B8
:104360000E9454058091E20084608093E200809175
:10437000E10080FF17C08091E20080FF13C08091B0
:10438000E2008E7F8093E2008091E2008061809362
:10439000E2008091D80080628093D80019BC85E04B
:1043A000809379098091E10084FF2DC08091E20023
:1043B00084FF29C080E189BD82E189BD89B5982F3C
:1043C000917080FFFBCF8091D8008F7D8093D800C3
:1043D0008091E1008F7E8093E1008091E2008F7EEA
:1043E0008093E2008091E20081608093E2008091FE
:1043F0007A09882309F449C084E0809379090E94EE
:10440000790C0E9450078091E10083FF27C08091C2
:10441000E20083FF23C08091E100877F8093E10069
:1044200082E08093790910927A098091E1008E7F71
:104430008093E1008091E2008E7F8093E200809182
:10444000E20080618093E20042E060E080E00E9450
:1044500022058091F00088608093F000FF91EF9139
:10446000BF91AF919F918F917F916F915F914F918C
:104470003F912F910F900FBE0F901F90189519BC70
:104480001092790910926C0972CF8091E30087FD38
:1044900093E090937909B3CFCDB7DEB72A970FB6E3
:1044A000F894DEBF0FBECDBF84B7877F84BF0FB641
:1044B000F894A895809160008861809360001092C4
:1044C00060000FBE80E890E00FB6F8948093610022
:1044D000909361000FBE85B7806885BF85B78068FF
:1044E00085BF0E9489040E9454058091E200846087
:1044F0008093E2007894809179098823A1F010914B
:10450000E9001F709091EC00892F817090FD80E888
:10451000182B1092E9008091E80083FD0E94840C22
:104520001F701093E90082E084BD93E095BD9AEF7F
:1045300097BD80936E000E94590B8093D6060E940F
:10454000590B63E070E0882309F427C18AEE95E0F7
:104550000E94E82478940E949B0AADEFB7E061E0E6
:1045600070E08D91E82FE295EF70F0E041A18F703F
:104570009B0101C0220F8A95EAF7922F9095942310
:1045800091A382A1822B82A328E0A330B20749F72E
:10459000209A559A289A5D9AA3E4B9E0EAE5F9E0F1
:1045A00011921D9289E0E236F807D1F70E94590B6B
:1045B0008093420990E080E00E948E268C3E9E4FC0
:1045C00011F00E940F0C109217098FEF9FEF90933C
:1045D0003109809330099093330980933209909385
:1045E0003509809334099093370980933609909365
:1045F00039098093380990933B0980933A09909345
:104600003D0980933C0990933F0980933E0990E0D7
:1046100080E00E948E268C3E9E4F21F00E940F0C5F
:104620000E94D41245E050E06CE170E083E899E02C
:104630000E947626809183098C7F11F40E94D41207
:104640008091D606811109C082EDE8EEF6E0A4E083
:10465000B6E001900D928A95E1F760E082E00E9459
:10466000A71248E76FEF84E690E00E944112209184
:1046700002063091030681E02E3F9FEF390709F4CF
:1046800080E080934109809340092E3F3F4F09F419
:1046900089C00E94EE070E94391290E080E00E94DB
:1046A0008E268C3E9E4F11F00E940F0C82E090E00F
:1046B0000E948626809363090E94BC0A9093500949
:1046C00080934F0983E090E00E948626682F70E077
:1046D00090E080E00E944607109256098FEF809389
:1046E0005109809352098093530980935409809310
:1046F000550985E08093D8068AED96E09093580995
:1047000080935709EE24EA9480E1A82E92E1B92E15
:1047100028E1C22ED12C30E4932E80917909853086
:1047200009F443C00E944A20A4E6B9E0EAE5F9E0B2
:1047300010E000E0302F81919D91981709F470C02E
:10474000292F282790E0FF24F3944F2D422309F4CA
:1047500062C099833A838F2191E009F490E09B83B2
:104760000E9417068160782F9D838C8349815A812E
:104770006B818D810E94DD16F801EC59F64F808126
:10478000F826F0820E94500790916209891729F259
:104790000E94500780936209C0CF8AEE95E00E9484
:1047A000F124D8CE0E94E20776CF80917909843037
:1047B00009F1109259090FB6F894A895C0926000BB
:1047C0000FBE9092600083B7817F846083BF83B700
:1047D000816083BF7894889583B78E7F83BF0FB63F
:1047E000F894A89580916000886180936000109291
:1047F00060000FBE80917809882309F48ECF0E9453
:104800004A20EAE5F9E08191811120C089E0E23691
:10481000F807C9F782CF9F5FFF0C963009F095CF5C
:104820000F5F1F4F0830110509F084CFEE82EF8231
:1048300018860E9417068160782F9A8789874E8193
:104840005F8168858A850E94DD169CCFA9BCB9BCB2
:1048500009B400FEFDCF8091D8008F7D8093D800F1
:104860008091E00082608093E0008091E00081FD13
:10487000FCCF53CF78941F921FB61F9211248F93B1
:104880009F93AF93BF938091130990911409A091C6
:104890001509B09116090196A11DB11D8093130948
:1048A00090931409A0931509B0931609BF91AF9185
:1048B0009F918F911F901FBE1F9018951F921FB63A
:1048C0001F9211248F939F93AF93BF9380915909A7
:1048D000811113C08091130990911409A0911509B9
:1048E000B09116094196A11DB11D809313099093B3
:1048F0001409A0931509B0931609BF91AF919F9128
:104900008F911F901FBE1F9018958EE14A9B02C089
:104910008150E1F74A9BFECF08955A9880E28A952C
:10492000F1F75A9A0895FC013BE03A95F1F720E03F
:1049300090E080E031E040E14A95F1F7880F4A9B32
:1049400002C08160232742E04A95F1F7000040E170
:104950004A95F1F79F5F6913EECF90E19A95F1F7D1
:1049600099B132E03A95F1F7000040E14A95F1F74C
:1049700092FB992790F992272081920F90830895B6
:10498000EF92FF920F931F93CF93DF930F92CDB7C8
:10499000DEB719828C017C01E60EF11C0E151F0595
:1049A00061F481E09981911180E00F90DF91CF91C6
:1049B0001F910F91FF90EF9008950E94852468E069
:1049C000CE0101960E949324F80181938F01E6CFD6
:1049D00090938A098093890960938809529A5A9A18
:1049E000089590938A098093890960938809529861
:1049F0005A9AEA9AE9E6F0E080818F7C80830895F4
:104A00006150770B91E001C0990F6A95EAF720E0B9
:104A100031E0911108C0222391F05A9A80E28A95E0
:104A2000F1F75A980895492F482339F05A9A2327C5
:104A300040E24A95F1F79695ECCF5A98F9CF5A98FB
:104A4000EDCFFF920F931F93CF93DF93EC018C0177
:104A5000060F111DC017D10731F4DF91CF911F91BF
:104A60000F91FF900895F9900E948D2468E08F2D9A
:104A70000E940025EFCF1F920F920FB60F921124C4
:104A80000F931F932F933F934F935F936F937F9356
:104A90008F939F93AF93BF93EF93FF93CF93DF9346
:104AA0000F92CDB7DEB719820E94852467E0CE0150
:104AB00001960E949324082F069506950695982F37
:104AC00092959570202F2570920F292F237096951F
:104AD00096958770920F891344C08981811141C0D6
:104AE000809188098017E8F120E12A95F1F75A9A18
:104AF000529A82E08A95F1F700C0A8E00A9FC001AF
:104B000011240091890910918A09080F191F5A98D8
:104B1000F8016581662321F0868197810E94212515
:104B20000E948D24F0E1FA95F1F75A9852985A9A1A
:104B300020E12A95F1F7D80112966C91129766231D
:104B400031F113968D919C910E94C024D801ED9172
:104B5000FC91882311F088E001C082E080830E94EC
:104B600085240F90DF91CF91FF91EF91BF91AF918D
:104B70009F918F917F916F915F914F913F912F9175
:104B80001F910F910F900FBE0F901F901895ED91F0
:104B9000FC91E1CF0F931F93CF93DF93209188096E
:104BA000281719060CF471C08C0193E0000F111F37
:104BB0009A95E1F7C0918909D0918A09C00FD11F58
:104BC000F894529A5A9825E02A95F1F70000982F08
:104BD000969595708570980F892F83709695969508
:104BE000980F092B0E948D2400C067E0802F0E943F
:104BF000002580E18A95F1F752985A9A4A9B17C08E
:104C000087E090E04A9915C06D81662321F18E817D
:104C10009F810E94C02481111EC0529A5A9AE88135
:104C2000F98182E08083789482E090E00DC000C03A
:104C3000E5CF019771F4529A5A9AE881F98181E09F
:104C40008083789481E090E0DF91CF911F910F9164
:104C5000089500C0D7CF0E94852420E22A95F1F75D
:104C60005A98529A80E18A95F1F76A81662321F079
:104C70008B819C810E9421250E948D24E881F981ED
:104C80001082789490E080E0DFCF84E090E0DCCF89
:104C9000AA1BBB1B51E107C0AA1FBB1FA617B70762
:104CA00010F0A61BB70B881F991F5A95A9F780957E
:104CB0009095BC01CD01089597FB072E16F4009442
:104CC00007D077FD09D00E94482607FC05D03EF4A6
:104CD000909581959F4F0895709561957F4F0895A8
:104CE000EE0FFF1F0590F491E02D0994DC01CB013C
:104CF000FC01F999FECF06C0F2BDE1BDF89A3196EC
:104D000000B40D9241505040B8F70895F999FECF84
:104D100092BD81BDF89A992780B50895A8E1B0E0C9
:104D200042E050E00C947826DC01A40FB51F4150FE
:104D3000504048F0CB01840F951F2E910E94A5266C
:104D400041505040D0F70895262FF999FECF92BDDB
:104D500081BDF89A019700B4021639F01FBA20BD40
:104D60000FB6F894FA9AF99A0FBE08950396272F72
:104D70000E94A5260E94A426252F0E94A526242F46
:104D80000C94A5260196272F0E94A5260C94A426F4
:104D90000E94DC260C94BD270E94B62758F00E9482
:104DA000AF2740F029F45F3F29F00C94A62751115A
:104DB0000C94F1270C94AC270E94CE2768F399231A
:104DC000B1F3552391F3951B550BBB27AA27621707
:104DD0007307840738F09F5F5F4F220F331F441F14
:104DE000AA1FA9F335D00E2E3AF0E0E832D0915048
:104DF0005040E695001CCAF72BD0FE2F29D0660F35
:104E0000771F881FBB1F261737074807AB07B0E877
:104E100009F0BB0B802DBF01FF2793585F4F3AF07D
:104E20009E3F510578F00C94A6270C94F1275F3F24
:104E3000E4F3983ED4F3869577956795B795F79503
:104E40009F5FC9F7880F911D9695879597F90895EB
:104E5000E1E0660F771F881FBB1F62177307840787
:104E6000BA0720F0621B730B840BBA0BEE1F88F796
:104E7000E09508950E94D62788F09F5798F0B92FA3
:104E80009927B751B0F0E1F0660F771F881F991F7F
:104E90001AF0BA95C9F714C0B13091F00E94F0270A
:104EA000B1E008950C94F027672F782F8827B85F1A
:104EB00039F0B93FCCF3869577956795B395D9F7D7
:104EC0003EF490958095709561957F4F8F4F9F4FE1
:104ED0000895E89409C097FB3EF4909580957095ED
:104EE00061957F4F8F4F9F4F9923A9F0F92F96E936
:104EF000BB279395F695879577956795B795F111AB
:104F0000F8CFFAF4BB0F11F460FF1BC06F5F7F4F47
:104F10008F4F9F4F16C0882311F096E911C0772359
:104F200021F09EE8872F762F05C0662371F096E862
:104F3000862F70E060E02AF09A95660F771F881F31
:104F4000DAF7880F9695879597F9089597F99F67EF
:104F500080E870E060E008959FEF80EC0895002401
:104F60000A941616170618060906089500240A94CE
:104F700012161306140605060895092E0394000C54
:104F800011F4882352F0BB0F40F4BF2B11F460FFE3
:104F900004C06F5F7F4F8F4F9F4F089557FD90580C
:104FA000440F551F59F05F3F71F04795880F97FBED
:104FB000991F61F09F3F79F08795089512161306A7
:104FC0001406551FF2CF4695F1DF08C016161706D6
:104FD0001806991FF1CF869571056105089408950B
:104FE000E894BB2766277727CB0197F908950E949D
:104FF000692808F48FEF08950E940F280C94BD27AC
:105000000E94AF2738F00E94B62720F0952311F0B8
:105010000C94A6270C94AC2711240C94F1270E9421
:10502000CE2770F3959FC1F3950F50E0551F629FF7
:10503000F001729FBB27F00DB11D639FAA27F00DF1
:10504000B11DAA1F649F6627B00DA11D661F829F18
:105050002227B00DA11D621F739FB00DA11D621FFD
:10506000839FA00D611D221F749F3327A00D611D1A
:10507000231F849F600D211D822F762F6A2F1124FC
:105080009F5750409AF0F1F088234AF0EE0FFF1F2F
:10509000BB1F661F771F881F91505040A9F79E3F86
:1050A000510580F00C94A6270C94F1275F3FE4F3A0
:1050B000983ED4F3869577956795B795F795E795DC
:1050C0009F5FC1F7FE2B880F911D9695879597F9E5
:1050D0000895990F0008550FAA0BE0E8FEEF161689
:1050E0001706E807F907C0F012161306E407F507DC
:1050F00098F0621B730B840B950B39F40A2661F050
:10510000232B242B252B21F408950A2609F4A140F2
:10511000A6958FEF811D811D0895FB01DC0104C060
:105120008D910190801921F441505040C8F7881B9F
:10513000990B0895FB01DC0102C001900D924150D2
:105140005040D8F70895F894FFCF670D8F0D250FC5
:105150008F0D250FC20DE30D250FE00EED0EDD1DA9
:10516000E81DEF1DF41DF91DFE1D031E081E0D1E7A
:10517000121E171E1C1E15171517151715171517B4
:06518000151715171517A5
:10518600110010000F000E000D000C000B000A00AD
:1051960009000800070006000500040003000200DD
:1051A600010005FFFFE300E000E000E3001B081B31
:1051B600010608060119081901190E1903190A1919
:1051C600031D081D011D0A1D03210B160A220A468E
:1051D6000008040814150A3E0116081601040804FE
:1051E600017F00A8008000A9008100AA00290C4CBC
:1051F600054800BD004700BE00500450044F044F50
:10520600046E002903300830013808380152084A74
:105216000851084D0850084A004F084D000B085128
:10522600081A083D04090809010A080A010A0A0AB7
:10523600032C0816082F084D002C09370814090FEF
:1052460008330421142A042A014000AC004200ABB2
:10525600004100AE0066016601660166000F0B5054
:1052660008150B4F08100B5208180B000014083DC8
:1052760004E000E3002A080E0338006402295D27D3
:10528600026402295D2E022D0250002E001E0250DD
:105296000024023002295D30022402295D30001EFE
:1052A60000295D38001E00295D64022702295D641D
:1052B600002702295D1E022702295D6402295D2955
:1052C6005D24026402295D6400295D295D64002471
:1052D60002295D64006400295D64026402295D1E82
:1052E600022702295D64022702295D64002702293C
:1052F6005D38049600380697000D06AF002204ECD0
:1053060000370685001304E3002106A30027046086
:10531600222706F7003206AF006406F2003406AE16
:10532600006404F3003506F8001504AE000B04997A
:1053360000200695000604A90003365D375D033A92
:105346005D3B5D0401000200040000030003435DB1
:10535600445D03415D425D011E011E03011F011FE5
:10536600030120012003013500350202545D555D1D
:10537600040400050003485D465D03495D455D0480
:10538600885D895D048A5D8B5D048C5D8D5D040698
:105396000007007E780043007E0F625E000616005E
:1053A60078026A160078000E1E005905065602425B
:1053B600066A0000580771280000087200180000ED
:1053C6007E00072F00D65809000BD55809000CCED1
:1053D60058090000D67800430ED57800430FCE78E2
:1053E6000043107E19001400FFFFFFFF00010001BB
:1053F6002C0100003702000000000012E60F00003A
:1054060000000000010200022C010000360200002C
:10541600000000000000000000000000020400037D
:105426002C01000027020000000000000000000020
:1054360000000000030800042C0100002102000007
:10544600000000000000000000000000041000053D
:105456002C0100001F0200000000000000000000F8
:1054660000000000052000062C0100002D000000B1
:105476000000F7150000000000000000070000080B
:10548600FA0000002B004B5D000000000000000049
:105496000000000008000008FA00E2002B020000ED
:1054A60000000000000000000000000009000008E5
:1054B6002C010000000000005A5D2C12EA0F0000CB
:1054C600000000000A400000FA000000280000006A
:1054D6000000301622160000000000000000EA1F3F
:1054E600BA0F0000000000000000000000000000ED
:1054F60004080000EA1FBA0F0000000000000000C8
:1055060000000000000020010000EA1FBA0F0000A2
:105516000000000000000000000000001E01000066
:10552600EA1FBA0F000000000000000000000000A3
:1055360000001C010000EA1FBA0F00000000000076
:1055460000000000000000001A010000EA1FBA0F68
:10555600000000000000000000000000000018012C
:105566000000EA1FBA0F0000000000000000000063
:105576000000000016010000EA1FBA0F000000003C
:105586000000000000000000000014010000EA1FF7
:10559600BA0F00000000000000000000000000003C
:1055A60012010000EA1FBA0F000000000000000010
:1055B60000000000000010010000EA1FBA0F000002
:1055C6000000000000000000000000000E010000C6
:1055D600EA1FBA0F000000000000000000000000F3
:1055E60000000C010000EA1FBA0F000000000000D6
:1055F60000000000000000000A010000EA1FBA0FC8
:10560600000000000000000000000000000008018B
:105616000000EA1FBA0F00000000000000000000B2
:105626000000000006010000EA1FBA0F000000009B
:105636000000000000000000000004010000EA1F56
:10564600BA0F00000000000000000000000000008B
:1056560002010000EA1FBA0F00000000000000006F
:105666000000000000000001FF030F080000000119
:1056760013080F080418080113080E080000000498
:105686001408FEFF181712110A09191613100B0831
:105696001A15140F0C07FFFFFF0E0D0633322D2CC3
:1056A600252434312E2B262335302F2A2722FFFF9F
:1056B600FF2928215510320D10141026323055348A
:1056C6005F3F552755155504440244134425503A67
:1056D6003C373223320D3200210321142125102AB2
:1056E600101810070007001800298B10AE0DD014F3
:1056F600D026AE308B34813F8B278B158B049C02D2
:105706009C139C25903AA437AE23AE0DAE00BF0382
:10571600BF14BF25D02AD018D007E007E018E0292B
:105726000202020202020104040404040401010448
:105736000404040404040404010101020202020236
:10574600020104040404040401010404040404041E
:105756000404040101010100FF001406050B1306F1
:10576600010BFD0A0164FF7833322D2C25243431D8
:105776002E2B262335302F2A2722FFFFFF2928210B
:10578600181712110A09191613100B081A15140FF7
:105796000C07FFFFFF0E0D068B10AE0DD014D026A2
:1057A600AE308B34813F8B278B158B049C029C1368
:1057B6009C25903AA437AE23AE0DAE00BF03BF14AE
:1057C600BF25D02AD018D007E007E018E0295510E9
:1057D600320D10141026323055345F3F55275515BB
:1057E6005504440244134425503A3C373223320DC3
:1057F6003200210321142125102A10181007000752
:105806000018002902020202020201040404040430
:105816000401010404040404040404040101010253
:105826000202020202010404040404040101040445
:1058360004040404040404010101946697C60000EC
:105846000000FEFF0100020003000400818283E2E3
:1058560000E900EA00B500B600B700CD008301CC30
:10586600008A0192019401210223022402250226C4
:105876000227022A02B300B4006F007000F4F5F6A6
:04588600F7313300C3
:00000001FF
