:100000000C9472050C94B9050C94B9050C94EC266B
:100010000C94B9050C94B9050C94B9050C94B90568
:100020000C94B9050C94B9050C9422230C94DE228F
:100030000C940F260C94B9050C94B9050C94B905D1
:100040000C94B9050C94B9050C94B9050C94B90538
:100050000C94B9050C94EB250C94B9050C94B905D6
:100060000C94B9050C94B9050C94B9050C94B90518
:100070000C94B9050C94B9050C94B9050C94B90508
:100080000C94B9050C94B9050C94B9050C94B905F8
:100090000C94B9050C94B9050C94B9050C94B905E8
:1000A0000C94B9050C94B9050C94B905E300E00073
:1000B000E000E3001B081B010608060119081901EE
:1000C000190E1903190A19031D081D011D0A1D0324
:1000D000210B160A220A460008040814150A3E01DC
:1000E00016081601040804017F00A8008000A9007A
:1000F0008100AA00290C4C054800BD004700BE0045
:10010000500450044F044F046E002903300830019E
:100110003808380152084A0851084D0850084A006A
:100120004F084D000B0851081A083D040908090141
:100130000A080A010A0A0A03090C0B012C0816080E
:100140002F084D002C09370814090F083304211417
:100150002A042A014000AC004200AB004100AE007E
:1001600066016601660166000F0B5008150B4F080B
:10017000100B5208180B000014083D04E000E300C7
:100180002A080E0338006402295D27026402295DF3
:100190002E022D0250002E001E02500024023002BA
:1001A000295D30022402295D30001E00295D3800DF
:1001B0001E00295D64022702295D64002702295D73
:1001C0001E022702295D6402295D295D2402640262
:1001D000295D6400295D295D64002402295D6400B5
:1001E0006400295D64026402295D1E022702295D04
:1001F00064022702295D64002702295D3804960005
:10020000380697000D06AF002204EC003706850083
:100210001304E3002106A300270460222706F70049
:100220003206AF006406F2003406AE006404F30048
:100230003506F8001504AE000B0499002006950061
:100240000604A9006164696F7300686F6C61000443
:10025000040000000408000000040C000000041268
:1002600000000004180000000500000300033A5DD0
:100270003B5D050100020003435D445D03415D42B7
:100280005D011E011E03011F011F03012001200348
:10029000013500350202545D555D0504000500037B
:1002A000485D465D03495D455D05895D8A5D058B59
:1002B0005D8C5D058D5D8E5D050600070002625D4B
:1002C0005D5D024E5D4D5D02505D515D0130003857
:1002D0000001300224020134143214012F143014AE
:1002E000012502260203385D395D0000001214006A
:1002F0009E940001983B7500000126AD010728007F
:100300000000000000000B2E0011422400000F022C
:1003100000000114000000000000000000000000C8
:10032000000000000000000000FFFFFFD4D4D473E1
:1003300073733838382121214D4D4D8F8F8FE8E868
:10034000E87878783838382929290F0F0F0000000D
:10035000121212141414000000000000000000002B
:1003600000000000000000001700383500851F0065
:10037000B80108D52000942700943500751C003D75
:1003800019013729016525006B2D00701900420CF9
:10039000001F0B001F0000000000001000290000DB
:1003A00000000000000000FFFFFFB6992FC26700A9
:1003B000BD42008E4C01BD6E00FFDD00EEE6BF9831
:1003C000957CA884007550005637012D1B014629E5
:1003D000016142002411002417002415000E0901B8
:1003E0000F0800000000F60909A38D00006B1B1820
:1003F000086830069300737574C200FAA005F5F919
:10040000011BA3000057662400661D0061004152D5
:10041000008A4E015641013037001442000F33006C
:100420001D33002E2300000000000000000000002B
:100430000000000000000000007E0F00D4FFFFFF5E
:10044000C70000007800000000000000002A2B28F0
:10045000000000000000000000000000000000009C
:1004600029000000002C1E342021222434262725B8
:100470002E362D3738271E1F2021222324252633F0
:1004800033362E37381F0405060708090A0B0C0DF2
:100490000E0F101112131415161718191A1B1C1D04
:1004A0002F3130232D350405060708090A0B0C0DE2
:1004B0000E0F101112131415161718191A1B1C1DE4
:1004C0002F3130354C000101010101010101010210
:1004D00002020202020202020303030303030303F4
:1004E00004040404040404050505050506060606BF
:1004F00006070707070708080808090909090A0A7B
:100500000A0B0B0B0C0C0C0D0D0D0E0E0E0F0F0F1E
:1005100010101111111212131314141515161617A9
:1005200017181819191A1A1B1B1C1D1D1E1E1F2017
:1005300020212222232424252626272829292A2B64
:100540002C2D2D2E2F303132323334353637383989
:100550003A3B3C3D3E3F4041424344454647484983
:100560004A4C4D4E4F50515354555658595A5B5D55
:100570005E5F616264656668696B6C6D6F707273F3
:100580007577787A7B7D7E8082838587888A8C8E5A
:100590008F91939596989A9C9EA0A2A3A5A7A9AB8C
:1005A000ADAFB1B3B5B7BABCBEC0C2C4C6C9CBCD7E
:1005B000CFD1D4D6D8DBDDDFE2E4E7E9EBEEF0F330
:1005C000F5F8FAFDFF7E780043007E0F625E007E44
:1005D00000072F00D658090004D558090005CE5849
:1005E000090000D678004307D578004308CE78008C
:1005F00043097E19001400315D140019000700152D
:10060000000900325D00571600015717000A003339
:100610005D1D001B001A00060038000000000000ED
:10062000002B5D2C002C5D370033000F000500040B
:10063000571C00B05D13000357025711000B003028
:100640005D2F5D0E00360010000D00000000000060
:10065000002E5D2D5D345D2900055700007C5D573F
:100660005D0000A05D00007A5D7D5D7B5D00005F48
:100670005D5E5D0000695D0000000000000000009C
:10068000002B5D00002C5D9F5D9C5D9B5D9A5D99DC
:100690005D9E5D985D975D965D955D945D9D5D0049
:1006A0000000000C570B570A570000000000000024
:1006B000002E5D2D5D345DE3001657705DA35DA2D5
:1006C0005DA85D0000595D585D525D535DA75D5C9E
:1006D0005D5B5D0F57185717574F5D000000000016
:1006E000002B5D00002C5D855D2600250024002385
:1006F000003C5D2200210020001F001E002700009A
:10070000000000370036003D5D2C000000000000B6
:10071000001A571957345D0000201434025200307B
:1007200002240200001F14500051004F00375D00EA
:1007300000000035142202365D3000000000000089
:10074000002B5DE1002C5D1E022D0223021C571BB5
:10075000571057745D1E571E1426021D571157154A
:10076000572F00000009570857475D0000000000A0
:10077000002E5D2D5D345D0000000000004B006424
:100780005D635D00000D57605D4E00615D0000001F
:10079000000757AC5D00000657835D0000000000B5
:1007A000002B5DE1002C5D865D0557885D00006EC5
:1007B0005D715D4C00000052006C5D6B5D6D5DE134
:1007C000004F00510050006F5D000000000000006D
:1007D000002E5D2D5D345D000000000000655D00B1
:1007E00000000000000000675D665D685D000000BD
:1007F000000000000000000000825D00000000001A
:10080000002B5DE1002C5D925D735D231400000000
:1008100000135700000E578F5D00000000145700B2
:100820000000002F0200000000125700000000002E
:10083000002E5D2D5D345D00000000000000009082
:100840005D0000000000000000565D915D000000AA
:1008500000000000000000935D845D0000000000C7
:10086000002B5D2C002C5DA95D725DAD5D0000006C
:10087000000000A15D875D20020000000000000074
:1008800000775D765D755D000000000000000000EF
:10089000002E5D2D5D345D27001400190007001542
:1008A0000009001E0004001600080017000A001FBF
:1008B000001D001B001A00060038000000000000A8
:1008C00000200021002200370033000F000500182F
:1008D000001C004C02130012000C0011000B00AAB7
:1008E0005D26000E00360010000D00000000000024
:1008F00000250024002300315D14001900070015B5
:10090000000A00E20004001600080017000A003385
:100910005D1D001B001A00060038000000000000EA
:1009200000E1002C00E100370033000F0005001843
:10093000001C002A00130012000C0011000B000024
:100940000000000E00360010000D00000000000046
:1009500000E100E1002800000000000000AF5DAEF3
:100960005D0000000000000000000000000000002A
:100970000000000000000000000000000000000077
:100980000010501050105000000000000000000047
:100990000000000000000000000000000000000057
:1009A0000000000000000000000000000000000047
:1009B0000010501050105005010980A10185031945
:1009C000012AB700150126B700950175108100C0F6
:1009D000050C0901A101850419012AA002150126AF
:1009E000A002950175108100C005010906A101054D
:1009F0000719E029E7150025019508750181020511
:100A0000FF090315002501950175088102050719E5
:100A10000029FF150026FF009506750881000508CE
:100A2000190129059505750191029501750391013B
:100A3000C009023B00020100A0FA09040000010302
:100A4000010100092111010001224800070581036D
:100A500008000A0904010001030000000921110136
:100A600000012232000705820320000A1201100152
:100A700000000008AC0550027400010200014803A8
:100A800043006F0072006E00650020004B0065009F
:100A9000790062006F006100720064002000520063
:100AA000650076002E003100200028004C00650013
:100AB00067006100630079002000530070006C0043
:100AC00069007400290000001603410070007000E6
:100AD0006C006500200049006E0063002E000000DD
:100AE0000403090411241FBECFEFDAE0DEBFCDBF3F
:100AF00004B603FE27C080917F0890918008A091E2
:100B00008108B09182088730904BA740B04BD1F458
:100B100010927F081092800810928108109282082B
:100B200014BE84B7877F84BF0FB6F894A8958091D0
:100B30006000886180936000109260000FBEE0E06A
:100B4000F8E3099528E0A8EFB6E001C01D92AF37A1
:100B5000B207E1F716E0A0E0B1E0E8EEF4E502C08C
:100B600005900D92A83FB107D9F70E94FD230C9480
:100B7000542A0C940000E8EDF0E080818E7F8083A1
:100B80001092E2001092DA001092E100A0EEB0E0C4
:100B90008C9181608C9380818F77808319BCA7EDC5
:100BA000B0E08C918E7F8C9380818F7E80831092B9
:100BB000600808952091E4003091E50095E6A901D0
:100BC0002091EC00822F817020FF06C08091E80008
:100BD00080FF06C080E008952091E80022FD1AC041
:100BE00080916D08882389F0853089F08091EB0031
:100BF00085FD0FC02091E4003091E50042175307B6
:100C0000F9F29150E1F684E0089582E0089583E0DE
:100C1000089581E00895EF92FF920F931F93CF9371
:100C20007C018B010E94DA05C82F811117C08091C9
:100C3000E80085FD0BC08091E8008E778093E80086
:100C40000E94DA05882399F3C82F08C0F701819123
:100C50007F018093F1000150110949F78C2FCF914A
:100C60001F910F91FF90EF90089580916F0887FF7B
:100C700013C08091E80082FF06C08091E8008B7766
:100C80008093E80004C080916D088111F2CF08952F
:100C900080916D088823D9F38091E80080FFF8CF18
:100CA0008091E8008E77ECCF982F9093E900242F65
:100CB000762F50E0891731F07091EC002091ED0013
:100CC0005091F00021FD07C09F5F973071F780932E
:100CD000E90081E008953091EB003E7F3093EB0016
:100CE0003091ED003D7F3093ED003091EB003160AD
:100CF0003093EB007093EC002093ED005093F000E4
:100D00002091EE0027FDE0CF80E00895CF92DF92A2
:100D1000EF92FF920F931F93CF93DF93C8EDD0E034
:100D200088818F7E8883E7EDF0E080818160808319
:100D300084E082BF81E08093600888818E7F888311
:100D400002EE10E0F80110821092DA0081EEC82E57
:100D5000D12CF601108288818F7788838881806802
:100D6000888388818F7D888319BC10926D081092CA
:100D70006E0810926C0810926B0890EEE92EF12C20
:100D8000F70180818B7F808388818160888342E046
:100D900060E080E00E945406F60180818E7F8083AF
:100DA000F801808181608083808188608083F70181
:100DB00080818E7F8083888180618883DF91CF915D
:100DC0001F910F91FF90EF90DF90CF900895FC015D
:100DD000809175089091760886179707A0F06115A5
:100DE000710529F49091E8009E779093E80090E0D7
:100DF0006115710551F4911108C08091E80082FFDE
:100E000034C080E00895BC01F2CF80916D08882342
:100E1000C1F18530C1F18091E80083FD30C080913F
:100E2000E80082FDEACF8091E80080FFE1CF809169
:100E3000F3002091F200382F6115710519F0283068
:100E4000310558F091E02830310509F090E020910B
:100E5000E8002E772093E800CBCF81918093F100BA
:100E6000615071092F5F3F4FE7CF80916D08882354
:100E700041F0853041F08091E80083FFBECF81E0F2
:100E8000089582E0089583E00895089580916208AE
:100E900008952FB7F8948091070890910808A091C1
:100EA0000908B0910A082FBF089580959091020813
:100EB0009823909302080895809102089091010868
:100EC000892B90910008892B8093FA06E0914B08BA
:100ED000F0914C08309731F00280F381E02D8AEFD9
:100EE00096E009940895E92FEE0FE90FEE0F8E0FAB
:100EF000982F977086958695869525E0829FF001BC
:100F00001124EE51F84F50E040E080E0219130E0B4
:100F1000092E02C0369527950A94E2F721703327EF
:100F2000042E01C0220F0A94EAF7822B4F5F5F4F15
:100F30004530510559F70895E92FEE0FE90FEE0FEF
:100F40008E0F982F977041E001C0440F9A95EAF7F1
:100F500086958695869595E0899FF0011124EE513E
:100F6000F84F30E020E070E05191DF011197CB01A4
:100F7000022E02C0969587950A94E2F781708195BA
:100F80008527842385278C932F5F3F4F253031059C
:100F900059F70895882341F080959091010889239D
:100FA000809301080C945C070895882339F0909190
:100FB0000108982B909301080C945C0708958823EE
:100FC00021F00E9455070C945C070895882339F09E
:100FD00090910208982B909302080C945C07089556
:100FE0002091C7073091C8072817390771F09093EF
:100FF000C8078093C707E0914B08F0914C083097E1
:1010000021F00084F185E02D099408952091C50711
:101010003091C6072817390771F09093C60780935F
:10102000C507E0914B08F0914C08309721F00680FD
:10103000F781E02D0994089510920108109200089C
:101040000E945C0790E080E00E94060890E080E04B
:101050000C94F00760933F08709340088093410818
:10106000909342080C941C080F931F9341E050E0AA
:1010700060E070E004C0440F551F661F771F8A951B
:10108000D2F7CB01BA01609570958095909500914B
:101090003F08109140082091410830914208602398
:1010A0007123822393231F910F910C942A080F938D
:1010B0001F9341E050E060E070E004C0440F551F12
:1010C000661F771F8A95D2F780913F08909140085C
:1010D000A0914108B09142088A019B01082B192B6D
:1010E0002A2B3B2BC901B8011F910F910C942A08A0
:1010F0006093030870930408809305089093060892
:101100000C941C08E0914B08F0914C08309721F0AA
:101110000190F081E02D099480E00895CF93DF9352
:10112000EC0181E0898B809102089F81892B80935B
:101130000208809101089885892B809301080E94FC
:101140005C07EA81FB81309739F06C897D89CE019B
:101150000696DF91CF910994DF91CF910895EF9298
:10116000FF920F931F93CF93DF93EC018A85811138
:1011700039C0EB80FC8087E5F81A26E12E9DC0017E
:101180002F9D900D1124DC01AD5CBD4F1496ED91A7
:10119000FC911597309731F054966D917C91875C56
:1011A0009D4F099586E18E9D80018F9D100D112424
:1011B0000D5C1D4FF80187810E945507F80180855D
:1011C000982F9095809101088923809301080E94AF
:1011D0005C07188219861B861E821D821092DE070C
:1011E0001092DD07DF91CF911F910F91FF90EF904B
:1011F0000895FA01811101C0FB010994E1E2F7E0D1
:10120000818360834283339697E0E33CF907C1F71B
:101210000895FC01EE0FFF1FE80FF91FEF5DF84F77
:10122000618340832283089580917708837011F051
:101230001092DE04809177088C7F80937708089560
:1012400080917708837011F41092DE048091770802
:101250008C7F81608093770808950C94FE08972F07
:1012600070E026E0929F600D711D1124FB0140E3A8
:10127000849FE00DF11D1124EE0FFF1FE950FA4F7E
:1012800025913491C9012238310591F1C0F52133FE
:10129000310509F490C028F52932310509F484C0DC
:1012A0002A32310509F48EC0211540E5340708F0D3
:1012B000A4C0211540E4340708F026C12F3B3105B6
:1012C00008F087C0283A310508F013C1253A3105E6
:1012D00008F006C12430310500F521303105E9F070
:1012E0003CC02533310509F458C029333105E1F6F6
:1012F00020914308237089F080EE90E00895233E0A
:10130000310571F158F4203E3105E9F0223E3105F6
:1013100059F62091430822FD1EC00895263E31054E
:1013200051F1273E310571F1243E310509F0BCCF62
:101330002091440821FFF1CF8091430884FD0DC026
:1013400087EE90E008952091430820FD0CC1309174
:10135000440830FFE2CF24FF09C190E080E0DDCFF8
:101360002091430822FD05C13091440830FDC4CFCF
:1013700024FFD3CFF2CF2091430823FFCECF24FD0B
:10138000ECCFDECF2091430823FDF6C03091440816
:1013900031FFEECF84EE90E008952091430825FFC1
:1013A000BCCF89E290E008952091430825FFB5CF96
:1013B00085E390E008952091430826FFAECF8AE2AE
:1013C00090E008952091430826FFA7CF81E390E0A5
:1013D0000895283E310558F4213E310508F09DCF8F
:1013E0002F3B310509F0B9CF80E090E708953A9599
:1013F00021153F4108F491CFB0CF211583E538077F
:1014000038F5211592E5390708F087C0211541E527
:10141000340708F07DC0C90164E0969587956A9508
:10142000E1F7382F3370822F86958695837040E2DE
:10143000849FC0011124932B237041E050E002C02F
:10144000440F551F2A95E2F7842B952B9C6808952D
:10145000211589E53807F0F4211598E5390708F0DA
:101460006FC0211544E5340708F077CFA901437018
:10147000552781E090E002C0880F991F4A95E2F756
:101480002695269540E2249F90011124822B932BD0
:101490009A68089521158AE5380708F05ECF822FF3
:1014A0008F704091430842FF05C023FF4EC0822F3A
:1014B000877084609091440890FF07C0982F9871BE
:1014C000983009F048C0877F816044FD877E94E0B2
:1014D000369527959A95E1F72F70922F9069089588
:1014E000255AE22FF0E0EF53F94F808190E09064AD
:1014F0000895285AE22FF0E0EE0FFF1FEC53F94F4A
:101500008081918194640895C9019F70906A0895C3
:10151000922F8827816F906A0895A90143705527FB
:1015200081E090E002C0880F991F4A95E2F7269566
:10153000269540E2249F90011124822B932B86CF85
:10154000922F8827806F906A089522FFB3CF822F51
:101550008B708860AFCF982F9171913009F0B5CF23
:101560008E7F8860B2CF89E390E0089583EE90E0AB
:10157000089582EE90E0089586EE90E00895BF927F
:10158000CF92DF92EF92FF920F931F93CF93DF934F
:101590008C01C0903F08D0904008E0904108F09046
:1015A00042088091030890910408A0910508B09129
:1015B0000608C82AD92AEA2AFB2ACFE1D0E0BC2EA5
:1015C000D701C6010C2E04C0B695A79597958795AF
:1015D0000A94D2F780FD0EC0219788F7B12C8B2D8D
:1015E000DF91CF911F910F91FF90EF90DF90CF90FF
:1015F000BF900895B8018C2F0E942F09019761F3C5
:10160000EECFCF93DF939C013A9521153F4168F5CA
:10161000EC01CC27D170DC01AA27B270AC014427C1
:1016200054709C012227387094FF11C080E1CD2BAB
:1016300009F480E0AB2B09F08062452B09F080644F
:10164000232B09F08068FB01DF91CF91099481E0A1
:10165000CD2B09F480E0AB2B09F08260452B09F01B
:101660008460232B81F38860EECFDF91CF910895C2
:101670009F92AF92BF92CF92DF92EF92FF920F9321
:101680001F93CF93DF93C82F6A017B0120E030E0E6
:1016900040EF52E4CB01B6010E94A829181634F499
:1016A000C12CD12C80EFE82E82E4F82E20E030E02F
:1016B0004FE753E4C701B6010E9479286B017C0112
:1016C0008FE3C802E0011124C651DD4F06E010E0AF
:1016D000FE013296849131979490FE01B490682F68
:1016E00070E090E080E00E941C29A70196010E9412
:1016F000AD290E94EB28A62E692D70E090E080E0D5
:101700000E941C29A70196010E94AD290E94EB2886
:10171000962E6B2D70E090E080E00E941C29A701BE
:1017200096010E94AD290E94EB282A2D492DC8015F
:101730000E94090923960F5F1F4F0B31110509F015
:10174000C7CFDF91CF911F910F91FF90EF90DF9066
:10175000CF90BF90AF909F900895E091CF07F09108
:10176000D00781E0309709F40895838B0688F789C4
:10177000E02DF8CF880F991F880F991F8058944744
:10178000E091DB07E80FF92FF11D85919491089501
:10179000CF93DF93AFEAB6E043EB56E0C1E0D0E091
:1017A0008D91E82FE295EF70F0E061A18F709E01BE
:1017B00001C0220F8A95EAF7922F9095962391A364
:1017C00082A1822B82A34A175B0751F7DF91CF9149
:1017D0000895CF9384E090E00E943728C82F81E2DB
:1017E00090E00E943728982F8C2FCF910895CF93A7
:1017F000DF9300D00F92CDB7DEB790916D08943093
:1018000019F589837B836A8382E08093E9008FEFF7
:101810009091E800815095FD06C095ED9A95F1F7FD
:1018200000008111F5CF8091E80085FF0DC050E0E8
:1018300040E063E070E0CE0101960E940B068091CB
:10184000E8008E778093E8000F900F900F90DF9163
:10185000CF910895BC0184E00C94F70BBC0183E0A8
:101860000C94F70BCF93DF93EC0181E08093E900B8
:101870008FEF9091E800815095FD06C095ED9A9507
:10188000F1F700008111F5CF8091E80085FF14C0C9
:1018900050E040E068E070E0CE010E940B068091CD
:1018A000E8008E778093E80088E0FE01A3E6B8E0C8
:1018B00001900D928A95E1F7DF91CF910895539AA7
:1018C0003BB1377F2BB128604FB7F89481E297E0A6
:1018D000FC015191CF0168E02BB9000000C057FF17
:1018E0003BB9550F000000C000C000C03BB900C0AC
:1018F0006A9591F7F7E0833C9F0751F74FBF8FE55B
:1019000094E00197F1F700C000000895809110075E
:10191000811111C08091D80080618093D8008AE144
:101920008A95F1F700C09091D900892F817090FFBE
:1019300082E08093100781E090911007913009F0C8
:1019400080E008958F929F92AF92BF92CF92DF92E4
:10195000EF92FF920F931F93CF93DF938091CB056C
:10196000C4E0D0E0882311F0D0E0C0E08FEAC82EB8
:1019700086E0D82EAE01495C574F7A018A01912C3E
:10198000AA24A394B12C25E0822EF60181916F0147
:10199000E82FE295EF70F0E021A18F70A50102C061
:1019A000440F551F8A95E2F7CA01922F982B91A3F5
:1019B00092A18095892382A350EA5A95F1F7E2EF2C
:1019C000F6E020E050E040E03191A32FA295AF7007
:1019D000B0E090968C9190E03F7002C0959587950D
:1019E0003A95E2F780FD3CC0C501042E01C0880F86
:1019F0000A94EAF7282B4F5F5F4F4630510521F7D5
:101A0000F8018081821729F0208380923C0199247B
:101A100093940E94C80B0F5F1F4FF3EBCF16F6E0B5
:101A2000DF0609F0B2CF80913C01882359F0815044
:101A300080933C018823B1F08FE99FE00197F1F793
:101A400000C00000892DDF91CF911F910F91FF9071
:101A5000EF90DF90CF90BF90AF909F908F900895C0
:101A600080E0C8CFC25BD74F84E0F70191917F013E
:101A700099938150D1F7E6CF6CEE7EEF90E080E055
:101A80000E94732860E082E090E00E94552860E0A8
:101A900083E090E00E9455281092030810920408F9
:101AA000109205081092060860E084E090E00E9421
:101AB000552860E081E290E00E94552860E085E0D2
:101AC00090E00E94552860E086E090E00E94552852
:101AD0006FEF87E090E00E94552840E050E0BA01A7
:101AE00088E090E00E94672860E08DE090E00E942E
:101AF000552840E050E0BA0188E190E00E94672854
:101B000060E087E190E00E94552840E050E0BA0193
:101B10008CE190E00E94672860E080E290E00E9403
:101B2000552840E050E0BA0188E190E00E94672823
:101B300040E050E0BA018FE090E00E94672840E06A
:101B400050E0BA0183E190E00C94672810920208FB
:101B5000ECEFF6E086E0DF011D928A95E9F70C9440
:101B60001C081F93CF93DF93CDB7DEB7AA970FB6AC
:101B7000F894DEBF0FBECDBF8FE698E02091F10054
:101B8000FC012193CF01F8E087379F07B9F78091D7
:101B90007008833009F46FC0B8F4813009F446C08E
:101BA000823009F4B0C08091E80083FF7BC280914D
:101BB0006F08909170089A3008F074C2E92FF0E035
:101BC000EA5AF54D0C9421288A3009F48BC08B30E9
:101BD00009F46EC0893039F780916F08813219F7A6
:101BE00080917308909174080297E8F68091E8005C
:101BF000877F8093E8008091E80082FF37C0909152
:101C0000F3008091F200029729F48091F1008B7F1C
:101C1000813021F48091F100809362088091E80086
:101C20008B778093E8000E943506BDCF80916F08C6
:101C3000813A09F0B8CF8091E800877F8093E8006F
:101C40008091730890917408892B61F468E083E6B1
:101C500098E070E00E94E7068091E8008B7780931F
:101C6000E800A1CF60E090E080E0F3CF80916D08C4
:101C70008111C1CF98CF80916F08813A09F093CF3D
:101C80008091730890917408892B09F08CCF809112
:101C9000E800877F8093E8008091E80080FFFCCF18
:101CA0008091D9058093F1008091E8008E77B9CFBB
:101CB00080916F08813209F076CF809173089091FE
:101CC0007408892B09F06FCF8091E800877F80939B
:101CD000E8000E943506809171088093D9050E9422
:101CE000A60D61CF80916F08813209F05CCF8091A1
:101CF000E800877F8093E8000E9435068091720893
:101D00008093610850CF80916F08813A09F04BCFE2
:101D10008091E800877F8093E8008091E80080FF51
:101D2000FCCF80916108BECF803899F0823809F0ED
:101D3000B9C1809173088F70873008F0B3C1809368
:101D4000E9008091EB0085FB882780F91092E9007B
:101D500006C080916B0890916C08911182609091FF
:101D6000E800977F9093E8008093F1001092F100D3
:101D70008091E8008E7792C1882309F480C1823077
:101D800009F090C180917108811183C1809173081D
:101D90008F702FEF280F263008F084C18093E90060
:101DA0002091EB0020FF75C1933031F48091EB005E
:101DB00080628093EB006DC19091EB0090619093F5
:101DC000EB0021E030E001C0220F8A95EAF7209372
:101DD000EA001092EA008091EB008860EACF81115E
:101DE00061C1109171081F778091E3008078812B89
:101DF0008093E3008091E800877F8093E8000E9451
:101E000035068091E80080FFFCCF8091E300806878
:101E10008093E30082E0111183E080936D0842C15A
:101E20008058823008F03EC180917108909172080C
:101E30008C3D23E09207A1F583E08A838AE28983BF
:101E40004FB7F894DE01139620E03EE051E2E32F15
:101E5000F0E050935700E49120FF03C0E295EF704B
:101E60003F5FEF708E2F90E0EA30C0F0C7968D9301
:101E70009D932F5F243159F74FBF8091E800877FF2
:101E80008093E8006AE270E0CE0101960E94E706C6
:101E90008091E8008B778093E80004C1C096E7CF7B
:101EA0004091730850917408292F3327233031054E
:101EB00009F444C078F52130310509F46FC08BE393
:101EC00090E0E1E3FAE02230310509F0EBC0209127
:101ED000E800277F2093E80020917508309176086C
:101EE0008217930708F49C0140E02115310509F0A1
:101EF00064C0411162C08091E80082FDC9CF809129
:101F00006D08882329F2853019F28091E80083FF5B
:101F1000F2CFBECF21323105A9F12232310509F0CD
:101F2000C1C04115510509F443C04130510509F0C4
:101F3000B9C082E390E0E7EBF9E0C9CF992781309F
:101F40009105C1F0009759F0029709F0ABC0EEE798
:101F5000FAE0E4918E2F90E0EEE7FAE007C0E0EEC1
:101F6000FAE0E4918E2F90E0E0EEFAE0009709F4B9
:101F700099C0ADCFE8ECFAE0E4918E2F90E0E8EC68
:101F8000FAE0F4CF4115510571F04130510509F0E7
:101F900089C089E090E0ECE5FAE099CF82E190E039
:101FA000ECE6FAE094CF89E090E0E3E4FAE08FCF4A
:101FB00088E490E0E9EEF9E08ACF80916D0888230B
:101FC00009F466CF853009F463CF8091E80083FD82
:101FD0005FCF8091E80082FD8ECF8091E80080FF86
:101FE00084CF9091F3008091F2002115310519F012
:101FF0008830910550F041E0089709F040E0809169
:10200000E8008E778093E80070CF44914093F10010
:102010003196215031090196E8CF803809F042C04D
:102020008091E800877F8093E80080916E0880931C
:10203000F1009ECE811136C010917108123090F5DA
:102040008091E800877F8093E80010936E080E94DB
:102050003506112311F084E005C08091E30087FD6F
:10206000FACF81E080936D0842E061EC81E00E944C
:10207000540642E261EC82E00E94540613C0809153
:102080007108813079F481E0933009F080E0809329
:102090006C081092E9008091E800877F8093E80047
:1020A0000E9435068091E80083FF0AC08091E80015
:1020B000877F8093E8008091EB0080628093EB0043
:1020C000AA960FB6F894DEBF0FBECDBFDF91CF91B9
:1020D0001F9108950E94A60D2FEF84E39CE02150EC
:1020E00080409040E1F700C0000081E08093E00074
:1020F00080E28093D8001092C9008FE19EE401979E
:10210000F1F700C0000087E090EBDC0180937F08CE
:1021100090938008A0938108B093820888E19CE0A6
:102120000FB6F894A895809360000FBE909360005E
:10213000FFCF8823B1F19CEF980F913A78F4ECEF40
:10214000F6E022E037E09191891303C0DF01119797
:102150001C922E173F07B9F70C945C0790E2980F7A
:10216000983050F4877091E001C0990F8A95EAF792
:10217000892F0E945507F0CF9BE5980F933020F4EC
:1021800090E080E00C94060898E5980F973120F4D1
:1021900090E080E00C94F0078F3B19F41092FB065E
:1021A000DBCF0895CF93DF93EC010E949910CE010D
:1021B000805E9109089720F06AEC77E0209711F48F
:1021C0006FED77E0CE01DF91CF910C94010B809100
:1021D000140790911507009711F00E94D2101092E9
:1021E0001507109214070895809112079091130714
:1021F000009731F00E94D21010921307109212072C
:1022000008950C94F4108091D907882369F01092F6
:10221000D9078091DB07882321F082EE90E00C94AF
:10222000D21083EE90E0FBCF08958091DB078111FF
:1022300003C080EE0C9499108091CE07823019F47F
:1022400083EE0E9499101092CE0708950F931F936A
:10225000CF93C82F882309F46EC08CEF8C0F813A7E
:10226000A8F50CEF16E082E097E0F8012191C21783
:10227000F9F08E179F07D1F7EFEF80E0D8019D911D
:102280008D01C91781F0EF3F19F4911101C0E82FBA
:102290008F5F863099F7EF3F31F00E2E000CFF0B69
:1022A000E650F94FC283CF911F910F910C945C07B8
:1022B000ECEFF6E02191C21303C0DF0111971C92ED
:1022C0008E179F07B9F70E945C07D6CF80E28C0F6C
:1022D000883068F4C77021E030E001C0220FCA9551
:1022E000EAF780910208822B80930208DCCFEBE5AD
:1022F000EC0FE33050F4F0E0EF53F94F808190E0C1
:10230000CF911F910F910C940608E8E5EC0FE7318F
:1023100060F4F0E0EE0FFF1FEC53F94F80819181E4
:10232000CF911F910F910C94F007CF3B21F481E0E6
:102330008093FB06B8CFCF911F910F910895CF9353
:10234000C82F0E942611C93349F42FEF87EE93E07E
:10235000215080409040E1F700C000008C2FCF91C9
:102360000C9499100F93CF93DF93C42FD22FFC01BD
:102370008281882399F04093DF070E944907909358
:10238000C4078093C307C77081E001C0880FCA9556
:10239000EAF7DF91CF910F910C94E6078091DF0768
:1023A000841340C02091C3073091C4079FB7F894AD
:1023B00040910708509108086091090870910A0837
:1023C0009FBF421B530B4E3B510560F5C0E2CD0F42
:1023D0008D17C1F090E2980F983048F4877091E023
:1023E00001C0990F8A95EAF7892F0E94DF07C8304C
:1023F00048F481E09D2F977001C0880F9A95EAF705
:102400000E94E607802F0E949F11C83090F4D77079
:1024100081E001C0880FDA95EAF7DF91CF910F9143
:102420000C94DF07C77081E001C0880FCA95EAF7F6
:10243000F4CFDF91CF910F910895CF92DF92EF9279
:10244000FF920F931F93CF93DF93EC018AE0C82E86
:10245000FE018491882309F481C0813009F03EC0D7
:1024600031968491813039F42296FE0184910E9444
:102470009F112196EDCF823031F42296FE01849196
:102480000E942611F6CF833031F42296FE0184910A
:102490000E949910EECF843009F05EC02296FE01B2
:1024A000249190E080E0FE0131962053330B2A30D6
:1024B000310548F00197E8F2EFE9FFE03197F1F7D5
:1024C00000C00000F7CFC89EA001C99E500D112486
:1024D000C901840F951F2491EF01E5CFE82FF0E0AB
:1024E000EB5BFB4FD490082F06950695069510E000
:1024F000F801EB5CFB4FE4908770F12C082E02C0D2
:10250000F594E7940A94E2F721E0E222FF240B5DC0
:102510001B4FF801049110E002C0159507958A95AC
:10252000E2F701701127E114F10419F081EE0E9425
:1025300026110115110519F086EE0E9426118D2D28
:102540000E949F11012B19F086EE0E949910EF282E
:1025500009F48FCF81EE9CCFEF018BCFDF91CF912C
:102560001F910F91FF90EF90DF90CF900895CF9340
:10257000DF93EC01805E9109089720F065ED77E02C
:10258000209711F466EE77E0CE010E94010B8C2FAC
:10259000DF91CF910C942611CF93DF93EC010E9431
:1025A000B712CE01DF91CF910C94D2100F931F93ED
:1025B000CF93DF93EC01FB018081918125E0289F7F
:1025C000F001299FF00D1124E15BFD4F0181128183
:1025D0008881813039F4C801DF91CF911F910F912B
:1025E0000C94CC128AE290E00E94CC1284E390E03A
:1025F0000E94CC12C8010E94CC1281E08B87DF912F
:10260000CF911F910F9108950F931F93CF93DF9355
:1026100086539D4526E0289F8001299F100D112497
:102620000C571E4FD0E0C0E0FE01E00FF11F859176
:10263000949189322DE5920731F00E94CC12CE019F
:102640000196229729F4DF91CF911F910F91089560
:10265000EC01EACFCF93C82F0E94AD0BCC2399F0A9
:1026600060E870E080E090E00E942A0881EE90E04F
:102670000E94B71280EE90E00E94B71282EE90E0C6
:10268000CF910C94B71281EE90E00E94D21080EEB0
:1026900090E00E94D21082EE90E00E94D21061E0A1
:1026A00070E080E090E0CF910C942A0880911207AE
:1026B00090911307009761F485EE90E00E94B712A5
:1026C00085EE90E0909313078093120781E00895C0
:1026D0000E94D2101092130710921207F7CF809128
:1026E000D90781110EC081E08093D9078091DB0763
:1026F000882321F082EE90E00C94B71283EE90E0F4
:10270000FBCF08958091DB07811105C080EE0E9408
:10271000261181E0089581E08093CE07FACF45E04D
:1027200050E06CE170E087E798E00C9445289091C8
:102730007708937059F08093780860937908493747
:1027400008F048E740937A080C948F130895E7E760
:10275000F8E0438128E0421B08F440E08181628177
:1027600090E00C949713E7E7F8E0438128E0420FEC
:1027700008F44FEF8181628190E00C949713E7E7B2
:10278000F8E0628128E0621B08F460E08181438107
:1027900090E00C949713E7E7F8E0628128E0620F7D
:1027A00008F46FEF8181438190E00C949713E7E781
:1027B000F8E08181438162818850990B0C949713D2
:1027C000E7E7F8E0818190E04381628108960C940C
:1027D0009713E7E7F8E024813AE0230F08F42FEF9E
:1027E00024830C948F13E7E7F8E024813AE0231B5D
:1027F00008F420E024830C948F1390917708937051
:1028000099F0811109C09460909377081092DE04CA
:10281000662351F00C948F13833010F09860F4CF3E
:10282000880F880F982BF0CF0895809177088695B0
:102830008695815009F482E061E00C94FD1380914B
:102840007708869586958F5F833008F081E061E098
:102850000C94FD13E7E7F8E089E080838091DA05C6
:102860009091DB05A091DC0581839283A3838FE7A0
:1028700084830C948F13CF9380913F0190914001FA
:102880000196E1F48091F7049091F8040296B1F476
:1028900081E090914A08911101C080E0C82FC17079
:1028A000809134088C1741F0882351F00E9414095C
:1028B0000E948F13C0933408CF91089581E0EECF2A
:1028C0000E942009F5CF8F929F92AF92BF92CF9234
:1028D000DF92EF92FF920F931F93CF93DF9380913C
:1028E000DD04C0E0D6E18F3F09F0D0C0809116072B
:1028F00090911707A0911807B09119072FB7F89476
:10290000C0900708D0900808E0900908F0900A08E5
:102910002FBF97018601081B190B2A0B3B0BEFB742
:10292000F894409107085091080860910908709147
:102930000A08EFBF409316075093170760931807D4
:10294000709319074091C9075091CA076091CB074E
:102950007091CC074F3FEFEF5E076E077E0709F0DF
:10296000A1C0C0910B08EBE0F8E06C2F70E001977C
:10297000AF4FBF4F8C199D09AE09BF09C713AEC039
:1029800060930B088091C9079091CA07A091CB076B
:10299000B091CC0721E08132FEE49F07A105B1058B
:1029A00008F420E0D0E081323EE49307A105B105B0
:1029B00040F430917708D32FD37019F0D32FD695E8
:1029C000D69530912007321759F020932007813295
:1029D0009E44A105B10508F494C081E080933508B8
:1029E0008091DE04813009F4A5C0882309F48CC0ED
:1029F000823009F4FAC1833009F401C2DF91CF912A
:102A00001F910F91FF90EF90DF90CF90BF90AF900C
:102A10009F908F900895D29FF001D39FF00D1124C5
:102A2000ED5CFD4F428953894115510511F44EEB80
:102A300050E0D29FF001D39FF00D1124ED5CFD4FCB
:102A40008681882311F1258536856FB7F8948091AA
:102A5000070890910808A0910908B0910A086FBF73
:102A6000821B930B4817590780F4CD9F80011124D6
:102A70008189811105C0C8018D5C9D4F0E948E081F
:102A8000C801875C9D4F0E94AF08CF5F2C2F30E0BC
:102A90008091DD04082E000C990B821793070CF02F
:102AA000BACF24CF4801590180949094A094B09457
:102AB00084169506A606B70660F44FEF5FEFBA01DD
:102AC0004093C9075093CA076093CB077093CC0714
:102AD00048CF400F511F621F731FF2CF418D528D9F
:102AE0006A01F12CE12C8C159D05AE05BF0520F483
:102AF00061507F5F329642CF400F511F528F418FFE
:102B0000F8CF0E943B146CCF1092CC058091160731
:102B100090911707A0911807B091190780931C078F
:102B200090931D07A0931E07B0931F0781E0809329
:102B3000DE0464CF80914201D8133BC090917708A6
:102B400093702091410130E081E09217130609F45F
:102B500080E081708093CE05DD2369F1D13091F55D
:102B600010917808D0907908E0917A08F0E0EB5362
:102B7000FB4FD11037C0F4901F2DCF2D95E9A92E12
:102B800095E0B92ED12CC12CF50181915F01909176
:102B9000CD05892331F0212F4F2D6C2FC6010E94C6
:102BA0000909FFEFCF1ADF0A26E3C216D10461F745
:102BB00009C081E0CECF882329F040E060E080E0CA
:102BC0000E942D098091CC058F5F8093CC0582E017
:102BD0008093DE048091CE05811178C0D11179C037
:102BE00083E0A5CFED2CF12CC4910C2FEC2FF0E05D
:102BF00026E0129FC00111242FEF30E0B9010E949E
:102C0000F927812F90E0880F991FA5E5A69FA001C5
:102C1000A79F500D1124841B950B982F990F890F96
:102C2000D901AE19BF09AE9FA001AF9F500DBE9F45
:102C3000500D1124152FD89ED0011124AB2FBB2786
:102C40006901CA1ADB0ACE9ED001CF9EB00DDE9E6E
:102C5000B00D11246901C81AD108CE9CC001CF9CC7
:102C6000900DDE9C900D1124892F9927281B390B7C
:102C70002E9FC0012F9F900D3E9F900D1124F92E85
:102C800062307105A1F050F46115710509F476CF39
:102C90006130710581F0F52E1B2F70CF6430710506
:102CA00069F080F06630710509F468CFF4CFFC2E2E
:102CB000C52F192F63CFFC2ECB2F60CFF52E1C2FE5
:102CC000C92F5CCFC52F102FFB2E58CFDD2309F461
:102CD00095CE80913F01909140010196B1F0809195
:102CE0001A0790911B07019790931B0780931A076F
:102CF000892B59F48FEF9FEF9093400180933F0110
:102D000081E0809335080E943B1480913508882328
:102D100009F474CE40E060E080E00E942D098091CB
:102D20003F01909140018F3F980709F43EC040E079
:102D300050E060EF72E40E94380BC0914A08D0E086
:102D400005E418E08AE4E82E88E0F82E209751F197
:102D5000F80121918F012F3F11F1B12C45E024039F
:102D600090011124C9018B539A4F6C01FC0184918D
:102D700098EC883C20F490E0843608F094E62091AA
:102D80003608222301F12CE9280F2436F0F4F6014D
:102D900034962491B394F4E1BF1223C02197E01636
:102DA000F106A1F61092350829CE8091F704909192
:102DB000F8048E3FEFEF9E0709F4BFCF40E050E0EC
:102DC00068EC72E4B8CF843610F3F60133962491A0
:102DD0003197449131976491891B990B0E9409099D
:102DE000D6CF12160CF4BACFD9CFD093420180912E
:102DF00077088370809341010E945F0CF1CE40916F
:102E00001C0750911D0760911E0770911F072FB777
:102E1000F8948091070890910808A0910908B09152
:102E20000A082FBF841B950BA60BB70B8C32914061
:102E3000A105B10508F4E2CD1092DE04DFCD90913A
:102E40004A086623D9F09530A0F4E5E4F8E030E0D4
:102E500020E041914F3F41F42B5B374FF9018083D4
:102E60009F5F90934A0805C02F5F3F4F2530310583
:102E700081F781E0809335080C943B149923C9F3C2
:102E8000E5E4F8E030E020E04191841307C02B5BDB
:102E9000374F8FEFF90180839150E3CF2F5F3F4F82
:102EA0002530310589F7E5CF8091D3079091D4077C
:102EB0008036910511F50E94AD0B89E30E94261121
:102EC0002FEF8EE595E0215080409040E1F700C063
:102ED000000089E30E9499108091110791E08927F1
:102EE0008093110760E082E00E941F176091110734
:102EF00081E00E941F1780E0089581E0089580918D
:102F0000DC07882349F085EE0E9499101092DC07B7
:102F100060E082E00C941F1708958091DC07811116
:102F20000EC08091110781110AC085EE0E94261102
:102F300081E08093DC0761E082E00E941F1781E05E
:102F4000089525E030E030931B0720931A07082EE0
:102F5000000C990B9093400180933F0181E0809396
:102F600035080C943B148F929F92AF92BF92CF92F0
:102F7000DF92EF92FF920F931F93CF93DF93CDB722
:102F8000DEB7CDB6DEB62091DB07FC01EE0FFF1FEA
:102F9000EE0FFF1FEC50F447E20FF11D8591949165
:102FA000211114C00E94CC120FB6F894DEBE0FBEE1
:102FB000CDBEDF91CF911F910F91FF90EF90DF90E9
:102FC000CF90BF90AF909F908F900895213061F780
:102FD0004C01ADB6BEB60E94AD0B82EE90E00E94F1
:102FE000B71204E010E088EE881683E0980634F407
:102FF00082E690E00E94CC1203E010E0EDB7FEB74D
:10300000E01BF10B0FB6F894FEBF0FBEEDBF8DB7FE
:103010009EB701967C01FC012AE030E08114910406
:10302000C1F40E0D1F1DF80182918F01811118C08E
:1030300082E690E00E94CC120E151F05A1F782EEE9
:1030400090E00E94D2100FB6F894BEBE0FBEADBE87
:10305000ABCFC401B9010E940D2881934B01DECF93
:1030600090E0885A9F4FE6CF8F929F92AF92BF9287
:10307000CF92DF92EF92FF920F931F93CF93DF9344
:10308000CDB7DEB72F970FB6F894DEBF0FBECDBF1A
:103090004B875C876D877E878F878E859F85892B81
:1030A00031F0CA0189238F3F11F00C948D2185E006
:1030B000FE013B96DE01169601900D928A95E1F78E
:1030C00089859A85892B41F01E81FF80812F8F2170
:1030D0008F3F11F00C9479212F960FB6F894DEBF34
:1030E0000FBECDBFDF91CF911F910F91FF90EF9059
:1030F000DF90CF90BF90AF909F908F9008950E94E7
:10310000BF0A082F682F89819A810E949C07E12FAE
:10311000F0E026E0F29EE00DF11D112430E3039F64
:10312000E00DF11D1124EE0FFF1FE950FA4F05913C
:1031300014918885811105C0F884F1103EC0912C4E
:1031400056C08091DD048F3FB9F393E3C92E92E01E
:10315000D92EB12CA12CFF24F3948091DD04082EEC
:10316000000C990B8A159B053CF3D60116968C91A1
:1031700016978823D9F019968D919C918017910705
:1031800039F48091DD079091DE078017910771F087
:10319000F601F786148703878189811103C0C60170
:1031A0000E948E08C60106960E94AF08FFEFAF1A74
:1031B000BF0A26E1C20ED11CD0CF1092C9071092CF
:1031C000CA071092CB071092CC078F812E8136E070
:1031D000839FC001112487509B4F820F911DDC01FA
:1031E000EC90BFEF99249394EB1609F4A8CF80904C
:1031F0000B08C92CD12CC601880D911D099764F1CB
:1032000088E090E05C01AC18BD08B601645F774FC0
:10321000A5018CE098E00E944B2AB6016C5E774FC6
:10322000A50184E198E00E944B2AA501440F551F97
:10323000B601660F771F6C5D774F84E298E00E94BD
:103240004B2AB601645E774FA5018CE198E00E949D
:103250004B2A8A9480920B0880910B0890E02E2DC7
:1032600030E0A901440F551F475D5A4F220F331F0D
:10327000B901665D7A4F21E0280F991508F4E7C07F
:1032800080930B080E94F410FF2071F08091DB07FF
:10329000813051F48091CE07813031F483EE0E9469
:1032A000261182E08093CE078091DA07811111C246
:1032B0000138BDE51B0708F06BC10F37EDE51E07B0
:1032C00008F05AC10A33FDE51F0708F02FC1063385
:1032D0002DE5120708F038C10C34110508F0CCC0F8
:1032E0000A34110508F017C4C8014E970A9708F46C
:1032F00012C48091D8078823B1F080913F08909143
:103300004008A0914108B09142080097A105B1057D
:1033100041F057E0B695A795979587955A95D1F7BF
:1033200080FF0E94AD0BC80197558F3F910511F0AA
:1033300008F0C0C42091DD04022E000C330B2817C6
:10334000390714F48093DD04288536E1389F600145
:10335000399FD00C1124F601ED5CFD4F7F01208BCD
:103360008681222309F499C4128701878F5F86839F
:103370000E944907D7011E969C938E931D9717961E
:103380001C9217978091010890910208892B18963A
:103390008C931897ED91FC911197309739F05496D2
:1033A0006D917C91C601875C9D4F09951093DE0756
:1033B0000093DD079885992309F4FAC51092DF0779
:1033C0000230FCE51F0708F498C506312CE512070A
:1033D00038F098012B5F3C452930310508F08DC548
:1033E0000E94E90B909344088093430800313CE528
:1033F000130709F451C508F0DFC408309CE519072C
:1034000009F440C508F0AEC40430BCE51B0709F45C
:103410002DC508F099C40230FCE51F0709F420C54A
:1034200080914308826003301C4509F41CC56091FB
:1034300043081091440884E090E00E945528612FD1
:1034400081E290E00E9455280E94A60D45CE90E0B2
:10345000FC01E55FF74FDA013C913183DB013C91E0
:103460003187E18A880F991FFC01E55FF74F128EC3
:10347000118E91E0822FFFCE0D34110508F439CF63
:103480000F34110508F447C3C8018B529D450A97B4
:1034900008F02FCF6801FBE2CF1AFDE5DF0A88E1D3
:1034A0008C9D80018D9D100D11240D5B1E4FD80148
:1034B00011968D919C9112972091D3073091D4074A
:1034C000FF2009F41AC2820F931F9093D4078093B0
:1034D000D3071E96ED91FC91309709F4C9C1C8013C
:1034E00009958111C5C18091D3079091D407F80146
:1034F00021813281821B930B9093D4078093D30751
:103500008091D3079091D4078930910509F4DAC2EC
:103510008234910509F0E1C20E94AD0B90E080E099
:103520000E947F1781E00E942A1392C208343DE571
:10353000130798F405348DE5180730F4C8018C534F
:103540009D45059708F0D5CEFF2009F4C5CD0E9412
:10355000AD0BC8010E940413BFCD0D349DE51907C2
:1035600008F4C7CE0E36ADE51A0730F0C8018F5605
:103570009D450F9708F0BDCEFF2009F404C10E94BD
:10358000AD0BC8010E94BA0B009709F4A5CDC9C2C2
:10359000033ABDE51B0709F42BC3B0F5003AFDE57E
:1035A0001F07E0F404392DE5120708F0A3C2023822
:1035B0003DE5130708F49DCE09388DE5180728F07E
:1035C0000F389DE5190708F494CEFF2009F484CD47
:1035D0000E94AD0BC8010E94B3177ECD013AADE544
:1035E0001A0709F4EDC208F4AFC2FF2009F4F8C0CD
:1035F0000E94AD0B8091D907811102C00E946F1308
:103600008BE20E94261168CD0B3AEDE51E0709F406
:1036100063CD70F5083A2DE5120709F4BEC258F4DF
:10362000073A8DE5180709F064CEFF2009F4EDC0D4
:103630000E94AD0BEAC0093A9DE5190709F4E8C2FA
:103640000A3AADE51A0709F054CEFF2009F444CD3B
:103650000E94AD0B8091D50791E089278093D50713
:103660000E942A136091D50780E00E941F1734CD75
:10367000003BBDE51B07B0F40E3AEDE51E0708F070
:10368000D8C20C3AFDE51F0709F472C20D3A2DE5C8
:10369000120709F02ECEFF2009F41ECD81E08093A1
:1036A000DA0725C0003B3DE5130709F022CE8091E3
:1036B000DC07FF2009F43BC2882309F435C20E94CD
:1036C000AD0B85EE0E94991080E89DE50E94BA0B33
:1036D00059CFFF2071F09091CD070093CD079C3119
:1036E00009F0FACC023109F0F7CC1092DA0782E047
:1036F00038C201388DE5180708F04CC00F379DE53A
:10370000190708F040C00A33ADE51A07E8F406339C
:10371000BDE51B0708F0E0CC0C34110560F40A3459
:10372000110528F4C8014E970A9708F0E2CDC801A8
:103730000E94D210D1CC0D34110508F4DACD0F342B
:10374000110508F0A1CEF3CF0834EDE51E0760F4B3
:103750000534FDE51F0708F0BFCCC8018C539D451B
:10376000059708F4B9CCC5CD0D342DE5120708F442
:10377000C0CD0E363DE5130730F0C8018F569D458C
:103780000F9708F0B6CDC8010E94BA0B009709F454
:10379000A3CCCECF033A8DE5180709F436C220F545
:1037A000003AADE51A07A8F40439BDE51B0708F097
:1037B00093CC0238EDE51E0708F49BCD0938FDE5F2
:1037C0001F0708F489CC0F382DE5120708F084CCC8
:1037D00090CD013A3DE5130709F4F4C108F47CCC1F
:1037E0008BE20E94991078CC0B3A9DE5190709F4F9
:1037F00073CC20F5083ABDE51B0709F4D1C198F454
:10380000073AFDE51F0709F074CD8091DB078111B0
:10381000BEC1FF2009F4B6C18FEB90E00E94B71241
:1038200084E490E07EC1093A2DE5120709F454CCF6
:103830000A3A3DE5130709F44FCC5BCD003B8DE51B
:10384000180780F40E3A9DE5190708F045CC0C3AAC
:10385000ADE51A0709F440CC0D3ABDE51B0709F4A4
:103860003BCC47CD003BEDE51E0709F420CF41CD11
:1038700088E18C9DF0018D9DF00D1124ED5BFE4FD4
:1038800089859A85958B848B838181110E94570845
:1038900088E18C9DF0018D9DF00D1124ED5BFE4FB4
:1038A0008681978122853385AC01422B532B452B92
:1038B00041F02115310519F0C9010E94BA0B0E948F
:1038C000B7128091D80791E0980F9093D807811193
:1038D00005C01093D0070093CF0712CEE091CF0719
:1038E000F091D00786899789009729F4178B068B6A
:1038F0000E94AD0B05CEFC01F5CF009729F0822385
:103900009323892B09F493C08091D8078150809329
:10391000D80781119FC01092D0071092CF07EE24D4
:10392000E39488E18C9DF0018D9DF00D1124ED5BF9
:10393000FE4F81819281281B390B3093D40720934D
:10394000D3070088F189E02D309711F0C80109955F
:1039500088E18C9DF0018D9DF00D1124ED5BFE4FF3
:103960008381E091CF07F091D0078111A6C088E153
:103970008C9DF0018D9DF00D1124ED5BFE4F868135
:10398000978122853385AC01422B532B452B41F087
:103990002115310519F0C9010E94BA0B0E94D210FD
:1039A00088E18C9DF0018D9DF00D1124ED5BFE4FA3
:1039B000838981112EC0248135812115310549F07B
:1039C00089859A8544895589841B950B82179307AD
:1039D00000F588E18C9DF0018D9DF00D1124ED5BCB
:1039E000FE4F80859185009711F00E94CC1288E1EE
:1039F0008C9DF0018D9DF00D1124ED5BFE4F8485B3
:103A00009585009731F00E94BA0B009711F00E9443
:103A1000CC12EE2061F088E18C9DF0018D9DF00DBF
:103A20001124ED5BFE4F128A138A178A168A809141
:103A3000D1079091D2078930910509F457C082349B
:103A4000910509F04AC08091D507882309F46BCD10
:103A500086E040C0E091CF07F091D0070E171F0716
:103A600051F4D80156968D919C919093D0078093F4
:103A7000CF0755CFFC01868997890097A9F00817D1
:103A80001907C1F7D80156968D919C91978B868B1B
:103A900088E18C9DF0018D9DF00D1124ED5BFE4FB2
:103AA000128A138A178A168AE12C3BCF93818917D1
:103AB00009F45DCF0688F789E02D3097B9F70E94A9
:103AC000340855CF0E94AD0B0E94F41089E00E948B
:103AD000570883E06F2D0E941F178091D3079091A4
:103AE000D4079093D2078093D107F6CA89E00E9449
:103AF0003408EFCFFF2009F4EFCA0E94AD0B8FEB23
:103B000090E00E94B712C8018A559D450E94CC12D0
:103B10008FEB90E00DCEFF2009F409CE0E94AD0B93
:103B2000C8010E94B712D8CA8AE290E0FACF88236F
:103B300041F085EE0E94261180E89DE50E94BA0BB7
:103B400023CE8AE290E0F4CDFF2009F4C5CA0E949A
:103B5000AD0B8091DB07811107C081E08093DB070B
:103B600080E00E94A117B8CA1092DB0781E0F9CF6C
:103B7000FF2009F4B1CA0E94AD0B8DE690E00E94CF
:103B8000CC12AACA84E490E00E94D210C1CFFF20D8
:103B900009F4A2CA87E098E0F2CFF1100E94AD0BC1
:103BA0008091DB07811106C08CE390E0FF2009F4CF
:103BB000BFCDB7CF8BE298E0FF2009F48DCADFCFED
:103BC000F1108ACA0E94AD0B8091DB0781110BC0F6
:103BD0008FEB0E94261186E693E00E94CC128FEBB9
:103BE0000E9499105BCD86EA90E00E94CC1256CDDF
:103BF000FF2059F00E94AD0B8091D907811102C0BE
:103C00000E946F138BE292E08CCF8BE292E090CD1A
:103C1000FF2009F461CA8091DB07811103C086E6A9
:103C200091E0ADCF8BE198E00E94CC128AE090E069
:103C3000A6CFFF2009F450CA8FEF9FEF0E3A1D4523
:103C400011F481E090E02091D6073091D707820FE0
:103C5000931F97FF1AC084E090E09093D70780935A
:103C6000D607E091D607F091D707EE0FFF1FE95472
:103C7000F94F808191819093F8048093F70481E05B
:103C8000809335080E943B1427CA853091052CF398
:103C90001092D7071092D607E4CF882309F48ACB75
:103CA0008189882309F486CBC601875C9D4F0E94D9
:103CB000AF0880CB043FFCE51F0771F1B8F4093D64
:103CC0003CE5130719F10A3D8CE51807B9F1083DE9
:103CD0009CE5190709F06ECB06E221EE41EE68ED96
:103CE0007CE5CE0106960E94B211F6C9063FACE50E
:103CF0001A07F1F0B8F0073FECE51E0709F05ACBC0
:103D000007E225EE46EE67EF7CE5EBCF07E225EE16
:103D100045EE69ED7CE5E5CF06E221EE40EE64EF8D
:103D20007CE5DFCF07E225EE44EE65EF7CE5D9CFF9
:103D300006E221EE42EE66EF7CE5D3CF08E221E019
:103D400045EE6AED7CE5CDCF809143088061063079
:103D50003CE5130709F487C008F48CC08091430840
:103D6000806281C0809143088D7F0C309CE51907EB
:103D700009F479C070F4809143088C600A30BCE586
:103D80001B0709F470C008F481C0809143088E7F3E
:103D90006AC080914308877F0E30FCE51F0709F455
:103DA00062C0809143088B7F0F301C4508F45BC0D4
:103DB000809143088F7E57C00C3F3CE5130709F400
:103DC0005DC030F503319CE5190709F46DC078F446
:103DD0000131BCE51B0709F463C002311C4509F041
:103DE00026CB0E94A60D809143088F773CC00531F9
:103DF000FCE51F0709F460C008F474C08091440812
:103E000081600B3F1C4509F012CB809344080FCB17
:103E100001158DE5180709F44BC088F4809144081A
:103E20008D7F0E3FACE51A0781F3809144088E7FA9
:103E30000F3F1C4550F3809144088360E6CF023069
:103E4000EDE51E0709F457C008F442C060E00330F6
:103E50001D4509F0ECCA8EE090E00E945528E7CAA3
:103E600080914308816080934308E1CA80914308B0
:103E70008460F9CF809143088860F5CF8091440831
:103E80008260C3CF809143088064EDCF0E94A60D6D
:103E9000809143088068E7CF809143088F7DE3CF0E
:103EA000809143088F7BDFCF80914308837FDBCFF6
:103EB000809144088C7FA9CF8091430882FB992789
:103EC00090F921E0922790FB82F990FB83F9CBCF08
:103ED00080914408982F909591708E7F892B90FB4C
:103EE00081F993CF0E94A60D90914308892F97FBEB
:103EF00087F98058B8CF61E0AECF80910208827216
:103F0000F801E35CFC45E431F10508F048C0E05AF3
:103F1000F54D0C9421288091770891E089278093B2
:103F200077081092DE040E948F13D6C845E154E151
:103F30006FE174E10E94F908CFC84FE154E165E1F7
:103F400074E1F8CF47ED53E160EE73E1F3CF40EE5B
:103F500053E167ED73E1EECF4FEB53E16BEC73E1AF
:103F6000E9CF4BEC53E16FEB73E1E4CF47EA53E168
:103F700063EB73E1DFCF43EB53E167EA73E1DACF41
:103F800043EF53E169EE73E1D5CF49EE53E163EFBF
:103F900073E1D0CF61E081E00E94FD139DC801155F
:103FA0003CE5130709F44DC00F3D1C4509F44BC017
:103FB0000E811F81992309F449C0C8010E94BF0ADC
:103FC000F82E682FC8010E949C07B8018F2D0E940F
:103FD0002F09082FE82E8885811110920108192FCA
:103FE00012951F70143009F47EC0A8F5123008F441
:103FF0003FC0E12FE850FF0B329710F40E94820877
:1040000085E0FE013696DE01119601900D928A95AB
:10401000E1F789819A810E9473079A81E981F0E032
:1040200026E0929FE00DF11D112430E3839FE00D07
:10403000F11D1124EE0FFF1FE950FA4F8591949165
:104040004BC80E946A100E943C0D46C8C8010E94DD
:104050007307F82EBACF183009F465C0193009F487
:1040600036C1173031F6882309F459C08FEB1AC0D6
:10407000A92FAF70FA2E907F19F0F29440EFF4223E
:104080008823C9F0FF2069F080E2800F883010F0AB
:10409000E1100BC080910208F82AF09202080E94F9
:1040A0005C07802F0E942611A4CF80910108F82A76
:1040B000F0920108F4CF802F0E949910FF2009F49C
:1040C00098CF005E083010F0E11006C08F2D0E94DE
:1040D00055070E945C078DCFF09480910108F8226B
:1040E000F0920108F6CF292F26952695237051F0DE
:1040F000213009F07ECF882379F0802F93700E94C1
:10410000F00777CF882329F0802F93700E9406084C
:1041100070CF90E080E0FACF90E080E0F0CF8FEBBE
:104120000E94991066CF292F237009F065C0811174
:1041300060CF802F829586958770880F880F402FDB
:104140004F7050E070E060E0082E04C0440F551F2F
:10415000661F771F0A94D2F7C12CD12C760104FF79
:1041600010C03FE0C32ED12CE12CF12C04C0CC0CAC
:10417000DD1CEE1CFF1C8A95D2F7C094D094E0940D
:10418000F094969596959370923019F1D8F48090AA
:10419000030890900408A0900508B090060891309C
:1041A00069F04C295D296E297F29CB01BA0168216C
:1041B00079218A219B210E9478081BCF48295929FF
:1041C0006A297B29CB01BA016C297D298E299F2977
:1041D000F2CF4C295D296E297F29C0900308D09029
:1041E0000408E0900508F0900608CB01BA016C25A0
:1041F0007D258E259F25DFCF2695882311F0292F39
:104200002170222309F4F5CE802F82958695877040
:10421000880F880F402F4F7050E070E060E0082E4C
:1042200004C0440F551F661F771F0A94D2F7C12C94
:10423000D12C760104FF10C02FE0C22ED12CE12C2E
:10424000F12C04C0CC0CDD1CEE1CFF1C8A95D2F7AF
:10425000C094D094E094F094969596959370923093
:1042600019F1D8F480903F0890904008A090410840
:10427000B0904208913069F04C295D296E297F2960
:10428000CB01BA01682179218A219B210E942A0849
:10429000B0CE482959296A297B29CB01BA016C295A
:1042A0007D298E299F29F2CF4C295D296E297F29EE
:1042B000C0903F08D0904008E0904108F09042083C
:1042C000CB01BA016C257D258E259F25DFCF9F7000
:1042D000F92E882339F0892F0E945708802F0E94D9
:1042E000E60787CE802F0E94DF078F2D0E943408BB
:1042F00080CE85E0FE013696DE01119601900D928A
:104300008A95E1F7288589819A8121110C947F187B
:104310000E947307082F0C9487188091E0079091F2
:10432000E10701969093E1078093E0070C945718FA
:10433000FB014081518165E0649F9001659F300DD4
:104340001124F901E15BFD4F4491FC018081813032
:1043500059F4205B3D4FF901859194914230A9F1C8
:1043600030F44130A1F108952E5A3D4FF4CF43303F
:1043700019F0453019F008950C9404138530910517
:1043800041F168F482309105C9F018F4019799F071
:10439000089583309105A9F00497A9F00895873016
:1043A000910529F100F19C0129583D452630310540
:1043B00008F50C94B3178BE690E009C08CE690E00A
:1043C00006C00E946A108AE69DE50E94BA0B0C9412
:1043D000CC128EE79DE50E94BA0B9093150780934F
:1043E00014070C94B7128AE492E00C941D1284E432
:1043F00092E0FBCF0895CF92DF92FF920F931F932D
:10440000CF93DF9380913608882309F49AC00E94E5
:10441000A20CF82E8091CB05C4E0D0E0882311F0E7
:10442000D0E0C0E0C25BD74F44E050E0BE018CE07A
:1044300097E00E943E2A6C0188819981AA81BB8104
:1044400080930C0790930D07A0930E07B0930F076E
:104450008091CB05D0E0C0E0882311F0C4E0D0E02B
:1044600090913E0180913D0110E000E0981759F0D5
:1044700082E090E00E947B278C01892B21F48091BF
:104480003D0180933E018091040790910507C82A61
:10449000D92A90E080E0CD2811F081E090E00E94E0
:1044A0007B27892B31F58091070780933D0110927E
:1044B0000507109204070115110511F102301105CD
:1044C00009F428985D98809106078F5F809306070E
:1044D000863040F18091CB05F0E0E0E0882311F0D8
:1044E000E4E0F0E0E25BF74F108211821282138267
:1044F00019C081E090E09093050780930407DBCF1B
:10450000289AC25BD74F8091080790910907A09124
:104510000A07B0910B0788839983AA83BB835D9AAE
:10452000109206070E946314C1E0F11001C0C0E0C0
:104530008C2FDF91CF911F910F91FF90DF90CF9043
:1045400008950E94A20C9091CB05E4E0F0E099233D
:1045500011F0F0E0E0E0E25BF74F40E030E020E017
:10456000D901A85FB84F5C919191591341E09C9398
:104570002F5F3F4F2430310599F790910707940F33
:1045800090930707C1E0811101C0C0E08091CB0585
:10459000811102C030E020E0225B374F80910C0790
:1045A00090910D07A0910E07B0910F07F90180833C
:1045B0009183A283B3830E946314BACF1F920F9298
:1045C0000FB60F9211242F933F934F935F936F93E6
:1045D0007F938F939F93AF93BF93CF93DF93EF938B
:1045E000FF93D091E900DF708091EC00C82FC1707B
:1045F00080FDC0E81092E9008091F000877F8093F1
:10460000F00078940E94B10D1092E9008091F000C2
:1046100088608093F000CD2BCF70C093E900FF91AC
:10462000EF91DF91CF91BF91AF919F918F917F914A
:104630006F915F914F913F912F910F900FBE0F900F
:104640001F9018951F920F920FB60F9211242F935F
:104650003F934F935F936F937F938F939F93AF930A
:10466000BF93EF93FF938091E10082FF09C0809197
:10467000E20082FF05C08091E1008B7F8093E10022
:104680008091DA0080FF24C08091D80080FF20C094
:104690008091DA008E7F8093DA008091D90080FFCC
:1046A0009FC080E189BD82E189BD09B400FEFDCFD4
:1046B00081E080936D0880916008811109C00E949B
:1046C000BB050E9486068091E20084608093E20030
:1046D0008091E10080FF17C08091E20080FF13C04D
:1046E0008091E2008E7F8093E2008091E200806101
:1046F0008093E2008091D80080628093D80019BC3A
:1047000085E080936D088091E10084FF2DC0809149
:10471000E20084FF29C080E189BD82E189BD89B5BD
:10472000982F917080FFFBCF8091D8008F7D809370
:10473000D8008091E1008F7E8093E1008091E200BB
:104740008F7E8093E2008091E20081608093E2009E
:1047500080916E08882309F449C084E080936D0835
:104760000E94A60D0E9482088091E10083FF27C06D
:104770008091E20083FF23C08091E100877F8093D6
:10478000E10082E080936D0810926E088091E10054
:104790008E7F8093E1008091E2008E7F8093E20023
:1047A0008091E20080618093E20042E060E080E07E
:1047B0000E9454068091F00088608093F000FF9181
:1047C000EF91BF91AF919F918F917F916F915F9189
:1047D0004F913F912F910F900FBE0F901F90189502
:1047E00019BC10926D081092600872CF8091E3009E
:1047F00087FD93E090936D08B3CFCDB7DEB72A97CE
:104800000FB6F894DEBF0FBECDBF84B7877F84BFDD
:104810000FB6F894A895809160008861809360003D
:10482000109260000FBE80E890E00FB6F89480937D
:104830006100909361000FBE85B7806885BF85B722
:10484000806885BF0E94BB050E9486068091E200B9
:1048500084608093E200789480916D088823A1F0B1
:104860001091E9001F709091EC00892F817090FDEC
:1048700080E8182B1092E9008091E80083FD0E94E7
:10488000B10D1F701093E90082E084BD93E095BDE7
:104890009AEF97BD80936E000E94860C8093CB05A3
:1048A0000E94860C63E070E0882309F427C18FED35
:1048B00094E00E94992678940E94C80BA2EFB6E07B
:1048C00061E070E08D91E82FE295EF70F0E041A19A
:1048D0008F709B0101C0220F8A95EAF7922F909565
:1048E000942391A382A1822B82A326E0A83FB20742
:1048F00049F7209A559A289A5D9AA7E3B8E0EEE422
:10490000F8E011921D9288E0E635F807D1F70E9491
:10491000860C8093360890E080E00E943F288C3E11
:104920009E4F11F00E943C0D10920B088FEF9FEFED
:104930009093250880932408909327088093260855
:10494000909329088093280890932B0880932A0835
:1049500090932D0880932C0890932F0880932E0815
:1049600090933108809330089093330880933208F5
:1049700090E080E00E943F288C3E9E4F21F00E94F4
:104980003C0D0E942A1445E050E06CE170E087E79E
:1049900098E00E942728809177088C7F11F40E946C
:1049A0002A148091CB05811109C082EDEDEDF5E06F
:1049B000A9EFB4E001900D928A95E1F760E082E002
:1049C0000E94FD1348E76FEF84E690E00E94971382
:1049D0002091F7043091F80481E02E3F9FEF3907D2
:1049E00009F480E080933508809334082E3F3F4FD0
:1049F00009F489C00E9420090E948F1390E080E092
:104A00000E943F288C3E9E4F11F00E943C0D82E098
:104A100090E00E943728809357080E94E90B9093FA
:104A200044088093430883E090E00E943728682F71
:104A300070E090E080E00E94780810924A088FEFC2
:104A400080934508809346088093470880934808E0
:104A50008093490885E08093CD058FEC95E0909395
:104A60004C0880934B08EE24EA9480E1A82E92E152
:104A7000B92E28E1C22ED12C30E4932E80916D08FE
:104A8000853009F443C00E94FB21A8E5B8E0EEE4BC
:104A9000F8E010E000E0302F81919D91981709F423
:104AA00070C0292F282790E0FF24F3944F2D422334
:104AB00009F462C099833A838F2191E009F490E070
:104AC0009B830E9449078160782F9D838C83498155
:104AD0005A816B818D810E943418F801E85AF74F92
:104AE0008081F826F0820E948208909156088917EA
:104AF00029F20E94820880935608C0CF8FED94E07F
:104B00000E94A226D8CE0E94140976CF80916D080B
:104B1000843009F110924D080FB6F894A895C09210
:104B200060000FBE9092600083B7817F846083BF76
:104B300083B7816083BF7894889583B78E7F83BF66
:104B40000FB6F894A895809160008861809360000A
:104B5000109260000FBE80916C08882309F48ECFFC
:104B60000E94FB21EEE4F8E08191811120C088E0F1
:104B7000E635F807C9F782CF9F5FFF0C963009F042
:104B800095CF0F5F1F4F0830110509F084CFEE82DB
:104B9000EF8218860E9449078160782F9A8789875B
:104BA0004E815F8168858A850E9434189CCFA9BC9C
:104BB000B9BC09B400FEFDCF8091D8008F7D8093F1
:104BC000D8008091E00082608093E0008091E00056
:104BD00081FDFCCF53CF78941F921FB61F921124F2
:104BE0008F939F93AF93BF9380910708909108088C
:104BF000A0910908B0910A080196A11DB11D8093EA
:104C0000070890930808A0930908B0930A08BF9179
:104C1000AF919F918F911F901FBE1F9018951F926B
:104C20001FB61F9211248F939F93AF93BF938091D0
:104C30004D08811113C08091070890910808A09138
:104C40000908B0910A084196A11DB11D809307087B
:104C500090930808A0930908B0930A08BF91AF91F8
:104C60009F918F911F901FBE1F9018958EE14A9BB8
:104C700002C08150E1F74A9BFECF08955A9880E226
:104C80008A95F1F75A9A0895FC013BE03A95F1F7BD
:104C900020E090E080E031E040E14A95F1F7880FB4
:104CA0004A9B02C08160232742E04A95F1F7000049
:104CB00040E14A95F1F79F5F6913EECF90E19A9535
:104CC000F1F799B132E03A95F1F7000040E14A95E9
:104CD000F1F792FB992790F992272081920F908308
:104CE0000895EF92FF920F931F93CF93DF930F924C
:104CF000CDB7DEB719828C017C01E60EF11C0E15D2
:104D00001F0561F481E09981911180E00F90DF919E
:104D1000CF911F910F91FF90EF9008950E9436263A
:104D200068E0CE0101960E944426F80181938F012C
:104D3000E6CF90937E0880937D0860937C08529A1A
:104D40005A9A089590937E0880937D0860937C081A
:104D500052985A9AEA9AE9E6F0E080818F7C808343
:104D600008956150770B91E001C0990F6A95EAF7B9
:104D700020E031E0911108C0222391F05A9A80E29C
:104D80008A95F1F75A980895492F482339F05A9A8D
:104D9000232740E24A95F1F79695ECCF5A98F9CF40
:104DA0005A98EDCFFF920F931F93CF93DF93EC01AF
:104DB0008C01060F111DC017D10731F4DF91CF917F
:104DC0001F910F91FF900895F9900E943E2668E090
:104DD0008F2D0E94B126EFCF1F920F920FB60F9228
:104DE00011240F931F932F933F934F935F936F93D0
:104DF0007F938F939F93AF93BF93EF93FF93CF9343
:104E0000DF930F92CDB7DEB719820E94362667E096
:104E1000CE0101960E944426082F06950695069518
:104E2000982F92959570202F2570920F292F23701F
:104E3000969596958770920F891344C08981811148
:104E400041C080917C088017E8F120E12A95F1F7B4
:104E50005A9A529A82E08A95F1F700C0A8E00A9F18
:104E6000C001112400917D0810917E08080F191FC0
:104E70005A98F8016581662321F0868197810E9406
:104E8000D2260E943E26F0E1FA95F1F75A98529800
:104E90005A9A20E12A95F1F7D80112966C9112974F
:104EA000662331F113968D919C910E947126D80151
:104EB000ED91FC91882311F088E001C082E08083AD
:104EC0000E9436260F90DF91CF91FF91EF91BF9115
:104ED000AF919F918F917F916F915F914F913F9192
:104EE0002F911F910F910F900FBE0F901F9018954B
:104EF000ED91FC91E1CF0F931F93CF93DF9320911E
:104F00007C08281719060CF471C08C0193E0000F7F
:104F1000111F9A95E1F7C0917D08D0917E08C00FCE
:104F2000D11FF894529A5A9825E02A95F1F700007B
:104F3000982F969595708570980F892F8370969508
:104F40009695980F092B0E943E2600C067E0802F9F
:104F50000E94B12680E18A95F1F752985A9A4A9BAD
:104F600017C087E090E04A9915C06D81662321F152
:104F70008E819F810E94712681111EC0529A5A9A79
:104F8000E881F98182E08083789482E090E00DC02E
:104F900000C0E5CF019771F4529A5A9AE881F981DD
:104FA00081E08083789481E090E0DF91CF911F9140
:104FB0000F91089500C0D7CF0E94362620E22A958F
:104FC000F1F75A98529A80E18A95F1F76A8166233F
:104FD00021F08B819C810E94D2260E943E26E8818E
:104FE000F9811082789490E080E0DFCF84E090E057
:104FF000DCCFAA1BBB1B51E107C0AA1FBB1FA61712
:10500000B70710F0A61BB70B881F991F5A95A9F771
:1050100080959095BC01CD01089597FB072E16F45D
:10502000009407D077FD09D00E94F92707FC05D02E
:105030003EF4909581959F4F0895709561957F4FAF
:105040000895EE0FFF1F0590F491E02D0994DC0107
:10505000CB01FC01F999FECF06C0F2BDE1BDF89A83
:10506000319600B40D9241505040B8F70895F99927
:10507000FECF92BD81BDF89A992780B50895A8E129
:10508000B0E042E050E00C942928DC01A40FB51FE9
:105090004150504048F0CB01840F951F2E910E9443
:1050A000562841505040D0F70895262FF999FECF49
:1050B00092BD81BDF89A019700B4021639F01FBA6B
:1050C00020BD0FB6F894FA9AF99A0FBE0895039688
:1050D000272F0E9456280E945528252F0E945628C7
:1050E000242F0C9456280196272F0E9456280C94A2
:1050F00055280E948D280C946E290E94672958F02B
:105100000E94602940F029F45F3F29F00C94572950
:1051100051110C94A2290C945D290E947F2968F3F7
:105120009923B1F3552391F3951B550BBB27AA2760
:1051300062177307840738F09F5F5F4F220F331F9A
:10514000441FAA1FA9F335D00E2E3AF0E0E832D062
:1051500091505040E695001CCAF72BD0FE2F29D065
:10516000660F771F881FBB1F261737074807AB0737
:10517000B0E809F0BB0B802DBF01FF2793585F4FAC
:105180003AF09E3F510578F00C9457290C94A229CF
:105190005F3FE4F3983ED4F3869577956795B7958E
:1051A000F7959F5FC9F7880F911D9695879597F999
:1051B0000895E1E0660F771F881FBB1F6217730712
:1051C0008407BA0720F0621B730B840BBA0BEE1F27
:1051D00088F7E09508950E94872988F09F5798F0F6
:1051E000B92F9927B751B0F0E1F0660F771F881FEC
:1051F000991F1AF0BA95C9F714C0B13091F00E9406
:10520000A129B1E008950C94A129672F782F882750
:10521000B85F39F0B93FCCF3869577956795B3952C
:10522000D9F73EF490958095709561957F4F8F4F9B
:105230009F4F0895E89409C097FB3EF490958095A0
:10524000709561957F4F8F4F9F4F9923A9F0F92F4C
:1052500096E9BB279395F695879577956795B795CA
:10526000F111F8CFFAF4BB0F11F460FF1BC06F5FB0
:105270007F4F8F4F9F4F16C0882311F096E911C0C2
:10528000772321F09EE8872F762F05C0662371F0E3
:1052900096E8862F70E060E02AF09A95660F771FF7
:1052A000881FDAF7880F9695879597F9089597F9EB
:1052B0009F6780E870E060E008959FEF80EC0895BC
:1052C00000240A94161617061806090608950024E5
:1052D0000A9412161306140605060895092E03945F
:1052E000000C11F4882352F0BB0F40F4BF2B11F4D3
:1052F00060FF04C06F5F7F4F8F4F9F4F089557FD32
:105300009058440F551F59F05F3F71F04795880F33
:1053100097FB991F61F09F3F79F0879508951216CA
:1053200013061406551FF2CF4695F1DF08C0161676
:1053300017061806991FF1CF869571056105089427
:105340000895E894BB2766277727CB0197F908953E
:105350000E941A2A08F48FEF08950E94C0290C9425
:105360006E290E94602938F00E94672920F0952359
:1053700011F00C9457290C945D2911240C94A22946
:105380000E947F2970F3959FC1F3950F50E0551F40
:10539000629FF001729FBB27F00DB11D639FAA278A
:1053A000F00DB11DAA1F649F6627B00DA11D661FD9
:1053B000829F2227B00DA11D621F739FB00DA11DFA
:1053C000621F839FA00D611D221F749F3327A00DB4
:1053D000611D231F849F600D211D822F762F6A2F50
:1053E00011249F5750409AF0F1F088234AF0EE0FB5
:1053F000FF1FBB1F661F771F881F91505040A9F7E2
:105400009E3F510580F00C9457290C94A2295F3FD0
:10541000E4F3983ED4F3869577956795B795F7951D
:10542000E7959F5FC1F7FE2B880F911D9695879595
:1054300097F90895990F0008550FAA0BE0E8FEEFC1
:1054400016161706E807F907C0F012161306E40748
:10545000F50798F0621B730B840B950B39F40A2641
:1054600061F0232B242B252B21F408950A2609F41F
:10547000A140A6958FEF811D811D0895FB01DC01E0
:1054800004C08D910190801921F441505040C8F71B
:10549000881B990B0895FB01DC0102C001900D925D
:1054A00041505040D8F70895F894FFCF940EBC0EA9
:1054B0005210BC0E5210EF0E100F52100D101A1099
:1054C0008B1F961F9D1FA21FA71FAC1FB11FB61FCA
:1054D000BB1FC01FC51FCA1F6C186C186C186C1836
:0854E0006C186C186C186C18B4
:1054E8001E001D001C001B001A00190018001700E0
:1054F80016001500140013001200110010000F0010
:105508000E000D000C000B000A000900080007003F
:1055180006000500040003000200010005FFFFFF6C
:10552800FFFFFF000100012C01000037020000000E
:105538000056130111000000000000010200022CB7
:105548000100003602000000000000031100000006
:10555800000000020400032C0100002702000000E4
:105568000000000000000000000000030800042CF8
:1055780001000021020000000000000000000000FF
:10558800000000041000052C0100001F02000000AC
:105598000000000000000000000000052000062CAC
:1055A8000100002D0000000000541700000000005A
:1055B80000000007000008FA0000002B004B5D0007
:1055C800000000000000000000000008000008FAC9
:1055D80000E2002B020000000000000000000000B4
:1055E800000000090000082C010000000000005A1B
:1055F8005D821315110000000000000A400000FA47
:105608000000002800000000008D177F1700000030
:10561800000000D61200000000000000000000009A
:1056280000000000000000F806D61200000000008C
:10563800000000000000000000000000003A01D651
:105648001200000000000000000000000000000040
:105658000000003801D61200000000000000000021
:105668000000000000000000003601D61200000013
:1056780000000000000000000000000000000034EE
:105688000100009821E71000000000000000000061
:105698000000000000320100009821E7100000001F
:1056A8000000000000000000000000300100009829
:1056B80021E71000000000000000000000000000CA
:1056C800002E0100009821E71000000000000000F3
:1056D800000000000000002C0100009821E71000E5
:1056E800000000000000000000000000002A010087
:1056F800009821E7100000000000000000000000F2
:10570800000000280100009821E7100000000000B8
:10571800000000000000000000260100009821E7BA
:10572800100000000000000000000000000000243D
:105738000100009821E710000000000000000000B0
:105748000000000000220100009821E7100000007E
:105758000000000000000000000000200100009888
:1057680021E7100000000000000000000000000019
:10577800001E0100009821E7100000000000000052
:10578800000000000000001C0100009821E7100044
:10579800000000000000000000000000001A0100E6
:1057A800009821E710000000000000000000000041
:1057B800000000180100009821E710000000000018
:1057C800000000000000000000160100009821E71A
:1057D800100000000000000000000000000000149D
:1057E8000100009821E71000000000000000000000
:1057F8000000000000120100009821E710000000DE
:1058080000000000000000000000001001000098E7
:1058180021E7100000000000000000000000000068
:10582800000E0100009821E71000000000000000B1
:10583800000000000000000C0100009821E71000A3
:10584800000000000000000000000000000A010045
:10585800009821E710000000000000000000000090
:10586800000000080100009821E710000000000077
:10587800000000000000000000060100009821E779
:1058880010000000000000000000000000000004FC
:105898000100009821E7100000000000000000004F
:1058A8000000000000020100009821E7100000003D
:1058B80000000000000000000000000001FF0303DA
:1058C800070000000107070307040C070107070288
:1058D80007000000040807FEFF181712110A09192B
:1058E8001613100B081A15140F0C07FFFFFF0E0DE7
:1058F8000633322D2C252434312E2B262335302FF8
:105908002A2722FFFFFF2928215510320D101410D5
:1059180026323055345F3F55275515550444024407
:10592800134425503A3C373223320D3200210321EB
:10593800142125102A101810070007001800298BB9
:1059480010AE0DD014D026AE308B34813F8B278B10
:10595800158B049C029C139C25903AA437AE23AE69
:105968000DAE00BF03BF14BF25D02AD018D007E062
:1059780007E018E0290202020202020104040404FA
:1059880004040101040404040404040404010101DE
:1059980002020202020201040404040404010104D4
:1059A80004040404040404040101010100FF004686
:1059B80007320C45072E0C2A0C0164FF7833322D70
:1059C8002C252434312E2B262335302F2A2722FF4D
:1059D800FFFF292821181712110A09191613100B8D
:1059E800081A15140F0C07FFFFFF0E0D068B10AEDB
:1059F8000DD014D026AE308B34813F8B278B158B7E
:105A0800049C029C139C25903AA437AE23AE0DAE9D
:105A180000BF03BF14BF25D02AD018D007E007E085
:105A280018E0295510320D10141026323055345F05
:105A38003F552755155504440244134425503A3C14
:105A4800373223320D3200210321142125102A1068
:105A580018100700070018002902020202020201BA
:105A680004040404040401010404040404040404F4
:105A780004010101020202020202010404040404F6
:105A8800040101040404040404040404010101944D
:105A98006697C600000000FEFF0100020003000434
:105AA80000818283E200E900EA00B500B600B70091
:105AB800CD008301CC008A019201940121022302C6
:105AC80024022502260227022A02B300B4006F002E
:085AD8007000F4F5F6F731331C
:00000001FF
