:100000000C94C3050C940A060C940A060C94A228BE
:100010000C940A060C940A060C940A060C940A0620
:100020000C940A060C940A060C94C4240C948024A4
:100030000C94C5270C940A060C940A060C940A0624
:100040000C940A060C940A060C940A060C940A06F0
:100050000C940A060C94A1270C940A060C940A0628
:100060000C940A060C940A060C940A060C940A06D0
:100070000C940A060C940A060C940A060C940A06C0
:100080000C940A060C940A060C940A060C940A06B0
:100090000C940A060C940A060C940A060C940A06A0
:1000A0000C940A060C940A060C940A06E300E0007D
:1000B000E000E3001B081B010608060119081901EE
:1000C000190E1903190A19031D081D011D0A1D0324
:1000D000210B160A220A460008040814150A3E01DC
:1000E00016081601040804017F00A8008000A9007A
:1000F0008100AA00290C4C054800BD004700BE0045
:10010000500450044F044F046E002903300830019E
:100110003808380152084A0851084D0850084A006A
:100120004F084D000B0851081A083D040908090141
:100130000A080A010A0A0A03090C0B012C0816080E
:100140002F084D002C09370814090F083304211417
:100150002A042A014000AC004200AB004100AE007E
:1001600066016601660166000F0B5008150B4F080B
:10017000100B5208180B000014083D04E000E300C7
:100180002A080E032A084C002A0C4C02380064028C
:10019000295D27026402295D2E022D0250002E00E7
:1001A0001E02500024023002295D30022402295D23
:1001B00030001E00295D38001E00295D6402270200
:1001C000295D64002702295D1E022702295D640261
:1001D000295D295D24026402295D6400295D295D91
:1001E00064002402295D64006400295D64026402E5
:1001F000295D1E022702295D64022702295D640031
:100200002702295D2F002C00295D2F022C00295D7B
:100210000A00295D295D0A003402295D3804132093
:10022000380614200D06AF0022041E2237062620B1
:100230001304C0032106A3002704602227064822D6
:100240003206BB00640665223406AB0064046422F7
:100250003506B0001504AE000B0422212006222032
:100260000604A900000000000004040000000408C7
:10027000000000040C00000004120000000418003C
:1002800000000500000300073B5D3C5D0501000226
:100290000007445D455D07425D435D011E011E038D
:1002A000011F011F03012001200306350035020252
:1002B0005A5D5B5D050400050007495D475D074A1F
:1002C0005D465D05925D935D05945D955D05965D6A
:1002D000975D050600070002685D635D02545D538B
:1002E0005D02565D575D063000380006300224027C
:1002F000062502260203395D3A5D08110033000627
:1003000037003600094D5D4E5D02875D885D000057
:10031000001214009E940001983B7500000126AD68
:10032000010728000000000000000B2E00114224ED
:1003300000000F0200000114000000000000000097
:1003400000000000000000000000000000FFFFFFB0
:10035000D4D4D47373733838382121214D4D4D8F47
:100360008F8FE8E8E87878783838382929290F0F0E
:100370000F000000121212141414000000000000FC
:1003800000000000000000000000000017003835E9
:1003900000851F00B80108D520009427009435007F
:1003A000751C003D19013729016525006B2D007072
:1003B0001900420C001F0B001F000000000000107D
:1003C0000029000000000000000000FFFFFFB699B8
:1003D0002FC26700BD42008E4C01BD6E00FFDD00E4
:1003E000EEE6BF98957CA884007550005637012D25
:1003F0001B01462901614200241100241700241525
:10040000000E09010F0800000000F60909A38D0085
:10041000006B1B18086830069300737574C200FAED
:10042000A005F5F9011BA3000057662400661D0016
:1004300061004152008A4E0156410130370014429A
:10044000000F33001D33002E23BC0101F2A602E988
:10045000A001D60000A30000FFC800A884008E0100
:10046000016A0101805E009870015700004200009F
:10047000613D006545012E1F003320002900000E5C
:100480000101181101191000FF0000FF0000FFFF1B
:10049000FFABABABB0B0B0BD0000FF0000BD0000D3
:1004A000001EFF0011FF9900007500006B00001195
:1004B00000FF0208BB0200800011940C00B3001082
:1004C000610D016507013700000000000000000019
:1004D00000000000000000000000007E0F00D4FFBC
:1004E000FFFFC70000007800000000000000002AA5
:1004F0002B280000000000000000000000000000A9
:10050000000029000000002C1E3420212224342663
:1005100027252E362D3738271E1F2021222324255C
:10052000263333362E37381F0405060708090A0B11
:100530000C0D0E0F101112131415161718191A1B83
:100540001C1D2F3130232D350405060708090A0B21
:100550000C0D0E0F101112131415161718191A1B63
:100560001C1D2F3130354C00010101010101010139
:100570000102020202020202020203030303030356
:100580000303040404040404040505050505060624
:1005900006060607070707070808080809090909E2
:1005A0000A0A0A0B0B0B0C0C0C0D0D0D0E0E0E0F88
:1005B0000F0F101011111112121313141415151618
:1005C000161717181819191A1A1B1B1C1D1D1E1E89
:1005D0001F202021222223242425262627282929DA
:1005E0002A2B2C2D2D2E2F30313232333435363705
:1005F00038393A3B3C3D3E3F404142434445464703
:1006000048494A4C4D4E4F50515354555658595ADB
:100610005B5D5E5F616264656668696B6C6D6F707F
:1006200072737577787A7B7D7E8082838587888AEE
:100630008C8E8F91939596989A9C9EA0A2A3A5A725
:10064000A9ABADAFB1B3B5B7BABCBEC0C2C4C6C921
:10065000CBCDCFD1D4D6D8DBDDDFE2E4E7E9EBEEDA
:10066000F0F3F5F8FAFDFF7E780043007E0F625E3E
:10067000007E00072F00D658090004D55809000550
:10068000CE58090000D678004307D578004308CE3D
:10069000780043097E19001400325D14001900022D
:1006A0005715000900315D0157160007001700209B
:1006B00057335D1D001B001A0006003800000000C3
:1006C0000000002B5D2C002C5D0E0013000457036E
:1006D0005705571C003000BB5D0F0005001E570B6F
:1006E00000305D2F5DBC5D360010000D0000000085
:1006F0000000002E5D2D5D345D290006570000824C
:100700005D5D5D0B57AB5D0000805D835D815D0CC1
:1007100057605D625D615D6F5D10570D57000000B1
:100720000000002B5D00002C5D00000000A15DA01A
:100730005D9F5DA85D00000000A45DA35DA25DA9B2
:100740005D00000000A75DA65DA55DAA5D0000003C
:100750000000002E5D2D5D345D00000000765DAE72
:100760005DAD5DB35DE3005F5D5E5D585D595DB29B
:100770005DAC5D655D645D19571857555D000000FF
:100780000000002B5D00002C5D4C5D220220001F4C
:10079000001E003E5D1C572A002300220021001F7E
:1007A0005700008E5D2600250024001B5700000026
:1007B0000000001A572700345D2E002E021D5752EC
:1007C000002F14301416571F14500051004F0038DA
:1007D0005D00000000000035142014375D000000AB
:1007E0000000002B5DE1002C5D1E022D021E140A8C
:1007F000570957115730027A5D230226022502124B
:1008000057220224029B5D32143414485D0000001C
:100810000000002E5D2D5D345D0000000000004BE7
:10082000006A5D695D00000E57665D4E00675D0001
:100830000000000000B65D085707578C5D000000FF
:100840000000002B5DE1002C5D8F5D0657000077F6
:100850005D745D000000004C005200725D715D73BC
:100860005DE1004F0051005000755D000000000088
:100870000000002E5D2D5D345D0000000000006B67
:100880005D00000000000000006D5D6C5D6E5D00AD
:1008900000000000000000000000008B5D00000070
:1008A0000000002B5DE1002C5D0000905D985D2351
:1008B000140000145700002157915D0000795D1568
:1008C00057000000008F5D0000000013570000007B
:1008D0000000002E5D2D5D345D0000000000005C16
:1008E0005D995D000000000000000000009A5D00BE
:1008F0000000000000000000009C5D8D5D00000015
:100900000000002B5D2C002C5DB45D0F5700000033
:100910000000000000B75DBE5DB85D000000000093
:100920000000007D5D7C5D7B5D17570000000000CE
:100930000000002E5D2D5D345D27001400190008B5
:1009400000150009001E0004001600070017000A29
:10095000001F001D001B001A0006003800000000E8
:100960000000002000210022000E00130012000CE5
:100970000018001C0030002A000F00050011000BB9
:1009800000B55D26003700360010000D00000000A5
:10099000000000250024002300E2001400190008D4
:1009A0000015000900315D04001600070017000A59
:1009B00000335D1D001B001A000600380000000017
:1009C000000000E1002C00E1000E00130012000CFA
:1009D0000018001C0030002A000F00050011000B59
:1009E00000000000003700360010000D000000007D
:1009F000000000E100E1002800000000000000BA53
:100A00005DB95D0000000000000000000000000073
:100A100000000000000000000000000000000000D6
:100A200000000010501050105000000000AB5D009E
:100A3000000000000000000000BD5D00000000009C
:100A400000000000000000000000000000000000A6
:100A500000000010501050105005010980A10185C0
:100A60000319012AB700150126B7009501751081F9
:100A700000C0050C0901A101850419012AA0021575
:100A80000126A002950175108100C005010906A18B
:100A900001050719E029E715002501950875018171
:100AA0000205FF090315002501950175088102055E
:100AB00007190029FF150026FF009506750881001B
:100AC0000508190129059505750191029501750320
:100AD0009101C009023B00020100A0FA09040000D4
:100AE000010301010009211101000122480007054D
:100AF000810308000A090401000103000000092124
:100B0000110100012232000705820320000A1201B0
:100B1000100100000008AC05500274000102000141
:100B2000480343006F0072006E00650020004B0018
:100B30006500790062006F006100720064002000AF
:100B40005200650076002E003100200028004C0085
:100B500065006700610063007900200053007000A9
:100B60006C00690074002900000016034100700049
:100B700070006C006500200049006E0063002E00CC
:100B800000000403090411241FBECFEFDAE0DEBF2A
:100B9000CDBF04B603FE27C08091DC089091DD082C
:100BA000A091DE08B091DF088730904BA740B04B92
:100BB000D1F41092DC081092DD081092DE08109239
:100BC000DF0814BE84B7877F84BF0FB6F894A8955A
:100BD00080916000886180936000109260000FBE79
:100BE000E0E0F8E3099528E0AAE4B7E001C01D922F
:100BF000AC3DB207E1F717E0A0E0B1E0ECE2F8E5C8
:100C000002C005900D92AA34B107D9F70E949F2522
:100C10000C94F62B0C940000E8EDF0E080818E7FC0
:100C200080831092E2001092DA001092E100A0EEB0
:100C3000B0E08C9181608C9380818F77808319BC28
:100C4000A7EDB0E08C918E7F8C9380818F7E808326
:100C50001092BD0808952091E4003091E50095E6DA
:100C6000A9012091EC00822F817020FF06C08091A5
:100C7000E80080FF06C080E008952091E80022FD92
:100C80001AC08091CA08882389F0853089F0809144
:100C9000EB0085FD0FC02091E4003091E500421784
:100CA0005307F9F29150E1F684E0089582E0089547
:100CB00083E0089581E00895EF92FF920F931F93D0
:100CC000CF937C018B010E942B06C82F811117C086
:100CD0008091E80085FD0BC08091E8008E778093BD
:100CE000E8000E942B06882399F3C82F08C0F7015B
:100CF00081917F018093F1000150110949F78C2FF8
:100D0000CF911F910F91FF90EF9008958091CC08A3
:100D100087FF13C08091E80082FF06C08091E80041
:100D20008B778093E80004C08091CA088111F2CFCC
:100D300008958091CA088823D9F38091E80080FF44
:100D4000F8CF8091E8008E77ECCF982F9093E90050
:100D5000242F762F50E0891731F07091EC0020910C
:100D6000ED005091F00021FD07C09F5F973071F7B3
:100D70008093E90081E008953091EB003E7F30934D
:100D8000EB003091ED003D7F3093ED003091EB00B2
:100D900031603093EB007093EC002093ED005093A2
:100DA000F0002091EE0027FDE0CF80E00895CF9283
:100DB000DF92EF92FF920F931F93CF93DF93C8EDD3
:100DC000D0E088818F7E8883E7EDF0E080818160CC
:100DD000808384E082BF81E08093BD0888818E7F1C
:100DE000888302EE10E0F80110821092DA0081EEA2
:100DF000C82ED12CF601108288818F778883888154
:100E00008068888388818F7D888319BC1092CA0886
:100E10001092CB081092C9081092C80890EEE92EE3
:100E2000F12CF70180818B7F8083888181608883AA
:100E300042E060E080E00E94A506F60180818E7F9E
:100E40008083F801808181608083808188608083D5
:100E5000F70180818E7F8083888180618883DF9124
:100E6000CF911F910F91FF90EF90DF90CF90089559
:100E7000FC018091D2089091D30886179707A0F0C3
:100E80006115710529F49091E8009E779093E80030
:100E900090E06115710551F4911108C08091E8004E
:100EA00082FF34C080E00895BC01F2CF8091CA086F
:100EB0008823C1F18530C1F18091E80083FD30C005
:100EC0008091E80082FDEACF8091E80080FFE1CFC9
:100ED0008091F3002091F200382F6115710519F00F
:100EE0002830310558F091E02830310509F090E0C4
:100EF0002091E8002E772093E800CBCF819180935A
:100F0000F100615071092F5F3F4FE7CF8091CA0810
:100F1000882341F0853041F08091E80083FFBECF07
:100F200081E0089582E0089583E008950895809116
:100F3000BF0808952FB7F89480915F0890916008DA
:100F4000A0916108B09162082FBF0895809590919B
:100F50005A08982390935A08089580915A089091BE
:100F60005908892B90915808892B80934A07E09162
:100F7000A808F091A908309731F00280F381E02DA4
:100F80008AE497E009940895E92FEE0FE90FEE0F38
:100F90008E0F982F977086958695869525E0829F6F
:100FA000F0011124E65CF74F50E040E080E0219131
:100FB00030E0092E02C0369527950A94E2F7217099
:100FC0003327042E01C0220F0A94EAF7822B4F5FC9
:100FD0005F4F4530510559F70895E92FEE0FE90F9E
:100FE000EE0F8E0F982F977041E001C0440F9A9535
:100FF000EAF786958695869595E0899FF0011124FC
:10100000E65CF74F30E020E070E05191DF0111978E
:10101000CB01022E02C0969587950A94E2F7817063
:1010200081958527842385278C932F5F3F4F25301B
:10103000310559F70895882341F08095909159081A
:101040008923809359080C94AD070895882339F0BB
:1010500090915908982B909359080C94AD070895D6
:10106000882321F00E94A6070C94AD0708958823D9
:1010700039F090915A08982B90935A080C94AD0728
:10108000089520911808309119082817390771F030
:101090009093190880931808E091A808F091A90886
:1010A000309721F00084F185E02D09940895209176
:1010B0001608309117082817390771F09093170810
:1010C00080931608E091A808F091A908309721F0C4
:1010D0000680F781E02D0994089510925908109226
:1010E00058080E94AD0790E080E00E94570890E009
:1010F00080E00C94410860939C0870939D08809355
:101100009E0890939F080C946D080F931F9341E0E5
:1011100050E060E070E004C0440F551F661F771F69
:101120008A95D2F7CB01BA0160957095809590951C
:1011300000919C0810919D0820919E0830919F0875
:1011400060237123822393231F910F910C947B08BA
:101150000F931F9341E050E060E070E004C0440F43
:10116000551F661F771F8A95D2F780919C08909132
:101170009D08A0919E08B0919F088A019B01082BB1
:10118000192B2A2B3B2BC901B8011F910F910C94ED
:101190007B0860935B0870935C0880935D08909374
:1011A0005E080C946D08E091A808F091A9083097AA
:1011B00021F00190F081E02D099480E00895CF9313
:1011C000DF93EC0181E0898B80915A089F81892B04
:1011D00080935A08809159089885892B80935908E3
:1011E0000E94AD07EA81FB81309739F06C897D89D7
:1011F000CE010696DF91CF910994DF91CF910895AA
:10120000EF92FF920F931F93CF93DF93EC018A85A8
:10121000811139C0EB80FC8087E5F81A26E12E9D0C
:10122000C0012F9D900D1124DC01A75CBD4F1496C9
:10123000ED91FC911597309731F054966D917C911A
:10124000815C9D4F099586E18E9D80018F9D100DDB
:101250001124075C1D4FF80187810E94A607F80141
:101260008085982F909580915908892380935908FB
:101270000E94AD07188219861B861E821D8210925D
:10128000360810923508DF91CF911F910F91FF9092
:10129000EF90089510928C0884E080938D08089553
:1012A000FA01811101C0FB010994E1E7F7E08183B4
:1012B00060834283339698E0E331F907C1F70895DC
:1012C000FC01EE0FFF1FE80FF91FEF58F84F618385
:1012D0004083228308958091D408837011F0109286
:1012E00026058091D4088C7F8093D408089580913E
:1012F000D408837011F4109226058091D4088C7F55
:1013000081608093D40808950C945509972F70E05C
:1013100026E0929F600D711D1124FB0140E3849F24
:10132000E00DF11D1124EE0FFF1FE756F94F259137
:101330003491C9012238310591F1C0F521333105CD
:1013400009F490C028F52932310509F484C02A3205
:10135000310509F48EC0211540E5340708F0A4C01A
:10136000211540E4340708F026C12F3B310508F071
:1013700087C0283A310508F013C1253A310508F035
:1013800006C12430310500F521303105E9F03CC0BB
:101390002533310509F458C029333105E1F6209190
:1013A000A008237089F080EE90E00895233E310577
:1013B00071F158F4203E3105E9F0223E310559F62D
:1013C0002091A00822FD1EC00895263E310551F14E
:1013D000273E310571F1243E310509F0BCCF209143
:1013E000A10821FFF1CF8091A00884FD0DC087EEF8
:1013F00090E008952091A00820FD0CC13091A10833
:1014000030FFE2CF24FF09C190E080E0DDCF2091E2
:10141000A00822FD05C13091A10830FDC4CF24FFF2
:10142000D3CFF2CF2091A00823FFCECF24FDECCF65
:10143000DECF2091A00823FDF6C03091A10831FF36
:10144000EECF84EE90E008952091A00825FFBCCF58
:1014500089E290E008952091A00825FFB5CF85E3AB
:1014600090E008952091A00826FFAECF8AE290E098
:1014700008952091A00826FFA7CF81E390E008956A
:10148000283E310558F4213E310508F09DCF2F3B11
:10149000310509F0B9CF80E090E708953A9521151C
:1014A0003F4108F491CFB0CF211583E5380738F5D7
:1014B000211592E5390708F087C0211541E5340769
:1014C00008F07DC0C90164E0969587956A95E1F7BB
:1014D000382F3370822F86958695837040E2849FE3
:1014E000C0011124932B237041E050E002C0440F4F
:1014F000551F2A95E2F7842B952B9C68089521159A
:1015000089E53807F0F4211598E5390708F06FC030
:10151000211544E5340708F077CFA901437055271A
:1015200081E090E002C0880F991F4A95E2F7269566
:10153000269540E2249F90011124822B932B9A68D8
:10154000089521158AE5380708F05ECF822F8F7045
:101550004091A00842FF05C023FF4EC0822F877034
:1015600084609091A10890FF07C0982F98719830DF
:1015700009F048C0877F816044FD877E94E03695FE
:1015800027959A95E1F72F70922F90690895255A23
:10159000E22FF0E0ED5EF84F808190E090640895D6
:1015A000285AE22FF0E0EE0FFF1FEA5EF84F80812D
:1015B000918194640895C9019F70906A0895922F53
:1015C0008827816F906A0895A9014370552781E0AB
:1015D00090E002C0880F991F4A95E2F7269526955C
:1015E00040E2249F90011124822B932B86CF922FCF
:1015F0008827806F906A089522FFB3CF822F8B7067
:101600008860AFCF982F9171913009F0B5CF8E7F60
:101610008860B2CF89E390E0089583EE90E008956A
:1016200082EE90E0089586EE90E00895BF92CF920A
:10163000DF92EF92FF920F931F93CF93DF938C0172
:10164000C0909C08D0909D08E0909E08F0909F0864
:1016500080915B0890915C08A0915D08B0915E0854
:10166000C82AD92AEA2AFB2ACFE1D0E0BC2ED7012A
:10167000C6010C2E04C0B695A795979587950A9438
:10168000D2F780FD0EC0219788F7B12C8B2DDF910A
:10169000CF911F910F91FF90EF90DF90CF90BF906F
:1016A0000895B8018C2F0E948609019761F3EECF4F
:1016B000CF93DF939C013A9521153F4168F5EC01EA
:1016C000CC27D170DC01AA27B270AC01442754703A
:1016D0009C012227387094FF11C080E1CD2B09F4C2
:1016E00080E0AB2B09F08062452B09F08064232B4E
:1016F00009F08068FB01DF91CF91099481E0CD2B47
:1017000009F480E0AB2B09F08260452B09F084607E
:10171000232B81F38860EECFDF91CF9108959F92C4
:10172000AF92BF92CF92DF92EF92FF920F931F93EF
:10173000CF93DF93C82F6A017B0120E030E040EFB8
:1017400052E4CB01B6010E944A2B181634F4C12C86
:10175000D12C80EFE82E82E4F82E20E030E04FE735
:1017600053E4C701B6010E941B2A6B017C018FE381
:10177000C802E0011124C25FDC4F06E010E0FE0168
:101780003296849131979490FE01B490682F70E066
:1017900090E080E00E94BE2AA70196010E944F2B94
:1017A0000E948D2AA62E692D70E090E080E00E94B4
:1017B000BE2AA70196010E944F2B0E948D2A962EC9
:1017C0006B2D70E090E080E00E94BE2AA701960198
:1017D0000E944F2B0E948D2A2A2D492DC8010E945C
:1017E000600923960F5F1F4F0B31110509F0C7CF1A
:1017F000DF91CF911F910F91FF90EF90DF90CF90ED
:10180000BF90AF909F900895E0912408F091250833
:1018100080E191E0309711F0815009F40895938BA5
:101820000688F789E02DF6CF81559D45880F991FD1
:10183000E0913108E80FF92FF11DEE0FFF1FE4557D
:10184000FF4F859194910895CF93DF93A1E0B7E086
:1018500045E057E0C1E0D0E08D91E82FE295EF70D0
:10186000F0E061A18F709E0101C0220F8A95EAF716
:10187000922F9095962391A382A1822B82A34A173F
:101880005B0751F7DF91CF910895CF9384E090E00B
:101890000E94D929C82F81E290E00E94D929982F6F
:1018A0008C2FCF910895CF93DF9300D00F92CDB7B7
:1018B000DEB79091CA08943019F589837B836A83D7
:1018C00082E08093E9008FEF9091E800815095FDD0
:1018D00006C095ED9A95F1F700008111F5CF809142
:1018E000E80085FF0DC050E040E063E070E0CE010D
:1018F00001960E945C068091E8008E778093E80054
:101900000F900F900F90DF91CF910895BC0184E06C
:101910000C94530CBC0183E00C94530CCF93DF93D5
:10192000EC0181E08093E9008FEF9091E800815015
:1019300095FD06C095ED9A95F1F700008111F5CF60
:101940008091E80085FF14C050E040E068E070E05E
:10195000CE010E945C068091E8008E778093E800BB
:1019600088E0FE01A0ECB8E001900D928A95E1F7C5
:10197000DF91CF910895539A3BB1377F2BB1286007
:101980004FB7F89481E797E0FC015191CF0168E0EF
:101990002BB9000000C057FF3BB9550F000000C035
:1019A00000C000C03BB900C06A9591F7F8E08331F0
:1019B0009F0751F74FBF8FE594E00197F1F700C003
:1019C0000000089580916007811111C08091D800B6
:1019D00080618093D8008AE18A95F1F700C09091E8
:1019E000D900892F817090FF82E08093600781E0A9
:1019F00090916007913009F080E008958F929F9256
:101A0000AF92BF92CF92DF92EF92FF920F931F930C
:101A1000CF93DF9380911306C4E0D0E0882311F0C8
:101A2000D0E0C0E081E0C82E87E0D82EAE014C5651
:101A3000574F7A018A01912CAA24A394B12C25E056
:101A4000822EF60181916F01E82FE295EF70F0E0B0
:101A500021A18F70A50102C0440F551F8A95E2F79E
:101A6000CA01922F982B91A392A18095892382A3DA
:101A700050EA5A95F1F7E4E4F7E020E050E040E066
:101A80003191A32FA295AF70B0E090968C9190E029
:101A90003F7002C0959587953A95E2F780FD3CC06E
:101AA000C501042E01C0880F0A94EAF7282B4F5F66
:101AB0005F4F4630510521F7F8018081821729F0E8
:101AC000208380924201992493940E94240C0F5FFA
:101AD0001F4FF5E0CF16F7E0DF0609F0B2CF809197
:101AE0004201882359F08150809342018823B1F04C
:101AF0008FE99FE00197F1F700C00000892DDF9189
:101B0000CF911F910F91FF90EF90DF90CF90BF90FA
:101B1000AF909F908F90089580E0C8CFC555D74F64
:101B200084E0F70191917F0199938150D1F7E6CF3D
:101B30006CEE7EEF90E080E00E94152A60E082E08B
:101B400090E00E94F72960E083E090E00E94F7298E
:101B500010925B0810925C0810925D0810925E086B
:101B600060E084E090E00E94F72960E081E290E08C
:101B70000E94F72960E085E090E00E94F72960E08C
:101B800086E090E00E94F7296FEF87E090E00E94E6
:101B9000F72940E050E0BA0188E090E00E94092A6D
:101BA00060E08DE090E00E94F72940E050E0BA014B
:101BB00088E190E00E94092A60E087E190E00E94BD
:101BC000F72940E050E0BA018CE190E00E94092A38
:101BD00060E080E290E00E94F72940E050E0BA0126
:101BE00088E190E00E94092A40E050E0BA018FE0CD
:101BF00090E00E94092A40E050E0BA0183E190E0C1
:101C00000C94092A10925A08ECE4F7E086E0DF0110
:101C10001D928A95E9F70C946D081F93CF93DF937B
:101C2000CDB7DEB7AA970FB6F894DEBF0FBECDBF13
:101C30008CEC98E02091F100FC012193CF01F8E0B9
:101C4000843D9F07B9F78091CD08833009F46FC0B8
:101C5000B8F4813009F446C0823009F4B0C08091F4
:101C6000E80083FF7BC28091CC089091CD089A3028
:101C700008F074C2E92FF0E0E850F44D0C94C32949
:101C80008A3009F48BC08B3009F46EC0893039F783
:101C90008091CC08813219F78091D0089091D108B9
:101CA0000297E8F68091E800877F8093E8008091B2
:101CB000E80082FF37C09091F3008091F200029714
:101CC00029F48091F1008B7F813021F48091F10023
:101CD0008093BF088091E8008B778093E8000E9492
:101CE0008606BDCF8091CC08813A09F0B8CF8091AB
:101CF000E800877F8093E8008091D0089091D10818
:101D0000892B61F468E080EC98E070E00E9438076D
:101D10008091E8008B778093E800A1CF60E090E0AD
:101D200080E0F3CF8091CA088111C1CF98CF809114
:101D3000CC08813A09F093CF8091D0089091D108D6
:101D4000892B09F08CCF8091E800877F8093E80091
:101D50008091E80080FFFCCF809121068093F10004
:101D60008091E8008E77B9CF8091CC08813209F05C
:101D700076CF8091D0089091D108892B09F06FCF50
:101D80008091E800877F8093E8000E94860680911A
:101D9000CE08809321060E94020E61CF8091CC086C
:101DA000813209F05CCF8091E800877F8093E80062
:101DB0000E9486068091CF088093BE0850CF809104
:101DC000CC08813A09F04BCF8091E800877F80935F
:101DD000E8008091E80080FFFCCF8091BE08BECF74
:101DE000803899F0823809F0B9C18091D0088F709D
:101DF000873008F0B3C18093E9008091EB0085FB48
:101E0000882780F91092E90006C08091C808909157
:101E1000C908911182609091E800977F9093E80043
:101E20008093F1001092F1008091E8008E7792C1CA
:101E3000882309F480C1823009F090C18091CE08D6
:101E4000811183C18091D0088F702FEF280F263029
:101E500008F084C18093E9002091EB0020FF75C158
:101E6000933031F48091EB0080628093EB006DC180
:101E70009091EB0090619093EB0021E030E001C085
:101E8000220F8A95EAF72093EA001092EA008091E7
:101E9000EB008860EACF811161C11091CE081F77F5
:101EA0008091E3008078812B8093E3008091E800AB
:101EB000877F8093E8000E9486068091E80080FF7B
:101EC000FCCF8091E30080688093E30082E01111F1
:101ED00083E08093CA0842C18058823008F03EC136
:101EE0008091CE089091CF088C3D23E09207A1F518
:101EF00083E08A838AE289834FB7F894DE011396E0
:101F000020E03EE051E2E32FF0E050935700E491EF
:101F100020FF03C0E295EF703F5FEF708E2F90E0DF
:101F2000EA30C0F0C7968D939D932F5F243159F707
:101F30004FBF8091E800877F8093E8006AE270E0FD
:101F4000CE0101960E9438078091E8008B7780933C
:101F5000E80004C1C096E7CF4091D0085091D10865
:101F6000292F33272330310509F444C078F5213077
:101F7000310509F46FC08BE390E0E3EDFAE0223025
:101F8000310509F0EBC02091E800277F2093E8009D
:101F90002091D2083091D3088217930708F49C014E
:101FA00040E02115310509F064C0411162C0809103
:101FB000E80082FDC9CF8091CA08882329F28530C4
:101FC00019F28091E80083FFF2CFBECF21323105B4
:101FD000A9F12232310509F0C1C04115510509F4BA
:101FE00043C04130510509F0B9C082E390E0E9E512
:101FF000FAE0C9CF992781309105C1F0009759F0D7
:10200000029709F0ABC0E0E2FBE0E4918E2F90E094
:10201000E0E2FBE007C0E2E8FBE0E4918E2F90E015
:10202000E2E8FBE0009709F499C0ADCFEAE6FBE0F7
:10203000E4918E2F90E0EAE6FBE0F4CF41155105E4
:1020400071F04130510509F089C089E090E0EEEF70
:10205000FAE099CF82E190E0EEE0FBE094CF89E0F6
:1020600090E0E5EEFAE08FCF88E490E0EBE8FAE06C
:102070008ACF8091CA08882309F466CF853009F495
:1020800063CF8091E80083FD5FCF8091E80082FDFF
:102090008ECF8091E80080FF84CF9091F3008091F3
:1020A000F2002115310519F08830910550F041E01A
:1020B000089709F040E08091E8008E778093E8006F
:1020C00070CF44914093F10031962150310901962F
:1020D000E8CF803809F042C08091E800877F809384
:1020E000E8008091CB088093F1009ECE811136C02C
:1020F0001091CE08123090F58091E800877F809390
:10210000E8001093CB080E948606112311F084E0AA
:1021100005C08091E30087FDFACF81E08093CA0873
:1021200042E061EC81E00E94A50642E261EC82E0BF
:102130000E94A50613C08091CE08813079F481E019
:10214000933009F080E08093C9081092E9008091F3
:10215000E800877F8093E8000E9486068091E8006F
:1021600083FF0AC08091E800877F8093E800809118
:10217000EB0080628093EB00AA960FB6F894DEBF66
:102180000FBECDBFDF91CF911F9108950E94020E27
:102190002FEF84E39CE0215080409040E1F700C0A5
:1021A000000081E08093E00080E28093D8001092EC
:1021B000C9008FE19EE40197F1F700C0000087E0BD
:1021C00090EBDC018093DC089093DD08A093DE089F
:1021D000B093DF0888E19CE00FB6F894A89580934F
:1021E00060000FBE90936000FFCF8823B1F19CEF99
:1021F000980F913A78F4ECE4F7E022E537E091911A
:10220000891303C0DF0111971C922E173F07B9F7FE
:102210000C94AD0790E2980F983050F4877091E0DD
:1022200001C0990F8A95EAF7892F0E94A607F0CF7F
:102230009BE5980F933020F490E080E00C945708D1
:1022400098E5980F973120F490E080E00C944108D5
:102250008F3B19F410924B07DBCF0895CF93DF9398
:10226000EC010E94F510CE01805E9109089720F0E4
:102270006BE178E0209711F460E378E0CE01DF9124
:10228000CF910C94580B809164079091650700974B
:1022900011F00E942E1110926507109264070895A4
:1022A0008091620790916307009731F00E942E1190
:1022B000109263071092620708950C9450110E94C7
:1022C000140C009711F00C942E11089580912F0892
:1022D000882369F010922F0880913108882321F01B
:1022E00082EE90E00C942E1183EE90E0FBCF0895E7
:1022F00080913108811103C080EE0C94F51080911B
:102300002308823019F483EE0E94F51010922308FE
:1023100008950F931F93CF93C82F882309F46EC09D
:102320008CEF8C0F813AA8F50CE417E082E597E07A
:10233000F8012191C217F9F08E179F07D1F7EFEF3F
:1023400080E0D8019D918D01C91781F0EF3F19F40C
:10235000911101C0E82F8F5F863099F7EF3F31F080
:102360000E2E000CFF0BE65BF84FC283CF911F913E
:102370000F910C94AD07ECE4F7E02191C21303C078
:10238000DF0111971C928E179F07B9F70E94AD07C6
:10239000D6CF80E28C0F883068F4C77021E030E03F
:1023A00001C0220FCA95EAF780915A08822B8093C8
:1023B0005A08DCCFEBE5EC0FE33050F4F0E0ED5ED3
:1023C000F84F808190E0CF911F910F910C945708A6
:1023D000E8E5EC0FE73160F4F0E0EE0FFF1FEA5E96
:1023E000F84F80819181CF911F910F910C944108FA
:1023F000CF3B21F481E080934B07B8CFCF911F9161
:102400000F910895CF93C82F0E948911C93349F4C1
:102410002FEF87EE93E0215080409040E1F700C01D
:1024200000008C2FCF910C94F5100F93CF93DF9376
:10243000C42FD22FFC018281882399F04093370862
:102440000E949A079093150880931408C77081E042
:1024500001C0880FCA95EAF7DF91CF910F910C94D4
:10246000370880913708841340C0209114083091B8
:1024700015089FB7F89440915F08509160086091EB
:102480006108709162089FBF421B530B4E3551404B
:1024900060F5C0E2CD0F8D17C1F090E2980F983033
:1024A00048F4877091E001C0990F8A95EAF7892F67
:1024B0000E943008C83048F481E09D2F977001C019
:1024C000880F9A95EAF70E943708802F0E9402121F
:1024D000C83090F4D77081E001C0880FDA95EAF730
:1024E000DF91CF910F910C943008C77081E001C04B
:1024F000880FCA95EAF7F4CFDF91CF910F91089535
:1025000080918D08813079F0882349F0823039F04C
:10251000843069F08091130880935A08089582EE00
:102520000E94F510F7CF8CE20E940212F3CF88E2EE
:10253000FBCFCF92DF92EF92FF920F931F93CF9337
:10254000DF93EC018AE0C82E8881882309F479C0E2
:102550008130C9F599818A81913029F422960E94AF
:1025600002122196F1CF923021F422960E94891115
:10257000F8CF933021F422960E94F510F2CF9430D8
:1025800011F02196EECF229630E020E0AE014F5FB1
:102590005F4F8053990B8A30910550F021503109DB
:1025A00000F38FE99FE00197F1F700C00000F6CF3C
:1025B000C29EB001C39E700D11249C01260F371FCF
:1025C0008981EA01E3CFE82FF0E0E951FB4FD49095
:1025D000082F06950695069510E0F801E952FB4F85
:1025E000E4908770F12C082E02C0F594E7940A94C9
:1025F000E2F7E1E0EE22FF2409531B4FF8010491BA
:1026000010E002C0159507958A95E2F70170112731
:10261000E114F10419F081EE0E94891101151105F0
:1026200019F086EE0E9489118D2D0E940212012B55
:1026300019F086EE0E94F510EF2809F492CF81EE92
:102640009BCFDF91CF911F910F91FF90EF90DF9083
:10265000CF900895CF93DF93EC01805E91090897A6
:1026600020F066E278E0209711F467E378E0CE018D
:102670000E94580B8C2FDF91CF910C948911CF932E
:10268000DF93EC010E942A13CE01DF91CF910C94CD
:102690002E118FEB0E94891186E693E00E943F1372
:1026A0008FEB0C94F510BF92CF92DF92EF92FF92D6
:1026B0000F931F93CF93DF936B017C010CE110E02C
:1026C000C7E0D0E0BB24B394D701C601002E04C0FC
:1026D000B695A795979587950A94D2F7282F2F70CE
:1026E000D9F4B11004C087E290E00E943F13219713
:1026F00004501109CF3FDC0751F4DF91CF911F91B6
:102700000F91FF90EF90DF90CF90BF900895C4306D
:10271000D105D4F6B12CD8CF822F90E02A3028F4FE
:102720004D960E943F13B12CE2CF0697FACF8091CD
:102730005A088093130810925A0880918D088130AE
:1027400089F0882359F0823091F08430B9F08FE31A
:102750009CE90197F1F700C00000089582EE0E9405
:102760008911F5CF88E193E00E943F13F0CF82EE0C
:102770000E94891187E50E940212E9CF86EE0E942D
:10278000021288E1F8CFCF93DF9320913108FC014A
:10279000EB58FD45EE0FFF1FE20FF11DEE0FFF1F7F
:1027A000E45EFD4FC591D491211105C0CE01DF91AA
:1027B000CF910C943F130E949713BE0190E080E0EC
:1027C0000E945313DF91CF910C9480120F931F93AB
:1027D000CF93DF93062F87539D4526E0289FE00186
:1027E000299FD00D1124C457DE4F13E0FE018591BF
:1027F000949189322DE5920759F0002311F08AE275
:1028000090E00E943F13113019F011502296EECF44
:10281000DF91CF911F910F910895EF92FF920F9347
:102820001F93CF93DF9300D000D0CDB7DEB78C01DC
:10283000FB018081918145E0489F9001499F300DC7
:102840001124F901EC59FD4F949188EF890F8230E2
:1028500008F03CC081E040912E08411180E0817079
:10286000F901EB59FD4F459154915A834983F90180
:10287000E959FD4F259134913C832B8330E020E0D2
:10288000882349F051E040E0F8012081223009F02E
:1028900050E0252F342F220F331FA1E0B0E0AC0F02
:1028A000BD1FA20FB31FED90FC909730A9F080F4EC
:1028B000963009F43FC00F900F900F900F90DF916A
:1028C000CF911F910F91FF90EF90089581E0C7CFB6
:1028D000983081F1993079F78823B1F0F80180813F
:1028E000823090F08430C0F48250990B880F991F89
:1028F00021E030E02C0F3D1F820F931F61E0FC01AF
:10290000808191810E94E613F8018081833021F457
:1029100060E0C7010E94E61360E0C7010F900F90CE
:102920000F900F90DF91CF911F910F91FF90EF903B
:102930000C94E613882351F0F8018081823030F046
:10294000843058F48AE290E00E943F13F8018081BD
:10295000833019F4C7010E943F13C7010F900F90F5
:102960000F900F90DF91CF911F910F91FF90EF90FB
:102970000C943F13FB014081518165E0649F9001FD
:10298000659F300D1124F901EC59FD4F4491FC0174
:102990008081813059F42B593D4FF90185919491F3
:1029A0004230B1F130F44130A9F1089529593D4F39
:1029B000F4CF433019F0453021F0089560E00C94D5
:1029C000E6138530910541F168F482309105C9F034
:1029D00018F4019799F0089583309105A9F00497B0
:1029E000A9F008958730910529F100F19C01225941
:1029F0003D452630310508F50C94C3138BE690E075
:102A000009C08CE690E006C00E94C61080E79DE5F4
:102A10000E94140C0C943F1384E89DE50E94140C52
:102A200090936507809364070C942A1387EF96E0D0
:102A30000C9499128DEF96E0FBCF0895CF93C82F99
:102A40000E94040CCC2399F060E870E080E090E0F4
:102A50000E947B0881EE90E00E942A1380EE90E0B5
:102A60000E942A1382EE90E0CF910C942A1381EEFB
:102A700090E00E942E1180EE90E00E942E1182EED6
:102A800090E00E942E1161E070E080E090E0CF9134
:102A90000C947B080E94140C009711F00C942A13DC
:102AA00008958091620790916307009761F485EE25
:102AB00090E00E942A1385EE90E090936307809344
:102AC000620781E008950E942E1110926307109210
:102AD0006207F7CF80912F0881110EC081E08093AB
:102AE0002F0880913108882321F082EE90E00C9429
:102AF0002A1383EE90E0FBCF08950F931F93CF939B
:102B0000DF938C01FB018081918125E0289FF001FA
:102B1000299FF00D1124EB59FD4FC591D49180915F
:102B20002E0881110BC0F8018081813071F4CE0133
:102B30000E943F13F8018081833038F1CE01DF918C
:102B4000CF911F910F910C943F138230B9F48AE218
:102B500090E00E943F1380913208882319F085EE9F
:102B60000E94F51084E390E00E943F1380913208A8
:102B70008823E9F285EE0E948911D9CF8330D1F6FE
:102B80008AE290E00E943F13D2CFDF91CF911F9154
:102B90000F91089580913108811105C080EE0E9447
:102BA000891181E0089581E080932308FACF45E000
:102BB00050E06CE170E084ED98E00C94E72990918E
:102BC000D408937059F08093D5086093D60849379C
:102BD00008F048E74093D7080C94D7150895E4ED22
:102BE000F8E0438128E0421B08F440E081816281E3
:102BF00090E00C94DF15E4EDF8E0438128E0420F0B
:102C000008F44FEF8181628190E00C94DF15E4EDD0
:102C1000F8E0628128E0621B08F460E08181438172
:102C200090E00C94DF15E4EDF8E0628128E0620F9B
:102C300008F46FEF8181438190E00C94DF15E4ED9F
:102C4000F8E08181438162818850990B0C94DF15F3
:102C5000E4EDF8E0818190E04381628108960C9474
:102C6000DF15E4EDF8E024813AE0230F08F42FEFBC
:102C700024830C94D715E4EDF8E024813AE0231B7B
:102C800008F420E024830C94D7159091D408937015
:102C900099F0811109C094609093D4081092260590
:102CA000662351F00C94D715833010F09860F4CF60
:102CB000880F880F982BF0CF08958091D4088695BF
:102CC0008695815009F482E061E00C94451680916C
:102CD000D408869586958F5F833008F081E061E0A7
:102CE0000C944516E4EDF8E089E08083809122069B
:102CF00090912306A091240681839283A3838FE77A
:102D000084830C94D715CF9380914501909146010F
:102D10000196E1F480913F05909140050296B1F44F
:102D200081E09091A708911101C080E0C82FC17087
:102D3000809191088C1741F0882351F00E946B0913
:102D40000E94D715C0939108CF91089581E0EECFEE
:102D50000E947709F5CF8F929F92AF92BF92CF9248
:102D6000DF92EF92FF920F931F93CF93DF938091A7
:102D70002505C0E0D6E18F3F09F0D4C080916607F9
:102D800090916707A0916807B09169072FB7F894F1
:102D9000C0905F08D0906008E0906108F0906208F1
:102DA0002FBF97018601081B190B2A0B3B0BEFB7AE
:102DB000F89440915F0850916008609161087091AB
:102DC0006208EFBF409366075093670760936807F8
:102DD0007093690740911E0850911F086091200868
:102DE000709121084F3FEFEF5E076E077E0709F0F5
:102DF000A5C0C0916308E3E6F8E06C2F70E001978E
:102E0000AF4FBF4F8C199D09AE09BF09C713B2C0A0
:102E10006093630880911E0890911F08A09120087C
:102E2000B091210821E08132FEE49F07A105B105A0
:102E300008F420E0D0E081323EE49307A105B1051B
:102E400040F43091D408D32FD37019F0D32FD695F6
:102E5000D69530917007321779F020937007209142
:102E60003008211109C081329E44A105B10508F442
:102E700094C081E08093920880912605813009F406
:102E8000A5C0882309F48CC0823009F4FAC18330CC
:102E900009F401C2DF91CF911F910F91FF90EF9044
:102EA000DF90CF90BF90AF909F908F900895D29F6A
:102EB000F001D39FF00D1124E75CFD4F4289538947
:102EC0004115510511F44EE551E0D29FF001D39F19
:102ED000F00D1124E75CFD4F8681882311F12585D3
:102EE00036856FB7F89480915F0890916008A09143
:102EF0006108B09162086FBF821B930B4817590796
:102F000080F4CD9F800111248189811105C0C80101
:102F1000875C9D4F0E94DF08C801815C9D4F0E9425
:102F20000009CF5F2C2F30E080912505082E000C82
:102F3000990B821793070CF0BACF20CF48015901A3
:102F400080949094A094B09484169506A606B70633
:102F500060F44FEF5FEFBA0140931E0850931F08D3
:102F6000609320087093210844CF400F511F621FC7
:102F7000731FF2CF418D528D6A01F12CE12C8C151B
:102F80009D05AE05BF0520F461507F5F32963ECFB0
:102F9000400F511F528F418FF8CF0E9483166CCF84
:102FA000109214068091660790916707A0916807B8
:102FB000B091690780936C0790936D07A0936E079B
:102FC000B0936F0781E08093260564CF809148011C
:102FD000D8133BC09091D40893702091470130E002
:102FE00081E09217130609F480E081708093160641
:102FF000DD2369F1D13091F51091D508D090D60834
:10300000E091D708F0E0E959FA4FD11037C0F490B9
:103010001F2DCF2D9DEDA92E95E0B92ED12CC12CC1
:10302000F50181915F0190911506892331F0212FDF
:103030004F2D6C2FC6010E946009FFEFCF1ADF0AE7
:1030400026E3C216D10461F709C081E0CECF882300
:1030500029F040E060E080E00E948409809114063D
:103060008F5F8093140682E0809326058091160678
:10307000811178C0D11179C083E0A5CFED2CF12C5E
:10308000C4910C2FEC2FF0E026E0129FC001112418
:103090002FEF30E0B9010E94AF29812F90E0880F17
:1030A000991FA5E5A69FA001A79F500D1124841B81
:1030B000950B982F990F890FD901AE19BF09AE9FB3
:1030C000A001AF9F500DBE9F500D1124152FD89E0B
:1030D000D0011124AB2FBB276901CA1ADB0ACE9E8F
:1030E000D001CF9EB00DDE9EB00D11246901C81A2B
:1030F000D108CE9CC001CF9C900DDE9C900D112478
:10310000892F9927281B390B2E9FC0012F9F900DC7
:103110003E9F900D1124F92E62307105A1F050F4FC
:103120006115710509F476CF6130710581F0F52ED6
:103130001B2F70CF6430710569F080F06630710527
:1031400009F468CFF4CFFC2EC52F192F63CFFC2EC6
:10315000CB2F60CFF52E1C2FC92F5CCFC52F102F82
:10316000FB2E58CFDD2309F495CE80914501909137
:1031700046010196B1F080916A0790916B07019723
:1031800090936B0780936A07892B59F48FEF9FEF19
:10319000909346018093450181E0809392080E94BC
:1031A000831680919208882309F474CE40E060E091
:1031B00080E00E94840980914501909146018F3FF3
:1031C000980709F43EC040E050E060EF72E40E94CE
:1031D0008F0BC091A708D0E002EA18E087EAE82E3A
:1031E00088E0F82E209751F1F80121918F012F3FAF
:1031F00011F1B12C45E0240390011124C901895932
:10320000994F6C01FC01849198EC883C20F490E08B
:10321000843608F094E620919308222301F12CE9EA
:10322000280F2436F0F4F60134962491B394F4E197
:10323000BF1223C02197E016F106A1F61092920862
:1032400029CE80913F05909140058E3FEFEF9E077C
:1032500009F4BFCF40E050E068EC72E4B8CF8436A8
:1032600010F3F6013396249131974491319764918C
:10327000891B990B0E946009D6CF12160CF4BACFA5
:10328000D9CFD09348018091D408837080934701AF
:103290000E94BB0CF1CE40916C0750916D0760917C
:1032A0006E0770916F072FB7F89480915F08909127
:1032B0006008A0916108B09162082FBF841B950B34
:1032C000A60BB70B8C329140A105B10508F4E2CDF5
:1032D00010922605DFCD9091A7086623D9F095308E
:1032E000A0F4E2EAF8E030E020E041914F3F41F401
:1032F0002E55374FF90180839F5F9093A70805C033
:103300002F5F3F4F2530310581F781E08093920890
:103310000C9483169923C9F3E2EAF8E030E020E048
:103320004191841307C02E55374F8FEFF9018083E9
:103330009150E3CF2F5F3F4F2530310589F7E5CF1F
:1033400080912808909129088036910511F50E94F6
:10335000040C89E30E9489112FEF8EE595E021503E
:1033600080409040E1F700C0000089E30E94F51022
:103370008091610791E089278093610760E082E096
:103380000E946B196091610781E00E946B1980E0D7
:10339000089581E0089580913208882349F085EEF0
:1033A0000E94F5101092320860E082E00C946B19D4
:1033B00008958091320881110EC0809161078111BA
:1033C0000AC085EE0E94891181E08093320861E095
:1033D00082E00E946B1981E0089525E030E030938F
:1033E0006B0720936A07082E000C990B90934601F7
:1033F0008093450181E0809392080C9483168F920C
:103400009F92AF92BF92CF92DF92EF92FF920F9373
:103410001F93CF93DF93CDB7DEB72F970FB6F894F6
:10342000DEBF0FBECDBF4B875C876D877E878F87E2
:103430008E859F85892B31F0CA0189238F3F11F03A
:103440000C94922385E0FE013B96DE0116960190D6
:103450000D928A95E1F789859A85892B41F01E8125
:10346000FF80812F8F218F3F11F00C947E232F96A8
:103470000FB6F894DEBF0FBECDBFDF91CF911F9185
:103480000F91FF90EF90DF90CF90BF90AF909F9003
:103490008F9008950E94160B082F682F89819A81BA
:1034A0000E94ED07E12FF0E026E0F29EE00DF11D15
:1034B000112430E3039FE00DF11D1124EE0FFF1FD7
:1034C000E756F94F059114918885811105C0F8845C
:1034D000F11071C0912C89C0809125058F3FB9F3FF
:1034E00099E3C92E92E0D92EB12CA12C480147E5D1
:1034F000941AFF24F39480912505082E000C990B53
:103500008A159B0524F3D60116968C91169788236D
:10351000E1F119968D919C918017910739F4809172
:103520003508909136088017910779F180911C0831
:1035300090911D088017910779F5209133083091FB
:10354000340880911A0890911B082817390721F533
:1035500010921D0810921C0810921B0810921A0855
:10356000D60150968C91882381F0BFEF8B16910481
:1035700009F058F4F6018185928590931B08809399
:103580001A0810931D0800931C08FFEFAF1ABF0A1A
:1035900026E1C20ED11CAFCFF601F7861487038750
:1035A0008189811103C0C6010E94DF08C601069609
:1035B0000E940009D5CF10921E0810921F08109289
:1035C0002008109221088F812E8136E0839FC00150
:1035D00011248F5B9A4F820F911DDC01EC90BFEF9D
:1035E00099249394EB1609F475CF80906308C92C45
:1035F000D12CC601880D911D099764F188E090E0F7
:103600005C01AC18BD08B6016C59774FA50184E682
:1036100098E00E94ED2BB6016459774FA5018CE626
:1036200098E00E94ED2BA501440F551FB601660FCF
:10363000771F6458774F8CE798E00E94ED2BB60116
:103640006C58774FA50184E798E00E94ED2B8A948F
:10365000809263088091630890E02E2D30E0A901EC
:10366000440F551F4F585A4F220F331FB9016E5840
:103670007A4F21E0280F991508F4E7C0809363087A
:103680000E945011FF2071F080913108813051F477
:1036900080912308813031F483EE0E94891182E009
:1036A0008093230880913008811194C10B3ABDE5C5
:1036B0001B0709F49CC308F019C10633FDE51F0779
:1036C00008F0E7C00A322DE5120708F0A0C10C345B
:1036D000110508F0CFC00A34110508F0D1C0C801A7
:1036E0004E970A9708F4CCC080912D088823B1F03A
:1036F00080919C0890919D08A0919E08B0919F0890
:103700000097A105B10541F067E0B695A79597959B
:1037100087956A95D1F780FF0E94040CC80188271D
:103720009F7E8115924009F446C4980137552F3F7A
:10373000310509F008F444C48885882379F0809124
:103740005A088272013EFCE51F0709F4ACC408F078
:1037500098C4003E3CE5130709F4A1C417FFABC4AD
:103760008885882329F10E9497136801E894D7F887
:103770005CE0E52EF12C96010E2C02C036952795C3
:103780000A94E2F72F7087E290E031F0822F90E008
:103790002A3008F08EC44D960E943F1354E0E51A7B
:1037A000F1088CEFE8168FEFF80629F70E948012D7
:1037B0009885992309F4FDC51092370802305CE51D
:1037C000150708F49BC506318CE5180738F09801F9
:1037D0002B5F3C452930310508F090C50E94450C0F
:1037E0009093A1088093A00800319CE5190709F483
:1037F00054C508F0E2C40830BCE51B0709F443C512
:1038000008F0B1C40430FCE51F0709F430C508F026
:103810009CC402303CE5130709F423C58091A0083D
:10382000826003301C4509F41FC56091A008109107
:10383000A10884E090E00E94F729612F81E290E0E6
:103840000E94F7290E94020E12CE90E0FC01ED5971
:10385000F74FDA013C913183DB013C913187E18AFA
:10386000880F991FFC01ED59F74F128E118E91E0D0
:10387000822FFFCEC8018D549109029708F034CFF2
:10388000FF2009F475C20E94040CC8010E942A138B
:10389000EECD0A383DE5130770F400354DE5140709
:1038A00008F458C2FF2009F45FC20E94040CC8014A
:1038B0000E944A15DCCD0E395DE5150708F45CC29F
:1038C0000F398DE5180708F40FCFFF2009F4CFCD8D
:1038D0000E94040C8FEB90E00E942A13C8018556C9
:1038E0009D450E943F138FEB90E043C2063B9DE550
:1038F000190709F490C2D0F5023BBDE51B0709F496
:10390000B2C2D0F40D3AFDE51F0709F4E6C208F48F
:10391000D8C20E3A3DE5130709F0E6CEFF2009F4C0
:10392000ECC20E94040C80912F08811102C00E94F9
:103930006A158BE292E0AACF043B4DE5140709F427
:10394000DFC208F4ABC2FF2009F491CD0E94040C41
:1039500080912A0891E0892780932A080E941E15E9
:1039600060912A0880E00E946B1981CD0B3B8DE5A8
:103970001807B8F4093B9DE5190708F0D4C2073BC6
:10398000ADE51A0709F451C2083BBDE51B0709F074
:10399000ABCEFF2009F453C20E94040C88E79DE5DA
:1039A00087CF0C3BEDE51E0709F40DC208F4EDC10D
:1039B0000D3B2DE5120709F4ECC20E3B3DE5130764
:1039C00009F092CEFF2009F452CD0E94040C8FE63C
:1039D00090E028C2FF2009F44ACD9091220800937C
:1039E00022089C3109F043CD023109F040CD1092FC
:1039F000300861E070E080E090E00E947B088091F8
:103A00003008811102C00E94831682E0FDC1680166
:103A10004BE2C41A4DE5D40A88E18C9D80018D9D4E
:103A2000100D1124075B1E4FD80111968D919C91AA
:103A300012972091280830912908FF2009F47BC0B3
:103A4000820F931F90932908809328081E96ED916A
:103A5000FC91309739F1C8010995811123C08091FB
:103A6000280890912908F80121813281821B930B4B
:103A7000909329088093280880912808909129081C
:103A80008930910509F44EC18234910509F055C180
:103A90000E94040C90E080E00E94CB1981E00E941B
:103AA0001E15FDC088E18C9DF0018D9DF00D112447
:103AB000E75BFE4F89859A85958B848B8381811185
:103AC0000E94A80888E18C9DF0018D9DF00D1124C5
:103AD000E75BFE4F8681978122853385AC01422BBF
:103AE000532B452B41F02115310519F0C9010E94D6
:103AF000140C0E942A1380912D0891E0980F909346
:103B00002D08811105C01093250800932408B4CF17
:103B1000E0912408F091250880E126893789211554
:103B2000310511F0815029F4178B068B0E94040C8B
:103B3000A3CFF901F2CF009729F082239323892B99
:103B400009F49CC080912D08815080932D0881112B
:103B5000A8C01092250810922408EE24E39488E16E
:103B60008C9DF0018D9DF00D1124E75BFE4F81814E
:103B70009281281B390B309329082093280800884C
:103B8000F189E02D309711F0C801099588E18C9DED
:103B9000F0018D9DF00D1124E75BFE4F8381E091D4
:103BA0002408F091250890E18111B2C088E18C9D34
:103BB000F0018D9DF00D1124E75BFE4F868197810A
:103BC00022853385A901482B592B452B41F021151E
:103BD000310519F0C9010E94140C0E942E1188E1D0
:103BE0008C9DF0018D9DF00D1124E75BFE4F8389C4
:103BF000811136C0248135812115310549F089852F
:103C00009A8544895589841B950B8217930740F543
:103C100088E18C9DF0018D9DF00D1124E75BFE4F36
:103C200080859185009751F08B34BDE59B0709F0A5
:103C300076C060E08BE49DE50E94E61388E18C9DF0
:103C4000F0018D9DF00D1124E75BFE4F8485958575
:103C5000009731F00E94140C009711F00E943F135E
:103C6000EE2061F088E18C9DF0018D9DF00D112416
:103C7000E75BFE4F128A138A178A168A80912608FC
:103C8000909127088930910509F460C0823491052C
:103C900009F053C080912A08882309F400CF86E0F8
:103CA00049C0E0912408F091250880E10E171F0714
:103CB00051F4D80156968D919C919093250880934C
:103CC00024084BCFFA014689578941155105B9F0AF
:103CD0008150A9F004171507A9F7D80156968D91C0
:103CE0009C91978B868B88E18C9DF0018D9DF00DCA
:103CF0001124E75BFE4F128A138A178A168AE12C79
:103D00002ECF2381821709F451CF0688F789E02D41
:103D1000309711F09150A9F70E94850847CF0E9473
:103D20003F138CCF0E94040C0E94501189E00E9426
:103D3000A80883E06F2D0E946B198091280890914C
:103D40002908909327088093260891CB89E00E9448
:103D50008508EFCFFF2009F48ACB0E94040C60E0B5
:103D6000C8010E94E61383CBC8010E945F117FCB7C
:103D7000C8010E942E117BCBFF2009F478CB0E9452
:103D8000040CC8010E94C31372CB80913208FF203B
:103D900069F0882341F00E94040C85EE0E94F51022
:103DA00086E89DE585CD8AE290E070CD882341F0DC
:103DB00086E89DE50E945F1185EE0E94891157CB30
:103DC0008AE290E0D6CF10913208FF2049F00E949D
:103DD000040C80E290E0111159CD87E390E056CDBC
:103DE00080E290E01111C5CF87E390E0C2CFFF20C1
:103DF00009F43DCB0E94040C80913108811107C069
:103E000081E08093310880E00E94ED1930CB109260
:103E1000310881E0F9CFFF2009F429CB0E94040C7E
:103E20008DE690E00E943F1322CBFF2061F00E94BC
:103E3000040C1DCB86EA90E00E943F130AC088E77D
:103E40009DE50E945F11809131088111F3CF0E949E
:103E5000491381E08093300860E071E080E090E0F9
:103E60000E947B08D2CDF1100E94040C8091310891
:103E700081110EC0FF2039F08FEB90E00E942A13D1
:103E800084E490E003CD84E490E00E942E112BCDD9
:103E900087E098E0FF2009F4EACAC4CFF1100E943D
:103EA000040C80913108811106C08CE390E0FF2062
:103EB00009F45FCFEBCC8BE298E0FF2009F4D7CA7E
:103EC000B1CFF110B4CF80913108811103C00E94AD
:103ED0004913CDCA86EA90E0A5CFFF2051F00E9499
:103EE000040C80912F08811102C00E946A158BE298
:103EF00064CF8BE20E94F510BACA8BE292E039CF10
:103F0000FF2009F4B4CA0E94040C80913108811189
:103F100003C086E691E086CF8BE198E00E943F13D4
:103F20008AE090E07FCFFF2009F4A1CA0E94040C30
:103F300081E090E0093B1D4511F08FEF9FEF20914C
:103F40002B0830912C08820F931F97FF1AC084E032
:103F500090E090932C0880932B08E0912B08F0912F
:103F60002C08EE0FFF1FE75FF84F8081918190933F
:103F7000400580933F0581E0809392080E9483165C
:103F800076CA853091052CF310922C0810922B08DC
:103F9000E4CFFF2009F46BCA0E94040C80912E0824
:103FA00091E0811190E090932E08811102C086E08B
:103FB0002BCF85E029CFFF2009F459CAC80132CFA1
:103FC00080912505082E000C990B8217930714F495
:103FD00020932505888596E1929F6001939FD00CE0
:103FE0001124A601475C5D4F7A01DA0150968C934B
:103FF0005097882341F11A961C930E9319971696A1
:104000008C9116978F5F16968C930E949A07F701F2
:104010009687858717828091590890915A08892B35
:1040200080870190F081E02D309741F0D7015496C0
:104030006D917C91C601815C9D4F09951093360866
:104040000093350879CBFA018785882321F01093F6
:1040500034080093330846E1429FC001439F900D0E
:104060001124FC01E75CFD4F2681222309F464CB77
:104070002189222309F460CB815C9D4F0E940009B5
:104080005BCB073E4CE5140708F068CB6EE1600F90
:1040900060938D088CE090E00E94F7295FCB81113E
:1040A00004C081E003C08111FCCF8FEF0E944A0958
:1040B00055CB069771CB043F9CE5190771F1B8F415
:1040C000093DBCE51B0719F10A3DECE51E07B9F1F6
:1040D000083DFCE51F0709F06BCB06E221EE41EE3F
:1040E00068ED7CE5CE0106960E941512C0C9063F18
:1040F0002CE51207F1F0B8F0073F4CE5140709F082
:1041000057CB07E225EE46EE67EF7CE5EBCF07E203
:1041100025EE45EE69ED7CE5E5CF06E221EE40EEC9
:1041200064EF7CE5DFCF07E225EE44EE65EF7CE54A
:10413000D9CF06E221EE42EE66EF7CE5D3CF08E26E
:1041400021E045EE6AED7CE5CDCF8091A00880614D
:1041500006305CE5150709F487C008F48CC080912F
:10416000A008806281C08091A0088D7F0C309CE502
:10417000190709F479C070F48091A0088C600A30A6
:10418000BCE51B0709F470C008F481C08091A00849
:104190008E7F6AC08091A008877F0E30FCE51F07E4
:1041A00009F462C08091A0088B7F0F301C4508F491
:1041B0005BC08091A0088F7E57C00C3F3CE5130781
:1041C00009F45DC030F503315CE5150709F46DC0F5
:1041D00078F401319CE5190709F463C002311C45EC
:1041E00009F023CB0E94020E8091A0088F773CC07B
:1041F0000531BCE51B0709F460C008F474C0809168
:10420000A10881600B3F1C4509F00FCB8093A108EA
:104210000CCB01152DE5120709F44BC088F48091F1
:10422000A1088D7F0E3F4CE5140781F38091A10812
:104230008E7F0F3F1C4550F38091A1088360E6CF2D
:1042400002308DE5180709F457C008F442C060E059
:1042500003301D4509F0E9CA8EE090E00E94F7297D
:10426000E4CA8091A00881608093A008DECA809192
:10427000A0088460F9CF8091A0088860F5CF809174
:10428000A1088260C3CF8091A0088064EDCF0E9416
:10429000020E8091A0088068E7CF8091A0088F7DF2
:1042A000E3CF8091A0088F7BDFCF8091A008837F30
:1042B000DBCF8091A1088C7FA9CF8091A00882FBE1
:1042C000992790F921E0922790FB82F990FB83F9DE
:1042D000CBCF8091A108982F909591708E7F892BDC
:1042E00090FB81F993CF0E94020E9091A008892F34
:1042F00097FB87F98058B8CF61E0AECF80915A081C
:104300008272F801E35CFC45E431F10508F048C035
:10431000EE5FF34D0C94C3298091D40891E0892776
:104320008093D408109226050E94D715A0C84DE5A9
:1043300056E167E676E10E94500999C847E656E1E2
:104340006DE576E1F8CF4FE156E168E276E1F3CF33
:1043500048E256E16FE176E1EECF47E056E163E1F6
:1043600076E1E9CF43E156E167E076E1E4CF4FEE55
:1043700055E16BEF75E1DFCF4BEF55E16FEE75E186
:10438000DACF4BE356E161E376E1D5CF41E356E185
:104390006BE376E1D0CF61E081E00E94451667C80B
:1043A0000115BCE51B0709F44FC00F3D1C4509F47E
:1043B0004DC00E811F81992309F44CC0C8010E9491
:1043C000160BF82E682FC8010E94ED07B8018F2D3B
:1043D0000E948609082FE82E8885811110925908BD
:1043E000192F12951F70143009F482C0C0F51230D5
:1043F00008F443C0212F2850330B2230310510F42C
:104400000E94D30885E0FE013696DE0111960190E8
:104410000D928A95E1F789819A810E94C4079A8159
:10442000E981F0E036E0939FE00DF11D112440E3B7
:10443000849FE00DF11D1124EE0FFF1FE756F94F89
:10444000859194910C94371A0E94C6100E94980D81
:104450000C94371AC8010E94C407F82EB7CF183041
:1044600009F466C0193009F437C1173009F0C2CF1A
:10447000882309F459C08FEB1AC0F92FFF70FF2E63
:10448000907F19F0F29440EFF4228823C9F0FF20C6
:1044900069F080E2800F883010F0E1100BC080914D
:1044A0005A08F82AF0925A080E94AD07802F0E94FD
:1044B0008911A0CF80915908F82AF0925908F4CFB9
:1044C000802F0E94F510FF2009F494CF005E083081
:1044D00010F0E11006C08F2D0E94A6070E94AD07C4
:1044E00089CFF09480915908F822F0925908F6CFBC
:1044F000292F26952695237051F0213009F07ACF87
:10450000882379F0802F93700E94410873CF88230D
:1045100029F0802F93700E9457086CCF90E080E0C4
:10452000FACF90E080E0F0CF8FEB0E94F51062CFE1
:10453000292F237009F065C081115CCF802F8295EF
:1045400086958770880F880F402F4F7050E070E07D
:1045500060E0082E04C0440F551F661F771F0A94A1
:10456000D2F7C12CD12C760104FF10C03FE0C32E3E
:10457000D12CE12CF12C04C0CC0CDD1CEE1CFF1C5A
:104580008A95D2F7C094D094E094F094969596953D
:104590009370923019F1D8F480905B0890905C0889
:1045A000A0905D08B0905E08913069F04C295D29BB
:1045B0006E297F29CB01BA01682179218A219B21AB
:1045C0000E94C90817CF482959296A297B29CB019C
:1045D000BA016C297D298E299F29F2CF4C295D29AA
:1045E0006E297F29C0905B08D0905C08E0905D0840
:1045F000F0905E08CB01BA016C257D258E259F25A4
:10460000DFCF2695882311F0292F2170222309F46A
:10461000F1CE802F829586958770880F880F402F66
:104620004F7050E070E060E0082E04C0440F551F4A
:10463000661F771F0A94D2F7C12CD12C760104FF94
:1046400010C02FE0C22ED12CE12CF12C04C0CC0CD8
:10465000DD1CEE1CFF1C8A95D2F7C094D094E09428
:10466000F094969596959370923019F1D8F48090C5
:104670009C0890909D08A0909E08B0909F08913053
:1046800069F04C295D296E297F29CB01BA01682187
:1046900079218A219B210E947B08ACCE4829592987
:1046A0006A297B29CB01BA016C297D298E299F2992
:1046B000F2CF4C295D296E297F29C0909C08D090AB
:1046C0009D08E0909E08F0909F08CB01BA016C25F0
:1046D0007D258E259F25DFCF9F70F92E882339F009
:1046E000892F0E94A808802F0E94370883CE802F30
:1046F0000E9430088F2D0E9485087CCE85E0FE0147
:104700003696DE01119601900D928A95E1F7288583
:1047100089819A8121110C944A1A0E94C407082F9A
:104720000C94521A80913808909139080196909310
:104730003908809338080C94221ACF92DF92FF92A6
:104740000F931F93CF93DF9380919308882309F4ED
:104750009AC00E94FE0CF82E80911306C4E0D0E0AF
:10476000882311F0D0E0C0E0C555D74F44E050E0B9
:10477000BE018CE597E00E94E02B6C018881998155
:10478000AA81BB8180935C0790935D07A0935E072D
:10479000B0935F0780911306D0E0C0E0882311F04A
:1047A000C4E0D0E0909144018091430110E000E02A
:1047B000981759F082E090E00E9431298C01892BF2
:1047C00021F480914301809344018091540790919A
:1047D0005507C82AD92A90E080E0CD2811F081E061
:1047E00090E00E943129892B31F580915707809301
:1047F000430110925507109254070115110511F14C
:104800000230110509F428985D98809156078F5F52
:1048100080935607863040F180911306F0E0E0E087
:10482000882311F0E4E0F0E0E555F74F10821182A3
:104830001282138219C081E090E090935507809313
:104840005407DBCF289AC555D74F809158079091D0
:104850005907A0915A07B0915B0788839983AA836F
:10486000BB835D9A109256070E94AB16C1E0F1100F
:1048700001C0C0E08C2FDF91CF911F910F91FF906D
:10488000DF90CF9008950E94FE0C90911306E4E013
:10489000F0E0992311F0F0E0E0E0E555F74F40E05B
:1048A00030E020E0D901A85AB84F5C91919159139A
:1048B00041E09C932F5F3F4F2430310599F7909151
:1048C0005707940F90935707C1E0811101C0C0E0D2
:1048D00080911306811102C030E020E02555374F4A
:1048E00080915C0790915D07A0915E07B0915F0792
:1048F000F90180839183A283B3830E94AB16BACF60
:104900001F920F920FB60F9211242F933F934F9344
:104910005F936F937F938F939F93AF93BF93CF9347
:10492000DF93EF93FF93D091E900DF708091EC006B
:10493000C82FC17080FDC0E81092E9008091F0009E
:10494000877F8093F00078940E940D0E1092E9000A
:104950008091F00088608093F000CD2BCF70C093E1
:10496000E900FF91EF91DF91CF91BF91AF919F91BE
:104970008F917F916F915F914F913F912F910F9008
:104980000FBE0F901F9018951F920F920FB60F92A7
:1049900011242F933F934F935F936F937F938F9344
:1049A0009F93AF93BF93EF93FF938091E10082FFBA
:1049B00009C08091E20082FF05C08091E1008B7FF9
:1049C0008093E1008091DA0080FF24C08091D800BC
:1049D00080FF20C08091DA008E7F8093DA00809182
:1049E000D90080FF9FC080E189BD82E189BD09B403
:1049F00000FEFDCF81E08093CA088091BD0881113F
:104A000009C00E940C060E94D7068091E2008460D3
:104A10008093E2008091E10080FF17C08091E20066
:104A200080FF13C08091E2008E7F8093E20080912E
:104A3000E20080618093E2008091D80080628093E0
:104A4000D80019BC85E08093CA088091E10084FFFA
:104A50002DC08091E20084FF29C080E189BD82E100
:104A600089BD89B5982F917080FFFBCF8091D800C8
:104A70008F7D8093D8008091E1008F7E8093E1004C
:104A80008091E2008F7E8093E2008091E20081605D
:104A90008093E2008091CB08882309F449C084E028
:104AA0008093CA080E94020E0E94D3088091E10000
:104AB00083FF27C08091E20083FF23C08091E10043
:104AC000877F8093E10082E08093CA081092CB0830
:104AD0008091E1008E7F8093E1008091E2008E7FE3
:104AE0008093E2008091E20080618093E20042E0E6
:104AF00060E080E00E94A5068091F00088608093CD
:104B0000F000FF91EF91BF91AF919F918F917F91B5
:104B10006F915F914F913F912F910F900FBE0F902A
:104B20001F90189519BC1092CA081092BD0872CF38
:104B30008091E30087FD93E09093CA08B3CFCDB78F
:104B4000DEB72A970FB6F894DEBF0FBECDBF84B78D
:104B5000877F84BF0FB6F894A89580916000886124
:104B600080936000109260000FBE80E890E00FB666
:104B7000F89480936100909361000FBE85B78068C0
:104B800085BF85B7806885BF0E940C060E94D70646
:104B90008091E20084608093E20078948091CA085A
:104BA0008823A1F01091E9001F709091EC00892FEB
:104BB000817090FD80E8182B1092E9008091E80048
:104BC00083FD0E940D0E1F701093E90082E084BDEA
:104BD00093E095BD9AEF97BD80936E000E94E20C22
:104BE000809313060E94E20C63E070E0882309F4CE
:104BF0003BC187E295E00E944F2878940E94240CE4
:104C0000A4E4B7E061E070E08D91E82FE295EF70E9
:104C1000F0E041A18F709B0101C0220F8A95EAF755
:104C2000922F9095942391A382A1822B82A327E0B7
:104C3000AA34B20749F7209A559A289A5D9AA4E9AE
:104C4000B8E0EBEAF8E011921D9288E0E33BF80748
:104C5000D1F70E94E20C8093930890E080E00E94DC
:104C6000E1298C3E9E4F11F00E94980D109263082E
:104C70008FEF9FEF90937D0880937C0890937F083F
:104C800080937E0890938108809380089093830896
:104C90008093820890938508809384089093870876
:104CA00080938608909389088093880890938B0856
:104CB00080938A0890E080E00E94E1298C3E9E4F1C
:104CC00021F00E94980D0E94721645E050E06CE1C0
:104CD00070E084ED98E00E94C9298091D4088C7F0F
:104CE00011F40E9472168CE090E00E94D92990E0A5
:104CF000B0E0A0E080938D0890938E08A0938F0879
:104D0000B093900810928C0884E080938D08809175
:104D10001306811109C082EDE5E2F6E0A1E4B5E0F9
:104D200001900D928A95E1F760E082E00E944516BD
:104D300048E76FEF84E690E00E94DF1520913F0581
:104D40003091400581E02E3F9FEF390709F480E064
:104D500080939208809391082E3F3F4F09F489C0B9
:104D60000E9477090E94D71590E080E00E94E12917
:104D70008C3E9E4F11F00E94980D82E090E00E94C0
:104D8000D9298093B4080E94450C9093A108809380
:104D9000A00883E090E00E94D929682F70E090E09D
:104DA00080E00E94C9081092A7088FEF8093A208A4
:104DB0008093A3088093A4088093A5088093A608F5
:104DC00085E08093150687E196E09093A90880938B
:104DD000A808EE24EA9480E1A82E92E1B92E28E1F9
:104DE000C22ED12C30E4932E8091CA08853009F46C
:104DF00043C00E949D23A5EBB8E0EBEAF8E010E089
:104E000000E0302F81919D91981709F470C0292FEF
:104E1000282790E0FF24F3944F2D422309F462C029
:104E200099833A838F2191E009F490E09B830E945B
:104E30009A078160782F9D838C8349815A816B8189
:104E40008D810E94FF19F801EB54F74F8081F826FD
:104E5000F0820E94D3089091B308891729F20E942A
:104E6000D3088093B308C0CF87E295E00E9458280A
:104E7000C4CE0E946B0976CF8091CA08843009F1B4
:104E80001092AA080FB6F894A895C09260000FBEC1
:104E90009092600083B7817F846083BF83B7816015
:104EA00083BF7894889583B78E7F83BF0FB6F894BD
:104EB000A8958091600088618093600010926000E6
:104EC0000FBE8091C908882309F48ECF0E949D23CC
:104ED000EBEAF8E08191811120C088E0E33BF8071C
:104EE000C9F782CF9F5FFF0C963009F095CF0F5F17
:104EF0001F4F0830110509F084CFEE82EF8218862B
:104F00000E949A078160782F9A8789874E815F81F6
:104F100068858A850E94FF199CCFA9BCB9BC09B4D9
:104F200000FEFDCF8091D8008F7D8093D8008091C6
:104F3000E00082608093E0008091E00081FDFCCF82
:104F400053CF78941F921FB61F9211248F939F9373
:104F5000AF93BF9380915F0890916008A091610822
:104F6000B09162080196A11DB11D80935F089093D6
:104F70006008A0936108B0936208BF91AF919F91C0
:104F80008F911F901FBE1F9018951F921FB61F92E2
:104F900011248F939F93AF93BF938091AA0881119F
:104FA00013C080915F0890916008A0916108B09152
:104FB00062084196A11DB11D80935F08909360081F
:104FC000A0936108B0936208BF91AF919F918F91B8
:104FD0001F901FBE1F9018958EE14A9B02C0815002
:104FE000E1F74A9BFECF08955A9880E28A95F1F73F
:104FF0005A9A0895FC013BE03A95F1F720E090E0E1
:1050000080E031E040E14A95F1F7880F4A9B02C009
:105010008160232742E04A95F1F7000040E14A957C
:10502000F1F79F5F6913EECF90E19A95F1F799B18F
:1050300032E03A95F1F7000040E14A95F1F792FB32
:10504000992790F992272081920F90830895EF92EB
:10505000FF920F931F93CF93DF930F92CDB7DEB7DD
:1050600019828C017C01E60EF11C0E151F0561F4FE
:1050700081E09981911180E00F90DF91CF911F9194
:105080000F91FF90EF9008950E94EC2768E0CE0109
:1050900001960E94FA27F80181938F01E6CF909341
:1050A000DB088093DA086093D908529A5A9A0895D7
:1050B0009093DB088093DA086093D90852985A9A43
:1050C000EA9AE9E6F0E080818F7C80830895615060
:1050D000770B91E001C0990F6A95EAF720E031E083
:1050E000911108C0222391F05A9A80E28A95F1F733
:1050F0005A980895492F482339F05A9A232740E2B5
:105100004A95F1F79695ECCF5A98F9CF5A98EDCF8A
:10511000FF920F931F93CF93DF93EC018C01060F47
:10512000111DC017D10731F4DF91CF911F910F915D
:10513000FF900895F9900E94F42768E08F2D0E9457
:105140006728EFCF1F920F920FB60F9211240F9383
:105150001F932F933F934F935F936F937F938F93FF
:105160009F93AF93BF93EF93FF93CF93DF930F92F0
:10517000CDB7DEB719820E94EC2767E0CE01019619
:105180000E94FA27082F069506950695982F929566
:105190009570202F2570920F292F23709695969544
:1051A0008770920F891344C08981811141C0809119
:1051B000D9088017E8F120E12A95F1F75A9A529A16
:1051C00082E08A95F1F700C0A8E00A9FC00111248F
:1051D0000091DA081091DB08080F191F5A98F8019E
:1051E0006581662321F0868197810E9488280E942C
:1051F000F427F0E1FA95F1F75A9852985A9A20E17B
:105200002A95F1F7D80112966C911297662331F125
:1052100013968D919C910E942728D801ED91FC91C5
:10522000882311F088E001C082E080830E94EC278F
:105230000F90DF91CF91FF91EF91BF91AF919F912F
:105240008F917F916F915F914F913F912F911F911E
:105250000F910F900FBE0F901F901895ED91FC913C
:10526000E1CF0F931F93CF93DF932091D908281795
:1052700019060CF471C08C0193E0000F111F9A9570
:10528000E1F7C091DA08D091DB08C00FD11FF89484
:10529000529A5A9825E02A95F1F70000982F969592
:1052A00095708570980F892F837096959695980FB5
:1052B000092B0E94F42700C067E0802F0E94672816
:1052C00080E18A95F1F752985A9A4A9B17C087E075
:1052D00090E04A9915C06D81662321F18E819F81EE
:1052E0000E94272881111EC0529A5A9AE881F9819A
:1052F00082E08083789482E090E00DC000C0E5CF2A
:10530000019771F4529A5A9AE881F98181E0808379
:10531000789481E090E0DF91CF911F910F910895F3
:1053200000C0D7CF0E94EC2720E22A95F1F75A98C7
:10533000529A80E18A95F1F76A81662321F08B8188
:105340009C810E9488280E94F427E881F9811082BC
:10535000789490E080E0DFCF84E090E0DCCFAA1B7F
:10536000BB1B51E107C0AA1FBB1FA617B70710F050
:10537000A61BB70B881F991F5A95A9F78095909582
:10538000BC01CD010895EE0FFF1F0590F491E02DB3
:105390000994DC01CB01FC01F999FECF06C0F2BDF6
:1053A000E1BDF89A319600B40D9241505040B8F7E3
:1053B0000895F999FECF92BD81BDF89A992780B5DD
:1053C0000895A8E1B0E042E050E00C94CB29DC0164
:1053D000A40FB51F4150504048F0CB01840F951FDA
:1053E0002E910E94F82941505040D0F70895262F61
:1053F000F999FECF92BD81BDF89A019700B40216CB
:1054000039F01FBA20BD0FB6F894FA9AF99A0FBE78
:1054100008950396272F0E94F8290E94F729252F27
:105420000E94F829242F0C94F8290196272F0E9416
:10543000F8290C94F7290E942F2A0C94102B0E9413
:10544000092B58F00E94022B40F029F45F3F29F00D
:105450000C94F92A51110C94442B0C94FF2A0E94AD
:10546000212B68F39923B1F3552391F3951B550B29
:10547000BB27AA2762177307840738F09F5F5F4F27
:10548000220F331F441FAA1FA9F335D00E2E3AF066
:10549000E0E832D091505040E695001CCAF72BD07E
:1054A000FE2F29D0660F771F881FBB1F26173707CF
:1054B0004807AB07B0E809F0BB0B802DBF01FF2701
:1054C00093585F4F3AF09E3F510578F00C94F92ABB
:1054D0000C94442B5F3FE4F3983ED4F38695779584
:1054E0006795B795F7959F5FC9F7880F911D9695BA
:1054F000879597F90895E1E0660F771F881FBB1F16
:10550000621773078407BA0720F0621B730B840BC2
:10551000BA0BEE1F88F7E09508950E94292B88F0BA
:105520009F5798F0B92F9927B751B0F0E1F0660F67
:10553000771F881F991F1AF0BA95C9F714C0B130A8
:1055400091F00E94432BB1E008950C94432B672FF8
:10555000782F8827B85F39F0B93FCCF386957795D7
:105560006795B395D9F73EF49095809570956195C0
:105570007F4F8F4F9F4F0895E89409C097FB3EF4EB
:1055800090958095709561957F4F8F4F9F4F992390
:10559000A9F0F92F96E9BB279395F695879577950E
:1055A0006795B795F111F8CFFAF4BB0F11F460FFCE
:1055B0001BC06F5F7F4F8F4F9F4F16C0882311F026
:1055C00096E911C0772321F09EE8872F762F05C03A
:1055D000662371F096E8862F70E060E02AF09A95D5
:1055E000660F771F881FDAF7880F9695879597F9CA
:1055F000089597F99F6780E870E060E008959FEF55
:1056000080EC089500240A94161617061806090659
:10561000089500240A941216130614060506089528
:10562000092E0394000C11F4882352F0BB0F40F4B0
:10563000BF2B11F460FF04C06F5F7F4F8F4F9F4FF0
:10564000089557FD9058440F551F59F05F3F71F072
:105650004795880F97FB991F61F09F3F79F08795D9
:105660000895121613061406551FF2CF4695F1DF62
:1056700008C0161617061806991FF1CF86957105F2
:10568000610508940895E894BB2766277727CB0126
:1056900097F908950E94BC2B08F48FEF08950E949B
:1056A000622B0C94102B0E94022B38F00E94092BC5
:1056B00020F0952311F00C94F92A0C94FF2A112460
:1056C0000C94442B0E94212B70F3959FC1F3950FEE
:1056D00050E0551F629FF001729FBB27F00DB11D76
:1056E000639FAA27F00DB11DAA1F649F6627B00D06
:1056F000A11D661F829F2227B00DA11D621F739FEF
:10570000B00DA11D621F839FA00D611D221F749FFC
:105710003327A00D611D231F849F600D211D822F43
:10572000762F6A2F11249F5750409AF0F1F088236A
:105730004AF0EE0FFF1FBB1F661F771F881F915097
:105740005040A9F79E3F510580F00C94F92A0C9423
:10575000442B5F3FE4F3983ED4F3869577956795A5
:10576000B795F795E7959F5FC1F7FE2B880F911DC1
:105770009695879597F90895990F0008550FAA0BEC
:10578000E0E8FEEF16161706E807F907C0F0121654
:105790001306E407F50798F0621B730B840B950B57
:1057A00039F40A2661F0232B242B252B21F40895AC
:1057B0000A2609F4A140A6958FEF811D811D089549
:1057C000FB01DC0104C08D910190801921F441504E
:1057D0005040C8F7881B990B0895FB01DC0102C0FB
:1057E00001900D9241505040D8F70895F894FFCFA2
:1057F000F00E180FAE10180FAE104B0F6C0FAE104E
:10580000691076108C2197219E21A321A821AD211A
:10581000B221B721BC21C121C621CB21371A371AA9
:0C582000371A371A371A371A371A371A96
:10582C00210020001F001E001D001C001B001A0080
:10583C0019001800170016001500140013001200B0
:10584C00110010000F000E000D000C000B000A00E0
:10585C000900080007000600050004000300020010
:10586C00010005FFFFFFFFFFFF000100012C0100FD
:10587C000037020000000051155D1100000000000F
:10588C0000010200022C01000036020000000000A2
:10589C00006611000000000000020400032C01004F
:1058AC0000270200000000000000000000000000C3
:1058BC0000030800042C010000210200000000007D
:1058CC00000000000000000000041000052C010086
:1058DC00002D00000000000000000000000000008F
:1058EC0000052000062C0100001F0200000000A093
:1058FC0019000000000000000007000008FA00007A
:10590C00002B00515D0000000000000000000000B2
:10591C000008000008FA00E2002B02000000000062
:10592C00000000000000000000090000082C01002D
:10593C00004B5D00000000CA15781100000000004B
:10594C00000A400000FA000000280000000000D906
:10595C0019CB19000000000000000000000000003E
:10596C000000000000000000000000000000007DAE
:10597C001500000000000000000000000000000006
:10598C0000000040017D1500000000000000000038
:10599C000000000000000000003E017D150000002A
:1059AC000000000000000000000000000000003CAF
:1059BC00017D150000000000000000000000000048
:1059CC0000000000003A017D1500000000000000FE
:1059DC00000000000000000000000038010000BAC8
:1059EC001443110000000000000000000000000043
:1059FC000036010D14000000000000000000000043
:105A0C000000000000000034010000BA1443110033
:105A1C000000000000000000000000000032010D3A
:105A2C001400000000000000000000000000000056
:105A3C0000000030010D1400000000000000000008
:105A4C000000000000000000002E010000BA14430A
:105A5C001100000000000000000000000000002CFD
:105A6C00010000BA14431100000000000000000007
:105A7C0000000000002A010000BA144311000000CD
:105A8C00000000000000000000000028010D1400C0
:105A9C0000000000000000000000000000000000FA
:105AAC000026010000BA14431100000000000000A1
:105ABC000000000000000024010000BA1443110093
:105ACC000000000000000000000000000022010D9A
