:100000000C9475050C94BC050C94BC050C94BB2792
:100010000C94BC050C94BC050C94BC050C94BC055C
:100020000C94BC050C94BC050C94DD230C94992312
:100030000C94DE260C94BC050C94BC050C94BC05F9
:100040000C94BC050C94BC050C94BC050C94BC052C
:100050000C94BC050C94BA260C94BC050C94BC05FD
:100060000C94BC050C94BC050C94BC050C94BC050C
:100070000C94BC050C94BC050C94BC050C94BC05FC
:100080000C94BC050C94BC050C94BC050C94BC05EC
:100090000C94BC050C94BC050C94BC050C94BC05DC
:1000A0000C94BC050C94BC050C94BC05E300E0006A
:1000B000E000E3001B081B010608060119081901EE
:1000C000190E1903190A19031D081D011D0A1D0324
:1000D000210B160A220A460008040814150A3E01DC
:1000E00016081601040804017F00A8008000A9007A
:1000F0008100AA00290C4C054800BD004700BE0045
:10010000500450044F044F046E002903300830019E
:100110003808380152084A0851084D0850084A006A
:100120004F084D000B0851081A083D040908090141
:100130000A080A010A0A0A03090C0B012C0816080E
:100140002F084D002C09370814090F083304211417
:100150002A042A014000AC004200AB004100AE007E
:1001600066016601660166000F0B5008150B4F080B
:10017000100B5208180B000014083D04E000E300C7
:100180002A080E0338006402295D27026402295DF3
:100190002E022D0250002E001E02500024023002BA
:1001A000295D30022402295D30001E00295D3800DF
:1001B0001E00295D64022702295D64002702295D73
:1001C0001E022702295D6402295D295D2402640262
:1001D000295D6400295D295D64002402295D6400B5
:1001E0006400295D64026402295D1E022702295D04
:1001F00064022702295D64002702295D3804132068
:10020000380614200D06AF0022041E2237062620D1
:100210001304C0032106A3002704602227064822F6
:100220003206BB00640665223406AB006404642217
:100230003506B0001504AE000B0422212006222052
:100240000604A9006164696F7300686F6C61000443
:10025000040000000408000000040C000000041268
:1002600000000004180000000600000300033A5DCF
:100270003B5D060100020003435D445D03415D42B6
:100280005D011E011E03011F011F03012001200348
:10029000013500350202545D555D0604000500037A
:1002A000485D465D03495D455D06895D8A5D068B57
:1002B0005D8C5D068D5D8E5D060600070002625D49
:1002C0005D5D024E5D4D5D02505D515D0130003857
:1002D0000001300224020134143214012F143014AE
:1002E000012502260203385D395D05110033000047
:1002F00000001214009E940001983B750000012636
:10030000AD010728000000000000000B2E00114284
:100310002400000F02000001140000000000000093
:100320000000000000000000000000000000FFFFCF
:10033000FFD4D4D47373733838382121214D4D4DF7
:100340008F8F8FE8E8E87878783838382929290FAE
:100350000F0F00000012121214141400000000000D
:10036000000000000000000000000000001700383E
:100370003500851F00B80108D5200094270094356A
:1003800000751C003D19013729016525006B2D0002
:10039000701900420C001F0B001F0000000000003D
:1003A000100029000000000000000000FFFFFFB661
:1003B000992FC26700BD42008E4C01BD6E00FFDD6B
:1003C00000EEE6BF98957CA8840075500056370172
:1003D0002D1B01462901614200241100241700242D
:1003E00015000E09010F0800000000F60909A38D91
:1003F00000006B1B18086830069300737574C20008
:10040000FAA005F5F9011BA3000057662400661D3C
:100410000061004152008A4E0156410130370014FC
:1004200042000F33001D33002E23000000000000A7
:1004300000000000000000000000000000007E0F2F
:1004400000D4FFFFFFC7000000780000000000009C
:1004500000002A2B2800000000000000000000001F
:10046000000000000029000000002C1E3420212282
:1004700024342627252E362D3738271E1F202122EB
:10048000232425263333362E37381F040506070864
:10049000090A0B0C0D0E0F10111213141516171854
:1004A000191A1B1C1D2F3130232D35040506070892
:1004B000090A0B0C0D0E0F10111213141516171834
:1004C000191A1B1C1D2F3130354C0001010101018F
:1004D00001010101020202020202020202030303FD
:1004E00003030303030404040404040405050505CD
:1004F000050606060606070707070708080808098D
:100500000909090A0A0A0B0B0B0C0C0C0D0D0D0E38
:100510000E0E0F0F0F1010111111121213131414CD
:10052000151516161717181819191A1A1B1B1C1D42
:100530001D1E1E1F2020212222232424252626279B
:100540002829292A2B2C2D2D2E2F303132323334CD
:1005500035363738393A3B3C3D3E3F4041424344D3
:1005600045464748494A4C4D4E4F505153545556B5
:1005700058595A5B5D5E5F616264656668696B6C61
:100580006D6F7072737577787A7B7D7E80828385DC
:1005900087888A8C8E8F91939596989A9C9EA0A21C
:1005A000A3A5A7A9ABADAFB1B3B5B7BABCBEC0C226
:1005B000C4C6C9CBCDCFD1D4D6D8DBDDDFE2E4E7EA
:1005C000E9EBEEF0F3F5F8FAFDFF7E780043007EEC
:1005D0000F625E007E00072F00D658090004D55830
:1005E000090005CE58090000D678004307D57800E9
:1005F0004308CE780043097E19001400315D1400D1
:100600001900015715000900325D00571600070058
:1006100006000A00335D1D001B001A0005003800AB
:100620000000000000002B5D2C002C5DB05D13006D
:100630000357025704571C001E57AF5D0F001700E9
:100640001F570B00305D2F5D0E00360010000D00AF
:100650000000000000002E5D2D5D345D290005576F
:1006600000007C5D575D0000A05D00007A5D7D5D4F
:100670007B5D00005F5D5E5D0000695D0000000065
:100680000000000000002B5D00002C5D9F5D9C5D64
:100690009B5D9A5D995D9E5D985D975D965D955DAC
:1006A000945D9D5D000000000C570B570A57000039
:1006B0000000000000002E5D2D5D345DE300165744
:1006C000705DA35DA25DA85D0000595D585D525D3F
:1006D000535DA75D5C5D5B5D0F57185717574F5D06
:1006E0000000000000002B5D00002C5D855D2600F1
:1006F0002500240023003C5D2200210020001F0073
:100700001E00270000000000370036003D5D2C0071
:100710000000000000001A571957345D0000201433
:10072000340252003002240200001F145000510015
:100730004F00375D0000000035142202365D3000A6
:100740000000000000002B5DE1002C5D1E022D0268
:100750001E141C571B5710570000745D23022602FD
:100760001D57115715572F00000009570857475DAF
:100770000000000000002E5D2D5D345D00000000D3
:1007800000004B00645D635D00000D57605D4E002E
:10079000615D000000000757AB5D00000657835DF8
:1007A0000000000000002B5DE1002C5D865D055718
:1007B000885D00006E5D715D00004C0052006C5D54
:1007C0006B5D6D5DE1004F00510050006F5D0000FA
:1007D0000000000000002E5D2D5D345D0000000073
:1007E0000000655D0000000000000000675D665DC0
:1007F000685D000000000000000000000000825D55
:100800000000000000002B5DE1002C5D925D875D23
:100810008F5D23140000135700000000885D915D78
:10082000735D1457000000002F02000000001257F3
:100830000000000000002E5D2D5D345D0000000012
:100840000000565D905D0000000000000000000008
:10085000935D000000000000000000000000845DC7
:100860000000000000002B5D2C002C5DA95D0E57E0
:100870000000000000000000A15D725DAC5D0000A2
:10088000000000000000775D765D755D00000000EF
:100890000000000000002E5D2D5D345D2700140077
:1008A00019000800150009001E00040016000700CA
:1008B00006000A001F001D001B001A00050038007A
:1008C000000000000000200021002200370013007B
:1008D00012000C0018001C0000004C020F00170052
:1008E00011000B00AA5D26000E00360010000D005E
:1008F000000000000000250024002300315D1400EA
:100900001900070015000900E200040016000800A5
:1009100006000A00335D1D001B001A0005003800A8
:10092000000000000000E1002C00E100370013008F
:1009300012000C0018001C0000002A000F00170015
:1009400011000B00000000000E00360010000D002A
:10095000000000000000E100E100280000000000AD
:100960000000AE5DAD5D0000000000000000000072
:100970000000000000000000000000000000000077
:100980000000000000001050105010500000000047
:100990000000000000000000000000000000000057
:1009A0000000000000000000000000000000000047
:1009B0000000000000001050105010500501098088
:1009C000A101850319012AB700150126B700950179
:1009D00075108100C0050C0901A101850419012AC7
:1009E000A002150126A002950175108100C0050125
:1009F0000906A101050719E029E715002501950859
:100A00007501810205FF090315002501950175088F
:100A100081020507190029FF150026FF00950675BC
:100A200008810005081901290595057501910295B0
:100A30000175039101C009023B00020100A0FA09FF
:100A400004000001030101000921110100012248F5
:100A5000000705810308000A0904010001030000E2
:100A60000009211101000122320007058203200044
:100A70000A1201100100000008AC055002740001C8
:100A8000020001480343006F0072006E0065002001
:100A9000004B006500790062006F00610072006425
:100AA0000020005200650076002E00310020002852
:100AB000004C00650067006100630079002000536E
:100AC0000070006C006900740029000000160341EA
:100AD00000700070006C006500200049006E00632B
:100AE000002E000000040309040011241FBECFEFF4
:100AF000DAE0DEBFCDBF04B603FE27C080919D08BB
:100B000090919E08A0919F08B091A0088730904BCB
:100B1000A740B04BD1F410929D0810929E081092FD
:100B20009F081092A00814BE84B7877F84BF0FB6B9
:100B3000F894A8958091600088618093600010927D
:100B400060000FBEE0E0F8E3099528E0A0E1B7E01F
:100B500001C01D92AD39B207E1F717E0A0E0B1E0A6
:100B6000EEE5F6E502C005900D92A031B107D9F788
:100B70000E94B8240C940F2B0C940000E8EDF0E0D8
:100B800080818E7F80831092E2001092DA001092B2
:100B9000E100A0EEB0E08C9181608C9380818F7732
:100BA000808319BCA7EDB0E08C918E7F8C938081FF
:100BB0008F7E808310927E0808952091E40030910A
:100BC000E50095E6A9012091EC00822F817020FFBD
:100BD00006C08091E80080FF06C080E00895209163
:100BE000E80022FD1AC080918B08882389F08530A7
:100BF00089F08091EB0085FD0FC02091E4003091D9
:100C0000E50042175307F9F29150E1F684E00895A8
:100C100082E0089583E0089581E00895EF92FF92C5
:100C20000F931F93CF937C018B010E94DD05C82F8A
:100C3000811117C08091E80085FD0BC08091E8000C
:100C40008E778093E8000E94DD05882399F3C82FF2
:100C500008C0F70181917F018093F10001501109D3
:100C600049F78C2FCF911F910F91FF90EF9008952E
:100C700080918D0887FF13C08091E80082FF06C035
:100C80008091E8008B778093E80004C080918B0806
:100C90008111F2CF089580918B088823D9F3809138
:100CA000E80080FFF8CF8091E8008E77ECCF982F96
:100CB0009093E900242F762F50E0891731F070913E
:100CC000EC002091ED005091F00021FD07C09F5FE6
:100CD000973071F78093E90081E008953091EB003F
:100CE0003E7F3093EB003091ED003D7F3093ED007F
:100CF0003091EB0031603093EB007093EC00209367
:100D0000ED005093F0002091EE0027FDE0CF80E051
:100D10000895CF92DF92EF92FF920F931F93CF939C
:100D2000DF93C8EDD0E088818F7E8883E7EDF0E027
:100D300080818160808384E082BF81E080937E082F
:100D400088818E7F888302EE10E0F8011082109275
:100D5000DA0081EEC82ED12CF601108288818F77BF
:100D6000888388818068888388818F7D888319BC87
:100D700010928B0810928C0810928A0810928908A1
:100D800090EEE92EF12CF70180818B7F80838881A2
:100D90008160888342E060E080E00E945706F601AF
:100DA00080818E7F8083F801808181608083808153
:100DB00088608083F70180818E7F80838881806155
:100DC0008883DF91CF911F910F91FF90EF90DF907B
:100DD000CF900895FC018091930890919408861714
:100DE0009707A0F06115710529F49091E8009E77AE
:100DF0009093E80090E06115710551F4911108C0DD
:100E00008091E80082FF34C080E00895BC01F2CFF9
:100E100080918B088823C1F18530C1F18091E80071
:100E200083FD30C08091E80082FDEACF8091E80028
:100E300080FFE1CF8091F3002091F200382F6115FF
:100E4000710519F02830310558F091E0283031054E
:100E500009F090E02091E8002E772093E800CBCFB6
:100E600081918093F100615071092F5F3F4FE7CF6F
:100E700080918B08882341F0853041F08091E80013
:100E800083FFBECF81E0089582E0089583E0089556
:100E900008958091800808952FB7F89480912008D4
:100EA00090912108A0912208B09123082FBF0895A6
:100EB000809590911B08982390931B08089580912A
:100EC0001B0890911A08892B90911908892B8093FF
:100ED0001207E0916908F0916A08309731F00280BA
:100EE000F381E02D82E197E009940895E92FEE0F58
:100EF000E90FEE0F8E0F982F977086958695869541
:100F000025E0829FF0011124E550F84F50E040E0C9
:100F100080E0219130E0092E02C0369527950A9491
:100F2000E2F721703327042E01C0220F0A94EAF75A
:100F3000822B4F5F5F4F4530510559F70895E92FD8
:100F4000EE0FE90FEE0F8E0F982F977041E001C062
:100F5000440F9A95EAF786958695869595E0899F40
:100F6000F0011124E550F84F30E020E070E051919D
:100F7000DF011197CB01022E02C0969587950A9446
:100F8000E2F7817081958527842385278C932F5FD5
:100F90003F4F2530310559F70895882341F080955A
:100FA00090911A08892380931A080C945F0708957A
:100FB000882339F090911A08982B90931A080C9472
:100FC0005F070895882321F00E9458070C945F075B
:100FD0000895882339F090911B08982B90931B0853
:100FE0000C945F0708952091E0073091E1072817DE
:100FF000390771F09093E1078093E007E091690869
:10100000F0916A08309721F00084F185E02D099471
:1010100008952091DE073091DF072817390771F016
:101020009093DF078093DE07E0916908F0916A08EA
:10103000309721F00680F781E02D099408951092F1
:101040001A08109219080E945F0790E080E00E9441
:10105000090890E080E00C94F30760935D087093BA
:101060005E0880935F08909360080C941F080F93AC
:101070001F9341E050E060E070E004C0440F551F52
:10108000661F771F8A95D2F7CB01BA0160957095DC
:101090008095909500915D0810915E0820915F0801
:1010A0003091600860237123822393231F910F9155
:1010B0000C942D080F931F9341E050E060E070E026
:1010C00004C0440F551F661F771F8A95D2F7809181
:1010D0005D0890915E08A0915F08B09160088A0158
:1010E0009B01082B192B2A2B3B2BC901B8011F91FF
:1010F0000F910C942D0860931C0870931D08809329
:101100001E0890931F080C941F08E0916908F09145
:101110006A08309721F00190F081E02D099480E079
:101120000895CF93DF93EC0181E0898B80911B08B8
:101130009F81892B80931B0880911A089885892BA1
:1011400080931A080E945F07EA81FB81309739F08B
:101150006C897D89CE010696DF91CF910994DF914C
:10116000CF910895EF92FF920F931F93CF93DF9348
:10117000EC018A85811139C0EB80FC8087E5F81A83
:1011800026E12E9DC0012F9D900D1124DC01AB5C4A
:10119000BD4F1496ED91FC911597309731F0549610
:1011A0006D917C91855C9D4F099586E18E9D8001B6
:1011B0008F9D100D11240B5C1D4FF80187810E943B
:1011C0005807F8018085982F909580911A088923F7
:1011D00080931A080E945F07188219861B861E8258
:1011E0001D821092F7071092F607DF91CF911F91A1
:1011F0000F91FF90EF90089510924D0884E0809336
:101200004E080895FA01811101C0FB010994E9E338
:10121000F7E0818360834283339697E0EB3DF907E3
:10122000C1F70895FC01EE0FFF1FE80FF91FE75CFF
:10123000F84F6183408322830895809195088370DD
:1012400011F01092F604809195088C7F8093950898
:10125000089580919508837011F41092F60480919E
:1012600095088C7F81608093950808950C940709F8
:10127000972F70E026E0929F600D711D1124FB01F5
:1012800040E3849FE00DF11D1124EE0FFF1FE45099
:10129000FA4F25913491C9012238310591F1C0F5F9
:1012A0002133310509F490C028F52932310509F4BC
:1012B00084C02A32310509F48EC0211540E5340777
:1012C00008F0A4C0211540E4340708F026C12F3BE4
:1012D000310508F087C0283A310508F013C1253AD6
:1012E000310508F006C12430310500F52130310503
:1012F000E9F03CC02533310509F458C029333105E4
:10130000E1F620916108237089F080EE90E0089565
:10131000233E310571F158F4203E3105E9F0223EBB
:10132000310559F62091610822FD1EC00895263E20
:10133000310551F1273E310571F1243E310509F0A7
:10134000BCCF2091620821FFF1CF8091610884FD1C
:101350000DC087EE90E008952091610820FD0CC13A
:101360003091620830FFE2CF24FF09C190E080E0B5
:10137000DDCF2091610822FD05C13091620830FD6A
:10138000C4CF24FFD3CFF2CF2091610823FFCECF6B
:1013900024FDECCFDECF2091610823FDF6C0309113
:1013A000620831FFEECF84EE90E00895209161084D
:1013B00025FFBCCF89E290E008952091610825FFC8
:1013C000B5CF85E390E008952091610826FFAECF68
:1013D0008AE290E008952091610826FFA7CF81E37B
:1013E00090E00895283E310558F4213E310508F07B
:1013F0009DCF2F3B310509F0B9CF80E090E70895EC
:101400003A9521153F4108F491CFB0CF211583E5DE
:10141000380738F5211592E5390708F087C02115FE
:1014200041E5340708F07DC0C90164E096958795D1
:101430006A95E1F7382F3370822F869586958370F1
:1014400040E2849FC0011124932B237041E050E0BF
:1014500002C0440F551F2A95E2F7842B952B9C68F8
:101460000895211589E53807F0F4211598E5390725
:1014700008F06FC0211544E5340708F077CFA901C3
:101480004370552781E090E002C0880F991F4A956C
:10149000E2F72695269540E2249F90011124822BA5
:1014A000932B9A68089521158AE5380708F05ECFD6
:1014B000822F8F704091610842FF05C023FF4EC00C
:1014C000822F877084609091620890FF07C0982FE8
:1014D0009871983009F048C0877F816044FD877E0D
:1014E00094E0369527959A95E1F72F70922F9069A1
:1014F0000895255AE22FF0E0E752F94F808190E0FD
:1015000090640895285AE22FF0E0EE0FFF1FE45296
:10151000F94F8081918194640895C9019F70906A08
:101520000895922F8827816F906A0895A9014370CA
:10153000552781E090E002C0880F991F4A95E2F795
:101540002695269540E2249F90011124822B932B0F
:1015500086CF922F8827806F906A089522FFB3CF9D
:10156000822F8B708860AFCF982F9171913009F0E6
:10157000B5CF8E7F8860B2CF89E390E0089583EE87
:1015800090E0089582EE90E0089586EE90E0089550
:10159000BF92CF92DF92EF92FF920F931F93CF9360
:1015A000DF938C01C0905D08D0905E08E0905F08EA
:1015B000F090600880911C0890911D08A0911E0871
:1015C000B0911F08C82AD92AEA2AFB2ACFE1D0E025
:1015D000BC2ED701C6010C2E04C0B695A7959795D1
:1015E00087950A94D2F780FD0EC0219788F7B12C19
:1015F0008B2DDF91CF911F910F91FF90EF90DF9096
:10160000CF90BF900895B8018C2F0E9438090197A0
:1016100061F3EECFCF93DF939C013A9521153F41C3
:1016200068F5EC01CC27D170DC01AA27B270AC01BF
:10163000442754709C012227387094FF11C080E128
:10164000CD2B09F480E0AB2B09F08062452B09F02B
:101650008064232B09F08068FB01DF91CF9109940E
:1016600081E0CD2B09F480E0AB2B09F08260452BA3
:1016700009F08460232B81F38860EECFDF91CF9156
:1016800008959F92AF92BF92CF92DF92EF92FF9216
:101690000F931F93CF93DF93C82F6A017B0120E044
:1016A00030E040EF52E4CB01B6010E94632A1816E5
:1016B00034F4C12CD12C80EFE82E82E4F82E20E007
:1016C00030E04FE753E4C701B6010E9434296B01B3
:1016D0007C018FE3C802E0011124C151DD4F06E017
:1016E00010E0FE013296849131979490FE01B490FF
:1016F000682F70E090E080E00E94D729A701960152
:101700000E94682A0E94A629A62E692D70E090E00A
:1017100080E00E94D729A70196010E94682A0E94B2
:10172000A629962E6B2D70E090E080E00E94D729CC
:10173000A70196010E94682A0E94A6292A2D492DF8
:10174000C8010E94120923960F5F1F4F0B3111052C
:1017500009F0C7CFDF91CF911F910F91FF90EF90CC
:10176000DF90CF90BF90AF909F900895E091E807F1
:10177000F091E90781E0309709F40895838B06889A
:10178000F789E02DF8CF8B549D45880F991FE09184
:10179000F407E80FF92FF11DEE0FFF1FE455FF4F7F
:1017A000859194910895CF93DF93A7ECB6E04BEC2D
:1017B00056E0C1E0D0E08D91E82FE295EF70F0E0C7
:1017C00061A18F709E0101C0220F8A95EAF7922FC6
:1017D0009095962391A382A1822B82A34A175B073F
:1017E00051F7DF91CF910895CF9384E090E00E946C
:1017F000F228C82F81E290E00E94F228982F8C2FC7
:10180000CF910895CF93DF9300D00F92CDB7DEB77D
:1018100090918B08943019F589837B836A8382E0E9
:101820008093E9008FEF9091E800815095FD06C00C
:1018300095ED9A95F1F700008111F5CF8091E800C0
:1018400085FF0DC050E040E063E070E0CE010196FE
:101850000E940E068091E8008E778093E8000F903A
:101860000F900F90DF91CF910895BC0184E00C940C
:10187000020CBC0183E00C94020CCF93DF93EC01CB
:1018800081E08093E9008FEF9091E800815095FD11
:1018900006C095ED9A95F1F700008111F5CF809182
:1018A000E80085FF14C050E040E068E070E0CE0141
:1018B0000E940E068091E8008E778093E80088E011
:1018C000FE01A1E8B8E001900D928A95E1F7DF9161
:1018D000CF910895539A3BB1377F2BB128604FB712
:1018E000F89489E397E0FC015191CF0168E02BB9AE
:1018F000000000C057FF3BB9550F000000C000C0FA
:1019000000C03BB900C06A9591F7F7E08B3D9F0797
:1019100051F74FBF8FE594E00197F1F700C0000049
:10192000089580912807811111C08091D8008061AD
:101930008093D8008AE18A95F1F700C09091D90090
:10194000892F817090FF82E08093280781E0909139
:101950002807913009F080E008958F929F92AF920E
:10196000BF92CF92DF92EF92FF920F931F93CF938C
:10197000DF938091E305C4E0D0E0882311F0D0E04C
:10198000C0E087ECC82E86E0D82EAE014B5A574FE8
:101990007A018A01912CAA24A394B12C25E0822EED
:1019A000F60181916F01E82FE295EF70F0E021A13F
:1019B0008F70A50102C0440F551F8A95E2F7CA0136
:1019C000922F982B91A392A18095892382A350EA0C
:1019D0005A95F1F7EAE0F7E020E050E040E031917D
:1019E000A32FA295AF70B0E090968C9190E03F70DD
:1019F00002C0959587953A95E2F780FD3CC0C501F8
:101A0000042E01C0880F0A94EAF7282B4F5F5F4F1E
:101A10004630510521F7F8018081821729F0208393
:101A200080923E01992493940E94D30B0F5F1F4F25
:101A3000FBECCF16F6E0DF0609F0B2CF80913E0155
:101A4000882359F0815080933E018823B1F08FE9BB
:101A50009FE00197F1F700C00000892DDF91CF9141
:101A60001F910F91FF90EF90DF90CF90BF90AF90BC
:101A70009F908F90089580E0C8CFC459D74F84E0DD
:101A8000F70191917F0199938150D1F7E6CF6CEEE8
:101A90007EEF90E080E00E942E2960E082E090E0FE
:101AA0000E94102960E083E090E00E9410291092CB
:101AB0001C0810921D0810921E0810921F0860E06A
:101AC00084E090E00E94102960E081E290E00E94B2
:101AD000102960E085E090E00E94102960E086E037
:101AE00090E00E9410296FEF87E090E00E9410299B
:101AF00040E050E0BA0188E090E00E94222960E0D6
:101B00008DE090E00E94102940E050E0BA0188E1A9
:101B100090E00E94222960E087E190E00E94102975
:101B200040E050E0BA018CE190E00E94222960E0A0
:101B300080E290E00E94102940E050E0BA0188E184
:101B400090E00E94222940E050E0BA018FE090E04E
:101B50000E94222940E050E0BA0183E190E00C9419
:101B6000222910921B08E4E1F7E086E0DF011D92D4
:101B70008A95E9F70C941F081F93CF93DF93CDB795
:101B8000DEB7AA970FB6F894DEBF0FBECDBF8DE8C3
:101B900098E02091F100FC012193CF01F8E0853914
:101BA0009F07B9F780918E08833009F46FC0B8F4AD
:101BB000813009F446C0823009F4B0C08091E80059
:101BC00083FF7BC280918D0890918E089A3008F037
:101BD00074C2E92FF0E0EF5EF44D0C94DC288A30FB
:101BE00009F48BC08B3009F46EC0893039F78091CD
:101BF0008D08813219F7809191089091920802978F
:101C0000E8F68091E800877F8093E8008091E80003
:101C100082FF37C09091F3008091F200029729F47F
:101C20008091F1008B7F813021F48091F1008093CD
:101C300080088091E8008B778093E8000E94380646
:101C4000BDCF80918D08813A09F0B8CF8091E8002E
:101C5000877F8093E8008091910890919208892B6A
:101C600061F468E081E898E070E00E94EA06809103
:101C7000E8008B778093E800A1CF60E090E080E0FF
:101C8000F3CF80918B088111C1CF98CF80918D08BF
:101C9000813A09F093CF8091910890919208892B15
:101CA00009F08CCF8091E800877F8093E8008091D5
:101CB000E80080FFFCCF8091F1058093F1008091D6
:101CC000E8008E77B9CF80918D08813209F076CF08
:101CD0008091910890919208892B09F06FCF8091A3
:101CE000E800877F8093E8000E94380680918F0883
:101CF0008093F1050E94B10D61CF80918D088132F2
:101D000009F05CCF8091E800877F8093E8000E9413
:101D100038068091900880937F0850CF80918D087D
:101D2000813A09F04BCF8091E800877F8093E800EB
:101D30008091E80080FFFCCF80917F08BECF803883
:101D400099F0823809F0B9C1809191088F7087307D
:101D500008F0B3C18093E9008091EB0085FB8827F0
:101D600080F91092E90006C08091890890918A0854
:101D7000911182609091E800977F9093E8008093A2
:101D8000F1001092F1008091E8008E7792C18823D3
:101D900009F480C1823009F090C180918F088111CF
:101DA00083C1809191088F702FEF280F263008F0A3
:101DB00084C18093E9002091EB0020FF75C193302E
:101DC00031F48091EB0080628093EB006DC19091C3
:101DD000EB0090619093EB0021E030E001C0220F16
:101DE0008A95EAF72093EA001092EA008091EB00CE
:101DF0008860EACF811161C110918F081F778091AF
:101E0000E3008078812B8093E3008091E800877F56
:101E10008093E8000E9438068091E80080FFFCCFA4
:101E20008091E30080688093E30082E0111183E0F9
:101E300080938B0842C18058823008F03EC1809167
:101E40008F08909190088C3D23E09207A1F583E0E4
:101E50008A838AE289834FB7F894DE01139620E0E3
:101E60003EE051E2E32FF0E050935700E49120FF71
:101E700003C0E295EF703F5FEF708E2F90E0EA3085
:101E8000C0F0C7968D939D932F5F243159F74FBFB4
:101E90008091E800877F8093E8006AE270E0CE01DD
:101EA00001960E94EA068091E8008B778093E80013
:101EB00004C1C096E7CF4091910850919208292F14
:101EC00033272330310509F444C078F5213031053A
:101ED00009F46FC08BE390E0E6E3FAE022303105CD
:101EE00009F0EBC02091E800277F2093E8002091C3
:101EF0009308309194088217930708F49C0140E0FE
:101F00002115310509F064C0411162C08091E800DB
:101F100082FDC9CF80918B08882329F2853019F280
:101F20008091E80083FFF2CFBECF21323105A9F1C5
:101F30002232310509F0C1C04115510509F443C0F1
:101F40004130510509F0B9C082E390E0ECEBF9E0D3
:101F5000C9CF992781309105C1F0009759F00297B8
:101F600009F0ABC0E3E8FAE0E4918E2F90E0E3E8FB
:101F7000FAE007C0E5EEFAE0E4918E2F90E0E5EE9E
:101F8000FAE0009709F499C0ADCFEDECFAE0E491E6
:101F90008E2F90E0EDECFAE0F4CF4115510571F091
:101FA0004130510509F089C089E090E0E1E6FAE0AE
:101FB00099CF82E190E0E1E7FAE094CF89E090E008
:101FC000E8E4FAE08FCF88E490E0EEEEF9E08ACF23
:101FD00080918B08882309F466CF853009F463CF9C
:101FE0008091E80083FD5FCF8091E80082FD8ECF75
:101FF0008091E80080FF84CF9091F3008091F200FF
:102000002115310519F08830910550F041E008970D
:1020100009F040E08091E8008E778093E80070CF6F
:1020200044914093F1003196215031090196E8CF57
:10203000803809F042C08091E800877F8093E800F3
:1020400080918C088093F1009ECE811136C0109152
:102050008F08123090F58091E800877F8093E80028
:1020600010938C080E943806112311F084E005C0FB
:102070008091E30087FDFACF81E080938B0842E0F6
:1020800061EC81E00E94570642E261EC82E00E942E
:10209000570613C080918F08813079F481E0933026
:1020A00009F080E080938A081092E9008091E800AE
:1020B000877F8093E8000E9438068091E80083FFC4
:1020C0000AC08091E800877F8093E8008091EB0050
:1020D00080628093EB00AA960FB6F894DEBF0FBE25
:1020E000CDBFDF91CF911F9108950E94B10D2FEFC9
:1020F00084E39CE0215080409040E1F700C0000064
:1021000081E08093E00080E28093D8001092C900C3
:102110008FE19EE40197F1F700C0000087E090EBAB
:10212000DC0180939D0890939E08A0939F08B09334
:10213000A00888E19CE00FB6F894A8958093600011
:102140000FBE90936000FFCF8823B1F19CEF980FF2
:10215000913A78F4E4E1F7E02AE137E091918913CC
:1021600003C0DF0111971C922E173F07B9F70C949B
:102170005F0790E2980F983050F4877091E001C0AB
:10218000990F8A95EAF7892F0E945807F0CF9BE5AF
:10219000980F933020F490E080E00C94090898E5C3
:1021A000980F973120F490E080E00C94F3078F3B78
:1021B00019F410921307DBCF0895CF93DF93EC014E
:1021C0000E94A410CE01805E9109089720F06DEC6A
:1021D00077E0209711F462EE77E0CE01DF91CF91A6
:1021E0000C940A0B80912C0790912D07009711F009
:1021F0000E94DD1010922D0710922C0708958091F7
:102200002A0790912B07009731F00E94DD10109261
:102210002B0710922A0708950C94FF108091F20763
:10222000882369F01092F2078091F407882321F047
:1022300082EE90E00C94DD1083EE90E0FBCF0895E9
:102240008091F407811103C080EE0C94A41080915A
:10225000E707823019F483EE0E94A4101092E7077A
:1022600008950F931F93CF93C82F882309F46EC04E
:102270008CEF8C0F813AA8F504E117E08AE197E032
:10228000F8012191C217F9F08E179F07D1F7EFEFF0
:1022900080E0D8019D918D01C91781F0EF3F19F4BD
:1022A000911101C0E82F8F5F863099F7EF3F31F031
:1022B0000E2E000CFF0BEE5EF84FC283CF911F91E4
:1022C0000F910C945F07E4E1F7E02191C21303C082
:1022D000DF0111971C928E179F07B9F70E945F07C5
:1022E000D6CF80E28C0F883068F4C77021E030E0F0
:1022F00001C0220FCA95EAF780911B08822B8093B8
:102300001B08DCCFEBE5EC0FE33050F4F0E0E752D4
:10231000F94F808190E0CF911F910F910C940908A3
:10232000E8E5EC0FE73160F4F0E0EE0FFF1FE45258
:10233000F94F80819181CF911F910F910C94F307F8
:10234000CF3B21F481E080931307B8CFCF911F9149
:102350000F910895CF93C82F0E943111C93349F4CA
:102360002FEF87EE93E0215080409040E1F700C0CE
:1023700000008C2FCF910C94A4100F93CF93DF9378
:10238000C42FD22FFC018281882399F04093F80753
:102390000E944C079093DD078093DC07C77081E0B3
:1023A00001C0880FCA95EAF7DF91CF910F910C9485
:1023B000E9078091F807841340C02091DC07309131
:1023C000DD079FB7F8944091200850912108609153
:1023D0002208709123089FBF421B530B463E5105B4
:1023E00060F5C0E2CD0F8D17C1F090E2980F9830E4
:1023F00048F4877091E001C0990F8A95EAF7892F18
:102400000E94E207C83048F481E09D2F977001C018
:10241000880F9A95EAF70E94E907802F0E94AA1177
:10242000C83090F4D77081E001C0880FDA95EAF7E0
:10243000DF91CF910F910C94E207C77081E001C04A
:10244000880FCA95EAF7F4CFDF91CF910F910895E5
:1024500080914E08813079F0882349F0823039F03C
:10246000843069F08091DB0780931B08089582EE29
:102470000E94A410F7CF8CE20E94AA11F3CF88E249
:10248000FBCFCF92DF92EF92FF920F931F93CF93E8
:10249000DF93EC018AE0C82EFE018491882309F4C1
:1024A00081C0813009F03EC031968491813039F489
:1024B0002296FE0184910E94AA112196EDCF8230CE
:1024C00031F42296FE0184910E943111F6CF8330BF
:1024D00031F42296FE0184910E94A410EECF843044
:1024E00009F05EC02296FE01249190E080E0FE019A
:1024F00031962053330B2A30310548F00197E8F22A
:10250000EFE9FFE03197F1F700C00000F7CFC89E78
:10251000A001C99E500D1124C901840F951F24915B
:10252000EF01E5CFE82FF0E0E65BFB4FD490082FFA
:1025300006950695069510E0F801E65CFB4FE490E1
:102540008770F12C082E02C0F594E7940A94E2F704
:1025500021E0E222FF24065D1B4FF801049110E008
:1025600002C0159507958A95E2F701701127E114CD
:10257000F10419F081EE0E9431110115110519F0D5
:1025800086EE0E9431118D2D0E94AA11012B19F0A7
:1025900086EE0E94A410EF2809F48FCF81EE9CCF25
:1025A000EF018BCFDF91CF911F910F91FF90EF90B3
:1025B000DF90CF900895CF93DF93EC01805E910977
:1025C000089720F068ED77E0209711F469EE77E046
:1025D000CE010E940A0B8C2FDF91CF910C94311108
:1025E000CF93DF93EC010E94DB12CE01DF91CF91FC
:1025F0000C94DD10BF92CF92DF92EF92FF920F9377
:102600001F93CF93DF936B017C010CE110E0C7E0D7
:10261000D0E0BB24B394D701C601002E04C0B69508
:10262000A795979587950A94D2F7282F2F70D9F4FC
:10263000B11004C087E290E00E94F012219704508C
:102640001109CF3FDC0751F4DF91CF911F910F911A
:10265000FF90EF90DF90CF90BF900895C430D105E8
:10266000D4F6B12CD8CF822F90E02A3028F44D96A2
:102670000E94F012B12CE2CF0697FACF80911B088E
:102680008093DB0710921B0880914E08813089F0FF
:10269000882359F0823091F08430B9F08FE39CE9BF
:1026A0000197F1F700C00000089582EE0E943111F9
:1026B000F5CF88E193E00E94F012F0CF82EE0E9405
:1026C000311187E50E94AA11E9CF86EE0E94AA1176
:1026D00088E1F8CFCF93DF93FC018081FB0120815B
:1026E000318195E0929FF001939FF00D112481308C
:1026F00059F4E05BFD4FC591D491813041F4CE0196
:10270000DF91CF910C94F012EE5AFD4FF4CF82304E
:1027100029F48AE290E00E94F012F1CFDF91CF918C
:102720000895CF93DF932091F407FC01E258FD4513
:10273000EE0FFF1FE20FF11DEE0FFF1FE450FE4FE3
:10274000C591D491211105C0CE01DF91CF910C9498
:10275000F0120E943E13BE0190E080E00E94FA1247
:10276000DF91CF910C9428121F93CF93DF93865360
:102770009D4526E0289FE001299FD00D1124CC57CC
:10278000DE4F13E0FE018591949189322DE5920789
:1027900039F00E94F012113019F011502296F2CF48
:1027A000DF91CF911F910895FB014081518165E038
:1027B000649F9001659F300D1124F901E15BFD4F8D
:1027C0004491FC018081813059F4205B3D4FF90137
:1027D000859194914230A9F130F44130A1F10895EE
:1027E0002E5A3D4FF4CF433019F0463019F008957A
:1027F0000C94B4138530910541F168F48230910551
:10280000C9F018F4019799F0089583309105A9F063
:102810000497A9F008958730910529F100F19C01F2
:1028200029583D452630310508F50C9491138BE667
:1028300090E009C08CE690E006C00E9475108AE620
:102840009DE50E94C30B0C94F0128EE79DE50E945B
:10285000C30B90932D0780932C070C94DB128AE412
:1028600092E00C94411284E492E0FBCF0895CF9360
:10287000C82F0E94B60BCC2399F060E870E080E08E
:1028800090E00E942D0881EE90E00E94DB1280EE25
:1028900090E00E94DB1282EE90E0CF910C94DB126C
:1028A00081EE90E00E94DD1080EE90E00E94DD104D
:1028B00082EE90E00E94DD1061E070E080E090E048
:1028C000CF910C942D0880912A0790912B070097A7
:1028D00061F485EE90E00E94DB1285EE90E090932B
:1028E0002B0780932A0781E008950E94DD10109243
:1028F0002B0710922A07F7CF8091F20781110EC0A3
:1029000081E08093F2078091F407882321F082EE22
:1029100090E00C94DB1283EE90E0FBCF0895CF9310
:10292000DF93FB012081318145E0429FF001439F0D
:10293000F00D1124E05BFD4FC591D491FC01808125
:10294000813029F4CE01DF91CF910C94F0128230C6
:10295000B9F48AE290E00E94F0128091F507882392
:1029600019F085EE0E94A41084E390E00E94F0121A
:102970008091F507882331F385EE0E943111E2CF73
:10298000DF91CF9108958091F407811105C080EE09
:102990000E94311181E0089581E08093E707FACF2A
:1029A00045E050E06CE170E085E998E00C94002986
:1029B00090919508937059F08093960860939708CA
:1029C000493708F048E7409398080C94D0140895CC
:1029D000E5E9F8E0438128E0421B08F440E081810A
:1029E000628190E00C94D814E5E9F8E0438128E096
:1029F000420F08F44FEF8181628190E00C94D8146B
:102A0000E5E9F8E0628128E0621B08F460E081817A
:102A1000438190E00C94D814E5E9F8E0628128E065
:102A2000620F08F46FEF8181438190E00C94D81419
:102A3000E5E9F8E08181438162818850990B0C942B
:102A4000D814E5E9F8E0818190E04381628108963D
:102A50000C94D814E5E9F8E024813AE0230F08F457
:102A60002FEF24830C94D014E5E9F8E024813AE0B8
:102A7000231B08F420E024830C94D0149091950833
:102A8000937099F0811109C0946090939508109209
:102A9000F604662351F00C94D014833010F0986043
:102AA000F4CF880F880F982BF0CF08958091950868
:102AB00086958695815009F482E061E00C943E157C
:102AC00080919508869586958F5F833008F081E028
:102AD00061E00C943E15E5E9F8E089E0808380919F
:102AE000F2059091F305A091F40581839283A3836D
:102AF0008FE784830C94D014CF93809141019091FF
:102B000042010196E1F480910F0590911005029623
:102B1000B1F481E090916808911101C080E0C82F64
:102B2000C170809152088C1741F0882351F00E94A7
:102B30001D090E94D014C0935208CF91089581E0DE
:102B4000EECF0E942909F5CF8F929F92AF92BF924C
:102B5000CF92DF92EF92FF920F931F93CF93DF9369
:102B60008091F504C0E0D6E18F3F09F0D0C080919C
:102B70002E0790912F07A0913007B09131072FB702
:102B8000F894C0902008D0902108E0902208F0909E
:102B900023082FBF97018601081B190B2A0B3B0B3B
:102BA000EFB7F894409120085091210860912208D5
:102BB00070912308EFBF40932E0750932F07609327
:102BC0003007709331074091E2075091E30760911D
:102BD000E4077091E5074F3FEFEF5E076E077E0752
:102BE00009F0A1C0C0912408E4E2F8E06C2F70E085
:102BF0000197AF4FBF4F8C199D09AE09BF09C7138D
:102C0000AEC0609324088091E2079091E307A09101
:102C1000E407B091E50721E08132FEE49F07A105BA
:102C2000B10508F420E0D0E081323EE49307A1052D
:102C3000B10540F430919508D32FD37019F0D32FFC
:102C4000D695D69530913807321759F0209338072A
:102C500081329E44A105B10508F494C081E08093BF
:102C600053088091F604813009F4A5C0882309F443
:102C70008CC0823009F4FAC1833009F401C2DF91BB
:102C8000CF911F910F91FF90EF90DF90CF90BF9069
:102C9000AF909F908F900895D29FF001D39FF00D39
:102CA0001124EB5CFD4F428953894115510511F404
:102CB00046EE50E0D29FF001D39FF00D1124EB5C63
:102CC000FD4F8681882311F1258536856FB7F894ED
:102CD0008091200890912108A0912208B0912308AA
:102CE0006FBF821B930B4817590780F4CD9F80015B
:102CF00011248189811105C0C8018B5C9D4F0E9400
:102D00009108C801855C9D4F0E94B208CF5F2C2FAF
:102D100030E08091F504082E000C990B8217930780
:102D20000CF0BACF24CF4801590180949094A0941C
:102D3000B09484169506A606B70660F44FEF5FEFD1
:102D4000BA014093E2075093E3076093E40770935E
:102D5000E50748CF400F511F621F731FF2CF418D0F
:102D6000528D6A01F12CE12C8C159D05AE05BF0535
:102D700020F461507F5F329642CF400F511F528F37
:102D8000418FF8CF0E947C156CCF1092E4058091A2
:102D90002E0790912F07A0913007B09131078093B3
:102DA000340790933507A0933607B093370781E037
:102DB0008093F60464CF80914401D8133BC0909176
:102DC000950893702091430130E081E0921713063B
:102DD00009F480E081708093E605DD2369F1D1304C
:102DE00091F510919608D0909708E0919808F0E03E
:102DF000E653FB4FD11037C0F4901F2DCF2D9DEA25
:102E0000A92E95E0B92ED12CC12CF50181915F013D
:102E10009091E505892331F0212F4F2D6C2FC601AC
:102E20000E941209FFEFCF1ADF0A26E3C216D1046F
:102E300061F709C081E0CECF882329F040E060E04F
:102E400080E00E9436098091E4058F5F8093E4055D
:102E500082E08093F6048091E605811178C0D1115B
:102E600079C083E0A5CFED2CF12CC4910C2FEC2F71
:102E7000F0E026E0129FC00111242FEF30E0B901ED
:102E80000E94C828812F90E0880F991FA5E5A69F72
:102E9000A001A79F500D1124841B950B982F990F0B
:102EA000890FD901AE19BF09AE9FA001AF9F500D88
:102EB000BE9F500D1124152FD89ED0011124AB2F89
:102EC000BB276901CA1ADB0ACE9ED001CF9EB00D86
:102ED000DE9EB00D11246901C81AD108CE9CC00134
:102EE000CF9C900DDE9C900D1124892F9927281BD3
:102EF000390B2E9FC0012F9F900D3E9F900D1124E6
:102F0000F92E62307105A1F050F46115710509F4D4
:102F100076CF6130710581F0F52E1B2F70CF6430B4
:102F2000710569F080F06630710509F468CFF4CF5F
:102F3000FC2EC52F192F63CFFC2ECB2F60CFF52E83
:102F40001C2FC92F5CCFC52F102FFB2E58CFDD2390
:102F500009F495CE80914101909142010196B1F022
:102F600080913207909133070197909333078093B4
:102F70003207892B59F48FEF9FEF90934201809392
:102F8000410181E0809353080E947C158091530891
:102F9000882309F474CE40E060E080E00E943609A6
:102FA00080914101909142018F3F980709F43EC002
:102FB00040E050E060EF72E40E94410BC09168086D
:102FC000D0E003E618E088E6E82E88E0F82E2097A7
:102FD00051F1F80121918F012F3F11F1B12C45E002
:102FE000240390011124C90186539A4F6C01FC01FE
:102FF000849198EC883C20F490E0843608F094E6C4
:1030000020915408222301F12CE9280F2436F0F4F2
:10301000F60134962491B394F4E1BF1223C02197B2
:10302000E016F106A1F61092530829CE80910F0503
:10303000909110058E3FEFEF9E0709F4BFCF40E05F
:1030400050E068EC72E4B8CF843610F3F6013396A2
:1030500024913197449131976491891B990B0E9477
:103060001209D6CF12160CF4BACFD9CFD09344019F
:10307000809195088370809343010E946A0CF1CE81
:1030800040913407509135076091360770913707AA
:103090002FB7F8948091200890912108A0912208E0
:1030A000B09123082FBF841B950BA60BB70B8C3256
:1030B0009140A105B10508F4E2CD1092F604DFCDF0
:1030C000909168086623D9F09530A0F4E3E6F8E023
:1030D00030E020E041914F3F41F42D59374FF90145
:1030E00080839F5F9093680805C02F5F3F4F253016
:1030F000310581F781E0809353080C947C15992366
:10310000C9F3E3E6F8E030E020E04191841307C022
:103110002D59374F8FEFF90180839150E3CF2F5F07
:103120003F4F2530310589F7E5CF8091EC0790912D
:10313000ED078036910511F50E94B60B89E30E94D8
:1031400031112FEF8EE595E0215080409040E1F75E
:1031500000C0000089E30E94A4108091290791E03B
:1031600089278093290760E082E00E9460186091BF
:10317000290781E00E94601880E0089581E00895A9
:103180008091F507882349F085EE0E94A4101092E3
:10319000F50760E082E00C94601808958091F507CF
:1031A00081110EC08091290781110AC085EE0E940D
:1031B000311181E08093F50761E082E00E946018A0
:1031C00081E0089525E030E0309333072093320703
:1031D000082E000C990B909342018093410181E0ED
:1031E000809353080C947C158F929F92AF92BF925C
:1031F000CF92DF92EF92FF920F931F93CF93DF93C3
:10320000CDB7DEB72F970FB6F894DEBF0FBECDBF98
:103210004B875C876D877E878F878E859F85892BFF
:1032200031F0CA0189238F3F11F00C94AB2285E065
:10323000FE013B96DE01169601900D928A95E1F70C
:1032400089859A85892B41F01E81FF80812F8F21EE
:103250008F3F11F00C9497222F960FB6F894DEBF93
:103260000FBECDBFDF91CF911F910F91FF90EF90D7
:10327000DF90CF90BF90AF909F908F9008950E9465
:10328000C80A082F682F89819A810E949F07E12F21
:10329000F0E026E0F29EE00DF11D112430E3039FE3
:1032A000E00DF11D1124EE0FFF1FE450FA4F0591C0
:1032B00014918885811105C0F884F1103EC0912CCD
:1032C00056C08091F5048F3FB9F395E3C92E92E083
:1032D000D92EB12CA12CFF24F3948091F504082E53
:1032E000000C990B8A159B053CF3D60116968C9120
:1032F00016978823D9F019968D919C918017910784
:1033000039F48091F6079091F7078017910771F0D3
:10331000F601F786148703878189811103C0C601EE
:103320000E949108C60106960E94B208FFEFAF1AEC
:10333000BF0A26E1C20ED11CD0CF1092E207109234
:10334000E3071092E4071092E5078F812E8136E0A3
:10335000839FC00111248F5E9A4F820F911DDC0163
:10336000EC90BFEF99249394EB1609F4A8CF8090CA
:103370002408C92CD12CC601880D911D099764F130
:1033800088E090E05C01AC18BD08B6016B5D774F3A
:10339000A50185E298E00E94062BB601635D774F98
:1033A000A5018DE298E00E94062BA501440F551F50
:1033B000B601660F771F635C774F8DE398E00E943C
:1033C000062BB6016B5C774FA50185E398E00E9460
:1033D000062B8A94809224088091240890E02E2D58
:1033E00030E0A901440F551F4F5B5A4F220F331F86
:1033F000B9016E5B7A4F21E0280F991508F423C1BB
:10340000809324080E94FF10FF2071F08091F40740
:10341000813051F48091E707813031F483EE0E94CE
:10342000311182E08093E7078091F307811123C275
:103430000938BDE51B0708F0A7C10238EDE51E07F6
:1034400008F0B6C10A33FDE51F0708F06BC106336B
:103450002DE5120708F074C10C34110508F008C1FD
:103460000A34110508F00FC4C8014E970A9708F4F2
:103470000AC48091F1078823B1F080915D08909192
:103480005E08A0915F08B09160080097A105B105A2
:1034900041F067E0B695A795979587956A95D1F71E
:1034A00080FF0E94B60BC80197558F3F910511F020
:1034B00008F040C02091F504022E000C330B2817B1
:1034C000390714F48093F504288536E1389F6001AC
:1034D000399FD00C1124F601EB5CFD4F7F01208B4E
:1034E0008681222309F4D8C4128701878F5F8683DF
:1034F0000E944C07D7011E969C938E931D9717969A
:103500001C92179780911A0890911B08892B189686
:103510008C931897ED91FC911197309739F0549650
:103520006D917C91C601855C9D4F09951093F707BD
:103530000093F6078885882379F080911B088272B2
:10354000013EFCE51F0709F4C6C408F0B2C4003E02
:103550003CE5130709F4BBC417FFC5C4888588235D
:1035600029F10E943E136801E894D7F85CE0E52E4B
:10357000F12C96010E2C02C0369527950A94E2F79D
:103580002F7087E290E031F0822F90E02A3008F02F
:10359000A8C44D960E94F01294E0E91AF108ACEF2D
:1035A000EA16AFEFFA0629F70E94281298859923A8
:1035B00009F419C61092F8070230BCE51B0708F49D
:1035C000B7C50631ECE51E0738F098012B5F3C4586
:1035D0002930310508F0ACC50E94F40B90936208C5
:1035E000809361080031FCE51F0709F470C508F0FD
:1035F00001C508303CE5130709F45BC508F0D0C4E9
:1036000004309CE5190709F44CC508F0B6C4023033
:10361000BCE51B0709F43FC5809161088260033057
:103620001C4509F43BC5609161081091620884E073
:1036300090E00E941029612F81E290E00E94102901
:103640000E94B10D09CE90E0FC01EC5DF74FDA016C
:103650003C913183DB013C913187E18A880F991FCE
:10366000FC01EC5DF74F128E118E91E0822FC3CEDC
:103670000D34110508F4FDCE0F34110508F403C311
:10368000C8018B529D450A9708F0F3CE68013BE2D2
:10369000C31A3DE5D30A88E18C9D80018D9D100DF4
:1036A00011240B5B1E4FD80111968D919C9112979E
:1036B0002091EC073091ED07FF2009F4D6C1820F6D
:1036C000931F9093ED078093EC071E96ED91FC916C
:1036D000309709F485C1C8010995811181C1809194
:1036E000EC079091ED07F80121813281821B930B49
:1036F0009093ED078093EC078091EC079091ED0794
:103700008930910509F496C28234910509F09DC271
:103710000E94B60B90E080E00E94C01881E00E94F9
:1037200037144EC208343DE5130798F405348DE58F
:10373000180730F4C8018C539D45059708F099CEC1
:10374000FF2009F489CD0E94B60BC8010E94B41372
:1037500083CD0D349DE5190708F48BCE0E37ADE50A
:103760001A0730F0C8018F579D45029708F081CEA7
:10377000FF2009F4DEC00E94B60BC8010E94C30BF3
:10378000009709F469CD85C2073ABDE51B0709F426
:10379000CDC2B0F5003AFDE51F0798F404392DE5D8
:1037A000120708F05FC20F383DE5130708F461CE39
:1037B000FF2009F451CD0E94B60BC8010E9491135D
:1037C0004BCD013A8DE5180709F4DEC208F48DC22D
:1037D000023AADE51A0709F4F3C2033ABDE51B0747
:1037E00009F047CEFF2009F4D3C00E94B60B8091A8
:1037F000F207811102C00E947C148BE292E049C260
:103800000C3AEDE51E0709F484C2D8F4093A2DE517
:10381000120709F4E5C208F4A4C20A3A8DE51807B4
:1038200009F4F1C20B3A9DE5190709F022CEFF20F9
:1038300009F412CD0E94B60B8DE690E00E94F012C2
:103840000BCD0F3AADE51A0709F426C208F4EEC213
:10385000003BEDE51E0709F00CCE1091F507FF20A7
:1038600009F43CC20E94B60B80E290E0111111C233
:1038700087E390E00EC2FF20A1F09091E60700934D
:10388000E6079C3109F0E8CC023109F0E5CC109252
:10389000F30761E070E080E090E00E942D0882E094
:1038A00031C20938FDE51F0708F04CC002382DE58C
:1038B000120708F0D1CC0A333DE51307D8F40633DC
:1038C0008DE5180708F0C8CC0C34110550F40A3403
:1038D000110528F4C8014E970A9708F0CACDC8010F
:1038E0002EC00D34110508F4C4CD0F34110508F0B5
:1038F000C7CEF5CF08349DE5190760F40534ADE572
:103900001A0708F0A9CCC8018C539D45059708F407
:10391000A3CCAFCD0D34BDE51B0708F4AACD0E37FF
:10392000EDE51E0730F0C8018F579D45029708F05E
:10393000A0CDC8010E94C30B009709F48DCC0E9452
:10394000DD108ACC073AFDE51F0709F4F2C118F52E
:10395000003A3DE5130758F404398DE5180708F0DF
:103960007BCC0F389DE5190708F076CC82CD013A63
:10397000ADE51A0709F40DC208F46ECC023AEDE584
:103980001E0709F429C2033AFDE51F0709F071CDAE
:103990008BE292E0D4CF0C3A2DE5120709F45CCC0F
:1039A00090F4093A8DE5180709F456CC08F4DCC107
:1039B0000A3AADE51A0709F44FCC0B3ABDE51B07EF
:1039C00009F44ACC56CD0F3AEDE51E0709F464C15F
:1039D00008F442CC003B2DE5120709F43ECF49CD57
:1039E00088E18C9DF0018D9DF00D1124EB5BFE4F65
:1039F00089859A85958B848B838181110E945A08D1
:103A000088E18C9DF0018D9DF00D1124EB5BFE4F44
:103A10008681978122853385AC01422B532B452B20
:103A200041F02115310519F0C9010E94C30B0E9414
:103A3000DB128091F10791E0980F9093F1078111CB
:103A400005C01093E9070093E80756CEE091E80718
:103A5000F091E90786899789009729F4178B068BDF
:103A60000E94B60B49CEFC01F5CF009729F08223C6
:103A70009323892B09F493C08091F107815080939F
:103A8000F10781119FC01092E9071092E807EE2418
:103A9000E39488E18C9DF0018D9DF00D1124EB5B8A
:103AA000FE4F81819281281B390B3093ED072093C3
:103AB000EC070088F189E02D309711F0C8010995D5
:103AC00088E18C9DF0018D9DF00D1124EB5BFE4F84
:103AD0008381E091E807F091E9078111A6C088E1B0
:103AE0008C9DF0018D9DF00D1124EB5BFE4F8681C6
:103AF000978122853385A901482B592B452B41F00D
:103B00002115310519F0C9010E94C30B0E94DD1077
:103B100088E18C9DF0018D9DF00D1124EB5BFE4F33
:103B2000838981112EC0248135812115310549F009
:103B300089859A8544895589841B950B821793073B
:103B400000F588E18C9DF0018D9DF00D1124EB5B5B
:103B5000FE4F80859185009711F00E94F01288E158
:103B60008C9DF0018D9DF00D1124EB5BFE4F848543
:103B70009585009731F00E94C30B009711F00E94C9
:103B8000F012EE2061F088E18C9DF0018D9DF00D2A
:103B90001124EB5BFE4F128A138A178A168A8091D2
:103BA000EA079091EB078930910509F457C08234F8
:103BB000910509F04AC08091EE07882309F4AFCD42
:103BC00086E040C0E091E807F091E9070E171F0773
:103BD00051F4D80156968D919C919093E90780936A
:103BE000E80755CFFC01868997890097A9F0081747
:103BF0001907C1F7D80156968D919C91978B868BAA
:103C000088E18C9DF0018D9DF00D1124EB5BFE4F42
:103C1000128A138A178A168AE12C3BCF938189175F
:103C200009F45DCF0688F789E02D3097B9F70E9437
:103C3000370855CF0E94B60B0E94FF1089E00E9402
:103C40005A0883E06F2D0E9460188091EC079091D4
:103C5000ED079093EB078093EA07FECA89E00E9484
:103C60003708EFCFFF2009F4F7CA0E94B60B8FEB9D
:103C700090E00E94DB12C8018A559D450E94F01217
:103C80008FEB90E05CCEFF2009F429CE0E94B60BAA
:103C9000C8010E94DB12E0CA8091F507FF2069F09D
:103CA000882341F00E94B60B85EE0E94A41080E8A4
:103CB0009DE564CD8AE290E0ECCF882361F080E856
:103CC0009DE50E94C30B009711F00E94DD1085EE68
:103CD0000E943111C1CA8AE290E031CE80E290E0C8
:103CE00011112DCE87E390E02ACEFF2009F4B4CA4B
:103CF0000E94B60B8091F407811107C081E0809388
:103D0000F40780E00E94E218A7CA1092F40781E04D
:103D1000F9CFFF2009F4A0CA0E94B60B81E080937E
:103D2000F30760E071E080E090E0B7CDF1100E9411
:103D3000B60B8091F40781110EC0FF2039F08FEB94
:103D400090E00E94DB1284E490E0A3CF84E490E052
:103D50000E94DD1095CFFF2009F47ECA87E098E02D
:103D60006DCDF1100E94B60B8091F407811106C051
:103D70008CE390E0FF2009F4E2CD8BCF8BE298E05A
:103D8000FF2009F469CA5ACDFF2019F00E94B60B32
:103D900063CA8091F40781110EC08FEB0E9431112C
:103DA00086E693E00E94F0128FEB0E94A41081E05F
:103DB0008093F30774CD86EA90E00E94F012F7CF6B
:103DC000FF2051F00E94B60B8091F207811102C0D2
:103DD0000E947C148BE27CCF8BE20E94A4103CCA30
:103DE000FF2009F439CA0E94B60B8091F4078111B3
:103DF00003C086E691E022CD8BE198E00E94F012AC
:103E00008AE090E01BCDFF2009F426CA0E94B60B81
:103E10008091EE0791E089278093EE070E94371486
:103E20006091EE0780E00E94601816CAFF2009F436
:103E300013CA0E94B60B8FEF9FEF0D3A1D4511F488
:103E400081E090E02091EF073091F007820F931FFF
:103E500097FF1AC084E090E09093F0078093EF07FB
:103E6000E091EF07F091F007EE0FFF1FE153F94FDC
:103E7000808191819093100580930F0581E080935C
:103E800053080E947C15E8C9853091052CF31092E7
:103E9000F0071092EF07E4CF882309F44BCB818918
:103EA000882309F447CBC601855C9D4F0E94B20868
:103EB00041CB073E8CE5180708F04ECB6EE1600F52
:103EC00060934E088CE090E00E94102945CB811150
:103ED00004C081E003C08111FCCF8FEF0E94FC0879
:103EE0003BCB069757CB043FBCE51B0771F1B8F4F9
:103EF000093DFCE51F0719F10A3D2CE51207B9F150
:103F0000083D3CE5130709F051CB06E221EE41EEF6
:103F100068ED7CE5CE0106960E94BD119DC9063F65
:103F20008CE51807F1F0B8F0073FACE51A0709F087
:103F30003DCB07E225EE46EE67EF7CE5EBCF07E2EF
:103F400025EE45EE69ED7CE5E5CF06E221EE40EE9B
:103F500064EF7CE5DFCF07E225EE44EE65EF7CE51C
:103F6000D9CF06E221EE42EE66EF7CE5D3CF08E240
:103F700021E045EE6AED7CE5CDCF8091610880615E
:103F80000630FCE51F0709F489C08091610888604C
:103F900007301C4508F482C08091610880627EC0B1
:103FA000809161088D7F0C303CE5130709F476C0E1
:103FB00070F4809161088C600A309CE5190709F45F
:103FC0006DC008F47AC0809161088E7F67C08091CF
:103FD0006108877F0E30BCE51B0709F45FC0809144
:103FE00061088B7F0F301C4508F458C08091610830
:103FF0008F7E54C00C3FFCE51F0709F456C030F516
:1040000003313CE5130709F46AC078F401319CE5FB
:10401000190709F460C002311C4509F004CB0E9465
:10402000B10D809161088F7739C00531BCE51B0760
:1040300009F45DC008F471C08091620881600B3F93
:104040001C4509F0F0CA80936208EDCA01152DE500
:10405000120709F448C070F40E3F8CE5180799F177
:10406000809162088E7F0F3F1C4568F38091620843
:104070008360E9CF0230ADE51A0709F457C008F4B0
:1040800042C060E003301D4509F0CDCA8EE090E0EB
:104090000E941029C8CA80916108816080936108DC
:1040A000C2CA809161088460F9CF80916208826001
:1040B000CACF809161088064F1CF0E94B10D8091D8
:1040C00061088068EBCF809162088D7FBCCF8091C2
:1040D00061088F7DE3CF809161088F7BDFCF809176
:1040E0006108837FDBCF809162088C7FACCF8091A9
:1040F000610882FB992790F921E0922790FB82F9D1
:1041000090FB83F9CBCF80916208982F90959170A6
:104110008E7F892B90FB81F996CF0E94B10D9091F3
:104120006108892F97FB87F98058B8CF61E0AECF3F
:1041300080911B088272F801E35CFC45E431F105D3
:1041400008F048C0E55EF44D0C94DC288091950899
:1041500091E08927809395081092F6040E94D0146C
:104160007BC846E555E160E675E10E94020974C826
:1041700040E655E166E575E1F8CF48E155E161E2D9
:1041800075E1F3CF41E255E168E175E1EECF40E042
:1041900055E16CE075E1E9CF4CE055E160E075E197
:1041A000E4CF48EE54E164EF74E1DFCF44EF54E133
:1041B00068EE74E1DACF44E355E16AE275E1D5CF08
:1041C0004AE255E164E375E1D0CF61E081E00E940D
:1041D0003E1542C80115FCE51F0709F44EC00F3D0E
:1041E0001C4509F44CC00E811F81992309F44BC072
:1041F000C8010E94C80AF82E682FC8010E949F07B4
:10420000B8018F2D0E943809082FE82E888581116A
:1042100010921A08192F12951F70143009F481C0DA
:10422000B8F5123008F442C0A12FA850BB0B12976A
:1042300010F40E94850885E0FE013696DE01119695
:1042400001900D928A95E1F789819A810E94760703
:104250009A81E981F0E0B6E09B9FE00DF11D112409
:1042600020E3829FE00DF11D1124EE0FFF1FE450AB
:10427000FA4F859194910C942C190E9475100E940C
:10428000470D0C942C19C8010E947607F82EB8CF60
:10429000183009F466C0193009F437C1173009F035
:1042A000C3CF882309F459C08FEB1AC0392F3F7050
:1042B000F32E907F19F0F29440EFF4228823C9F096
:1042C000FF2069F080E2800F883010F0E1100BC011
:1042D00080911B08F82AF0921B080E945F07802F2C
:1042E0000E943111A1CF80911A08F82AF0921A0881
:1042F000F4CF802F0E94A410FF2009F495CF005E18
:10430000083010F0E11006C08F2D0E9458070E945F
:104310005F078ACFF09480911A08F822F0921A0869
:10432000F6CF292F26952695237051F0213009F0DC
:104330007BCF882379F0802F93700E94F30774CF8E
:10434000882329F0802F93700E9409086DCF90E098
:1043500080E0FACF90E080E0F0CF8FEB0E94A410D5
:1043600063CF292F237009F065C081115DCF802FA5
:10437000829586958770880F880F402F4F7050E088
:1043800070E060E0082E04C0440F551F661F771FC1
:104390000A94D2F7C12CD12C760104FF10C03FE063
:1043A000C32ED12CE12CF12C04C0CC0CDD1CEE1C56
:1043B000FF1C8A95D2F7C094D094E094F09496951F
:1043C00096959370923019F1D8F480901C089090D3
:1043D0001D08A0901E08B0901F08913069F04C296C
:1043E0005D296E297F29CB01BA01682179218A21B3
:1043F0009B210E947B0818CF482959296A297B29CB
:10440000CB01BA016C297D298E299F29F2CF4C2935
:104410005D296E297F29C0901C08D0901D08E0906E
:104420001E08F0901F08CB01BA016C257D258E2552
:104430009F25DFCF2695882311F0292F2170222375
:1044400009F4F2CE802F829586958770880F880FA9
:10445000402F4F7050E070E060E0082E04C0440F21
:10446000551F661F771F0A94D2F7C12CD12C7601F5
:1044700004FF10C02FE0C22ED12CE12CF12C04C07F
:10448000CC0CDD1CEE1CFF1C8A95D2F7C094D09496
:10449000E094F094969596959370923019F1D8F433
:1044A00080905D0890905E08A0905F08B0906008D2
:1044B000913069F04C295D296E297F29CB01BA0121
:1044C000682179218A219B210E942D08ADCE48299F
:1044D00059296A297B29CB01BA016C297D298E29AA
:1044E0009F29F2CF4C295D296E297F29C0905D0854
:1044F000D0905E08E0905F08F0906008CB01BA01B0
:104500006C257D258E259F25DFCF9F70F92E882372
:1045100039F0892F0E945A08802F0E94E90784CE23
:10452000802F0E94E2078F2D0E9437087DCE85E004
:10453000FE013696DE01119601900D928A95E1F703
:10454000288589819A8121110C943F190E94760750
:10455000082F0C9447198091F9079091FA0701965A
:104560009093FA078093F9070C941719CF92DF9272
:10457000FF920F931F93CF93DF938091540888236A
:1045800009F49AC00E94AD0CF82E8091E305C4E0B6
:10459000D0E0882311F0D0E0C0E0C459D74F44E008
:1045A00050E0BE0184E297E00E94F92A6C01888104
:1045B0009981AA81BB818093240790932507A093BA
:1045C0002607B09327078091E305D0E0C0E0882359
:1045D00011F0C4E0D0E09091400180913F0110E0E3
:1045E00000E0981759F082E090E00E944A288C0180
:1045F000892B21F480913F018093400180911C0719
:1046000090911D07C82AD92A90E080E0CD2811F0AA
:1046100081E090E00E944A28892B31F580911F07A4
:1046200080933F0110921D0710921C070115110580
:1046300011F10230110509F428985D9880911E0748
:104640008F5F80931E07863040F18091E305F0E094
:10465000E0E0882311F0E4E0F0E0E459F74F108245
:1046600011821282138219C081E090E090931D079D
:1046700080931C07DBCF289AC459D74F809120071D
:1046800090912107A0912207B091230788839983F5
:10469000AA83BB835D9A10921E070E94A415C1E0F5
:1046A000F11001C0C0E08C2FDF91CF911F910F91CD
:1046B000FF90DF90CF9008950E94AD0C9091E3059C
:1046C000E4E0F0E0992311F0F0E0E0E0E459F74F86
:1046D00040E030E020E0D901A05EB84F5C919191BC
:1046E000591341E09C932F5F3F4F2430310599F7D8
:1046F00090911F07940F90931F07C1E0811101C093
:10470000C0E08091E305811102C030E020E024592F
:10471000374F8091240790912507A0912607B091EB
:104720002707F90180839183A283B3830E94A41594
:10473000BACF1F920F920FB60F9211242F933F936F
:104740004F935F936F937F938F939F93AF93BF9399
:10475000CF93DF93EF93FF93D091E900DF708091C7
:10476000EC00C82FC17080FDC0E81092E900809174
:10477000F000877F8093F00078940E94BC0D109227
:10478000E9008091F00088608093F000CD2BCF701D
:10479000C093E900FF91EF91DF91CF91BF91AF916D
:1047A0009F918F917F916F915F914F913F912F9149
:1047B0000F900FBE0F901F9018951F920F920FB67B
:1047C0000F9211242F933F934F935F936F937F9397
:1047D0008F939F93AF93BF93EF93FF938091E100EB
:1047E00082FF09C08091E20082FF05C08091E10054
:1047F0008B7F8093E1008091DA0080FF24C080915C
:10480000D80080FF20C08091DA008E7F8093DA008C
:104810008091D90080FF9FC080E189BD82E189BD80
:1048200009B400FEFDCF81E080938B0880917E0863
:10483000811109C00E94BE050E9489068091E20094
:1048400084608093E2008091E10080FF17C0809136
:10485000E20080FF13C08091E2008E7F8093E2002F
:104860008091E20080618093E2008091D8008062B4
:104870008093D80019BC85E080938B088091E1007B
:1048800084FF2DC08091E20084FF29C080E189BDB2
:1048900082E189BD89B5982F917080FFFBCF80910F
:1048A000D8008F7D8093D8008091E1008F7E809327
:1048B000E1008091E2008F7E8093E2008091E2002F
:1048C00081608093E20080918C08882309F449C0BC
:1048D00084E080938B080E94B10D0E94850880912E
:1048E000E10083FF27C08091E20083FF23C0809115
:1048F000E100877F8093E10082E080938B08109233
:104900008C088091E1008E7F8093E1008091E2002D
:104910008E7F8093E2008091E20080618093E200CC
:1049200042E060E080E00E9457068091F0008860DD
:104930008093F000FF91EF91BF91AF919F918F9184
:104940007F916F915F914F913F912F910F900FBE8B
:104950000F901F90189519BC10928B0810927E082A
:1049600072CF8091E30087FD93E090938B08B3CFE3
:10497000CDB7DEB72A970FB6F894DEBF0FBECDBF16
:1049800084B7877F84BF0FB6F894A89580916000A4
:10499000886180936000109260000FBE80E890E014
:1049A0000FB6F89480936100909361000FBE85B7B5
:1049B000806885BF85B7806885BF0E94BE050E945C
:1049C00089068091E20084608093E200789480916F
:1049D0008B088823A1F01091E9001F709091EC00E2
:1049E000892F817090FD80E8182B1092E90080914A
:1049F000E80083FD0E94BC0D1F701093E90082E067
:104A000084BD93E095BD9AEF97BD80936E000E94A0
:104A1000910C8093E3050E94910C63E070E0882381
:104A200009F43BC187EF94E00E94682778940E94C4
:104A3000D30BAAE0B7E061E070E08D91E82FE2953A
:104A4000EF70F0E041A18F709B0101C0220F8A95A9
:104A5000EAF7922F9095942391A382A1822B82A3AF
:104A600027E0A031B20749F7209A559A289A5D9A13
:104A7000A5E5B8E0ECE6F8E011921D9288E0E43795
:104A8000F807D1F70E94910C8093540890E080E0E1
:104A90000E94FA288C3E9E4F11F00E94470D109202
:104AA00024088FEF9FEF90933E0880933D089093EA
:104AB000400880933F089093420880934108909368
:104AC0004408809343089093460880934508909348
:104AD00048088093470890934A0880934908909328
:104AE0004C0880934B0890E080E00E94FA288C3EAE
:104AF0009E4F21F00E94470D0E946B1545E050E04B
:104B00006CE170E085E998E00E94E22880919508C8
:104B10008C7F11F40E946B158CE090E00E94F228CB
:104B200090E0B0E0A0E080934E0890934F08A093EF
:104B30005008B093510810924D0884E080934E08BD
:104B40008091E305811109C082EDE5EFF5E0A1E177
:104B5000B5E001900D928A95E1F760E082E00E9455
:104B60003E1548E76FEF84E690E00E94D81420914C
:104B70000F053091100581E02E3F9FEF390709F4B2
:104B800080E080935308809352082E3F3F4F09F4F2
:104B900089C00E9429090E94D01490E080E00E9400
:104BA000FA288C3E9E4F11F00E94470D82E090E063
:104BB0000E94F228809375080E94F40B909362087B
:104BC0008093610883E090E00E94F228682F70E0F3
:104BD00090E080E00E947B08109268088FEF80933D
:104BE00063088093640880936508809366088093C7
:104BF000670885E08093E50587EE95E090936A0865
:104C000080936908EE24EA9480E1A82E92E1B92EFF
:104C100028E1C22ED12C30E4932E80918B08853070
:104C200009F443C00E94B622A6E7B8E0ECE6F8E03B
:104C300010E000E0302F81919D91981709F470C029
:104C4000292F282790E0FF24F3944F2D422309F4C5
:104C500062C099833A838F2191E009F490E09B83AD
:104C60000E944C078160782F9D838C8349815A81F3
:104C70006B818D810E94F418F801EA58F74F80810A
:104C8000F826F0820E94850890917408891729F20D
:104C90000E94850880937408C0CF87EF94E00E943B
:104CA0007127C4CE0E941D0976CF80918B08843075
:104CB00009F110926B080FB6F894A895C0926000A5
:104CC0000FBE9092600083B7817F846083BF83B7FB
:104CD000816083BF7894889583B78E7F83BF0FB63A
:104CE000F894A8958091600088618093600010928C
:104CF00060000FBE80918A08882309F48ECF0E943D
:104D0000B622ECE6F8E08191811120C088E0E4371A
:104D1000F807C9F782CF9F5FFF0C963009F095CF57
:104D20000F5F1F4F0830110509F084CFEE82EF822C
:104D300018860E944C078160782F9A8789874E8158
:104D40005F8168858A850E94F4189CCFA9BCB9BC94
:104D500009B400FEFDCF8091D8008F7D8093D800EC
:104D60008091E00082608093E0008091E00081FD0E
:104D7000FCCF53CF78941F921FB61F9211248F93AC
:104D80009F93AF93BF938091200890912108A091A9
:104D90002208B09123080196A11DB11D809320081F
:104DA00090932108A0932208B0932308BF91AF915C
:104DB0009F918F911F901FBE1F9018951F921FB635
:104DC0001F9211248F939F93AF93BF9380916B0891
:104DD000811113C08091200890912108A091220890
:104DE000B09123084196A11DB11D80932008909396
:104DF0002108A0932208B0932308BF91AF919F91FF
:104E00008F911F901FBE1F9018958EE14A9B02C084
:104E10008150E1F74A9BFECF08955A9880E28A9527
:104E2000F1F75A9A0895FC013BE03A95F1F720E03A
:104E300090E080E031E040E14A95F1F7880F4A9B2D
:104E400002C08160232742E04A95F1F7000040E16B
:104E50004A95F1F79F5F6913EECF90E19A95F1F7CC
:104E600099B132E03A95F1F7000040E14A95F1F747
:104E700092FB992790F992272081920F90830895B1
:104E8000EF92FF920F931F93CF93DF930F92CDB7C3
:104E9000DEB719828C017C01E60EF11C0E151F0590
:104EA00061F481E09981911180E00F90DF91CF91C1
:104EB0001F910F91FF90EF9008950E94052768E0E1
:104EC000CE0101960E941327F80181938F01E6CF4E
:104ED00090939C0880939B0860939A08529A5A9AE0
:104EE000089590939C0880939B0860939A08529829
:104EF0005A9AEA9AE9E6F0E080818F7C80830895EF
:104F00006150770B91E001C0990F6A95EAF720E0B4
:104F100031E0911108C0222391F05A9A80E28A95DB
:104F2000F1F75A980895492F482339F05A9A2327C0
:104F300040E24A95F1F79695ECCF5A98F9CF5A98F6
:104F4000EDCFFF920F931F93CF93DF93EC018C0172
:104F5000060F111DC017D10731F4DF91CF911F91BA
:104F60000F91FF900895F9900E940D2768E08F2D12
:104F70000E948027EFCF1F920F920FB60F9211243D
:104F80000F931F932F933F934F935F936F937F9351
:104F90008F939F93AF93BF93EF93FF93CF93DF9341
:104FA0000F92CDB7DEB719820E94052767E0CE01C8
:104FB00001960E941327082F069506950695982FAF
:104FC00092959570202F2570920F292F237096951A
:104FD00096958770920F891344C08981811141C0D1
:104FE00080919A088017E8F120E12A95F1F75A9A02
:104FF000529A82E08A95F1F700C0A8E00A9FC001AA
:10500000112400919B0810919C08080F191F5A98B1
:10501000F8016581662321F0868197810E94A1278E
:105020000E940D27F0E1FA95F1F75A9852985A9A92
:1050300020E12A95F1F7D80112966C911297662318
:1050400031F113968D919C910E944027D801ED91EA
:10505000FC91882311F088E001C082E080830E94E7
:1050600005270F90DF91CF91FF91EF91BF91AF9105
:105070009F918F917F916F915F914F913F912F9170
:105080001F910F910F900FBE0F901F901895ED91EB
:10509000FC91E1CF0F931F93CF93DF9320919A0858
:1050A000281719060CF471C08C0193E0000F111F32
:1050B0009A95E1F7C0919B08D0919C08C00FD11F31
:1050C000F894529A5A9825E02A95F1F70000982F03
:1050D000969595708570980F892F83709695969503
:1050E000980F092B0E940D2700C067E0802F0E94B7
:1050F000802780E18A95F1F752985A9A4A9B17C007
:1051000087E090E04A9915C06D81662321F18E8178
:105110009F810E94402781111EC0529A5A9AE881AD
:10512000F98182E08083789482E090E00DC000C035
:10513000E5CF019771F4529A5A9AE881F98181E09A
:105140008083789481E090E0DF91CF911F910F915F
:10515000089500C0D7CF0E94052720E22A95F1F7D5
:105160005A98529A80E18A95F1F76A81662321F074
:105170008B819C810E94A1270E940D27E881F981E3
:105180001082789490E080E0DFCF84E090E0DCCF84
:10519000AA1BBB1B51E107C0AA1FBB1FA617B7075D
:1051A00010F0A61BB70B881F991F5A95A9F7809579
:1051B0009095BC01CD010895EE0FFF1F0590F4916D
:1051C000E02D0994DC01CB01FC01F999FECF06C06A
:1051D000F2BDE1BDF89A319600B40D9241505040B5
:1051E000B8F70895F999FECF92BD81BDF89A992735
:1051F00080B50895A8E1B0E042E050E00C94E428C6
:10520000DC01A40FB51F4150504048F0CB01840F82
:10521000951F2E910E94112941505040D0F70895BA
:10522000262FF999FECF92BD81BDF89A019700B45F
:10523000021639F01FBA20BD0FB6F894FA9AF99AFF
:105240000FBE08950396272F0E9411290E9410294E
:10525000252F0E941129242F0C9411290196272F04
:105260000E9411290C9410290E9448290C94292A83
:105270000E94222A58F00E941B2A40F029F45F3F26
:1052800029F00C94122A51110C945D2A0C94182ABE
:105290000E943A2A68F39923B1F3552391F3951BA1
:1052A000550BBB27AA2762177307840738F09F5F47
:1052B0005F4F220F331F441FAA1FA9F335D00E2EB4
:1052C0003AF0E0E832D091505040E695001CCAF721
:1052D0002BD0FE2F29D0660F771F881FBB1F2617E4
:1052E00037074807AB07B0E809F0BB0B802DBF01BB
:1052F000FF2793585F4F3AF09E3F510578F00C948A
:10530000122A0C945D2A5F3FE4F3983ED4F386950D
:1053100077956795B795F7959F5FC9F7880F911DAA
:105320009695879597F90895E1E0660F771F881F96
:10533000BB1F621773078407BA0720F0621B730B49
:10534000840BBA0BEE1F88F7E09508950E94422A5D
:1053500088F09F5798F0B92F9927B751B0F0E1F036
:10536000660F771F881F991F1AF0BA95C9F714C0E6
:10537000B13091F00E945C2AB1E008950C945C2A4F
:10538000672F782F8827B85F39F0B93FCCF386951F
:1053900077956795B395D9F73EF49095809570957C
:1053A00061957F4F8F4F9F4F0895E89409C097FBF9
:1053B0003EF490958095709561957F4F8F4F9F4FEC
:1053C0009923A9F0F92F96E9BB279395F695879530
:1053D00077956795B795F111F8CFFAF4BB0F11F4F3
:1053E00060FF1BC06F5F7F4F8F4F9F4F16C088239A
:1053F00011F096E911C0772321F09EE8872F762FD0
:1054000005C0662371F096E8862F70E060E02AF010
:105410009A95660F771F881FDAF7880F96958795FC
:1054200097F9089597F99F6780E870E060E0089524
:105430009FEF80EC089500240A94161617061806AC
:105440000906089500240A94121613061406050688
:105450000895092E0394000C11F4882352F0BB0F19
:1054600040F4BF2B11F460FF04C06F5F7F4F8F4F7C
:105470009F4F089557FD9058440F551F59F05F3FB7
:1054800071F04795880F97FB991F61F09F3F79F066
:1054900087950895121613061406551FF2CF4695E8
:1054A000F1DF08C0161617061806991FF1CF86956A
:1054B0007105610508940895E894BB27662777274E
:1054C000CB0197F908950E94D52A08F48FEF08952B
:1054D0000E947B2A0C94292A0E941B2A38F00E94E1
:1054E000222A20F0952311F00C94122A0C94182AE9
:1054F00011240C945D2A0E943A2A70F3959FC1F3FF
:10550000950F50E0551F629FF001729FBB27F00D71
:10551000B11D639FAA27F00DB11DAA1F649F6627C6
:10552000B00DA11D661F829F2227B00DA11D621F15
:10553000739FB00DA11D621F839FA00D611D221FCF
:10554000749F3327A00D611D231F849F600D211DB3
:10555000822F762F6A2F11249F5750409AF0F1F036
:1055600088234AF0EE0FFF1FBB1F661F771F881F9F
:1055700091505040A9F79E3F510580F00C94122A9B
:105580000C945D2A5F3FE4F3983ED4F386957795BB
:105590006795B795F795E7959F5FC1F7FE2B880F45
:1055A000911D9695879597F90895990F0008550FC5
:1055B000AA0BE0E8FEEF16161706E807F907C0F099
:1055C00012161306E407F50798F0621B730B840BA1
:1055D000950B39F40A2661F0232B242B252B21F47B
:1055E00008950A2609F4A140A6958FEF811D811D1B
:1055F0000895FB01DC0104C08D910190801921F414
:1056000041505040C8F7881B990B0895FB01DC01FD
:1056100002C001900D9241505040D8F70895F8947F
:10562000FFCF9F0EC70E5D10C70E5D10FA0E1B0F49
:105630005D1018102510A620B120B820BD20C22072
:10564000C720CC20D120D620DB20E020E5202C195B
:0E5650002C192C192C192C192C192C192C1969
:10565E001F001E001D001C001B001A001900180060
:10566E001700160015001400130012001100100090
:10567E000F000E000D000C000B000A0009000800C0
:10568E00070006000500040003000200010005FFEC
:10569E00FFFFFFFFFF000100012C01000037020099
:1056AE0000000063140C1100000000000001020055
:1056BE00022C01000036020000000000000E110056
:1056CE000000000000020400032C0100002702006D
:1056DE0000000000000000000000000000030800B1
:1056EE00042C010000210200000000000000000058
:1056FE000000000000041000052C0100001F020035
:10570E000000000000000000000000000005200066
:10571E00062C0100002D000000000095180000006E
:10572E00000000000007000008FA0000002B004BEC
:10573E005D000000000000000000000000080000F6
:10574E0008FA00E2002B020000000000000000003A
:10575E000000000000090000082C010000000000FD
:10576E00005A5DC31420110000000000000A400022
:10577E0000FA000000280000000000CE18C018003B
:10578E0000000000008F1400000000000000000068
:10579E0000000000000000000010078F1400000041
:1057AE000000000000000000000000000000003CAF
:1057BE00018F140000000000000000000000000037
:1057CE0000000000003A018F1400000000000000ED
:1057DE00000000000000000000000038018F1400DF
:1057EE0000000000000000000000000000000000AB
:1057FE000036010000D413F210000000000000007B
:10580E000000000000000034010000D413F210006C
:10581E000000000000000000000000000032010047
:10582E0000D413F210000000000000000000000081
:10583E0000000030010000D413F210000000000040
:10584E000000000000000000002E010000D413F242
:10585E001000000000000000000000000000002CFE
:10586E00010000D413F21000000000000000000040
:10587E0000000000002A010000D413F21000000006
:10588E00000000000000000000000028010000D40D
:10589E0013F21000000000000000000000000000E5
:1058AE000026010000D413F21000000000000000DA
:1058BE000000000000000024010000D413F21000CC
:1058CE0000000000000000000000000000220100A7
:1058DE0000D413F2100000000000000000000000D1
:1058EE0000000020010000D413F2100000000000A0
:1058FE000000000000000000001E010000D413F2A2
:10590E001000000000000000000000000000001C5D
:10591E00010000D413F2100000000000000000008F
:10592E0000000000001A010000D413F21000000065
:10593E00000000000000000000000018010000D46C
:10594E0013F2100000000000000000000000000034
:10595E000016010000D413F2100000000000000039
:10596E000000000000000014010000D413F210002B
:10597E000000000000000000000000000012010006
:10598E0000D413F210000000000000000000000020
:10599E0000000010010000D413F2100000000000FF
:1059AE000000000000000000000E010000D413F201
:1059BE001000000000000000000000000000000CBD
:1059CE00010000D413F210000000000000000000DF
:1059DE0000000000000A010000D413F210000000C5
:1059EE00000000000000000000000008010000D4CC
:1059FE0013F2100000000000000000000000000084
:105A0E000006010000D413F2100000000000000098
:105A1E000000000000000004010000D413F210008A
:105A2E000000000000000000000000000002016AFB
:105A3E001300000000000000000000000000000045
:105A4E000000000001FF031B07000000011F071BE1
:105A5E0007042407011F071A07000000042007FE91
:105A6E00FF181712110A09191613100B081A15141C
:105A7E000F0C07FFFFFF0E0D0633322D2C2524349D
:105A8E00312E2B262335302F2A2722FFFFFF2928E0
:105A9E00215510320D10141026323055345F3F55FB
:105AAE002755155504440244134425503A3C3732C9
:105ABE0023320D3200210321142125102A10181033
:105ACE00070007001800298B10AE0DD014D026AE9B
